{
	"data": {
		"bytecode": {
			"linkReferences": {},
			"object": "60806040526000600460006101000a81548160ff0219169083151502179055506001600e556001600f60006101000a81548161ffff021916908361ffff1602179055503480156200004f57600080fd5b506040518060400160405280600881526020017f486f6f7446756c6c0000000000000000000000000000000000000000000000008152506040518060400160405280600381526020017f48465400000000000000000000000000000000000000000000000000000000008152508181611e6160016000819055506000600160006101000a81548160ff02191690831515021790555062000104620000f86200019f60201b60201c565b620001a760201b60201c565b33600660006101000a81548173ffffffffffffffffffffffffffffffffffffffff021916908373ffffffffffffffffffffffffffffffffffffffff16021790555080600a819055505081601690805190602001906200016592919062000273565b5080601790805190602001906200017e92919062000273565b506200018f6200026a60201b60201c565b6014819055505050505062000388565b600033905090565b600060018054906101000a900473ffffffffffffffffffffffffffffffffffffffff169050816001806101000a81548173ffffffffffffffffffffffffffffffffffffffff021916908373ffffffffffffffffffffffffffffffffffffffff1602179055508173ffffffffffffffffffffffffffffffffffffffff168173ffffffffffffffffffffffffffffffffffffffff167f8be0079c531659141344cd1fd0a4f28419497f9722a3daafe3b4186f6b6457e060405160405180910390a35050565b60006001905090565b828054620002819062000323565b90600052602060002090601f016020900481019282620002a55760008555620002f1565b82601f10620002c057805160ff1916838001178555620002f1565b82800160010185558215620002f1579182015b82811115620002f0578251825591602001919060010190620002d3565b5b50905062000300919062000304565b5090565b5b808211156200031f57600081600090555060010162000305565b5090565b600060028204905060018216806200033c57607f821691505b6020821081141562000353576200035262000359565b5b50919050565b7f4e487b7100000000000000000000000000000000000000000000000000000000600052602260045260246000fd5b6191f180620003986000396000f3fe6080604052600436106104105760003560e01c8063617df38f1161021e578063b650163711610123578063dd5ddfe8116100ab578063ef11e9051161007a578063ef11e90514610f65578063f2fde38b14610f8e578063f37e20ba14610fb7578063f68dc5de14610fe2578063fb3ed5c71461100b57610410565b8063dd5ddfe814610eab578063df13b8a714610ed4578063e697188f14610efd578063e985e9c514610f2857610410565b8063bfd772fc116100f2578063bfd772fc14610dd0578063c3a07df614610e0d578063c87b56dd14610e39578063d0e30db014610e76578063d89135cd14610e8057610410565b8063b650163714610d3c578063b80f55c914610d67578063b88d4fde14610d90578063b9b9731f14610db957610410565b80638462151c116101a65780638b93b0f5116101755780638b93b0f514610c675780638da5cb5b14610c9257806395d89b4114610cbd578063983d273714610ce8578063a22cb46514610d1357610410565b80638462151c14610bad5780638592f0e314610bea5780638746475a14610c135780638afd0da814610c3e57610410565b80636f8b44b0116101ed5780636f8b44b014610adc57806370a0823114610b05578063715018a614610b4257806371936c4114610b5957806383c1cd8a14610b7057610410565b8063617df38f14610a325780636352211e14610a7157806368bd580e14610aae5780636d61358e14610ac557610410565b80632e1dfd101161032457806346979dab116102ac5780634f6ccce71161027b5780634f6ccce71461094d57806351858e271461098a57806355f804b3146109a15780635c975abb146109ca5780635ff2f2e8146109f557610410565b806346979dab146108815780634777a597146108aa5780634c85011a146108e75780634f558e791461091057610410565b80633ccfd60b116102f35780633ccfd60b146107c45780633f4ba83a146107db578063401135e6146107f257806342842e0e1461081b57806345f0a44f1461084457610410565b80632e1dfd10146107065780632ec79ad5146107335780632f745c591461075c57806332cb6b0c1461079957610410565b8063162094c4116103a75780631d63ff2b116103765780631d63ff2b1461063357806323b872dd1461065e578063278ecde11461068757806327ee47c7146106b05780632aabb726146106db57610410565b8063162094c41461058b57806318160ddd146105b45780631b2df850146105df5780631b7f0f9f1461060a57610410565b8063095ea7b3116103e3578063095ea7b3146104e35780630cb61f6c1461050c57806314b99aee1461053757806315b75bea1461056257610410565b806301ffc9a7146104155780630282938e1461045257806306fdde031461047b578063081812fc146104a6575b600080fd5b34801561042157600080fd5b5061043c60048036038101906104379190617302565b611036565b6040516104499190617d19565b60405180910390f35b34801561045e57600080fd5b5061047960048036038101906104749190616f6f565b6110b0565b005b34801561048757600080fd5b50610490611396565b60405161049d9190617d8f565b60405180910390f35b3480156104b257600080fd5b506104cd60048036038101906104c89190617403565b611428565b6040516104da9190617c00565b60405180910390f35b3480156104ef57600080fd5b5061050a60048036038101906105059190617085565b6114a4565b005b34801561051857600080fd5b5061052161164b565b60405161052e9190617c00565b60405180910390f35b34801561054357600080fd5b5061054c611671565b60405161055991906181f1565b60405180910390f35b34801561056e57600080fd5b5061058960048036038101906105849190616ed5565b611685565b005b34801561059757600080fd5b506105b260048036038101906105ad9190617430565b611745565b005b3480156105c057600080fd5b506105c9611988565b6040516105d6919061820c565b60405180910390f35b3480156105eb57600080fd5b506105f46119a0565b60405161060191906182b7565b60405180910390f35b34801561061657600080fd5b50610631600480360381019061062c9190617186565b6119a5565b005b34801561063f57600080fd5b50610648611bf8565b60405161065591906182b7565b60405180910390f35b34801561066a57600080fd5b5061068560048036038101906106809190616f6f565b611bfd565b005b34801561069357600080fd5b506106ae60048036038101906106a99190617403565b611c0d565b005b3480156106bc57600080fd5b506106c561209e565b6040516106d29190617d19565b60405180910390f35b3480156106e757600080fd5b506106f06120b5565b6040516106fd91906182b7565b60405180910390f35b34801561071257600080fd5b5061071b6120ba565b60405161072a93929190618280565b60405180910390f35b34801561073f57600080fd5b5061075a600480360381019061075591906173d6565b6120d2565b005b34801561076857600080fd5b50610783600480360381019061077e9190617085565b6124ef565b604051610790919061820c565b60405180910390f35b3480156107a557600080fd5b506107ae6125b8565b6040516107bb919061820c565b60405180910390f35b3480156107d057600080fd5b506107d96125be565b005b3480156107e757600080fd5b506107f061273b565b005b3480156107fe57600080fd5b50610819600480360381019061081491906171d3565b6128a7565b005b34801561082757600080fd5b50610842600480360381019061083d9190616f6f565b612a5c565b005b34801561085057600080fd5b5061086b60048036038101906108669190617403565b612a7c565b60405161087891906181f1565b60405180910390f35b34801561088d57600080fd5b506108a860048036038101906108a391906172d5565b612ab4565b005b3480156108b657600080fd5b506108d160048036038101906108cc9190617403565b612bff565b6040516108de9190617c00565b60405180910390f35b3480156108f357600080fd5b5061090e60048036038101906109099190617105565b612c11565b005b34801561091c57600080fd5b5061093760048036038101906109329190617403565b612f1f565b6040516109449190617d19565b60405180910390f35b34801561095957600080fd5b50610974600480360381019061096f9190617403565b612f60565b604051610981919061820c565b60405180910390f35b34801561099657600080fd5b5061099f612f7c565b005b3480156109ad57600080fd5b506109c860048036038101906109c3919061735c565b6130e8565b005b3480156109d657600080fd5b506109df6131b3565b6040516109ec9190617d19565b60405180910390f35b348015610a0157600080fd5b50610a1c6004803603810190610a179190617186565b6131ca565b604051610a299190617c9e565b60405180910390f35b348015610a3e57600080fd5b50610a596004803603810190610a549190617403565b6132b7565b604051610a6893929190617d34565b60405180910390f35b348015610a7d57600080fd5b50610a986004803603810190610a939190617403565b61339c565b604051610aa59190617c00565b60405180910390f35b348015610aba57600080fd5b50610ac36133ae565b005b348015610ad157600080fd5b50610ada613473565b005b348015610ae857600080fd5b50610b036004803603810190610afe9190617403565b6135eb565b005b348015610b1157600080fd5b50610b2c6004803603810190610b279190616ed5565b6136c7565b604051610b39919061820c565b60405180910390f35b348015610b4e57600080fd5b50610b57613780565b005b348015610b6557600080fd5b50610b6e613808565b005b348015610b7c57600080fd5b50610b976004803603810190610b929190616ed5565b613b17565b604051610ba491906182b7565b60405180910390f35b348015610bb957600080fd5b50610bd46004803603810190610bcf9190616ed5565b613b6d565b604051610be19190617cf7565b60405180910390f35b348015610bf657600080fd5b50610c116004803603810190610c0c91906172d5565b613cdd565b005b348015610c1f57600080fd5b50610c28613e28565b604051610c359190617d19565b60405180910390f35b348015610c4a57600080fd5b50610c656004803603810190610c609190617186565b613e47565b005b348015610c7357600080fd5b50610c7c61406e565b604051610c89919061820c565b60405180910390f35b348015610c9e57600080fd5b50610ca7614074565b604051610cb49190617c00565b60405180910390f35b348015610cc957600080fd5b50610cd261409c565b604051610cdf9190617d8f565b60405180910390f35b348015610cf457600080fd5b50610cfd61412e565b604051610d0a91906182b7565b60405180910390f35b348015610d1f57600080fd5b50610d3a6004803603810190610d359190617045565b614133565b005b348015610d4857600080fd5b50610d516142ab565b604051610d5e9190617d19565b60405180910390f35b348015610d7357600080fd5b50610d8e6004803603810190610d899190617186565b6142be565b005b348015610d9c57600080fd5b50610db76004803603810190610db29190616fc2565b61445b565b005b348015610dc557600080fd5b50610dce6144ce565b005b348015610ddc57600080fd5b50610df76004803603810190610df29190617403565b6146e7565b604051610e049190617c00565b60405180910390f35b348015610e1957600080fd5b50610e22614726565b604051610e30929190617cc0565b60405180910390f35b348015610e4557600080fd5b50610e606004803603810190610e5b9190617403565b6149c5565b604051610e6d9190617d8f565b60405180910390f35b610e7e6149d7565b005b348015610e8c57600080fd5b50610e95614b7b565b604051610ea2919061820c565b60405180910390f35b348015610eb757600080fd5b50610ed26004803603810190610ecd91906170c5565b614b8a565b005b348015610ee057600080fd5b50610efb6004803603810190610ef69190617254565b614d14565b005b348015610f0957600080fd5b50610f12614eb4565b604051610f1f9190617d19565b60405180910390f35b348015610f3457600080fd5b50610f4f6004803603810190610f4a9190616f2f565b614ecb565b604051610f5c9190617d19565b60405180910390f35b348015610f7157600080fd5b50610f8c6004803603810190610f8791906173a9565b614f5f565b005b348015610f9a57600080fd5b50610fb56004803603810190610fb09190616ed5565b614ff0565b005b348015610fc357600080fd5b50610fcc6150e8565b604051610fd9919061820c565b60405180910390f35b348015610fee57600080fd5b5061100960048036038101906110049190617186565b6150f3565b005b34801561101757600080fd5b50611020615394565b60405161102d919061820c565b60405180910390f35b60007f780e9d63000000000000000000000000000000000000000000000000000000007bffffffffffffffffffffffffffffffffffffffffffffffffffffffff1916827bffffffffffffffffffffffffffffffffffffffffffffffffffffffff191614806110a957506110a88261539a565b5b9050919050565b600260005414156110f6576040517f08c379a00000000000000000000000000000000000000000000000000000000081526004016110ed90618191565b60405180910390fd5b600260008190555061110661542c565b73ffffffffffffffffffffffffffffffffffffffff163073ffffffffffffffffffffffffffffffffffffffff16636352211e836040518263ffffffff1660e01b8152600401611155919061820c565b60206040518083038186803b15801561116d57600080fd5b505afa158015611181573d6000803e3d6000fd5b505050506040513d601f19601f820116820180604052508101906111a59190616f02565b73ffffffffffffffffffffffffffffffffffffffff16146111fb576040517f08c379a00000000000000000000000000000000000000000000000000000000081526004016111f290617fd1565b60405180910390fd5b611203614eb4565b611242576040517f08c379a0000000000000000000000000000000000000000000000000000000008152600401611239906181b1565b60405180910390fd5b60016005600083815260200190815260200160002060030160006101000a81548160ff0219169083151502179055503073ffffffffffffffffffffffffffffffffffffffff166342842e0e8484846040518463ffffffff1660e01b81526004016112ae93929190617c1b565b600060405180830381600087803b1580156112c857600080fd5b505af11580156112dc573d6000803e3d6000fd5b5050505060006005600083815260200190815260200160002060030160006101000a81548160ff021916908315150217905550600060056000838152602001908152602001600020600001541461138957808273ffffffffffffffffffffffffffffffffffffffff168473ffffffffffffffffffffffffffffffffffffffff167ff315af4c34ce2407cc1da2405672c4c7387fd44d616401235c21ef22b9bbd13860405160405180910390a45b6001600081905550505050565b6060601680546113a5906186af565b80601f01602080910402602001604051908101604052809291908181526020018280546113d1906186af565b801561141e5780601f106113f35761010080835404028352916020019161141e565b820191906000526020600020905b81548152906001019060200180831161140157829003601f168201915b5050505050905090565b600061143382615434565b611469576040517fcf4700e400000000000000000000000000000000000000000000000000000000815260040160405180910390fd5b601a600083815260200190815260200160002060009054906101000a900473ffffffffffffffffffffffffffffffffffffffff169050919050565b60006114af82615493565b90508073ffffffffffffffffffffffffffffffffffffffff168373ffffffffffffffffffffffffffffffffffffffff161415611517576040517f943f7b8c00000000000000000000000000000000000000000000000000000000815260040160405180910390fd5b8073ffffffffffffffffffffffffffffffffffffffff166115366154e5565b73ffffffffffffffffffffffffffffffffffffffff1614611599576115628161155d6154e5565b614ecb565b611598576040517fcfb3b94200000000000000000000000000000000000000000000000000000000815260040160405180910390fd5b5b82601a600084815260200190815260200160002060006101000a81548173ffffffffffffffffffffffffffffffffffffffff021916908373ffffffffffffffffffffffffffffffffffffffff160217905550818373ffffffffffffffffffffffffffffffffffffffff168273ffffffffffffffffffffffffffffffffffffffff167f8c5be1e5ebec7d5bd14f71427d1e84f3dd0314c0f7b2291e5b200ac8c7c3b92560405160405180910390a4505050565b600660009054906101000a900473ffffffffffffffffffffffffffffffffffffffff1681565b600f60009054906101000a900461ffff1681565b61168d61542c565b73ffffffffffffffffffffffffffffffffffffffff166116ab614074565b73ffffffffffffffffffffffffffffffffffffffff1614611701576040517f08c379a00000000000000000000000000000000000000000000000000000000081526004016116f890618071565b60405180910390fd5b80600660006101000a81548173ffffffffffffffffffffffffffffffffffffffff021916908373ffffffffffffffffffffffffffffffffffffffff16021790555050565b60006002600061175361542c565b73ffffffffffffffffffffffffffffffffffffffff1673ffffffffffffffffffffffffffffffffffffffff16815260200190815260200160002060009054906101000a900460ff1690506117a561542c565b73ffffffffffffffffffffffffffffffffffffffff166117c3614074565b73ffffffffffffffffffffffffffffffffffffffff1614806117eb5750600160ff168160ff16145b61182a576040517f08c379a000000000000000000000000000000000000000000000000000000000815260040161182190618031565b60405180910390fd5b600073ffffffffffffffffffffffffffffffffffffffff163073ffffffffffffffffffffffffffffffffffffffff16636352211e856040518263ffffffff1660e01b815260040161187b919061820c565b60206040518083038186803b15801561189357600080fd5b505afa1580156118a7573d6000803e3d6000fd5b505050506040513d601f19601f820116820180604052508101906118cb9190616f02565b73ffffffffffffffffffffffffffffffffffffffff161415611922576040517f08c379a000000000000000000000000000000000000000000000000000000000815260040161191990617f11565b60405180910390fd5b81601160008581526020019081526020016000209080519060200190611949929190616a0e565b507f483621391b5e72d74eb03c7b5715531c486e326fb115ab3bcf34b133041854ce838360405161197b929190618227565b60405180910390a1505050565b60006119926154ed565b61199a6154f7565b03905090565b600181565b600260005414156119eb576040517f08c379a00000000000000000000000000000000000000000000000000000000081526004016119e290618191565b60405180910390fd5b60026000819055506119fb61209e565b611a3a576040517f08c379a0000000000000000000000000000000000000000000000000000000008152600401611a3190617eb1565b60405180910390fd5b60005b82829050811015611beb576000838383818110611a5d57611a5c618844565b5b905060200201359050611a6e61542c565b73ffffffffffffffffffffffffffffffffffffffff163073ffffffffffffffffffffffffffffffffffffffff16636352211e836040518263ffffffff1660e01b8152600401611abd919061820c565b60206040518083038186803b158015611ad557600080fd5b505afa158015611ae9573d6000803e3d6000fd5b505050506040513d601f19601f82011682018060405250810190611b0d9190616f02565b73ffffffffffffffffffffffffffffffffffffffff1614611b63576040517f08c379a0000000000000000000000000000000000000000000000000000000008152600401611b5a90617fd1565b60405180910390fd5b6000600560008381526020019081526020016000209050600081600001541415611bdc57428160000181905550611b9861542c565b73ffffffffffffffffffffffffffffffffffffffff16827f53bb0493ecc6832a33ce35faa61a3bb625f2fa9bb9791311e77e7814871d96a960405160405180910390a35b50508080600101915050611a3d565b5060016000819055505050565b600081565b611c0883838361550a565b505050565b611c1561542c565b73ffffffffffffffffffffffffffffffffffffffff163273ffffffffffffffffffffffffffffffffffffffff1614611c82576040517f08c379a0000000000000000000000000000000000000000000000000000000008152600401611c7990618011565b60405180910390fd5b60026000541415611cc8576040517f08c379a0000000000000000000000000000000000000000000000000000000008152600401611cbf90618191565b60405180910390fd5b60026000819055503073ffffffffffffffffffffffffffffffffffffffff16636352211e826040518263ffffffff1660e01b8152600401611d09919061820c565b60206040518083038186803b158015611d2157600080fd5b505afa158015611d35573d6000803e3d6000fd5b505050506040513d601f19601f82011682018060405250810190611d599190616f02565b73ffffffffffffffffffffffffffffffffffffffff163373ffffffffffffffffffffffffffffffffffffffff1614611dc6576040517f08c379a0000000000000000000000000000000000000000000000000000000008152600401611dbd906181d1565b60405180910390fd5b600660009054906101000a900473ffffffffffffffffffffffffffffffffffffffff1673ffffffffffffffffffffffffffffffffffffffff163373ffffffffffffffffffffffffffffffffffffffff161415611e57576040517f08c379a0000000000000000000000000000000000000000000000000000000008152600401611e4e90618131565b60405180910390fd5b611e5f613e28565b611e9e576040517f08c379a0000000000000000000000000000000000000000000000000000000008152600401611e9590617f91565b60405180910390fd5b6000611ea9826158b4565b905060008111611eee576040517f08c379a0000000000000000000000000000000000000000000000000000000008152600401611ee590617ed1565b60405180910390fd5b80471015611f31576040517f08c379a0000000000000000000000000000000000000000000000000000000008152600401611f28906180d1565b60405180910390fd5b3073ffffffffffffffffffffffffffffffffffffffff166323b872dd33600660009054906101000a900473ffffffffffffffffffffffffffffffffffffffff16856040518463ffffffff1660e01b8152600401611f9093929190617c1b565b600060405180830381600087803b158015611faa57600080fd5b505af1158015611fbe573d6000803e3d6000fd5b505050503373ffffffffffffffffffffffffffffffffffffffff166108fc829081150290604051600060405180830381858888f19350505050158015612008573d6000803e3d6000fd5b50600660009054906101000a900473ffffffffffffffffffffffffffffffffffffffff1673ffffffffffffffffffffffffffffffffffffffff163373ffffffffffffffffffffffffffffffffffffffff167f88808afc48888c0e3ec9c545474e31ce16f177be8d0c8ba3922274893615750e848460405161208a929190618257565b60405180910390a350600160008190555050565b6000600460019054906101000a900460ff16905090565b600281565b60078060000154908060010154908060020154905083565b6000600260006120e061542c565b73ffffffffffffffffffffffffffffffffffffffff1673ffffffffffffffffffffffffffffffffffffffff16815260200190815260200160002060009054906101000a900460ff16905061213261542c565b73ffffffffffffffffffffffffffffffffffffffff16612150614074565b73ffffffffffffffffffffffffffffffffffffffff1614806121785750600160ff168160ff16145b6121b7576040517f08c379a00000000000000000000000000000000000000000000000000000000081526004016121ae90618031565b60405180910390fd5b600260005414156121fd576040517f08c379a00000000000000000000000000000000000000000000000000000000081526004016121f490618191565b60405180910390fd5b600260008190555061220d6158c3565b61224c576040517f08c379a000000000000000000000000000000000000000000000000000000000815260040161224390617f51565b60405180910390fd5b60008261ffff1611612293576040517f08c379a000000000000000000000000000000000000000000000000000000000815260040161228a90617dd1565b60405180910390fd5b600b54600a546122a39190618531565b8261ffff1611156122e9576040517f08c379a00000000000000000000000000000000000000000000000000000000081526004016122e090618091565b60405180910390fd5b6000600e541161232e576040517f08c379a000000000000000000000000000000000000000000000000000000000815260040161232590618171565b60405180910390fd5b600261ffff16600f60009054906101000a900461ffff1661ffff16141561236e576003600f60006101000a81548161ffff021916908361ffff1602179055505b6000600e5490506000600182039050600084905060005b600d838154811061239957612398618844565b5b90600052602060002090601091828204019190066002029054906101000a900461ffff1690508161ffff168161ffff1611156123d7578190506123df565b836001900393505b60008161ffff16111561243a57612434600c848154811061240357612402618844565b5b9060005260206000200160009054906101000a900473ffffffffffffffffffffffffffffffffffffffff1682615909565b80820391505b80600d848154811061244f5761244e618844565b5b90600052602060002090601091828204019190066002028282829054906101000a900461ffff160392506101000a81548161ffff021916908361ffff16021790555060008261ffff161180156124a55750600083115b156124b657826001900392506124bb565b6124c2565b6001612385575b83600e8190555081860361ffff16600b600082825401925050819055505050505060016000819055505050565b6000806124fa6154f7565b61250261591b565b61250c91906184aa565b905060008061251961591b565b90505b828110156125aa5761252d81615434565b158061256d57508573ffffffffffffffffffffffffffffffffffffffff166125548261339c565b73ffffffffffffffffffffffffffffffffffffffff1614155b1561257757612597565b8482141561258a578093505050506125b2565b816125949061873d565b91505b80806125a29061873d565b91505061251c565b506000925050505b92915050565b611e6181565b6125c661542c565b73ffffffffffffffffffffffffffffffffffffffff166125e4614074565b73ffffffffffffffffffffffffffffffffffffffff161461263a576040517f08c379a000000000000000000000000000000000000000000000000000000000815260040161263190618071565b60405180910390fd5b60026000541415612680576040517f08c379a000000000000000000000000000000000000000000000000000000000815260040161267790618191565b60405180910390fd5b6002600081905550600047905061269561542c565b73ffffffffffffffffffffffffffffffffffffffff166108fc829081150290604051600060405180830381858888f193505050501580156126da573d6000803e3d6000fd5b506126e361542c565b73ffffffffffffffffffffffffffffffffffffffff167f884edad9ce6fa2440d8a54cc123490eb96d2768479d49ff9c7366125a942436482604051612728919061820c565b60405180910390a2506001600081905550565b60006002600061274961542c565b73ffffffffffffffffffffffffffffffffffffffff1673ffffffffffffffffffffffffffffffffffffffff16815260200190815260200160002060009054906101000a900460ff16905061279b61542c565b73ffffffffffffffffffffffffffffffffffffffff166127b9614074565b73ffffffffffffffffffffffffffffffffffffffff1614806127e15750600160ff168160ff16145b612820576040517f08c379a000000000000000000000000000000000000000000000000000000000815260040161281790618031565b60405180910390fd5b600460009054906101000a900460ff1615612870576040517f08c379a000000000000000000000000000000000000000000000000000000000815260040161286790617e51565b60405180910390fd5b612878615924565b7f092af66b0bd1c72d72f759dca6111b54869afce41de52c8b070daca48832ff3260405160405180910390a150565b6000600260006128b561542c565b73ffffffffffffffffffffffffffffffffffffffff1673ffffffffffffffffffffffffffffffffffffffff16815260200190815260200160002060009054906101000a900460ff16905061290761542c565b73ffffffffffffffffffffffffffffffffffffffff16612925614074565b73ffffffffffffffffffffffffffffffffffffffff16148061294d5750600160ff168160ff16145b61298c576040517f08c379a000000000000000000000000000000000000000000000000000000000815260040161298390618031565b60405180910390fd5b8282905085859050146129d4576040517f08c379a00000000000000000000000000000000000000000000000000000000081526004016129cb90617e71565b60405180910390fd5b60005b85859050811015612a54578383828181106129f5576129f4618844565b5b9050602002810190612a0791906182d2565b60126000898986818110612a1e57612a1d618844565b5b9050602002013581526020019081526020016000209190612a40929190616a94565b508080612a4c9061873d565b9150506129d7565b505050505050565b612a778383836040518060200160405280600081525061445b565b505050565b600d8181548110612a8c57600080fd5b9060005260206000209060109182820401919006600202915054906101000a900461ffff1681565b600060026000612ac261542c565b73ffffffffffffffffffffffffffffffffffffffff1673ffffffffffffffffffffffffffffffffffffffff16815260200190815260200160002060009054906101000a900460ff169050612b1461542c565b73ffffffffffffffffffffffffffffffffffffffff16612b32614074565b73ffffffffffffffffffffffffffffffffffffffff161480612b5a5750600260ff168160ff16145b80612b6b5750600160ff168160ff16145b612baa576040517f08c379a0000000000000000000000000000000000000000000000000000000008152600401612ba190618031565b60405180910390fd5b81600460026101000a81548160ff0219169083151502179055507f23e3eff842293802daa296534eef0153ad726d04ccb3489af4d90634e219e32682604051612bf39190617d19565b60405180910390a15050565b6000612c0a826159c6565b9050919050565b600060026000612c1f61542c565b73ffffffffffffffffffffffffffffffffffffffff1673ffffffffffffffffffffffffffffffffffffffff16815260200190815260200160002060009054906101000a900460ff169050612c7161542c565b73ffffffffffffffffffffffffffffffffffffffff16612c8f614074565b73ffffffffffffffffffffffffffffffffffffffff161480612cb75750600160ff168160ff16145b612cf6576040517f08c379a0000000000000000000000000000000000000000000000000000000008152600401612ced90618031565b60405180910390fd5b60026000541415612d3c576040517f08c379a0000000000000000000000000000000000000000000000000000000008152600401612d3390618191565b60405180910390fd5b6002600081905550828290508585905014612d8c576040517f08c379a0000000000000000000000000000000000000000000000000000000008152600401612d8390618151565b60405180910390fd5b600161ffff16600f60009054906101000a900461ffff1661ffff1614612de7576040517f08c379a0000000000000000000000000000000000000000000000000000000008152600401612dde90617ef1565b60405180910390fd5b60005b858590508161ffff161015612f0f57600c86868361ffff16818110612e1257612e11618844565b5b9050602002016020810190612e279190616ed5565b9080600181540180825580915050600190039060005260206000200160009091909190916101000a81548173ffffffffffffffffffffffffffffffffffffffff021916908373ffffffffffffffffffffffffffffffffffffffff160217905550600d84848361ffff16818110612ea057612e9f618844565b5b9050602002016020810190612eb591906173d6565b90806001815401808255809150506001900390600052602060002090601091828204019190066002029091909190916101000a81548161ffff021916908361ffff1602179055508080612f0790618712565b915050612dea565b5060016000819055505050505050565b60008073ffffffffffffffffffffffffffffffffffffffff16612f4183615a68565b73ffffffffffffffffffffffffffffffffffffffff1614159050919050565b600081612f6b61591b565b612f7591906184aa565b9050919050565b600060026000612f8a61542c565b73ffffffffffffffffffffffffffffffffffffffff1673ffffffffffffffffffffffffffffffffffffffff16815260200190815260200160002060009054906101000a900460ff169050612fdc61542c565b73ffffffffffffffffffffffffffffffffffffffff16612ffa614074565b73ffffffffffffffffffffffffffffffffffffffff1614806130225750600160ff168160ff16145b613061576040517f08c379a000000000000000000000000000000000000000000000000000000000815260040161305890618031565b60405180910390fd5b600460009054906101000a900460ff16156130b1576040517f08c379a00000000000000000000000000000000000000000000000000000000081526004016130a890617e51565b60405180910390fd5b6130b9615a7a565b7f76ba3851df4b69972443b0c99bcba0f237d990fbc8cd7ab5c86537c15da180ca60405160405180910390a150565b6130f061542c565b73ffffffffffffffffffffffffffffffffffffffff1661310e614074565b73ffffffffffffffffffffffffffffffffffffffff1614613164576040517f08c379a000000000000000000000000000000000000000000000000000000000815260040161315b90618071565b60405180910390fd5b818160109190613175929190616a94565b507f5411e8ebf1636d9e83d5fc4900bf80cbac82e8790da2a4c94db4895e889eedf682826040516131a7929190617d6b565b60405180910390a15050565b6000600160009054906101000a900460ff16905090565b606060008383905067ffffffffffffffff8111156131eb576131ea618873565b5b6040519080825280602002602001820160405280156132195781602001602082028036833780820191505090505b50905060005b848490508110156132ac5761324c8585838181106132405761323f618844565b5b90506020020135615a68565b82828151811061325f5761325e618844565b5b602002602001019073ffffffffffffffffffffffffffffffffffffffff16908173ffffffffffffffffffffffffffffffffffffffff168152505080806132a49061873d565b91505061321f565b508091505092915050565b60008060006132c584615b1c565b613304576040517f08c379a00000000000000000000000000000000000000000000000000000000081526004016132fb90617f31565b60405180910390fd5b6000600560008681526020019081526020016000206040518060800160405290816000820154815260200160018201548152602001600282015481526020016003820160009054906101000a900460ff16151515158152505090506000816000015114613382576001935080600001514261337f9190618531565b92505b82816020015161339291906184aa565b9150509193909250565b60006133a782615493565b9050919050565b6133b661542c565b73ffffffffffffffffffffffffffffffffffffffff166133d4614074565b73ffffffffffffffffffffffffffffffffffffffff161461342a576040517f08c379a000000000000000000000000000000000000000000000000000000000815260040161342190618071565b60405180910390fd5b6001600460006101000a81548160ff0219169083151502179055507fa0058887862c892ade184993a48c672897bca2e36ebf7fa2b4703d4805fc3a0160405160405180910390a1565b60006002600061348161542c565b73ffffffffffffffffffffffffffffffffffffffff1673ffffffffffffffffffffffffffffffffffffffff16815260200190815260200160002060009054906101000a900460ff1690506134d361542c565b73ffffffffffffffffffffffffffffffffffffffff166134f1614074565b73ffffffffffffffffffffffffffffffffffffffff1614806135195750600160ff168160ff16145b613558576040517f08c379a000000000000000000000000000000000000000000000000000000000815260040161354f90618031565b60405180910390fd5b6002600054141561359e576040517f08c379a000000000000000000000000000000000000000000000000000000000815260040161359590618191565b60405180910390fd5b6002600081905550600c60006135b49190616b1a565b600d60006135c29190616b3b565b6001600f60006101000a81548161ffff021916908361ffff160217905550600160008190555050565b6135f361542c565b73ffffffffffffffffffffffffffffffffffffffff16613611614074565b73ffffffffffffffffffffffffffffffffffffffff1614613667576040517f08c379a000000000000000000000000000000000000000000000000000000000815260040161365e90618071565b60405180910390fd5b600260005414156136ad576040517f08c379a00000000000000000000000000000000000000000000000000000000081526004016136a490618191565b60405180910390fd5b600260008190555080600a81905550600160008190555050565b60008073ffffffffffffffffffffffffffffffffffffffff168273ffffffffffffffffffffffffffffffffffffffff16141561372f576040517f8f4eb60400000000000000000000000000000000000000000000000000000000815260040160405180910390fd5b67ffffffffffffffff601960008473ffffffffffffffffffffffffffffffffffffffff1673ffffffffffffffffffffffffffffffffffffffff16815260200190815260200160002054169050919050565b61378861542c565b73ffffffffffffffffffffffffffffffffffffffff166137a6614074565b73ffffffffffffffffffffffffffffffffffffffff16146137fc576040517f08c379a00000000000000000000000000000000000000000000000000000000081526004016137f390618071565b60405180910390fd5b6138066000615bdd565b565b60006002600061381661542c565b73ffffffffffffffffffffffffffffffffffffffff1673ffffffffffffffffffffffffffffffffffffffff16815260200190815260200160002060009054906101000a900460ff16905061386861542c565b73ffffffffffffffffffffffffffffffffffffffff16613886614074565b73ffffffffffffffffffffffffffffffffffffffff1614806138ae5750600160ff168160ff16145b6138ed576040517f08c379a00000000000000000000000000000000000000000000000000000000081526004016138e490618031565b60405180910390fd5b60026000541415613933576040517f08c379a000000000000000000000000000000000000000000000000000000000815260040161392a90618191565b60405180910390fd5b6002600081905550600161ffff16600f60009054906101000a900461ffff1661ffff1614613996576040517f08c379a000000000000000000000000000000000000000000000000000000000815260040161398d90617e91565b60405180910390fd5b600d80549050600c80549050146139e2576040517f08c379a00000000000000000000000000000000000000000000000000000000081526004016139d990618151565b60405180910390fd5b6000600a5411613a27576040517f08c379a0000000000000000000000000000000000000000000000000000000008152600401613a1e90617db1565b60405180910390fd5b6000805b600d805490508161ffff161015613a9c57600d8161ffff1681548110613a5457613a53618844565b5b90600052602060002090601091828204019190066002029054906101000a900461ffff1661ffff1682613a8791906184aa565b91508080613a9490618712565b915050613a2b565b50600a548114613ae1576040517f08c379a0000000000000000000000000000000000000000000000000000000008152600401613ad890617f71565b60405180910390fd5b6002600f60006101000a81548161ffff021916908361ffff160217905550600c80549050600e8190555050600160008190555050565b6000600260008373ffffffffffffffffffffffffffffffffffffffff1673ffffffffffffffffffffffffffffffffffffffff16815260200190815260200160002060009054906101000a900460ff169050919050565b60606000613b7a836136c7565b90506000811415613bd757600067ffffffffffffffff811115613ba057613b9f618873565b5b604051908082528060200260200182016040528015613bce5781602001602082028036833780820191505090505b50915050613cd8565b60008167ffffffffffffffff811115613bf357613bf2618873565b5b604051908082528060200260200182016040528015613c215781602001602082028036833780820191505090505b509050600080613c2f6154f7565b613c3761591b565b0190506000613c4461591b565b90505b8181108015613c565750848314155b15613ccf578673ffffffffffffffffffffffffffffffffffffffff16613c7b82615a68565b73ffffffffffffffffffffffffffffffffffffffff1614613c9b57613cc2565b80848480600101955081518110613cb557613cb4618844565b5b6020026020010181815250505b8080600101915050613c47565b50508193505050505b919050565b600060026000613ceb61542c565b73ffffffffffffffffffffffffffffffffffffffff1673ffffffffffffffffffffffffffffffffffffffff16815260200190815260200160002060009054906101000a900460ff169050613d3d61542c565b73ffffffffffffffffffffffffffffffffffffffff16613d5b614074565b73ffffffffffffffffffffffffffffffffffffffff161480613d835750600260ff168160ff16145b80613d945750600160ff168160ff16145b613dd3576040517f08c379a0000000000000000000000000000000000000000000000000000000008152600401613dca90618031565b60405180910390fd5b81600460016101000a81548160ff0219169083151502179055507fba86bb4b0c05de8c9054f4285de030f184267f030d37d23fadf62214a2cda34582604051613e1c9190617d19565b60405180910390a15050565b600060076000015442118015613e42575060076001015442105b905090565b60026000541415613e8d576040517f08c379a0000000000000000000000000000000000000000000000000000000008152600401613e8490618191565b60405180910390fd5b600260008190555060005b82829050811015614061576000838383818110613eb857613eb7618844565b5b905060200201359050613ec961542c565b73ffffffffffffffffffffffffffffffffffffffff163073ffffffffffffffffffffffffffffffffffffffff16636352211e836040518263ffffffff1660e01b8152600401613f18919061820c565b60206040518083038186803b158015613f3057600080fd5b505afa158015613f44573d6000803e3d6000fd5b505050506040513d601f19601f82011682018060405250810190613f689190616f02565b73ffffffffffffffffffffffffffffffffffffffff1614613fbe576040517f08c379a0000000000000000000000000000000000000000000000000000000008152600401613fb590617fd1565b60405180910390fd5b600060056000838152602001908152602001600020905060008160000154905060008111156140515780420382600101600082825401925050819055506000826000018190555061400d61542c565b73ffffffffffffffffffffffffffffffffffffffff16837f21880da8181781694fcae99f8578b33442e9b025e71e74077c42a031fe632e6d60405160405180910390a35b5050508080600101915050613e98565b5060016000819055505050565b600a5481565b600060018054906101000a900473ffffffffffffffffffffffffffffffffffffffff16905090565b6060601780546140ab906186af565b80601f01602080910402602001604051908101604052809291908181526020018280546140d7906186af565b80156141245780601f106140f957610100808354040283529160200191614124565b820191906000526020600020905b81548152906001019060200180831161410757829003601f168201915b5050505050905090565b600381565b61413b6154e5565b73ffffffffffffffffffffffffffffffffffffffff168273ffffffffffffffffffffffffffffffffffffffff1614156141a0576040517fb06307db00000000000000000000000000000000000000000000000000000000815260040160405180910390fd5b80601b60006141ad6154e5565b73ffffffffffffffffffffffffffffffffffffffff1673ffffffffffffffffffffffffffffffffffffffff16815260200190815260200160002060008473ffffffffffffffffffffffffffffffffffffffff1673ffffffffffffffffffffffffffffffffffffffff16815260200190815260200160002060006101000a81548160ff0219169083151502179055508173ffffffffffffffffffffffffffffffffffffffff1661425a6154e5565b73ffffffffffffffffffffffffffffffffffffffff167f17307eab39ab6107e8899845ad3d59bd9653f200f220920489ca2b5937696c318360405161429f9190617d19565b60405180910390a35050565b600460009054906101000a900460ff1681565b6142c661542c565b73ffffffffffffffffffffffffffffffffffffffff166142e4614074565b73ffffffffffffffffffffffffffffffffffffffff161461433a576040517f08c379a000000000000000000000000000000000000000000000000000000000815260040161433190618071565b60405180910390fd5b60026000541415614380576040517f08c379a000000000000000000000000000000000000000000000000000000000815260040161437790618191565b60405180910390fd5b600260008190555060005b8282905081101561444e5760008383838181106143ab576143aa618844565b5b9050602002013590506143bc61542c565b73ffffffffffffffffffffffffffffffffffffffff166143db8261339c565b73ffffffffffffffffffffffffffffffffffffffff1614614431576040517f08c379a000000000000000000000000000000000000000000000000000000000815260040161442890617fd1565b60405180910390fd5b61443a81615ca0565b5080806144469061873d565b91505061438b565b5060016000819055505050565b61446684848461550a565b60008373ffffffffffffffffffffffffffffffffffffffff163b146144c85761449184848484615cae565b6144c7576040517fd1a57ed600000000000000000000000000000000000000000000000000000000815260040160405180910390fd5b5b50505050565b6000600260006144dc61542c565b73ffffffffffffffffffffffffffffffffffffffff1673ffffffffffffffffffffffffffffffffffffffff16815260200190815260200160002060009054906101000a900460ff16905061452e61542c565b73ffffffffffffffffffffffffffffffffffffffff1661454c614074565b73ffffffffffffffffffffffffffffffffffffffff1614806145745750600160ff168160ff16145b6145b3576040517f08c379a00000000000000000000000000000000000000000000000000000000081526004016145aa90618031565b60405180910390fd5b600260005414156145f9576040517f08c379a00000000000000000000000000000000000000000000000000000000081526004016145f090618191565b60405180910390fd5b6002600081905550600361ffff16600f60009054906101000a900461ffff1661ffff161461465c576040517f08c379a0000000000000000000000000000000000000000000000000000000008152600401614653906180b1565b60405180910390fd5b600a54600b54146146a2576040517f08c379a000000000000000000000000000000000000000000000000000000000815260040161469990618111565b60405180910390fd5b6004600f60006101000a81548161ffff021916908361ffff160217905550600c60006146ce9190616b1a565b600d60006146dc9190616b3b565b600160008190555050565b600c81815481106146f757600080fd5b906000526020600020016000915054906101000a900473ffffffffffffffffffffffffffffffffffffffff1681565b60608060006002600061473761542c565b73ffffffffffffffffffffffffffffffffffffffff1673ffffffffffffffffffffffffffffffffffffffff16815260200190815260200160002060009054906101000a900460ff16905061478961542c565b73ffffffffffffffffffffffffffffffffffffffff166147a7614074565b73ffffffffffffffffffffffffffffffffffffffff1614806147cf5750600160ff168160ff16145b61480e576040517f08c379a000000000000000000000000000000000000000000000000000000000815260040161480590618031565b60405180910390fd5b600060038054905067ffffffffffffffff81111561482f5761482e618873565b5b60405190808252806020026020018201604052801561485d5781602001602082028036833780820191505090505b50905060005b60038054905081101561492f57600260006003838154811061488857614887618844565b5b9060005260206000200160009054906101000a900473ffffffffffffffffffffffffffffffffffffffff1673ffffffffffffffffffffffffffffffffffffffff1673ffffffffffffffffffffffffffffffffffffffff16815260200190815260200160002060009054906101000a900460ff1682828151811061490e5761490d618844565b5b602002602001019060ff16908160ff16815250508080600101915050614863565b50600381818054806020026020016040519081016040528092919081815260200182805480156149b457602002820191906000526020600020905b8160009054906101000a900473ffffffffffffffffffffffffffffffffffffffff1673ffffffffffffffffffffffffffffffffffffffff168152602001906001019080831161496a575b505050505091509350935050509091565b60606149d082615e0e565b9050919050565b6000600260006149e561542c565b73ffffffffffffffffffffffffffffffffffffffff1673ffffffffffffffffffffffffffffffffffffffff16815260200190815260200160002060009054906101000a900460ff169050614a3761542c565b73ffffffffffffffffffffffffffffffffffffffff16614a55614074565b73ffffffffffffffffffffffffffffffffffffffff161480614a7d5750600260ff168160ff16145b80614a8e5750600160ff168160ff16145b614acd576040517f08c379a0000000000000000000000000000000000000000000000000000000008152600401614ac490618031565b60405180910390fd5b60026000541415614b13576040517f08c379a0000000000000000000000000000000000000000000000000000000008152600401614b0a90618191565b60405180910390fd5b6002600081905550614b2361542c565b73ffffffffffffffffffffffffffffffffffffffff167fe1fffcc4923d04b559f4d29a8bfc6cda04eb5b0d3c460751c2402c5c5cc9109c34604051614b68919061820c565b60405180910390a2600160008190555050565b6000614b856154ed565b905090565b614b9261542c565b73ffffffffffffffffffffffffffffffffffffffff16614bb0614074565b73ffffffffffffffffffffffffffffffffffffffff1614614c06576040517f08c379a0000000000000000000000000000000000000000000000000000000008152600401614bfd90618071565b60405180910390fd5b600060ff168160ff161415614c6957600260008373ffffffffffffffffffffffffffffffffffffffff1673ffffffffffffffffffffffffffffffffffffffff16815260200190815260200160002060006101000a81549060ff0219169055614cc2565b80600260008473ffffffffffffffffffffffffffffffffffffffff1673ffffffffffffffffffffffffffffffffffffffff16815260200190815260200160002060006101000a81548160ff021916908360ff1602179055505b8173ffffffffffffffffffffffffffffffffffffffff167f02ab42f6b82517d797a585d5319a95696ea5167a6fbb0e0322c9ee66edec682c82604051614d0891906182b7565b60405180910390a25050565b600060026000614d2261542c565b73ffffffffffffffffffffffffffffffffffffffff1673ffffffffffffffffffffffffffffffffffffffff16815260200190815260200160002060009054906101000a900460ff169050614d7461542c565b73ffffffffffffffffffffffffffffffffffffffff16614d92614074565b73ffffffffffffffffffffffffffffffffffffffff161480614dba5750600160ff168160ff16145b614df9576040517f08c379a0000000000000000000000000000000000000000000000000000000008152600401614df090618031565b60405180910390fd5b828290508585905014614e41576040517f08c379a0000000000000000000000000000000000000000000000000000000008152600401614e38906180f1565b60405180910390fd5b60005b85859050811015614eac57838382818110614e6257614e61618844565b5b9050602002013560136000888885818110614e8057614e7f618844565b5b905060200201358152602001908152602001600020819055508080614ea49061873d565b915050614e44565b505050505050565b6000600460029054906101000a900460ff16905090565b6000601b60008473ffffffffffffffffffffffffffffffffffffffff1673ffffffffffffffffffffffffffffffffffffffff16815260200190815260200160002060008373ffffffffffffffffffffffffffffffffffffffff1673ffffffffffffffffffffffffffffffffffffffff16815260200190815260200160002060009054906101000a900460ff16905092915050565b614f6761542c565b73ffffffffffffffffffffffffffffffffffffffff16614f85614074565b73ffffffffffffffffffffffffffffffffffffffff1614614fdb576040517f08c379a0000000000000000000000000000000000000000000000000000000008152600401614fd290618071565b60405180910390fd5b8060078181614fea9190619100565b90505050565b614ff861542c565b73ffffffffffffffffffffffffffffffffffffffff16615016614074565b73ffffffffffffffffffffffffffffffffffffffff161461506c576040517f08c379a000000000000000000000000000000000000000000000000000000000815260040161506390618071565b60405180910390fd5b600073ffffffffffffffffffffffffffffffffffffffff168173ffffffffffffffffffffffffffffffffffffffff1614156150dc576040517f08c379a00000000000000000000000000000000000000000000000000000000081526004016150d390617e31565b60405180910390fd5b6150e581615bdd565b50565b6606e659d948720d81565b60026000541415615139576040517f08c379a000000000000000000000000000000000000000000000000000000000815260040161513090618191565b60405180910390fd5b600260008190555060006002600061514f61542c565b73ffffffffffffffffffffffffffffffffffffffff1673ffffffffffffffffffffffffffffffffffffffff16815260200190815260200160002060009054906101000a900460ff1690506151a161542c565b73ffffffffffffffffffffffffffffffffffffffff166151bf614074565b73ffffffffffffffffffffffffffffffffffffffff1614806151e75750600260ff168160ff16145b806151f85750600160ff168160ff16145b615237576040517f08c379a000000000000000000000000000000000000000000000000000000000815260040161522e90618031565b60405180910390fd5b60005b8383905081101561538657600084848381811061525a57615259618844565b5b90506020020135905061526c81615b1c565b6152ab576040517f08c379a00000000000000000000000000000000000000000000000000000000081526004016152a290617ff1565b60405180910390fd5b60006005600083815260200190815260200160002090506000816000015414156152d6575050615373565b8060000154420381600101600082825401925050819055506000816000018190555061530061542c565b73ffffffffffffffffffffffffffffffffffffffff16827f21880da8181781694fcae99f8578b33442e9b025e71e74077c42a031fe632e6d60405160405180910390a3817f7aa3fc8ca01d7c9cea899fc7885643f27473d1b988c2104cf78e193c3078a55f60405160405180910390a250505b808061537e9061873d565b91505061523a565b505060016000819055505050565b600b5481565b60006301ffc9a760e01b827bffffffffffffffffffffffffffffffffffffffffffffffffffffffff191614806153f557506380ac58cd60e01b827bffffffffffffffffffffffffffffffffffffffffffffffffffffffff1916145b806154255750635b5e139f60e01b827bffffffffffffffffffffffffffffffffffffffffffffffffffffffff1916145b9050919050565b600033905090565b60008161543f61591b565b1115801561544e575060145482105b801561548c575060007c0100000000000000000000000000000000000000000000000000000000601860008581526020019081526020016000205416145b9050919050565b60008061549f836159c6565b905060008114156154dc576040517fdf2d9b4200000000000000000000000000000000000000000000000000000000815260040160405180910390fd5b80915050919050565b600033905090565b6000601554905090565b600061550161591b565b60145403905090565b600061551582615493565b90508373ffffffffffffffffffffffffffffffffffffffff168173ffffffffffffffffffffffffffffffffffffffff161461557c576040517fa114810000000000000000000000000000000000000000000000000000000000815260040160405180910390fd5b60008473ffffffffffffffffffffffffffffffffffffffff1661559d6154e5565b73ffffffffffffffffffffffffffffffffffffffff1614806155cc57506155cb856155c66154e5565b614ecb565b5b8061561157506155da6154e5565b73ffffffffffffffffffffffffffffffffffffffff166155f984611428565b73ffffffffffffffffffffffffffffffffffffffff16145b90508061564a576040517f59c896be00000000000000000000000000000000000000000000000000000000815260040160405180910390fd5b600073ffffffffffffffffffffffffffffffffffffffff168473ffffffffffffffffffffffffffffffffffffffff1614156156b1576040517fea553b3400000000000000000000000000000000000000000000000000000000815260040160405180910390fd5b6156be858585600161601b565b601a600084815260200190815260200160002060006101000a81549073ffffffffffffffffffffffffffffffffffffffff0219169055601960008673ffffffffffffffffffffffffffffffffffffffff1673ffffffffffffffffffffffffffffffffffffffff168152602001908152602001600020600081546001900391905081905550601960008573ffffffffffffffffffffffffffffffffffffffff1673ffffffffffffffffffffffffffffffffffffffff16815260200190815260200160002060008154600101919050819055507c020000000000000000000000000000000000000000000000000000000060a042901b6157bb86616090565b1717601860008581526020019081526020016000208190555060007c020000000000000000000000000000000000000000000000000000000083161415615845576000600184019050600060186000838152602001908152602001600020541415615843576014548114615842578260186000838152602001908152602001600020819055505b5b505b828473ffffffffffffffffffffffffffffffffffffffff168673ffffffffffffffffffffffffffffffffffffffff167fddf252ad1be2c89b69c2b068fc378daa952ba7f163c4a11628f55a4df523b3ef60405160405180910390a46158ad858585600161609a565b5050505050565b60006007600201549050919050565b6000600261ffff16600f60009054906101000a900461ffff1661ffff1614806159045750600361ffff16600f60009054906101000a900461ffff1661ffff16145b905090565b615917828261ffff166160a0565b5050565b60006001905090565b61592c6131b3565b61596b576040517f08c379a000000000000000000000000000000000000000000000000000000000815260040161596290617df1565b60405180910390fd5b6000600160006101000a81548160ff0219169083151502179055507f5db9ee0a495bf2e6ff9c91a7834c1ba4fdd244a5e8aa4e537bd38aeae4b073aa6159af61542c565b6040516159bc9190617c00565b60405180910390a1565b600080829050806159d561591b565b11615a5d57601454811015615a5c5760006018600083815260200190815260200160002054905060007c010000000000000000000000000000000000000000000000000000000082161415615a5a575b6000811415615a50576018600083600190039350838152602001908152602001600020549050615a25565b8092505050615a63565b505b5b60009150505b919050565b6000615a7382612bff565b9050919050565b615a826131b3565b15615ac2576040517f08c379a0000000000000000000000000000000000000000000000000000000008152600401615ab990617fb1565b60405180910390fd5b60018060006101000a81548160ff0219169083151502179055507f62e78cea01bee320cd4e420270b5ea74000d11b0c9f74754ebdbfc544b05a258615b0561542c565b604051615b129190617c00565b60405180910390a1565b60008073ffffffffffffffffffffffffffffffffffffffff163073ffffffffffffffffffffffffffffffffffffffff16636352211e846040518263ffffffff1660e01b8152600401615b6e919061820c565b60206040518083038186803b158015615b8657600080fd5b505afa158015615b9a573d6000803e3d6000fd5b505050506040513d601f19601f82011682018060405250810190615bbe9190616f02565b73ffffffffffffffffffffffffffffffffffffffff1614159050919050565b600060018054906101000a900473ffffffffffffffffffffffffffffffffffffffff169050816001806101000a81548173ffffffffffffffffffffffffffffffffffffffff021916908373ffffffffffffffffffffffffffffffffffffffff1602179055508173ffffffffffffffffffffffffffffffffffffffff168173ffffffffffffffffffffffffffffffffffffffff167f8be0079c531659141344cd1fd0a4f28419497f9722a3daafe3b4186f6b6457e060405160405180910390a35050565b615cab8160006160be565b50565b60008373ffffffffffffffffffffffffffffffffffffffff1663150b7a02615cd46154e5565b8786866040518563ffffffff1660e01b8152600401615cf69493929190617c52565b602060405180830381600087803b158015615d1057600080fd5b505af1925050508015615d4157506040513d601f19601f82011682018060405250810190615d3e919061732f565b60015b615dbb573d8060008114615d71576040519150601f19603f3d011682016040523d82523d6000602084013e615d76565b606091505b50600081511415615db3576040517fd1a57ed600000000000000000000000000000000000000000000000000000000815260040160405180910390fd5b805181602001fd5b63150b7a0260e01b7bffffffffffffffffffffffffffffffffffffffffffffffffffffffff1916817bffffffffffffffffffffffffffffffffffffffffffffffffffffffff191614915050949350505050565b6060600073ffffffffffffffffffffffffffffffffffffffff163073ffffffffffffffffffffffffffffffffffffffff16636352211e846040518263ffffffff1660e01b8152600401615e61919061820c565b60206040518083038186803b158015615e7957600080fd5b505afa158015615e8d573d6000803e3d6000fd5b505050506040513d601f19601f82011682018060405250810190615eb19190616f02565b73ffffffffffffffffffffffffffffffffffffffff161415615f08576040517f08c379a0000000000000000000000000000000000000000000000000000000008152600401615eff90617f11565b60405180910390fd5b6000601160008481526020019081526020016000208054615f28906186af565b80601f0160208091040260200160405190810160405280929190818152602001828054615f54906186af565b8015615fa15780601f10615f7657610100808354040283529160200191615fa1565b820191906000526020600020905b815481529060010190602001808311615f8457829003601f168201915b50505050509050600081511115615fbb5780915050616016565b6000615fc684616396565b90506000815111615fe65760405180602001604052806000815250616011565b80615ff085616491565b604051602001616001929190617bdc565b6040516020818303038152906040525b925050505b919050565b60005b8181101561607d576160318184016165f2565b616070576040517f08c379a000000000000000000000000000000000000000000000000000000000815260040161606790618051565b60405180910390fd5b808060010191505061601e565b5061608a84848484616637565b50505050565b6000819050919050565b50505050565b6160ba828260405180602001604052806000815250616691565b5050565b60006160c983615493565b9050600081905082156161a65760008173ffffffffffffffffffffffffffffffffffffffff166160f76154e5565b73ffffffffffffffffffffffffffffffffffffffff1614806161265750616125826161206154e5565b614ecb565b5b8061616b57506161346154e5565b73ffffffffffffffffffffffffffffffffffffffff1661615386611428565b73ffffffffffffffffffffffffffffffffffffffff16145b9050806161a4576040517f59c896be00000000000000000000000000000000000000000000000000000000815260040160405180910390fd5b505b6161b481600086600161601b565b601a600085815260200190815260200160002060006101000a81549073ffffffffffffffffffffffffffffffffffffffff0219169055600160806001901b03601960008373ffffffffffffffffffffffffffffffffffffffff1673ffffffffffffffffffffffffffffffffffffffff168152602001908152602001600020600082825401925050819055507c02000000000000000000000000000000000000000000000000000000007c010000000000000000000000000000000000000000000000000000000060a042901b61628984616090565b171717601860008681526020019081526020016000208190555060007c020000000000000000000000000000000000000000000000000000000083161415616314576000600185019050600060186000838152602001908152602001600020541415616312576014548114616311578260186000838152602001908152602001600020819055505b5b505b83600073ffffffffffffffffffffffffffffffffffffffff168273ffffffffffffffffffffffffffffffffffffffff167fddf252ad1be2c89b69c2b068fc378daa952ba7f163c4a11628f55a4df523b3ef60405160405180910390a461637e81600086600161609a565b60156000815480929190600101919050555050505050565b606060006013600084815260200190815260200160002054905060008114156163ca576163c283616947565b91505061648c565b60006012600083815260200190815260200160002080546163ea906186af565b80601f0160208091040260200160405190810160405280929190818152602001828054616416906186af565b80156164635780601f1061643857610100808354040283529160200191616463565b820191906000526020600020905b81548152906001019060200180831161644657829003601f168201915b505050505090506000815114156164865761647d84616947565b9250505061648c565b80925050505b919050565b606060008214156164d9576040518060400160405280600181526020017f300000000000000000000000000000000000000000000000000000000000000081525090506165ed565b600082905060005b6000821461650b5780806164f49061873d565b915050600a826165049190618500565b91506164e1565b60008167ffffffffffffffff81111561652757616526618873565b5b6040519080825280601f01601f1916602001820160405280156165595781602001600182028036833780820191505090505b5090505b600085146165e6576001826165729190618531565b9150600a856165819190618786565b603061658d91906184aa565b60f81b8183815181106165a3576165a2618844565b5b60200101907effffffffffffffffffffffffffffffffffffffffffffffffffffffffffffff1916908160001a905350600a856165df9190618500565b945061655d565b8093505050505b919050565b60006165fd826169db565b1561662d576005600083815260200190815260200160002060030160009054906101000a900460ff169050616632565b600190505b919050565b61663f6131b3565b1561667f576040517f08c379a000000000000000000000000000000000000000000000000000000000815260040161667690617e11565b60405180910390fd5b61668b848484846169fe565b50505050565b60006014549050600073ffffffffffffffffffffffffffffffffffffffff168473ffffffffffffffffffffffffffffffffffffffff1614156166ff576040517f2e07630000000000000000000000000000000000000000000000000000000000815260040160405180910390fd5b600083141561673a576040517fb562e8dd00000000000000000000000000000000000000000000000000000000815260040160405180910390fd5b616747600085838661601b565b600160406001901b178302601960008673ffffffffffffffffffffffffffffffffffffffff1673ffffffffffffffffffffffffffffffffffffffff1681526020019081526020016000206000828254019250508190555060e16167ac60018514616a04565b901b60a042901b6167bc86616090565b1717601860008381526020019081526020016000208190555060008190506000848201905060008673ffffffffffffffffffffffffffffffffffffffff163b146168c0575b818673ffffffffffffffffffffffffffffffffffffffff16600073ffffffffffffffffffffffffffffffffffffffff167fddf252ad1be2c89b69c2b068fc378daa952ba7f163c4a11628f55a4df523b3ef60405160405180910390a46168706000878480600101955087615cae565b6168a6576040517fd1a57ed600000000000000000000000000000000000000000000000000000000815260040160405180910390fd5b8082106168015782601454146168bb57600080fd5b61692b565b5b818060010192508673ffffffffffffffffffffffffffffffffffffffff16600073ffffffffffffffffffffffffffffffffffffffff167fddf252ad1be2c89b69c2b068fc378daa952ba7f163c4a11628f55a4df523b3ef60405160405180910390a48082106168c1575b816014819055505050616941600085838661609a565b50505050565b606060108054616956906186af565b80601f0160208091040260200160405190810160405280929190818152602001828054616982906186af565b80156169cf5780601f106169a4576101008083540402835291602001916169cf565b820191906000526020600020905b8154815290600101906020018083116169b257829003601f168201915b50505050509050919050565b600080600560008481526020019081526020016000206000015414159050919050565b50505050565b6000819050919050565b828054616a1a906186af565b90600052602060002090601f016020900481019282616a3c5760008555616a83565b82601f10616a5557805160ff1916838001178555616a83565b82800160010185558215616a83579182015b82811115616a82578251825591602001919060010190616a67565b5b509050616a909190616b63565b5090565b828054616aa0906186af565b90600052602060002090601f016020900481019282616ac25760008555616b09565b82601f10616adb57803560ff1916838001178555616b09565b82800160010185558215616b09579182015b82811115616b08578235825591602001919060010190616aed565b5b509050616b169190616b63565b5090565b5080546000825590600052602060002090810190616b389190616b63565b50565b50805460008255600f016010900490600052602060002090810190616b609190616b63565b50565b5b80821115616b7c576000816000905550600101616b64565b5090565b6000616b93616b8e8461835a565b618335565b905082815260208101848484011115616baf57616bae6188e5565b5b616bba848285618606565b509392505050565b6000616bd5616bd08461838b565b618335565b905082815260208101848484011115616bf157616bf06188e5565b5b616bfc848285618606565b509392505050565b600081359050616c1381619131565b92915050565b600081519050616c2881619131565b92915050565b60008083601f840112616c4457616c436188c7565b5b8235905067ffffffffffffffff811115616c6157616c606188c2565b5b602083019150836020820283011115616c7d57616c7c6188db565b5b9250929050565b60008083601f840112616c9a57616c996188c7565b5b8235905067ffffffffffffffff811115616cb757616cb66188c2565b5b602083019150836020820283011115616cd357616cd26188db565b5b9250929050565b60008083601f840112616cf057616cef6188c7565b5b8235905067ffffffffffffffff811115616d0d57616d0c6188c2565b5b602083019150836020820283011115616d2957616d286188db565b5b9250929050565b60008083601f840112616d4657616d456188c7565b5b8235905067ffffffffffffffff811115616d6357616d626188c2565b5b602083019150836020820283011115616d7f57616d7e6188db565b5b9250929050565b600081359050616d9581619148565b92915050565b600081359050616daa8161915f565b92915050565b600081519050616dbf8161915f565b92915050565b600082601f830112616dda57616dd96188c7565b5b8135616dea848260208601616b80565b91505092915050565b60008083601f840112616e0957616e086188c7565b5b8235905067ffffffffffffffff811115616e2657616e256188c2565b5b602083019150836001820283011115616e4257616e416188db565b5b9250929050565b600082601f830112616e5e57616e5d6188c7565b5b8135616e6e848260208601616bc2565b91505092915050565b600060608284031215616e8d57616e8c6188d1565b5b81905092915050565b600081359050616ea581619176565b92915050565b600081359050616eba8161918d565b92915050565b600081359050616ecf816191a4565b92915050565b600060208284031215616eeb57616eea6188ef565b5b6000616ef984828501616c04565b91505092915050565b600060208284031215616f1857616f176188ef565b5b6000616f2684828501616c19565b91505092915050565b60008060408385031215616f4657616f456188ef565b5b6000616f5485828601616c04565b9250506020616f6585828601616c04565b9150509250929050565b600080600060608486031215616f8857616f876188ef565b5b6000616f9686828701616c04565b9350506020616fa786828701616c04565b9250506040616fb886828701616eab565b9150509250925092565b60008060008060808587031215616fdc57616fdb6188ef565b5b6000616fea87828801616c04565b9450506020616ffb87828801616c04565b935050604061700c87828801616eab565b925050606085013567ffffffffffffffff81111561702d5761702c6188ea565b5b61703987828801616dc5565b91505092959194509250565b6000806040838503121561705c5761705b6188ef565b5b600061706a85828601616c04565b925050602061707b85828601616d86565b9150509250929050565b6000806040838503121561709c5761709b6188ef565b5b60006170aa85828601616c04565b92505060206170bb85828601616eab565b9150509250929050565b600080604083850312156170dc576170db6188ef565b5b60006170ea85828601616c04565b92505060206170fb85828601616ec0565b9150509250929050565b6000806000806040858703121561711f5761711e6188ef565b5b600085013567ffffffffffffffff81111561713d5761713c6188ea565b5b61714987828801616c2e565b9450945050602085013567ffffffffffffffff81111561716c5761716b6188ea565b5b61717887828801616cda565b925092505092959194509250565b6000806020838503121561719d5761719c6188ef565b5b600083013567ffffffffffffffff8111156171bb576171ba6188ea565b5b6171c785828601616d30565b92509250509250929050565b600080600080604085870312156171ed576171ec6188ef565b5b600085013567ffffffffffffffff81111561720b5761720a6188ea565b5b61721787828801616d30565b9450945050602085013567ffffffffffffffff81111561723a576172396188ea565b5b61724687828801616c84565b925092505092959194509250565b6000806000806040858703121561726e5761726d6188ef565b5b600085013567ffffffffffffffff81111561728c5761728b6188ea565b5b61729887828801616d30565b9450945050602085013567ffffffffffffffff8111156172bb576172ba6188ea565b5b6172c787828801616d30565b925092505092959194509250565b6000602082840312156172eb576172ea6188ef565b5b60006172f984828501616d86565b91505092915050565b600060208284031215617318576173176188ef565b5b600061732684828501616d9b565b91505092915050565b600060208284031215617345576173446188ef565b5b600061735384828501616db0565b91505092915050565b60008060208385031215617373576173726188ef565b5b600083013567ffffffffffffffff811115617391576173906188ea565b5b61739d85828601616df3565b92509250509250929050565b6000606082840312156173bf576173be6188ef565b5b60006173cd84828501616e77565b91505092915050565b6000602082840312156173ec576173eb6188ef565b5b60006173fa84828501616e96565b91505092915050565b600060208284031215617419576174186188ef565b5b600061742784828501616eab565b91505092915050565b60008060408385031215617447576174466188ef565b5b600061745585828601616eab565b925050602083013567ffffffffffffffff811115617476576174756188ea565b5b61748285828601616e49565b9150509250929050565b600061749883836174d4565b60208301905092915050565b60006174b08383617ba0565b60208301905092915050565b60006174c88383617bbe565b60208301905092915050565b6174dd81618565565b82525050565b6174ec81618565565b82525050565b60006174fd826183ec565b617507818561844a565b9350617512836183bc565b8060005b8381101561754357815161752a888261748c565b975061753583618423565b925050600181019050617516565b5085935050505092915050565b600061755b826183f7565b617565818561845b565b9350617570836183cc565b8060005b838110156175a157815161758888826174a4565b975061759383618430565b925050600181019050617574565b5085935050505092915050565b60006175b982618402565b6175c3818561846c565b93506175ce836183dc565b8060005b838110156175ff5781516175e688826174bc565b97506175f18361843d565b9250506001810190506175d2565b5085935050505092915050565b61761581618577565b82525050565b60006176268261840d565b617630818561847d565b9350617640818560208601618615565b617649816188f4565b840191505092915050565b6000617660838561848e565b935061766d838584618606565b617676836188f4565b840190509392505050565b600061768c82618418565b617696818561848e565b93506176a6818560208601618615565b6176af816188f4565b840191505092915050565b60006176c582618418565b6176cf818561849f565b93506176df818560208601618615565b80840191505092915050565b60006176f860128361848e565b915061770382618912565b602082019050919050565b600061771b60168361848e565b91506177268261893b565b602082019050919050565b600061773e60148361848e565b915061774982618964565b602082019050919050565b600061776160158361848e565b915061776c8261898d565b602082019050919050565b600061778460268361848e565b915061778f826189b6565b604082019050919050565b60006177a7600f8361848e565b91506177b282618a05565b602082019050919050565b60006177ca60418361848e565b91506177d582618a2e565b606082019050919050565b60006177ed601c8361848e565b91506177f882618aa3565b602082019050919050565b600061781060168361848e565b915061781b82618acc565b602082019050919050565b6000617833601d8361848e565b915061783e82618af5565b602082019050919050565b600061785660378361848e565b915061786182618b1e565b604082019050919050565b600061787960128361848e565b915061788482618b6d565b602082019050919050565b600061789c601b8361848e565b91506178a782618b96565b602082019050919050565b60006178bf60478361848e565b91506178ca82618bbf565b606082019050919050565b60006178e260188361848e565b91506178ed82618c34565b602082019050919050565b6000617905601d8361848e565b915061791082618c5d565b602082019050919050565b600061792860108361848e565b915061793382618c86565b602082019050919050565b600061794b60138361848e565b915061795682618caf565b602082019050919050565b600061796e601d8361848e565b915061797982618cd8565b602082019050919050565b6000617991601a8361848e565b915061799c82618d01565b602082019050919050565b60006179b4600e8361848e565b91506179bf82618d2a565b602082019050919050565b60006179d760108361848e565b91506179e282618d53565b602082019050919050565b60006179fa60208361848e565b9150617a0582618d7c565b602082019050919050565b6000617a1d60218361848e565b9150617a2882618da5565b604082019050919050565b6000617a4060118361848e565b9150617a4b82618df4565b602082019050919050565b6000617a63601b8361848e565b9150617a6e82618e1d565b602082019050919050565b6000617a8660438361848e565b9150617a9182618e46565b606082019050919050565b6000617aa960328361848e565b9150617ab482618ebb565b604082019050919050565b6000617acc60258361848e565b9150617ad782618f0a565b604082019050919050565b6000617aef60488361848e565b9150617afa82618f59565b606082019050919050565b6000617b12603e8361848e565b9150617b1d82618fce565b604082019050919050565b6000617b35601f8361848e565b9150617b408261901d565b602082019050919050565b6000617b5860258361848e565b9150617b6382619046565b604082019050919050565b6000617b7b600f8361848e565b9150617b8682619095565b602082019050919050565b617b9a816185af565b82525050565b617ba9816185dd565b82525050565b617bb8816185dd565b82525050565b617bc7816185e7565b82525050565b617bd6816185e7565b82525050565b6000617be882856176ba565b9150617bf482846176ba565b91508190509392505050565b6000602082019050617c1560008301846174e3565b92915050565b6000606082019050617c3060008301866174e3565b617c3d60208301856174e3565b617c4a6040830184617baf565b949350505050565b6000608082019050617c6760008301876174e3565b617c7460208301866174e3565b617c816040830185617baf565b8181036060830152617c93818461761b565b905095945050505050565b60006020820190508181036000830152617cb881846174f2565b905092915050565b60006040820190508181036000830152617cda81856174f2565b90508181036020830152617cee81846175ae565b90509392505050565b60006020820190508181036000830152617d118184617550565b905092915050565b6000602082019050617d2e600083018461760c565b92915050565b6000606082019050617d49600083018661760c565b617d566020830185617baf565b617d636040830184617baf565b949350505050565b60006020820190508181036000830152617d86818486617654565b90509392505050565b60006020820190508181036000830152617da98184617681565b905092915050565b60006020820190508181036000830152617dca816176eb565b9050919050565b60006020820190508181036000830152617dea8161770e565b9050919050565b60006020820190508181036000830152617e0a81617731565b9050919050565b60006020820190508181036000830152617e2a81617754565b9050919050565b60006020820190508181036000830152617e4a81617777565b9050919050565b60006020820190508181036000830152617e6a8161779a565b9050919050565b60006020820190508181036000830152617e8a816177bd565b9050919050565b60006020820190508181036000830152617eaa816177e0565b9050919050565b60006020820190508181036000830152617eca81617803565b9050919050565b60006020820190508181036000830152617eea81617826565b9050919050565b60006020820190508181036000830152617f0a81617849565b9050919050565b60006020820190508181036000830152617f2a8161786c565b9050919050565b60006020820190508181036000830152617f4a8161788f565b9050919050565b60006020820190508181036000830152617f6a816178b2565b9050919050565b60006020820190508181036000830152617f8a816178d5565b9050919050565b60006020820190508181036000830152617faa816178f8565b9050919050565b60006020820190508181036000830152617fca8161791b565b9050919050565b60006020820190508181036000830152617fea8161793e565b9050919050565b6000602082019050818103600083015261800a81617961565b9050919050565b6000602082019050818103600083015261802a81617984565b9050919050565b6000602082019050818103600083015261804a816179a7565b9050919050565b6000602082019050818103600083015261806a816179ca565b9050919050565b6000602082019050818103600083015261808a816179ed565b9050919050565b600060208201905081810360008301526180aa81617a10565b9050919050565b600060208201905081810360008301526180ca81617a33565b9050919050565b600060208201905081810360008301526180ea81617a56565b9050919050565b6000602082019050818103600083015261810a81617a79565b9050919050565b6000602082019050818103600083015261812a81617a9c565b9050919050565b6000602082019050818103600083015261814a81617abf565b9050919050565b6000602082019050818103600083015261816a81617ae2565b9050919050565b6000602082019050818103600083015261818a81617b05565b9050919050565b600060208201905081810360008301526181aa81617b28565b9050919050565b600060208201905081810360008301526181ca81617b4b565b9050919050565b600060208201905081810360008301526181ea81617b6e565b9050919050565b60006020820190506182066000830184617b91565b92915050565b60006020820190506182216000830184617baf565b92915050565b600060408201905061823c6000830185617baf565b818103602083015261824e8184617681565b90509392505050565b600060408201905061826c6000830185617baf565b6182796020830184617baf565b9392505050565b60006060820190506182956000830186617baf565b6182a26020830185617baf565b6182af6040830184617baf565b949350505050565b60006020820190506182cc6000830184617bcd565b92915050565b600080833560016020038436030381126182ef576182ee6188d6565b5b80840192508235915067ffffffffffffffff821115618311576183106188cc565b5b60208301925060018202360383131561832d5761832c6188e0565b5b509250929050565b600061833f618350565b905061834b82826186e1565b919050565b6000604051905090565b600067ffffffffffffffff82111561837557618374618873565b5b61837e826188f4565b9050602081019050919050565b600067ffffffffffffffff8211156183a6576183a5618873565b5b6183af826188f4565b9050602081019050919050565b6000819050602082019050919050565b6000819050602082019050919050565b6000819050602082019050919050565b600081519050919050565b600081519050919050565b600081519050919050565b600081519050919050565b600081519050919050565b6000602082019050919050565b6000602082019050919050565b6000602082019050919050565b600082825260208201905092915050565b600082825260208201905092915050565b600082825260208201905092915050565b600082825260208201905092915050565b600082825260208201905092915050565b600081905092915050565b60006184b5826185dd565b91506184c0836185dd565b9250827fffffffffffffffffffffffffffffffffffffffffffffffffffffffffffffffff038211156184f5576184f46187b7565b5b828201905092915050565b600061850b826185dd565b9150618516836185dd565b925082618526576185256187e6565b5b828204905092915050565b600061853c826185dd565b9150618547836185dd565b92508282101561855a576185596187b7565b5b828203905092915050565b6000618570826185bd565b9050919050565b60008115159050919050565b60007fffffffff0000000000000000000000000000000000000000000000000000000082169050919050565b600061ffff82169050919050565b600073ffffffffffffffffffffffffffffffffffffffff82169050919050565b6000819050919050565b600060ff82169050919050565b60006185ff826185dd565b9050919050565b82818337600083830152505050565b60005b83811015618633578082015181840152602081019050618618565b83811115618642576000848401525b50505050565b60008101600083018061865a816188ac565b9050618666818461910e565b50505060018101602083018061867b816188ac565b9050618687818461910e565b50505060028101604083018061869c816188ac565b90506186a8818461910e565b5050505050565b600060028204905060018216806186c757607f821691505b602082108114156186db576186da618815565b5b50919050565b6186ea826188f4565b810181811067ffffffffffffffff8211171561870957618708618873565b5b80604052505050565b600061871d826185af565b915061ffff821415618732576187316187b7565b5b600182019050919050565b6000618748826185dd565b91507fffffffffffffffffffffffffffffffffffffffffffffffffffffffffffffffff82141561877b5761877a6187b7565b5b600182019050919050565b6000618791826185dd565b915061879c836185dd565b9250826187ac576187ab6187e6565b5b828206905092915050565b7f4e487b7100000000000000000000000000000000000000000000000000000000600052601160045260246000fd5b7f4e487b7100000000000000000000000000000000000000000000000000000000600052601260045260246000fd5b7f4e487b7100000000000000000000000000000000000000000000000000000000600052602260045260246000fd5b7f4e487b7100000000000000000000000000000000000000000000000000000000600052603260045260246000fd5b7f4e487b7100000000000000000000000000000000000000000000000000000000600052604160045260246000fd5b6000819050919050565b600081356188b98161918d565b80915050919050565b600080fd5b600080fd5b600080fd5b600080fd5b600080fd5b600080fd5b600080fd5b600080fd5b600080fd5b600080fd5b6000601f19601f8301169050919050565b60008160001b9050919050565b7f6e6f7420736574206d617820737570706c790000000000000000000000000000600082015250565b7f61697264726f7020616d6f756e74206973207a65726f00000000000000000000600082015250565b7f5061757361626c653a206e6f7420706175736564000000000000000000000000600082015250565b7f746f6b656e207472616e73666572207061757365640000000000000000000000600082015250565b7f4f776e61626c653a206e6577206f776e657220697320746865207a65726f206160008201527f6464726573730000000000000000000000000000000000000000000000000000602082015250565b7f636f6e7472616374207365616c65640000000000000000000000000000000000600082015250565b7f746865206c656e677468206f66204c697374696e67204c6576656c206973206460008201527f6966666572656e742066726f6d2074686174206f66204c697374696e6720555260208201527f4900000000000000000000000000000000000000000000000000000000000000604082015250565b7f61697264726f7020697320616c726561647920636f6d6d697474656400000000600082015250565b7f72616973696e67206973206e6f7420616c6c6f77656400000000000000000000600082015250565b7f6f6e6c792073616c65204e46542063616e20626520726566756e646564000000600082015250565b7f61697264726f7020697320616c726561647920636f6d6d69747465642c20706c60008201527f656173652072657365742061697264726f70206c697374000000000000000000602082015250565b7f746f6b656e206973206e6f742065786973740000000000000000000000000000600082015250565b7f717565727920666f72206e6f6e6578697374656e7420746f6b656e0000000000600082015250565b7f6d617962652061697264726f70206c697374206973206e6f7420636f6d6d697460008201527f7465642c206d617962652061697264726f7020697320616c726561647920636f60208201527f6d706c6574656400000000000000000000000000000000000000000000000000604082015250565b7f646966666572656e742066726f6d206d6178537570706c790000000000000000600082015250565b7f6f7574736964652074686520726566756e6461626c6520706572696f64000000600082015250565b7f5061757361626c653a2070617573656400000000000000000000000000000000600082015250565b7f63616c6c6572206973206e6f74206f776e657200000000000000000000000000600082015250565b7f6f70657261746520666f72206e6f6e6578697374656e7420746f6b656e000000600082015250565b7f63616c6c657220697320616e6f7468657220636f6e7472616374000000000000600082015250565b7f6e6f7420617574686f72697a6564000000000000000000000000000000000000600082015250565b7f746f6b656e2069732072616973696e6700000000000000000000000000000000600082015250565b7f4f776e61626c653a2063616c6c6572206973206e6f7420746865206f776e6572600082015250565b7f6d696e746564206e756d626572206973206f7574206f66206d6178537570706c60008201527f7900000000000000000000000000000000000000000000000000000000000000602082015250565b7f6e6f2061697264726f702c206d61796265000000000000000000000000000000600082015250565b7f696e73756666696369656e7420636f6e74726163742066756e64730000000000600082015250565b7f746865206c656e677468206f66204c697374696e6720546f6b656e206973206460008201527f6966666572656e742066726f6d2074686174206f66204c697374696e67204c6560208201527f76656c0000000000000000000000000000000000000000000000000000000000604082015250565b7f746865206e756d626572206f662061697264726f707320646964206e6f74207260008201527f6561636820746865206d6178537570706c790000000000000000000000000000602082015250565b7f53746f636b206163636f756e7420726566756e647320617265206e6f7420616c60008201527f6c6f776564000000000000000000000000000000000000000000000000000000602082015250565b7f746865206c656e677468206f66204c697374696e67205265636569766572206960008201527f7320646966666572656e742066726f6d2074686174206f66204c697374696e6760208201527f20416d6f756e7473000000000000000000000000000000000000000000000000604082015250565b7f6e6f7420666f756e64206974656d7320746f2061697264726f702c206d61796260008201527f652061697264726f7020697320616c726561647920636f6d706c657465640000602082015250565b7f5265656e7472616e637947756172643a207265656e7472616e742063616c6c00600082015250565b7f7472616e73666572207768696c652072616973696e67206973206e6f7420656e60008201527f61626c6564000000000000000000000000000000000000000000000000000000602082015250565b7f6e6f7420746f6b656e206f776e65720000000000000000000000000000000000600082015250565b60007fffffffffffffffffffffffffffffffffffffffffffffffffffffffffffffffff6190ea84618905565b9350801983169250808416831791505092915050565b61910a8282618648565b5050565b619117826185f4565b61912a619123826188a2565b83546190be565b8255505050565b61913a81618565565b811461914557600080fd5b50565b61915181618577565b811461915c57600080fd5b50565b61916881618583565b811461917357600080fd5b50565b61917f816185af565b811461918a57600080fd5b50565b619196816185dd565b81146191a157600080fd5b50565b6191ad816185e7565b81146191b857600080fd5b5056fea264697066735822122023eacb929a42d2d13041293646f79a62ec4a16c89eddfd6402aac9b23503211464736f6c63430008060033",
			"opcodes": "PUSH1 0x80 PUSH1 0x40 MSTORE PUSH1 0x0 PUSH1 0x4 PUSH1 0x0 PUSH2 0x100 EXP DUP2 SLOAD DUP2 PUSH1 0xFF MUL NOT AND SWAP1 DUP4 ISZERO ISZERO MUL OR SWAP1 SSTORE POP PUSH1 0x1 PUSH1 0xE SSTORE PUSH1 0x1 PUSH1 0xF PUSH1 0x0 PUSH2 0x100 EXP DUP2 SLOAD DUP2 PUSH2 0xFFFF MUL NOT AND SWAP1 DUP4 PUSH2 0xFFFF AND MUL OR SWAP1 SSTORE POP CALLVALUE DUP1 ISZERO PUSH3 0x4F JUMPI PUSH1 0x0 DUP1 REVERT JUMPDEST POP PUSH1 0x40 MLOAD DUP1 PUSH1 0x40 ADD PUSH1 0x40 MSTORE DUP1 PUSH1 0x8 DUP2 MSTORE PUSH1 0x20 ADD PUSH32 0x486F6F7446756C6C000000000000000000000000000000000000000000000000 DUP2 MSTORE POP PUSH1 0x40 MLOAD DUP1 PUSH1 0x40 ADD PUSH1 0x40 MSTORE DUP1 PUSH1 0x3 DUP2 MSTORE PUSH1 0x20 ADD PUSH32 0x4846540000000000000000000000000000000000000000000000000000000000 DUP2 MSTORE POP DUP2 DUP2 PUSH2 0x1E61 PUSH1 0x1 PUSH1 0x0 DUP2 SWAP1 SSTORE POP PUSH1 0x0 PUSH1 0x1 PUSH1 0x0 PUSH2 0x100 EXP DUP2 SLOAD DUP2 PUSH1 0xFF MUL NOT AND SWAP1 DUP4 ISZERO ISZERO MUL OR SWAP1 SSTORE POP PUSH3 0x104 PUSH3 0xF8 PUSH3 0x19F PUSH1 0x20 SHL PUSH1 0x20 SHR JUMP JUMPDEST PUSH3 0x1A7 PUSH1 0x20 SHL PUSH1 0x20 SHR JUMP JUMPDEST CALLER PUSH1 0x6 PUSH1 0x0 PUSH2 0x100 EXP DUP2 SLOAD DUP2 PUSH20 0xFFFFFFFFFFFFFFFFFFFFFFFFFFFFFFFFFFFFFFFF MUL NOT AND SWAP1 DUP4 PUSH20 0xFFFFFFFFFFFFFFFFFFFFFFFFFFFFFFFFFFFFFFFF AND MUL OR SWAP1 SSTORE POP DUP1 PUSH1 0xA DUP2 SWAP1 SSTORE POP POP DUP2 PUSH1 0x16 SWAP1 DUP1 MLOAD SWAP1 PUSH1 0x20 ADD SWAP1 PUSH3 0x165 SWAP3 SWAP2 SWAP1 PUSH3 0x273 JUMP JUMPDEST POP DUP1 PUSH1 0x17 SWAP1 DUP1 MLOAD SWAP1 PUSH1 0x20 ADD SWAP1 PUSH3 0x17E SWAP3 SWAP2 SWAP1 PUSH3 0x273 JUMP JUMPDEST POP PUSH3 0x18F PUSH3 0x26A PUSH1 0x20 SHL PUSH1 0x20 SHR JUMP JUMPDEST PUSH1 0x14 DUP2 SWAP1 SSTORE POP POP POP POP POP PUSH3 0x388 JUMP JUMPDEST PUSH1 0x0 CALLER SWAP1 POP SWAP1 JUMP JUMPDEST PUSH1 0x0 PUSH1 0x1 DUP1 SLOAD SWAP1 PUSH2 0x100 EXP SWAP1 DIV PUSH20 0xFFFFFFFFFFFFFFFFFFFFFFFFFFFFFFFFFFFFFFFF AND SWAP1 POP DUP2 PUSH1 0x1 DUP1 PUSH2 0x100 EXP DUP2 SLOAD DUP2 PUSH20 0xFFFFFFFFFFFFFFFFFFFFFFFFFFFFFFFFFFFFFFFF MUL NOT AND SWAP1 DUP4 PUSH20 0xFFFFFFFFFFFFFFFFFFFFFFFFFFFFFFFFFFFFFFFF AND MUL OR SWAP1 SSTORE POP DUP2 PUSH20 0xFFFFFFFFFFFFFFFFFFFFFFFFFFFFFFFFFFFFFFFF AND DUP2 PUSH20 0xFFFFFFFFFFFFFFFFFFFFFFFFFFFFFFFFFFFFFFFF AND PUSH32 0x8BE0079C531659141344CD1FD0A4F28419497F9722A3DAAFE3B4186F6B6457E0 PUSH1 0x40 MLOAD PUSH1 0x40 MLOAD DUP1 SWAP2 SUB SWAP1 LOG3 POP POP JUMP JUMPDEST PUSH1 0x0 PUSH1 0x1 SWAP1 POP SWAP1 JUMP JUMPDEST DUP3 DUP1 SLOAD PUSH3 0x281 SWAP1 PUSH3 0x323 JUMP JUMPDEST SWAP1 PUSH1 0x0 MSTORE PUSH1 0x20 PUSH1 0x0 KECCAK256 SWAP1 PUSH1 0x1F ADD PUSH1 0x20 SWAP1 DIV DUP2 ADD SWAP3 DUP3 PUSH3 0x2A5 JUMPI PUSH1 0x0 DUP6 SSTORE PUSH3 0x2F1 JUMP JUMPDEST DUP3 PUSH1 0x1F LT PUSH3 0x2C0 JUMPI DUP1 MLOAD PUSH1 0xFF NOT AND DUP4 DUP1 ADD OR DUP6 SSTORE PUSH3 0x2F1 JUMP JUMPDEST DUP3 DUP1 ADD PUSH1 0x1 ADD DUP6 SSTORE DUP3 ISZERO PUSH3 0x2F1 JUMPI SWAP2 DUP3 ADD JUMPDEST DUP3 DUP2 GT ISZERO PUSH3 0x2F0 JUMPI DUP3 MLOAD DUP3 SSTORE SWAP2 PUSH1 0x20 ADD SWAP2 SWAP1 PUSH1 0x1 ADD SWAP1 PUSH3 0x2D3 JUMP JUMPDEST JUMPDEST POP SWAP1 POP PUSH3 0x300 SWAP2 SWAP1 PUSH3 0x304 JUMP JUMPDEST POP SWAP1 JUMP JUMPDEST JUMPDEST DUP1 DUP3 GT ISZERO PUSH3 0x31F JUMPI PUSH1 0x0 DUP2 PUSH1 0x0 SWAP1 SSTORE POP PUSH1 0x1 ADD PUSH3 0x305 JUMP JUMPDEST POP SWAP1 JUMP JUMPDEST PUSH1 0x0 PUSH1 0x2 DUP3 DIV SWAP1 POP PUSH1 0x1 DUP3 AND DUP1 PUSH3 0x33C JUMPI PUSH1 0x7F DUP3 AND SWAP2 POP JUMPDEST PUSH1 0x20 DUP3 LT DUP2 EQ ISZERO PUSH3 0x353 JUMPI PUSH3 0x352 PUSH3 0x359 JUMP JUMPDEST JUMPDEST POP SWAP2 SWAP1 POP JUMP JUMPDEST PUSH32 0x4E487B7100000000000000000000000000000000000000000000000000000000 PUSH1 0x0 MSTORE PUSH1 0x22 PUSH1 0x4 MSTORE PUSH1 0x24 PUSH1 0x0 REVERT JUMPDEST PUSH2 0x91F1 DUP1 PUSH3 0x398 PUSH1 0x0 CODECOPY PUSH1 0x0 RETURN INVALID PUSH1 0x80 PUSH1 0x40 MSTORE PUSH1 0x4 CALLDATASIZE LT PUSH2 0x410 JUMPI PUSH1 0x0 CALLDATALOAD PUSH1 0xE0 SHR DUP1 PUSH4 0x617DF38F GT PUSH2 0x21E JUMPI DUP1 PUSH4 0xB6501637 GT PUSH2 0x123 JUMPI DUP1 PUSH4 0xDD5DDFE8 GT PUSH2 0xAB JUMPI DUP1 PUSH4 0xEF11E905 GT PUSH2 0x7A JUMPI DUP1 PUSH4 0xEF11E905 EQ PUSH2 0xF65 JUMPI DUP1 PUSH4 0xF2FDE38B EQ PUSH2 0xF8E JUMPI DUP1 PUSH4 0xF37E20BA EQ PUSH2 0xFB7 JUMPI DUP1 PUSH4 0xF68DC5DE EQ PUSH2 0xFE2 JUMPI DUP1 PUSH4 0xFB3ED5C7 EQ PUSH2 0x100B JUMPI PUSH2 0x410 JUMP JUMPDEST DUP1 PUSH4 0xDD5DDFE8 EQ PUSH2 0xEAB JUMPI DUP1 PUSH4 0xDF13B8A7 EQ PUSH2 0xED4 JUMPI DUP1 PUSH4 0xE697188F EQ PUSH2 0xEFD JUMPI DUP1 PUSH4 0xE985E9C5 EQ PUSH2 0xF28 JUMPI PUSH2 0x410 JUMP JUMPDEST DUP1 PUSH4 0xBFD772FC GT PUSH2 0xF2 JUMPI DUP1 PUSH4 0xBFD772FC EQ PUSH2 0xDD0 JUMPI DUP1 PUSH4 0xC3A07DF6 EQ PUSH2 0xE0D JUMPI DUP1 PUSH4 0xC87B56DD EQ PUSH2 0xE39 JUMPI DUP1 PUSH4 0xD0E30DB0 EQ PUSH2 0xE76 JUMPI DUP1 PUSH4 0xD89135CD EQ PUSH2 0xE80 JUMPI PUSH2 0x410 JUMP JUMPDEST DUP1 PUSH4 0xB6501637 EQ PUSH2 0xD3C JUMPI DUP1 PUSH4 0xB80F55C9 EQ PUSH2 0xD67 JUMPI DUP1 PUSH4 0xB88D4FDE EQ PUSH2 0xD90 JUMPI DUP1 PUSH4 0xB9B9731F EQ PUSH2 0xDB9 JUMPI PUSH2 0x410 JUMP JUMPDEST DUP1 PUSH4 0x8462151C GT PUSH2 0x1A6 JUMPI DUP1 PUSH4 0x8B93B0F5 GT PUSH2 0x175 JUMPI DUP1 PUSH4 0x8B93B0F5 EQ PUSH2 0xC67 JUMPI DUP1 PUSH4 0x8DA5CB5B EQ PUSH2 0xC92 JUMPI DUP1 PUSH4 0x95D89B41 EQ PUSH2 0xCBD JUMPI DUP1 PUSH4 0x983D2737 EQ PUSH2 0xCE8 JUMPI DUP1 PUSH4 0xA22CB465 EQ PUSH2 0xD13 JUMPI PUSH2 0x410 JUMP JUMPDEST DUP1 PUSH4 0x8462151C EQ PUSH2 0xBAD JUMPI DUP1 PUSH4 0x8592F0E3 EQ PUSH2 0xBEA JUMPI DUP1 PUSH4 0x8746475A EQ PUSH2 0xC13 JUMPI DUP1 PUSH4 0x8AFD0DA8 EQ PUSH2 0xC3E JUMPI PUSH2 0x410 JUMP JUMPDEST DUP1 PUSH4 0x6F8B44B0 GT PUSH2 0x1ED JUMPI DUP1 PUSH4 0x6F8B44B0 EQ PUSH2 0xADC JUMPI DUP1 PUSH4 0x70A08231 EQ PUSH2 0xB05 JUMPI DUP1 PUSH4 0x715018A6 EQ PUSH2 0xB42 JUMPI DUP1 PUSH4 0x71936C41 EQ PUSH2 0xB59 JUMPI DUP1 PUSH4 0x83C1CD8A EQ PUSH2 0xB70 JUMPI PUSH2 0x410 JUMP JUMPDEST DUP1 PUSH4 0x617DF38F EQ PUSH2 0xA32 JUMPI DUP1 PUSH4 0x6352211E EQ PUSH2 0xA71 JUMPI DUP1 PUSH4 0x68BD580E EQ PUSH2 0xAAE JUMPI DUP1 PUSH4 0x6D61358E EQ PUSH2 0xAC5 JUMPI PUSH2 0x410 JUMP JUMPDEST DUP1 PUSH4 0x2E1DFD10 GT PUSH2 0x324 JUMPI DUP1 PUSH4 0x46979DAB GT PUSH2 0x2AC JUMPI DUP1 PUSH4 0x4F6CCCE7 GT PUSH2 0x27B JUMPI DUP1 PUSH4 0x4F6CCCE7 EQ PUSH2 0x94D JUMPI DUP1 PUSH4 0x51858E27 EQ PUSH2 0x98A JUMPI DUP1 PUSH4 0x55F804B3 EQ PUSH2 0x9A1 JUMPI DUP1 PUSH4 0x5C975ABB EQ PUSH2 0x9CA JUMPI DUP1 PUSH4 0x5FF2F2E8 EQ PUSH2 0x9F5 JUMPI PUSH2 0x410 JUMP JUMPDEST DUP1 PUSH4 0x46979DAB EQ PUSH2 0x881 JUMPI DUP1 PUSH4 0x4777A597 EQ PUSH2 0x8AA JUMPI DUP1 PUSH4 0x4C85011A EQ PUSH2 0x8E7 JUMPI DUP1 PUSH4 0x4F558E79 EQ PUSH2 0x910 JUMPI PUSH2 0x410 JUMP JUMPDEST DUP1 PUSH4 0x3CCFD60B GT PUSH2 0x2F3 JUMPI DUP1 PUSH4 0x3CCFD60B EQ PUSH2 0x7C4 JUMPI DUP1 PUSH4 0x3F4BA83A EQ PUSH2 0x7DB JUMPI DUP1 PUSH4 0x401135E6 EQ PUSH2 0x7F2 JUMPI DUP1 PUSH4 0x42842E0E EQ PUSH2 0x81B JUMPI DUP1 PUSH4 0x45F0A44F EQ PUSH2 0x844 JUMPI PUSH2 0x410 JUMP JUMPDEST DUP1 PUSH4 0x2E1DFD10 EQ PUSH2 0x706 JUMPI DUP1 PUSH4 0x2EC79AD5 EQ PUSH2 0x733 JUMPI DUP1 PUSH4 0x2F745C59 EQ PUSH2 0x75C JUMPI DUP1 PUSH4 0x32CB6B0C EQ PUSH2 0x799 JUMPI PUSH2 0x410 JUMP JUMPDEST DUP1 PUSH4 0x162094C4 GT PUSH2 0x3A7 JUMPI DUP1 PUSH4 0x1D63FF2B GT PUSH2 0x376 JUMPI DUP1 PUSH4 0x1D63FF2B EQ PUSH2 0x633 JUMPI DUP1 PUSH4 0x23B872DD EQ PUSH2 0x65E JUMPI DUP1 PUSH4 0x278ECDE1 EQ PUSH2 0x687 JUMPI DUP1 PUSH4 0x27EE47C7 EQ PUSH2 0x6B0 JUMPI DUP1 PUSH4 0x2AABB726 EQ PUSH2 0x6DB JUMPI PUSH2 0x410 JUMP JUMPDEST DUP1 PUSH4 0x162094C4 EQ PUSH2 0x58B JUMPI DUP1 PUSH4 0x18160DDD EQ PUSH2 0x5B4 JUMPI DUP1 PUSH4 0x1B2DF850 EQ PUSH2 0x5DF JUMPI DUP1 PUSH4 0x1B7F0F9F EQ PUSH2 0x60A JUMPI PUSH2 0x410 JUMP JUMPDEST DUP1 PUSH4 0x95EA7B3 GT PUSH2 0x3E3 JUMPI DUP1 PUSH4 0x95EA7B3 EQ PUSH2 0x4E3 JUMPI DUP1 PUSH4 0xCB61F6C EQ PUSH2 0x50C JUMPI DUP1 PUSH4 0x14B99AEE EQ PUSH2 0x537 JUMPI DUP1 PUSH4 0x15B75BEA EQ PUSH2 0x562 JUMPI PUSH2 0x410 JUMP JUMPDEST DUP1 PUSH4 0x1FFC9A7 EQ PUSH2 0x415 JUMPI DUP1 PUSH4 0x282938E EQ PUSH2 0x452 JUMPI DUP1 PUSH4 0x6FDDE03 EQ PUSH2 0x47B JUMPI DUP1 PUSH4 0x81812FC EQ PUSH2 0x4A6 JUMPI JUMPDEST PUSH1 0x0 DUP1 REVERT JUMPDEST CALLVALUE DUP1 ISZERO PUSH2 0x421 JUMPI PUSH1 0x0 DUP1 REVERT JUMPDEST POP PUSH2 0x43C PUSH1 0x4 DUP1 CALLDATASIZE SUB DUP2 ADD SWAP1 PUSH2 0x437 SWAP2 SWAP1 PUSH2 0x7302 JUMP JUMPDEST PUSH2 0x1036 JUMP JUMPDEST PUSH1 0x40 MLOAD PUSH2 0x449 SWAP2 SWAP1 PUSH2 0x7D19 JUMP JUMPDEST PUSH1 0x40 MLOAD DUP1 SWAP2 SUB SWAP1 RETURN JUMPDEST CALLVALUE DUP1 ISZERO PUSH2 0x45E JUMPI PUSH1 0x0 DUP1 REVERT JUMPDEST POP PUSH2 0x479 PUSH1 0x4 DUP1 CALLDATASIZE SUB DUP2 ADD SWAP1 PUSH2 0x474 SWAP2 SWAP1 PUSH2 0x6F6F JUMP JUMPDEST PUSH2 0x10B0 JUMP JUMPDEST STOP JUMPDEST CALLVALUE DUP1 ISZERO PUSH2 0x487 JUMPI PUSH1 0x0 DUP1 REVERT JUMPDEST POP PUSH2 0x490 PUSH2 0x1396 JUMP JUMPDEST PUSH1 0x40 MLOAD PUSH2 0x49D SWAP2 SWAP1 PUSH2 0x7D8F JUMP JUMPDEST PUSH1 0x40 MLOAD DUP1 SWAP2 SUB SWAP1 RETURN JUMPDEST CALLVALUE DUP1 ISZERO PUSH2 0x4B2 JUMPI PUSH1 0x0 DUP1 REVERT JUMPDEST POP PUSH2 0x4CD PUSH1 0x4 DUP1 CALLDATASIZE SUB DUP2 ADD SWAP1 PUSH2 0x4C8 SWAP2 SWAP1 PUSH2 0x7403 JUMP JUMPDEST PUSH2 0x1428 JUMP JUMPDEST PUSH1 0x40 MLOAD PUSH2 0x4DA SWAP2 SWAP1 PUSH2 0x7C00 JUMP JUMPDEST PUSH1 0x40 MLOAD DUP1 SWAP2 SUB SWAP1 RETURN JUMPDEST CALLVALUE DUP1 ISZERO PUSH2 0x4EF JUMPI PUSH1 0x0 DUP1 REVERT JUMPDEST POP PUSH2 0x50A PUSH1 0x4 DUP1 CALLDATASIZE SUB DUP2 ADD SWAP1 PUSH2 0x505 SWAP2 SWAP1 PUSH2 0x7085 JUMP JUMPDEST PUSH2 0x14A4 JUMP JUMPDEST STOP JUMPDEST CALLVALUE DUP1 ISZERO PUSH2 0x518 JUMPI PUSH1 0x0 DUP1 REVERT JUMPDEST POP PUSH2 0x521 PUSH2 0x164B JUMP JUMPDEST PUSH1 0x40 MLOAD PUSH2 0x52E SWAP2 SWAP1 PUSH2 0x7C00 JUMP JUMPDEST PUSH1 0x40 MLOAD DUP1 SWAP2 SUB SWAP1 RETURN JUMPDEST CALLVALUE DUP1 ISZERO PUSH2 0x543 JUMPI PUSH1 0x0 DUP1 REVERT JUMPDEST POP PUSH2 0x54C PUSH2 0x1671 JUMP JUMPDEST PUSH1 0x40 MLOAD PUSH2 0x559 SWAP2 SWAP1 PUSH2 0x81F1 JUMP JUMPDEST PUSH1 0x40 MLOAD DUP1 SWAP2 SUB SWAP1 RETURN JUMPDEST CALLVALUE DUP1 ISZERO PUSH2 0x56E JUMPI PUSH1 0x0 DUP1 REVERT JUMPDEST POP PUSH2 0x589 PUSH1 0x4 DUP1 CALLDATASIZE SUB DUP2 ADD SWAP1 PUSH2 0x584 SWAP2 SWAP1 PUSH2 0x6ED5 JUMP JUMPDEST PUSH2 0x1685 JUMP JUMPDEST STOP JUMPDEST CALLVALUE DUP1 ISZERO PUSH2 0x597 JUMPI PUSH1 0x0 DUP1 REVERT JUMPDEST POP PUSH2 0x5B2 PUSH1 0x4 DUP1 CALLDATASIZE SUB DUP2 ADD SWAP1 PUSH2 0x5AD SWAP2 SWAP1 PUSH2 0x7430 JUMP JUMPDEST PUSH2 0x1745 JUMP JUMPDEST STOP JUMPDEST CALLVALUE DUP1 ISZERO PUSH2 0x5C0 JUMPI PUSH1 0x0 DUP1 REVERT JUMPDEST POP PUSH2 0x5C9 PUSH2 0x1988 JUMP JUMPDEST PUSH1 0x40 MLOAD PUSH2 0x5D6 SWAP2 SWAP1 PUSH2 0x820C JUMP JUMPDEST PUSH1 0x40 MLOAD DUP1 SWAP2 SUB SWAP1 RETURN JUMPDEST CALLVALUE DUP1 ISZERO PUSH2 0x5EB JUMPI PUSH1 0x0 DUP1 REVERT JUMPDEST POP PUSH2 0x5F4 PUSH2 0x19A0 JUMP JUMPDEST PUSH1 0x40 MLOAD PUSH2 0x601 SWAP2 SWAP1 PUSH2 0x82B7 JUMP JUMPDEST PUSH1 0x40 MLOAD DUP1 SWAP2 SUB SWAP1 RETURN JUMPDEST CALLVALUE DUP1 ISZERO PUSH2 0x616 JUMPI PUSH1 0x0 DUP1 REVERT JUMPDEST POP PUSH2 0x631 PUSH1 0x4 DUP1 CALLDATASIZE SUB DUP2 ADD SWAP1 PUSH2 0x62C SWAP2 SWAP1 PUSH2 0x7186 JUMP JUMPDEST PUSH2 0x19A5 JUMP JUMPDEST STOP JUMPDEST CALLVALUE DUP1 ISZERO PUSH2 0x63F JUMPI PUSH1 0x0 DUP1 REVERT JUMPDEST POP PUSH2 0x648 PUSH2 0x1BF8 JUMP JUMPDEST PUSH1 0x40 MLOAD PUSH2 0x655 SWAP2 SWAP1 PUSH2 0x82B7 JUMP JUMPDEST PUSH1 0x40 MLOAD DUP1 SWAP2 SUB SWAP1 RETURN JUMPDEST CALLVALUE DUP1 ISZERO PUSH2 0x66A JUMPI PUSH1 0x0 DUP1 REVERT JUMPDEST POP PUSH2 0x685 PUSH1 0x4 DUP1 CALLDATASIZE SUB DUP2 ADD SWAP1 PUSH2 0x680 SWAP2 SWAP1 PUSH2 0x6F6F JUMP JUMPDEST PUSH2 0x1BFD JUMP JUMPDEST STOP JUMPDEST CALLVALUE DUP1 ISZERO PUSH2 0x693 JUMPI PUSH1 0x0 DUP1 REVERT JUMPDEST POP PUSH2 0x6AE PUSH1 0x4 DUP1 CALLDATASIZE SUB DUP2 ADD SWAP1 PUSH2 0x6A9 SWAP2 SWAP1 PUSH2 0x7403 JUMP JUMPDEST PUSH2 0x1C0D JUMP JUMPDEST STOP JUMPDEST CALLVALUE DUP1 ISZERO PUSH2 0x6BC JUMPI PUSH1 0x0 DUP1 REVERT JUMPDEST POP PUSH2 0x6C5 PUSH2 0x209E JUMP JUMPDEST PUSH1 0x40 MLOAD PUSH2 0x6D2 SWAP2 SWAP1 PUSH2 0x7D19 JUMP JUMPDEST PUSH1 0x40 MLOAD DUP1 SWAP2 SUB SWAP1 RETURN JUMPDEST CALLVALUE DUP1 ISZERO PUSH2 0x6E7 JUMPI PUSH1 0x0 DUP1 REVERT JUMPDEST POP PUSH2 0x6F0 PUSH2 0x20B5 JUMP JUMPDEST PUSH1 0x40 MLOAD PUSH2 0x6FD SWAP2 SWAP1 PUSH2 0x82B7 JUMP JUMPDEST PUSH1 0x40 MLOAD DUP1 SWAP2 SUB SWAP1 RETURN JUMPDEST CALLVALUE DUP1 ISZERO PUSH2 0x712 JUMPI PUSH1 0x0 DUP1 REVERT JUMPDEST POP PUSH2 0x71B PUSH2 0x20BA JUMP JUMPDEST PUSH1 0x40 MLOAD PUSH2 0x72A SWAP4 SWAP3 SWAP2 SWAP1 PUSH2 0x8280 JUMP JUMPDEST PUSH1 0x40 MLOAD DUP1 SWAP2 SUB SWAP1 RETURN JUMPDEST CALLVALUE DUP1 ISZERO PUSH2 0x73F JUMPI PUSH1 0x0 DUP1 REVERT JUMPDEST POP PUSH2 0x75A PUSH1 0x4 DUP1 CALLDATASIZE SUB DUP2 ADD SWAP1 PUSH2 0x755 SWAP2 SWAP1 PUSH2 0x73D6 JUMP JUMPDEST PUSH2 0x20D2 JUMP JUMPDEST STOP JUMPDEST CALLVALUE DUP1 ISZERO PUSH2 0x768 JUMPI PUSH1 0x0 DUP1 REVERT JUMPDEST POP PUSH2 0x783 PUSH1 0x4 DUP1 CALLDATASIZE SUB DUP2 ADD SWAP1 PUSH2 0x77E SWAP2 SWAP1 PUSH2 0x7085 JUMP JUMPDEST PUSH2 0x24EF JUMP JUMPDEST PUSH1 0x40 MLOAD PUSH2 0x790 SWAP2 SWAP1 PUSH2 0x820C JUMP JUMPDEST PUSH1 0x40 MLOAD DUP1 SWAP2 SUB SWAP1 RETURN JUMPDEST CALLVALUE DUP1 ISZERO PUSH2 0x7A5 JUMPI PUSH1 0x0 DUP1 REVERT JUMPDEST POP PUSH2 0x7AE PUSH2 0x25B8 JUMP JUMPDEST PUSH1 0x40 MLOAD PUSH2 0x7BB SWAP2 SWAP1 PUSH2 0x820C JUMP JUMPDEST PUSH1 0x40 MLOAD DUP1 SWAP2 SUB SWAP1 RETURN JUMPDEST CALLVALUE DUP1 ISZERO PUSH2 0x7D0 JUMPI PUSH1 0x0 DUP1 REVERT JUMPDEST POP PUSH2 0x7D9 PUSH2 0x25BE JUMP JUMPDEST STOP JUMPDEST CALLVALUE DUP1 ISZERO PUSH2 0x7E7 JUMPI PUSH1 0x0 DUP1 REVERT JUMPDEST POP PUSH2 0x7F0 PUSH2 0x273B JUMP JUMPDEST STOP JUMPDEST CALLVALUE DUP1 ISZERO PUSH2 0x7FE JUMPI PUSH1 0x0 DUP1 REVERT JUMPDEST POP PUSH2 0x819 PUSH1 0x4 DUP1 CALLDATASIZE SUB DUP2 ADD SWAP1 PUSH2 0x814 SWAP2 SWAP1 PUSH2 0x71D3 JUMP JUMPDEST PUSH2 0x28A7 JUMP JUMPDEST STOP JUMPDEST CALLVALUE DUP1 ISZERO PUSH2 0x827 JUMPI PUSH1 0x0 DUP1 REVERT JUMPDEST POP PUSH2 0x842 PUSH1 0x4 DUP1 CALLDATASIZE SUB DUP2 ADD SWAP1 PUSH2 0x83D SWAP2 SWAP1 PUSH2 0x6F6F JUMP JUMPDEST PUSH2 0x2A5C JUMP JUMPDEST STOP JUMPDEST CALLVALUE DUP1 ISZERO PUSH2 0x850 JUMPI PUSH1 0x0 DUP1 REVERT JUMPDEST POP PUSH2 0x86B PUSH1 0x4 DUP1 CALLDATASIZE SUB DUP2 ADD SWAP1 PUSH2 0x866 SWAP2 SWAP1 PUSH2 0x7403 JUMP JUMPDEST PUSH2 0x2A7C JUMP JUMPDEST PUSH1 0x40 MLOAD PUSH2 0x878 SWAP2 SWAP1 PUSH2 0x81F1 JUMP JUMPDEST PUSH1 0x40 MLOAD DUP1 SWAP2 SUB SWAP1 RETURN JUMPDEST CALLVALUE DUP1 ISZERO PUSH2 0x88D JUMPI PUSH1 0x0 DUP1 REVERT JUMPDEST POP PUSH2 0x8A8 PUSH1 0x4 DUP1 CALLDATASIZE SUB DUP2 ADD SWAP1 PUSH2 0x8A3 SWAP2 SWAP1 PUSH2 0x72D5 JUMP JUMPDEST PUSH2 0x2AB4 JUMP JUMPDEST STOP JUMPDEST CALLVALUE DUP1 ISZERO PUSH2 0x8B6 JUMPI PUSH1 0x0 DUP1 REVERT JUMPDEST POP PUSH2 0x8D1 PUSH1 0x4 DUP1 CALLDATASIZE SUB DUP2 ADD SWAP1 PUSH2 0x8CC SWAP2 SWAP1 PUSH2 0x7403 JUMP JUMPDEST PUSH2 0x2BFF JUMP JUMPDEST PUSH1 0x40 MLOAD PUSH2 0x8DE SWAP2 SWAP1 PUSH2 0x7C00 JUMP JUMPDEST PUSH1 0x40 MLOAD DUP1 SWAP2 SUB SWAP1 RETURN JUMPDEST CALLVALUE DUP1 ISZERO PUSH2 0x8F3 JUMPI PUSH1 0x0 DUP1 REVERT JUMPDEST POP PUSH2 0x90E PUSH1 0x4 DUP1 CALLDATASIZE SUB DUP2 ADD SWAP1 PUSH2 0x909 SWAP2 SWAP1 PUSH2 0x7105 JUMP JUMPDEST PUSH2 0x2C11 JUMP JUMPDEST STOP JUMPDEST CALLVALUE DUP1 ISZERO PUSH2 0x91C JUMPI PUSH1 0x0 DUP1 REVERT JUMPDEST POP PUSH2 0x937 PUSH1 0x4 DUP1 CALLDATASIZE SUB DUP2 ADD SWAP1 PUSH2 0x932 SWAP2 SWAP1 PUSH2 0x7403 JUMP JUMPDEST PUSH2 0x2F1F JUMP JUMPDEST PUSH1 0x40 MLOAD PUSH2 0x944 SWAP2 SWAP1 PUSH2 0x7D19 JUMP JUMPDEST PUSH1 0x40 MLOAD DUP1 SWAP2 SUB SWAP1 RETURN JUMPDEST CALLVALUE DUP1 ISZERO PUSH2 0x959 JUMPI PUSH1 0x0 DUP1 REVERT JUMPDEST POP PUSH2 0x974 PUSH1 0x4 DUP1 CALLDATASIZE SUB DUP2 ADD SWAP1 PUSH2 0x96F SWAP2 SWAP1 PUSH2 0x7403 JUMP JUMPDEST PUSH2 0x2F60 JUMP JUMPDEST PUSH1 0x40 MLOAD PUSH2 0x981 SWAP2 SWAP1 PUSH2 0x820C JUMP JUMPDEST PUSH1 0x40 MLOAD DUP1 SWAP2 SUB SWAP1 RETURN JUMPDEST CALLVALUE DUP1 ISZERO PUSH2 0x996 JUMPI PUSH1 0x0 DUP1 REVERT JUMPDEST POP PUSH2 0x99F PUSH2 0x2F7C JUMP JUMPDEST STOP JUMPDEST CALLVALUE DUP1 ISZERO PUSH2 0x9AD JUMPI PUSH1 0x0 DUP1 REVERT JUMPDEST POP PUSH2 0x9C8 PUSH1 0x4 DUP1 CALLDATASIZE SUB DUP2 ADD SWAP1 PUSH2 0x9C3 SWAP2 SWAP1 PUSH2 0x735C JUMP JUMPDEST PUSH2 0x30E8 JUMP JUMPDEST STOP JUMPDEST CALLVALUE DUP1 ISZERO PUSH2 0x9D6 JUMPI PUSH1 0x0 DUP1 REVERT JUMPDEST POP PUSH2 0x9DF PUSH2 0x31B3 JUMP JUMPDEST PUSH1 0x40 MLOAD PUSH2 0x9EC SWAP2 SWAP1 PUSH2 0x7D19 JUMP JUMPDEST PUSH1 0x40 MLOAD DUP1 SWAP2 SUB SWAP1 RETURN JUMPDEST CALLVALUE DUP1 ISZERO PUSH2 0xA01 JUMPI PUSH1 0x0 DUP1 REVERT JUMPDEST POP PUSH2 0xA1C PUSH1 0x4 DUP1 CALLDATASIZE SUB DUP2 ADD SWAP1 PUSH2 0xA17 SWAP2 SWAP1 PUSH2 0x7186 JUMP JUMPDEST PUSH2 0x31CA JUMP JUMPDEST PUSH1 0x40 MLOAD PUSH2 0xA29 SWAP2 SWAP1 PUSH2 0x7C9E JUMP JUMPDEST PUSH1 0x40 MLOAD DUP1 SWAP2 SUB SWAP1 RETURN JUMPDEST CALLVALUE DUP1 ISZERO PUSH2 0xA3E JUMPI PUSH1 0x0 DUP1 REVERT JUMPDEST POP PUSH2 0xA59 PUSH1 0x4 DUP1 CALLDATASIZE SUB DUP2 ADD SWAP1 PUSH2 0xA54 SWAP2 SWAP1 PUSH2 0x7403 JUMP JUMPDEST PUSH2 0x32B7 JUMP JUMPDEST PUSH1 0x40 MLOAD PUSH2 0xA68 SWAP4 SWAP3 SWAP2 SWAP1 PUSH2 0x7D34 JUMP JUMPDEST PUSH1 0x40 MLOAD DUP1 SWAP2 SUB SWAP1 RETURN JUMPDEST CALLVALUE DUP1 ISZERO PUSH2 0xA7D JUMPI PUSH1 0x0 DUP1 REVERT JUMPDEST POP PUSH2 0xA98 PUSH1 0x4 DUP1 CALLDATASIZE SUB DUP2 ADD SWAP1 PUSH2 0xA93 SWAP2 SWAP1 PUSH2 0x7403 JUMP JUMPDEST PUSH2 0x339C JUMP JUMPDEST PUSH1 0x40 MLOAD PUSH2 0xAA5 SWAP2 SWAP1 PUSH2 0x7C00 JUMP JUMPDEST PUSH1 0x40 MLOAD DUP1 SWAP2 SUB SWAP1 RETURN JUMPDEST CALLVALUE DUP1 ISZERO PUSH2 0xABA JUMPI PUSH1 0x0 DUP1 REVERT JUMPDEST POP PUSH2 0xAC3 PUSH2 0x33AE JUMP JUMPDEST STOP JUMPDEST CALLVALUE DUP1 ISZERO PUSH2 0xAD1 JUMPI PUSH1 0x0 DUP1 REVERT JUMPDEST POP PUSH2 0xADA PUSH2 0x3473 JUMP JUMPDEST STOP JUMPDEST CALLVALUE DUP1 ISZERO PUSH2 0xAE8 JUMPI PUSH1 0x0 DUP1 REVERT JUMPDEST POP PUSH2 0xB03 PUSH1 0x4 DUP1 CALLDATASIZE SUB DUP2 ADD SWAP1 PUSH2 0xAFE SWAP2 SWAP1 PUSH2 0x7403 JUMP JUMPDEST PUSH2 0x35EB JUMP JUMPDEST STOP JUMPDEST CALLVALUE DUP1 ISZERO PUSH2 0xB11 JUMPI PUSH1 0x0 DUP1 REVERT JUMPDEST POP PUSH2 0xB2C PUSH1 0x4 DUP1 CALLDATASIZE SUB DUP2 ADD SWAP1 PUSH2 0xB27 SWAP2 SWAP1 PUSH2 0x6ED5 JUMP JUMPDEST PUSH2 0x36C7 JUMP JUMPDEST PUSH1 0x40 MLOAD PUSH2 0xB39 SWAP2 SWAP1 PUSH2 0x820C JUMP JUMPDEST PUSH1 0x40 MLOAD DUP1 SWAP2 SUB SWAP1 RETURN JUMPDEST CALLVALUE DUP1 ISZERO PUSH2 0xB4E JUMPI PUSH1 0x0 DUP1 REVERT JUMPDEST POP PUSH2 0xB57 PUSH2 0x3780 JUMP JUMPDEST STOP JUMPDEST CALLVALUE DUP1 ISZERO PUSH2 0xB65 JUMPI PUSH1 0x0 DUP1 REVERT JUMPDEST POP PUSH2 0xB6E PUSH2 0x3808 JUMP JUMPDEST STOP JUMPDEST CALLVALUE DUP1 ISZERO PUSH2 0xB7C JUMPI PUSH1 0x0 DUP1 REVERT JUMPDEST POP PUSH2 0xB97 PUSH1 0x4 DUP1 CALLDATASIZE SUB DUP2 ADD SWAP1 PUSH2 0xB92 SWAP2 SWAP1 PUSH2 0x6ED5 JUMP JUMPDEST PUSH2 0x3B17 JUMP JUMPDEST PUSH1 0x40 MLOAD PUSH2 0xBA4 SWAP2 SWAP1 PUSH2 0x82B7 JUMP JUMPDEST PUSH1 0x40 MLOAD DUP1 SWAP2 SUB SWAP1 RETURN JUMPDEST CALLVALUE DUP1 ISZERO PUSH2 0xBB9 JUMPI PUSH1 0x0 DUP1 REVERT JUMPDEST POP PUSH2 0xBD4 PUSH1 0x4 DUP1 CALLDATASIZE SUB DUP2 ADD SWAP1 PUSH2 0xBCF SWAP2 SWAP1 PUSH2 0x6ED5 JUMP JUMPDEST PUSH2 0x3B6D JUMP JUMPDEST PUSH1 0x40 MLOAD PUSH2 0xBE1 SWAP2 SWAP1 PUSH2 0x7CF7 JUMP JUMPDEST PUSH1 0x40 MLOAD DUP1 SWAP2 SUB SWAP1 RETURN JUMPDEST CALLVALUE DUP1 ISZERO PUSH2 0xBF6 JUMPI PUSH1 0x0 DUP1 REVERT JUMPDEST POP PUSH2 0xC11 PUSH1 0x4 DUP1 CALLDATASIZE SUB DUP2 ADD SWAP1 PUSH2 0xC0C SWAP2 SWAP1 PUSH2 0x72D5 JUMP JUMPDEST PUSH2 0x3CDD JUMP JUMPDEST STOP JUMPDEST CALLVALUE DUP1 ISZERO PUSH2 0xC1F JUMPI PUSH1 0x0 DUP1 REVERT JUMPDEST POP PUSH2 0xC28 PUSH2 0x3E28 JUMP JUMPDEST PUSH1 0x40 MLOAD PUSH2 0xC35 SWAP2 SWAP1 PUSH2 0x7D19 JUMP JUMPDEST PUSH1 0x40 MLOAD DUP1 SWAP2 SUB SWAP1 RETURN JUMPDEST CALLVALUE DUP1 ISZERO PUSH2 0xC4A JUMPI PUSH1 0x0 DUP1 REVERT JUMPDEST POP PUSH2 0xC65 PUSH1 0x4 DUP1 CALLDATASIZE SUB DUP2 ADD SWAP1 PUSH2 0xC60 SWAP2 SWAP1 PUSH2 0x7186 JUMP JUMPDEST PUSH2 0x3E47 JUMP JUMPDEST STOP JUMPDEST CALLVALUE DUP1 ISZERO PUSH2 0xC73 JUMPI PUSH1 0x0 DUP1 REVERT JUMPDEST POP PUSH2 0xC7C PUSH2 0x406E JUMP JUMPDEST PUSH1 0x40 MLOAD PUSH2 0xC89 SWAP2 SWAP1 PUSH2 0x820C JUMP JUMPDEST PUSH1 0x40 MLOAD DUP1 SWAP2 SUB SWAP1 RETURN JUMPDEST CALLVALUE DUP1 ISZERO PUSH2 0xC9E JUMPI PUSH1 0x0 DUP1 REVERT JUMPDEST POP PUSH2 0xCA7 PUSH2 0x4074 JUMP JUMPDEST PUSH1 0x40 MLOAD PUSH2 0xCB4 SWAP2 SWAP1 PUSH2 0x7C00 JUMP JUMPDEST PUSH1 0x40 MLOAD DUP1 SWAP2 SUB SWAP1 RETURN JUMPDEST CALLVALUE DUP1 ISZERO PUSH2 0xCC9 JUMPI PUSH1 0x0 DUP1 REVERT JUMPDEST POP PUSH2 0xCD2 PUSH2 0x409C JUMP JUMPDEST PUSH1 0x40 MLOAD PUSH2 0xCDF SWAP2 SWAP1 PUSH2 0x7D8F JUMP JUMPDEST PUSH1 0x40 MLOAD DUP1 SWAP2 SUB SWAP1 RETURN JUMPDEST CALLVALUE DUP1 ISZERO PUSH2 0xCF4 JUMPI PUSH1 0x0 DUP1 REVERT JUMPDEST POP PUSH2 0xCFD PUSH2 0x412E JUMP JUMPDEST PUSH1 0x40 MLOAD PUSH2 0xD0A SWAP2 SWAP1 PUSH2 0x82B7 JUMP JUMPDEST PUSH1 0x40 MLOAD DUP1 SWAP2 SUB SWAP1 RETURN JUMPDEST CALLVALUE DUP1 ISZERO PUSH2 0xD1F JUMPI PUSH1 0x0 DUP1 REVERT JUMPDEST POP PUSH2 0xD3A PUSH1 0x4 DUP1 CALLDATASIZE SUB DUP2 ADD SWAP1 PUSH2 0xD35 SWAP2 SWAP1 PUSH2 0x7045 JUMP JUMPDEST PUSH2 0x4133 JUMP JUMPDEST STOP JUMPDEST CALLVALUE DUP1 ISZERO PUSH2 0xD48 JUMPI PUSH1 0x0 DUP1 REVERT JUMPDEST POP PUSH2 0xD51 PUSH2 0x42AB JUMP JUMPDEST PUSH1 0x40 MLOAD PUSH2 0xD5E SWAP2 SWAP1 PUSH2 0x7D19 JUMP JUMPDEST PUSH1 0x40 MLOAD DUP1 SWAP2 SUB SWAP1 RETURN JUMPDEST CALLVALUE DUP1 ISZERO PUSH2 0xD73 JUMPI PUSH1 0x0 DUP1 REVERT JUMPDEST POP PUSH2 0xD8E PUSH1 0x4 DUP1 CALLDATASIZE SUB DUP2 ADD SWAP1 PUSH2 0xD89 SWAP2 SWAP1 PUSH2 0x7186 JUMP JUMPDEST PUSH2 0x42BE JUMP JUMPDEST STOP JUMPDEST CALLVALUE DUP1 ISZERO PUSH2 0xD9C JUMPI PUSH1 0x0 DUP1 REVERT JUMPDEST POP PUSH2 0xDB7 PUSH1 0x4 DUP1 CALLDATASIZE SUB DUP2 ADD SWAP1 PUSH2 0xDB2 SWAP2 SWAP1 PUSH2 0x6FC2 JUMP JUMPDEST PUSH2 0x445B JUMP JUMPDEST STOP JUMPDEST CALLVALUE DUP1 ISZERO PUSH2 0xDC5 JUMPI PUSH1 0x0 DUP1 REVERT JUMPDEST POP PUSH2 0xDCE PUSH2 0x44CE JUMP JUMPDEST STOP JUMPDEST CALLVALUE DUP1 ISZERO PUSH2 0xDDC JUMPI PUSH1 0x0 DUP1 REVERT JUMPDEST POP PUSH2 0xDF7 PUSH1 0x4 DUP1 CALLDATASIZE SUB DUP2 ADD SWAP1 PUSH2 0xDF2 SWAP2 SWAP1 PUSH2 0x7403 JUMP JUMPDEST PUSH2 0x46E7 JUMP JUMPDEST PUSH1 0x40 MLOAD PUSH2 0xE04 SWAP2 SWAP1 PUSH2 0x7C00 JUMP JUMPDEST PUSH1 0x40 MLOAD DUP1 SWAP2 SUB SWAP1 RETURN JUMPDEST CALLVALUE DUP1 ISZERO PUSH2 0xE19 JUMPI PUSH1 0x0 DUP1 REVERT JUMPDEST POP PUSH2 0xE22 PUSH2 0x4726 JUMP JUMPDEST PUSH1 0x40 MLOAD PUSH2 0xE30 SWAP3 SWAP2 SWAP1 PUSH2 0x7CC0 JUMP JUMPDEST PUSH1 0x40 MLOAD DUP1 SWAP2 SUB SWAP1 RETURN JUMPDEST CALLVALUE DUP1 ISZERO PUSH2 0xE45 JUMPI PUSH1 0x0 DUP1 REVERT JUMPDEST POP PUSH2 0xE60 PUSH1 0x4 DUP1 CALLDATASIZE SUB DUP2 ADD SWAP1 PUSH2 0xE5B SWAP2 SWAP1 PUSH2 0x7403 JUMP JUMPDEST PUSH2 0x49C5 JUMP JUMPDEST PUSH1 0x40 MLOAD PUSH2 0xE6D SWAP2 SWAP1 PUSH2 0x7D8F JUMP JUMPDEST PUSH1 0x40 MLOAD DUP1 SWAP2 SUB SWAP1 RETURN JUMPDEST PUSH2 0xE7E PUSH2 0x49D7 JUMP JUMPDEST STOP JUMPDEST CALLVALUE DUP1 ISZERO PUSH2 0xE8C JUMPI PUSH1 0x0 DUP1 REVERT JUMPDEST POP PUSH2 0xE95 PUSH2 0x4B7B JUMP JUMPDEST PUSH1 0x40 MLOAD PUSH2 0xEA2 SWAP2 SWAP1 PUSH2 0x820C JUMP JUMPDEST PUSH1 0x40 MLOAD DUP1 SWAP2 SUB SWAP1 RETURN JUMPDEST CALLVALUE DUP1 ISZERO PUSH2 0xEB7 JUMPI PUSH1 0x0 DUP1 REVERT JUMPDEST POP PUSH2 0xED2 PUSH1 0x4 DUP1 CALLDATASIZE SUB DUP2 ADD SWAP1 PUSH2 0xECD SWAP2 SWAP1 PUSH2 0x70C5 JUMP JUMPDEST PUSH2 0x4B8A JUMP JUMPDEST STOP JUMPDEST CALLVALUE DUP1 ISZERO PUSH2 0xEE0 JUMPI PUSH1 0x0 DUP1 REVERT JUMPDEST POP PUSH2 0xEFB PUSH1 0x4 DUP1 CALLDATASIZE SUB DUP2 ADD SWAP1 PUSH2 0xEF6 SWAP2 SWAP1 PUSH2 0x7254 JUMP JUMPDEST PUSH2 0x4D14 JUMP JUMPDEST STOP JUMPDEST CALLVALUE DUP1 ISZERO PUSH2 0xF09 JUMPI PUSH1 0x0 DUP1 REVERT JUMPDEST POP PUSH2 0xF12 PUSH2 0x4EB4 JUMP JUMPDEST PUSH1 0x40 MLOAD PUSH2 0xF1F SWAP2 SWAP1 PUSH2 0x7D19 JUMP JUMPDEST PUSH1 0x40 MLOAD DUP1 SWAP2 SUB SWAP1 RETURN JUMPDEST CALLVALUE DUP1 ISZERO PUSH2 0xF34 JUMPI PUSH1 0x0 DUP1 REVERT JUMPDEST POP PUSH2 0xF4F PUSH1 0x4 DUP1 CALLDATASIZE SUB DUP2 ADD SWAP1 PUSH2 0xF4A SWAP2 SWAP1 PUSH2 0x6F2F JUMP JUMPDEST PUSH2 0x4ECB JUMP JUMPDEST PUSH1 0x40 MLOAD PUSH2 0xF5C SWAP2 SWAP1 PUSH2 0x7D19 JUMP JUMPDEST PUSH1 0x40 MLOAD DUP1 SWAP2 SUB SWAP1 RETURN JUMPDEST CALLVALUE DUP1 ISZERO PUSH2 0xF71 JUMPI PUSH1 0x0 DUP1 REVERT JUMPDEST POP PUSH2 0xF8C PUSH1 0x4 DUP1 CALLDATASIZE SUB DUP2 ADD SWAP1 PUSH2 0xF87 SWAP2 SWAP1 PUSH2 0x73A9 JUMP JUMPDEST PUSH2 0x4F5F JUMP JUMPDEST STOP JUMPDEST CALLVALUE DUP1 ISZERO PUSH2 0xF9A JUMPI PUSH1 0x0 DUP1 REVERT JUMPDEST POP PUSH2 0xFB5 PUSH1 0x4 DUP1 CALLDATASIZE SUB DUP2 ADD SWAP1 PUSH2 0xFB0 SWAP2 SWAP1 PUSH2 0x6ED5 JUMP JUMPDEST PUSH2 0x4FF0 JUMP JUMPDEST STOP JUMPDEST CALLVALUE DUP1 ISZERO PUSH2 0xFC3 JUMPI PUSH1 0x0 DUP1 REVERT JUMPDEST POP PUSH2 0xFCC PUSH2 0x50E8 JUMP JUMPDEST PUSH1 0x40 MLOAD PUSH2 0xFD9 SWAP2 SWAP1 PUSH2 0x820C JUMP JUMPDEST PUSH1 0x40 MLOAD DUP1 SWAP2 SUB SWAP1 RETURN JUMPDEST CALLVALUE DUP1 ISZERO PUSH2 0xFEE JUMPI PUSH1 0x0 DUP1 REVERT JUMPDEST POP PUSH2 0x1009 PUSH1 0x4 DUP1 CALLDATASIZE SUB DUP2 ADD SWAP1 PUSH2 0x1004 SWAP2 SWAP1 PUSH2 0x7186 JUMP JUMPDEST PUSH2 0x50F3 JUMP JUMPDEST STOP JUMPDEST CALLVALUE DUP1 ISZERO PUSH2 0x1017 JUMPI PUSH1 0x0 DUP1 REVERT JUMPDEST POP PUSH2 0x1020 PUSH2 0x5394 JUMP JUMPDEST PUSH1 0x40 MLOAD PUSH2 0x102D SWAP2 SWAP1 PUSH2 0x820C JUMP JUMPDEST PUSH1 0x40 MLOAD DUP1 SWAP2 SUB SWAP1 RETURN JUMPDEST PUSH1 0x0 PUSH32 0x780E9D6300000000000000000000000000000000000000000000000000000000 PUSH28 0xFFFFFFFFFFFFFFFFFFFFFFFFFFFFFFFFFFFFFFFFFFFFFFFFFFFFFFFF NOT AND DUP3 PUSH28 0xFFFFFFFFFFFFFFFFFFFFFFFFFFFFFFFFFFFFFFFFFFFFFFFFFFFFFFFF NOT AND EQ DUP1 PUSH2 0x10A9 JUMPI POP PUSH2 0x10A8 DUP3 PUSH2 0x539A JUMP JUMPDEST JUMPDEST SWAP1 POP SWAP2 SWAP1 POP JUMP JUMPDEST PUSH1 0x2 PUSH1 0x0 SLOAD EQ ISZERO PUSH2 0x10F6 JUMPI PUSH1 0x40 MLOAD PUSH32 0x8C379A000000000000000000000000000000000000000000000000000000000 DUP2 MSTORE PUSH1 0x4 ADD PUSH2 0x10ED SWAP1 PUSH2 0x8191 JUMP JUMPDEST PUSH1 0x40 MLOAD DUP1 SWAP2 SUB SWAP1 REVERT JUMPDEST PUSH1 0x2 PUSH1 0x0 DUP2 SWAP1 SSTORE POP PUSH2 0x1106 PUSH2 0x542C JUMP JUMPDEST PUSH20 0xFFFFFFFFFFFFFFFFFFFFFFFFFFFFFFFFFFFFFFFF AND ADDRESS PUSH20 0xFFFFFFFFFFFFFFFFFFFFFFFFFFFFFFFFFFFFFFFF AND PUSH4 0x6352211E DUP4 PUSH1 0x40 MLOAD DUP3 PUSH4 0xFFFFFFFF AND PUSH1 0xE0 SHL DUP2 MSTORE PUSH1 0x4 ADD PUSH2 0x1155 SWAP2 SWAP1 PUSH2 0x820C JUMP JUMPDEST PUSH1 0x20 PUSH1 0x40 MLOAD DUP1 DUP4 SUB DUP2 DUP7 DUP1 EXTCODESIZE ISZERO DUP1 ISZERO PUSH2 0x116D JUMPI PUSH1 0x0 DUP1 REVERT JUMPDEST POP GAS STATICCALL ISZERO DUP1 ISZERO PUSH2 0x1181 JUMPI RETURNDATASIZE PUSH1 0x0 DUP1 RETURNDATACOPY RETURNDATASIZE PUSH1 0x0 REVERT JUMPDEST POP POP POP POP PUSH1 0x40 MLOAD RETURNDATASIZE PUSH1 0x1F NOT PUSH1 0x1F DUP3 ADD AND DUP3 ADD DUP1 PUSH1 0x40 MSTORE POP DUP2 ADD SWAP1 PUSH2 0x11A5 SWAP2 SWAP1 PUSH2 0x6F02 JUMP JUMPDEST PUSH20 0xFFFFFFFFFFFFFFFFFFFFFFFFFFFFFFFFFFFFFFFF AND EQ PUSH2 0x11FB JUMPI PUSH1 0x40 MLOAD PUSH32 0x8C379A000000000000000000000000000000000000000000000000000000000 DUP2 MSTORE PUSH1 0x4 ADD PUSH2 0x11F2 SWAP1 PUSH2 0x7FD1 JUMP JUMPDEST PUSH1 0x40 MLOAD DUP1 SWAP2 SUB SWAP1 REVERT JUMPDEST PUSH2 0x1203 PUSH2 0x4EB4 JUMP JUMPDEST PUSH2 0x1242 JUMPI PUSH1 0x40 MLOAD PUSH32 0x8C379A000000000000000000000000000000000000000000000000000000000 DUP2 MSTORE PUSH1 0x4 ADD PUSH2 0x1239 SWAP1 PUSH2 0x81B1 JUMP JUMPDEST PUSH1 0x40 MLOAD DUP1 SWAP2 SUB SWAP1 REVERT JUMPDEST PUSH1 0x1 PUSH1 0x5 PUSH1 0x0 DUP4 DUP2 MSTORE PUSH1 0x20 ADD SWAP1 DUP2 MSTORE PUSH1 0x20 ADD PUSH1 0x0 KECCAK256 PUSH1 0x3 ADD PUSH1 0x0 PUSH2 0x100 EXP DUP2 SLOAD DUP2 PUSH1 0xFF MUL NOT AND SWAP1 DUP4 ISZERO ISZERO MUL OR SWAP1 SSTORE POP ADDRESS PUSH20 0xFFFFFFFFFFFFFFFFFFFFFFFFFFFFFFFFFFFFFFFF AND PUSH4 0x42842E0E DUP5 DUP5 DUP5 PUSH1 0x40 MLOAD DUP5 PUSH4 0xFFFFFFFF AND PUSH1 0xE0 SHL DUP2 MSTORE PUSH1 0x4 ADD PUSH2 0x12AE SWAP4 SWAP3 SWAP2 SWAP1 PUSH2 0x7C1B JUMP JUMPDEST PUSH1 0x0 PUSH1 0x40 MLOAD DUP1 DUP4 SUB DUP2 PUSH1 0x0 DUP8 DUP1 EXTCODESIZE ISZERO DUP1 ISZERO PUSH2 0x12C8 JUMPI PUSH1 0x0 DUP1 REVERT JUMPDEST POP GAS CALL ISZERO DUP1 ISZERO PUSH2 0x12DC JUMPI RETURNDATASIZE PUSH1 0x0 DUP1 RETURNDATACOPY RETURNDATASIZE PUSH1 0x0 REVERT JUMPDEST POP POP POP POP PUSH1 0x0 PUSH1 0x5 PUSH1 0x0 DUP4 DUP2 MSTORE PUSH1 0x20 ADD SWAP1 DUP2 MSTORE PUSH1 0x20 ADD PUSH1 0x0 KECCAK256 PUSH1 0x3 ADD PUSH1 0x0 PUSH2 0x100 EXP DUP2 SLOAD DUP2 PUSH1 0xFF MUL NOT AND SWAP1 DUP4 ISZERO ISZERO MUL OR SWAP1 SSTORE POP PUSH1 0x0 PUSH1 0x5 PUSH1 0x0 DUP4 DUP2 MSTORE PUSH1 0x20 ADD SWAP1 DUP2 MSTORE PUSH1 0x20 ADD PUSH1 0x0 KECCAK256 PUSH1 0x0 ADD SLOAD EQ PUSH2 0x1389 JUMPI DUP1 DUP3 PUSH20 0xFFFFFFFFFFFFFFFFFFFFFFFFFFFFFFFFFFFFFFFF AND DUP5 PUSH20 0xFFFFFFFFFFFFFFFFFFFFFFFFFFFFFFFFFFFFFFFF AND PUSH32 0xF315AF4C34CE2407CC1DA2405672C4C7387FD44D616401235C21EF22B9BBD138 PUSH1 0x40 MLOAD PUSH1 0x40 MLOAD DUP1 SWAP2 SUB SWAP1 LOG4 JUMPDEST PUSH1 0x1 PUSH1 0x0 DUP2 SWAP1 SSTORE POP POP POP POP JUMP JUMPDEST PUSH1 0x60 PUSH1 0x16 DUP1 SLOAD PUSH2 0x13A5 SWAP1 PUSH2 0x86AF JUMP JUMPDEST DUP1 PUSH1 0x1F ADD PUSH1 0x20 DUP1 SWAP2 DIV MUL PUSH1 0x20 ADD PUSH1 0x40 MLOAD SWAP1 DUP2 ADD PUSH1 0x40 MSTORE DUP1 SWAP3 SWAP2 SWAP1 DUP2 DUP2 MSTORE PUSH1 0x20 ADD DUP3 DUP1 SLOAD PUSH2 0x13D1 SWAP1 PUSH2 0x86AF JUMP JUMPDEST DUP1 ISZERO PUSH2 0x141E JUMPI DUP1 PUSH1 0x1F LT PUSH2 0x13F3 JUMPI PUSH2 0x100 DUP1 DUP4 SLOAD DIV MUL DUP4 MSTORE SWAP2 PUSH1 0x20 ADD SWAP2 PUSH2 0x141E JUMP JUMPDEST DUP3 ADD SWAP2 SWAP1 PUSH1 0x0 MSTORE PUSH1 0x20 PUSH1 0x0 KECCAK256 SWAP1 JUMPDEST DUP2 SLOAD DUP2 MSTORE SWAP1 PUSH1 0x1 ADD SWAP1 PUSH1 0x20 ADD DUP1 DUP4 GT PUSH2 0x1401 JUMPI DUP3 SWAP1 SUB PUSH1 0x1F AND DUP3 ADD SWAP2 JUMPDEST POP POP POP POP POP SWAP1 POP SWAP1 JUMP JUMPDEST PUSH1 0x0 PUSH2 0x1433 DUP3 PUSH2 0x5434 JUMP JUMPDEST PUSH2 0x1469 JUMPI PUSH1 0x40 MLOAD PUSH32 0xCF4700E400000000000000000000000000000000000000000000000000000000 DUP2 MSTORE PUSH1 0x4 ADD PUSH1 0x40 MLOAD DUP1 SWAP2 SUB SWAP1 REVERT JUMPDEST PUSH1 0x1A PUSH1 0x0 DUP4 DUP2 MSTORE PUSH1 0x20 ADD SWAP1 DUP2 MSTORE PUSH1 0x20 ADD PUSH1 0x0 KECCAK256 PUSH1 0x0 SWAP1 SLOAD SWAP1 PUSH2 0x100 EXP SWAP1 DIV PUSH20 0xFFFFFFFFFFFFFFFFFFFFFFFFFFFFFFFFFFFFFFFF AND SWAP1 POP SWAP2 SWAP1 POP JUMP JUMPDEST PUSH1 0x0 PUSH2 0x14AF DUP3 PUSH2 0x5493 JUMP JUMPDEST SWAP1 POP DUP1 PUSH20 0xFFFFFFFFFFFFFFFFFFFFFFFFFFFFFFFFFFFFFFFF AND DUP4 PUSH20 0xFFFFFFFFFFFFFFFFFFFFFFFFFFFFFFFFFFFFFFFF AND EQ ISZERO PUSH2 0x1517 JUMPI PUSH1 0x40 MLOAD PUSH32 0x943F7B8C00000000000000000000000000000000000000000000000000000000 DUP2 MSTORE PUSH1 0x4 ADD PUSH1 0x40 MLOAD DUP1 SWAP2 SUB SWAP1 REVERT JUMPDEST DUP1 PUSH20 0xFFFFFFFFFFFFFFFFFFFFFFFFFFFFFFFFFFFFFFFF AND PUSH2 0x1536 PUSH2 0x54E5 JUMP JUMPDEST PUSH20 0xFFFFFFFFFFFFFFFFFFFFFFFFFFFFFFFFFFFFFFFF AND EQ PUSH2 0x1599 JUMPI PUSH2 0x1562 DUP2 PUSH2 0x155D PUSH2 0x54E5 JUMP JUMPDEST PUSH2 0x4ECB JUMP JUMPDEST PUSH2 0x1598 JUMPI PUSH1 0x40 MLOAD PUSH32 0xCFB3B94200000000000000000000000000000000000000000000000000000000 DUP2 MSTORE PUSH1 0x4 ADD PUSH1 0x40 MLOAD DUP1 SWAP2 SUB SWAP1 REVERT JUMPDEST JUMPDEST DUP3 PUSH1 0x1A PUSH1 0x0 DUP5 DUP2 MSTORE PUSH1 0x20 ADD SWAP1 DUP2 MSTORE PUSH1 0x20 ADD PUSH1 0x0 KECCAK256 PUSH1 0x0 PUSH2 0x100 EXP DUP2 SLOAD DUP2 PUSH20 0xFFFFFFFFFFFFFFFFFFFFFFFFFFFFFFFFFFFFFFFF MUL NOT AND SWAP1 DUP4 PUSH20 0xFFFFFFFFFFFFFFFFFFFFFFFFFFFFFFFFFFFFFFFF AND MUL OR SWAP1 SSTORE POP DUP2 DUP4 PUSH20 0xFFFFFFFFFFFFFFFFFFFFFFFFFFFFFFFFFFFFFFFF AND DUP3 PUSH20 0xFFFFFFFFFFFFFFFFFFFFFFFFFFFFFFFFFFFFFFFF AND PUSH32 0x8C5BE1E5EBEC7D5BD14F71427D1E84F3DD0314C0F7B2291E5B200AC8C7C3B925 PUSH1 0x40 MLOAD PUSH1 0x40 MLOAD DUP1 SWAP2 SUB SWAP1 LOG4 POP POP POP JUMP JUMPDEST PUSH1 0x6 PUSH1 0x0 SWAP1 SLOAD SWAP1 PUSH2 0x100 EXP SWAP1 DIV PUSH20 0xFFFFFFFFFFFFFFFFFFFFFFFFFFFFFFFFFFFFFFFF AND DUP2 JUMP JUMPDEST PUSH1 0xF PUSH1 0x0 SWAP1 SLOAD SWAP1 PUSH2 0x100 EXP SWAP1 DIV PUSH2 0xFFFF AND DUP2 JUMP JUMPDEST PUSH2 0x168D PUSH2 0x542C JUMP JUMPDEST PUSH20 0xFFFFFFFFFFFFFFFFFFFFFFFFFFFFFFFFFFFFFFFF AND PUSH2 0x16AB PUSH2 0x4074 JUMP JUMPDEST PUSH20 0xFFFFFFFFFFFFFFFFFFFFFFFFFFFFFFFFFFFFFFFF AND EQ PUSH2 0x1701 JUMPI PUSH1 0x40 MLOAD PUSH32 0x8C379A000000000000000000000000000000000000000000000000000000000 DUP2 MSTORE PUSH1 0x4 ADD PUSH2 0x16F8 SWAP1 PUSH2 0x8071 JUMP JUMPDEST PUSH1 0x40 MLOAD DUP1 SWAP2 SUB SWAP1 REVERT JUMPDEST DUP1 PUSH1 0x6 PUSH1 0x0 PUSH2 0x100 EXP DUP2 SLOAD DUP2 PUSH20 0xFFFFFFFFFFFFFFFFFFFFFFFFFFFFFFFFFFFFFFFF MUL NOT AND SWAP1 DUP4 PUSH20 0xFFFFFFFFFFFFFFFFFFFFFFFFFFFFFFFFFFFFFFFF AND MUL OR SWAP1 SSTORE POP POP JUMP JUMPDEST PUSH1 0x0 PUSH1 0x2 PUSH1 0x0 PUSH2 0x1753 PUSH2 0x542C JUMP JUMPDEST PUSH20 0xFFFFFFFFFFFFFFFFFFFFFFFFFFFFFFFFFFFFFFFF AND PUSH20 0xFFFFFFFFFFFFFFFFFFFFFFFFFFFFFFFFFFFFFFFF AND DUP2 MSTORE PUSH1 0x20 ADD SWAP1 DUP2 MSTORE PUSH1 0x20 ADD PUSH1 0x0 KECCAK256 PUSH1 0x0 SWAP1 SLOAD SWAP1 PUSH2 0x100 EXP SWAP1 DIV PUSH1 0xFF AND SWAP1 POP PUSH2 0x17A5 PUSH2 0x542C JUMP JUMPDEST PUSH20 0xFFFFFFFFFFFFFFFFFFFFFFFFFFFFFFFFFFFFFFFF AND PUSH2 0x17C3 PUSH2 0x4074 JUMP JUMPDEST PUSH20 0xFFFFFFFFFFFFFFFFFFFFFFFFFFFFFFFFFFFFFFFF AND EQ DUP1 PUSH2 0x17EB JUMPI POP PUSH1 0x1 PUSH1 0xFF AND DUP2 PUSH1 0xFF AND EQ JUMPDEST PUSH2 0x182A JUMPI PUSH1 0x40 MLOAD PUSH32 0x8C379A000000000000000000000000000000000000000000000000000000000 DUP2 MSTORE PUSH1 0x4 ADD PUSH2 0x1821 SWAP1 PUSH2 0x8031 JUMP JUMPDEST PUSH1 0x40 MLOAD DUP1 SWAP2 SUB SWAP1 REVERT JUMPDEST PUSH1 0x0 PUSH20 0xFFFFFFFFFFFFFFFFFFFFFFFFFFFFFFFFFFFFFFFF AND ADDRESS PUSH20 0xFFFFFFFFFFFFFFFFFFFFFFFFFFFFFFFFFFFFFFFF AND PUSH4 0x6352211E DUP6 PUSH1 0x40 MLOAD DUP3 PUSH4 0xFFFFFFFF AND PUSH1 0xE0 SHL DUP2 MSTORE PUSH1 0x4 ADD PUSH2 0x187B SWAP2 SWAP1 PUSH2 0x820C JUMP JUMPDEST PUSH1 0x20 PUSH1 0x40 MLOAD DUP1 DUP4 SUB DUP2 DUP7 DUP1 EXTCODESIZE ISZERO DUP1 ISZERO PUSH2 0x1893 JUMPI PUSH1 0x0 DUP1 REVERT JUMPDEST POP GAS STATICCALL ISZERO DUP1 ISZERO PUSH2 0x18A7 JUMPI RETURNDATASIZE PUSH1 0x0 DUP1 RETURNDATACOPY RETURNDATASIZE PUSH1 0x0 REVERT JUMPDEST POP POP POP POP PUSH1 0x40 MLOAD RETURNDATASIZE PUSH1 0x1F NOT PUSH1 0x1F DUP3 ADD AND DUP3 ADD DUP1 PUSH1 0x40 MSTORE POP DUP2 ADD SWAP1 PUSH2 0x18CB SWAP2 SWAP1 PUSH2 0x6F02 JUMP JUMPDEST PUSH20 0xFFFFFFFFFFFFFFFFFFFFFFFFFFFFFFFFFFFFFFFF AND EQ ISZERO PUSH2 0x1922 JUMPI PUSH1 0x40 MLOAD PUSH32 0x8C379A000000000000000000000000000000000000000000000000000000000 DUP2 MSTORE PUSH1 0x4 ADD PUSH2 0x1919 SWAP1 PUSH2 0x7F11 JUMP JUMPDEST PUSH1 0x40 MLOAD DUP1 SWAP2 SUB SWAP1 REVERT JUMPDEST DUP2 PUSH1 0x11 PUSH1 0x0 DUP6 DUP2 MSTORE PUSH1 0x20 ADD SWAP1 DUP2 MSTORE PUSH1 0x20 ADD PUSH1 0x0 KECCAK256 SWAP1 DUP1 MLOAD SWAP1 PUSH1 0x20 ADD SWAP1 PUSH2 0x1949 SWAP3 SWAP2 SWAP1 PUSH2 0x6A0E JUMP JUMPDEST POP PUSH32 0x483621391B5E72D74EB03C7B5715531C486E326FB115AB3BCF34B133041854CE DUP4 DUP4 PUSH1 0x40 MLOAD PUSH2 0x197B SWAP3 SWAP2 SWAP1 PUSH2 0x8227 JUMP JUMPDEST PUSH1 0x40 MLOAD DUP1 SWAP2 SUB SWAP1 LOG1 POP POP POP JUMP JUMPDEST PUSH1 0x0 PUSH2 0x1992 PUSH2 0x54ED JUMP JUMPDEST PUSH2 0x199A PUSH2 0x54F7 JUMP JUMPDEST SUB SWAP1 POP SWAP1 JUMP JUMPDEST PUSH1 0x1 DUP2 JUMP JUMPDEST PUSH1 0x2 PUSH1 0x0 SLOAD EQ ISZERO PUSH2 0x19EB JUMPI PUSH1 0x40 MLOAD PUSH32 0x8C379A000000000000000000000000000000000000000000000000000000000 DUP2 MSTORE PUSH1 0x4 ADD PUSH2 0x19E2 SWAP1 PUSH2 0x8191 JUMP JUMPDEST PUSH1 0x40 MLOAD DUP1 SWAP2 SUB SWAP1 REVERT JUMPDEST PUSH1 0x2 PUSH1 0x0 DUP2 SWAP1 SSTORE POP PUSH2 0x19FB PUSH2 0x209E JUMP JUMPDEST PUSH2 0x1A3A JUMPI PUSH1 0x40 MLOAD PUSH32 0x8C379A000000000000000000000000000000000000000000000000000000000 DUP2 MSTORE PUSH1 0x4 ADD PUSH2 0x1A31 SWAP1 PUSH2 0x7EB1 JUMP JUMPDEST PUSH1 0x40 MLOAD DUP1 SWAP2 SUB SWAP1 REVERT JUMPDEST PUSH1 0x0 JUMPDEST DUP3 DUP3 SWAP1 POP DUP2 LT ISZERO PUSH2 0x1BEB JUMPI PUSH1 0x0 DUP4 DUP4 DUP4 DUP2 DUP2 LT PUSH2 0x1A5D JUMPI PUSH2 0x1A5C PUSH2 0x8844 JUMP JUMPDEST JUMPDEST SWAP1 POP PUSH1 0x20 MUL ADD CALLDATALOAD SWAP1 POP PUSH2 0x1A6E PUSH2 0x542C JUMP JUMPDEST PUSH20 0xFFFFFFFFFFFFFFFFFFFFFFFFFFFFFFFFFFFFFFFF AND ADDRESS PUSH20 0xFFFFFFFFFFFFFFFFFFFFFFFFFFFFFFFFFFFFFFFF AND PUSH4 0x6352211E DUP4 PUSH1 0x40 MLOAD DUP3 PUSH4 0xFFFFFFFF AND PUSH1 0xE0 SHL DUP2 MSTORE PUSH1 0x4 ADD PUSH2 0x1ABD SWAP2 SWAP1 PUSH2 0x820C JUMP JUMPDEST PUSH1 0x20 PUSH1 0x40 MLOAD DUP1 DUP4 SUB DUP2 DUP7 DUP1 EXTCODESIZE ISZERO DUP1 ISZERO PUSH2 0x1AD5 JUMPI PUSH1 0x0 DUP1 REVERT JUMPDEST POP GAS STATICCALL ISZERO DUP1 ISZERO PUSH2 0x1AE9 JUMPI RETURNDATASIZE PUSH1 0x0 DUP1 RETURNDATACOPY RETURNDATASIZE PUSH1 0x0 REVERT JUMPDEST POP POP POP POP PUSH1 0x40 MLOAD RETURNDATASIZE PUSH1 0x1F NOT PUSH1 0x1F DUP3 ADD AND DUP3 ADD DUP1 PUSH1 0x40 MSTORE POP DUP2 ADD SWAP1 PUSH2 0x1B0D SWAP2 SWAP1 PUSH2 0x6F02 JUMP JUMPDEST PUSH20 0xFFFFFFFFFFFFFFFFFFFFFFFFFFFFFFFFFFFFFFFF AND EQ PUSH2 0x1B63 JUMPI PUSH1 0x40 MLOAD PUSH32 0x8C379A000000000000000000000000000000000000000000000000000000000 DUP2 MSTORE PUSH1 0x4 ADD PUSH2 0x1B5A SWAP1 PUSH2 0x7FD1 JUMP JUMPDEST PUSH1 0x40 MLOAD DUP1 SWAP2 SUB SWAP1 REVERT JUMPDEST PUSH1 0x0 PUSH1 0x5 PUSH1 0x0 DUP4 DUP2 MSTORE PUSH1 0x20 ADD SWAP1 DUP2 MSTORE PUSH1 0x20 ADD PUSH1 0x0 KECCAK256 SWAP1 POP PUSH1 0x0 DUP2 PUSH1 0x0 ADD SLOAD EQ ISZERO PUSH2 0x1BDC JUMPI TIMESTAMP DUP2 PUSH1 0x0 ADD DUP2 SWAP1 SSTORE POP PUSH2 0x1B98 PUSH2 0x542C JUMP JUMPDEST PUSH20 0xFFFFFFFFFFFFFFFFFFFFFFFFFFFFFFFFFFFFFFFF AND DUP3 PUSH32 0x53BB0493ECC6832A33CE35FAA61A3BB625F2FA9BB9791311E77E7814871D96A9 PUSH1 0x40 MLOAD PUSH1 0x40 MLOAD DUP1 SWAP2 SUB SWAP1 LOG3 JUMPDEST POP POP DUP1 DUP1 PUSH1 0x1 ADD SWAP2 POP POP PUSH2 0x1A3D JUMP JUMPDEST POP PUSH1 0x1 PUSH1 0x0 DUP2 SWAP1 SSTORE POP POP POP JUMP JUMPDEST PUSH1 0x0 DUP2 JUMP JUMPDEST PUSH2 0x1C08 DUP4 DUP4 DUP4 PUSH2 0x550A JUMP JUMPDEST POP POP POP JUMP JUMPDEST PUSH2 0x1C15 PUSH2 0x542C JUMP JUMPDEST PUSH20 0xFFFFFFFFFFFFFFFFFFFFFFFFFFFFFFFFFFFFFFFF AND ORIGIN PUSH20 0xFFFFFFFFFFFFFFFFFFFFFFFFFFFFFFFFFFFFFFFF AND EQ PUSH2 0x1C82 JUMPI PUSH1 0x40 MLOAD PUSH32 0x8C379A000000000000000000000000000000000000000000000000000000000 DUP2 MSTORE PUSH1 0x4 ADD PUSH2 0x1C79 SWAP1 PUSH2 0x8011 JUMP JUMPDEST PUSH1 0x40 MLOAD DUP1 SWAP2 SUB SWAP1 REVERT JUMPDEST PUSH1 0x2 PUSH1 0x0 SLOAD EQ ISZERO PUSH2 0x1CC8 JUMPI PUSH1 0x40 MLOAD PUSH32 0x8C379A000000000000000000000000000000000000000000000000000000000 DUP2 MSTORE PUSH1 0x4 ADD PUSH2 0x1CBF SWAP1 PUSH2 0x8191 JUMP JUMPDEST PUSH1 0x40 MLOAD DUP1 SWAP2 SUB SWAP1 REVERT JUMPDEST PUSH1 0x2 PUSH1 0x0 DUP2 SWAP1 SSTORE POP ADDRESS PUSH20 0xFFFFFFFFFFFFFFFFFFFFFFFFFFFFFFFFFFFFFFFF AND PUSH4 0x6352211E DUP3 PUSH1 0x40 MLOAD DUP3 PUSH4 0xFFFFFFFF AND PUSH1 0xE0 SHL DUP2 MSTORE PUSH1 0x4 ADD PUSH2 0x1D09 SWAP2 SWAP1 PUSH2 0x820C JUMP JUMPDEST PUSH1 0x20 PUSH1 0x40 MLOAD DUP1 DUP4 SUB DUP2 DUP7 DUP1 EXTCODESIZE ISZERO DUP1 ISZERO PUSH2 0x1D21 JUMPI PUSH1 0x0 DUP1 REVERT JUMPDEST POP GAS STATICCALL ISZERO DUP1 ISZERO PUSH2 0x1D35 JUMPI RETURNDATASIZE PUSH1 0x0 DUP1 RETURNDATACOPY RETURNDATASIZE PUSH1 0x0 REVERT JUMPDEST POP POP POP POP PUSH1 0x40 MLOAD RETURNDATASIZE PUSH1 0x1F NOT PUSH1 0x1F DUP3 ADD AND DUP3 ADD DUP1 PUSH1 0x40 MSTORE POP DUP2 ADD SWAP1 PUSH2 0x1D59 SWAP2 SWAP1 PUSH2 0x6F02 JUMP JUMPDEST PUSH20 0xFFFFFFFFFFFFFFFFFFFFFFFFFFFFFFFFFFFFFFFF AND CALLER PUSH20 0xFFFFFFFFFFFFFFFFFFFFFFFFFFFFFFFFFFFFFFFF AND EQ PUSH2 0x1DC6 JUMPI PUSH1 0x40 MLOAD PUSH32 0x8C379A000000000000000000000000000000000000000000000000000000000 DUP2 MSTORE PUSH1 0x4 ADD PUSH2 0x1DBD SWAP1 PUSH2 0x81D1 JUMP JUMPDEST PUSH1 0x40 MLOAD DUP1 SWAP2 SUB SWAP1 REVERT JUMPDEST PUSH1 0x6 PUSH1 0x0 SWAP1 SLOAD SWAP1 PUSH2 0x100 EXP SWAP1 DIV PUSH20 0xFFFFFFFFFFFFFFFFFFFFFFFFFFFFFFFFFFFFFFFF AND PUSH20 0xFFFFFFFFFFFFFFFFFFFFFFFFFFFFFFFFFFFFFFFF AND CALLER PUSH20 0xFFFFFFFFFFFFFFFFFFFFFFFFFFFFFFFFFFFFFFFF AND EQ ISZERO PUSH2 0x1E57 JUMPI PUSH1 0x40 MLOAD PUSH32 0x8C379A000000000000000000000000000000000000000000000000000000000 DUP2 MSTORE PUSH1 0x4 ADD PUSH2 0x1E4E SWAP1 PUSH2 0x8131 JUMP JUMPDEST PUSH1 0x40 MLOAD DUP1 SWAP2 SUB SWAP1 REVERT JUMPDEST PUSH2 0x1E5F PUSH2 0x3E28 JUMP JUMPDEST PUSH2 0x1E9E JUMPI PUSH1 0x40 MLOAD PUSH32 0x8C379A000000000000000000000000000000000000000000000000000000000 DUP2 MSTORE PUSH1 0x4 ADD PUSH2 0x1E95 SWAP1 PUSH2 0x7F91 JUMP JUMPDEST PUSH1 0x40 MLOAD DUP1 SWAP2 SUB SWAP1 REVERT JUMPDEST PUSH1 0x0 PUSH2 0x1EA9 DUP3 PUSH2 0x58B4 JUMP JUMPDEST SWAP1 POP PUSH1 0x0 DUP2 GT PUSH2 0x1EEE JUMPI PUSH1 0x40 MLOAD PUSH32 0x8C379A000000000000000000000000000000000000000000000000000000000 DUP2 MSTORE PUSH1 0x4 ADD PUSH2 0x1EE5 SWAP1 PUSH2 0x7ED1 JUMP JUMPDEST PUSH1 0x40 MLOAD DUP1 SWAP2 SUB SWAP1 REVERT JUMPDEST DUP1 SELFBALANCE LT ISZERO PUSH2 0x1F31 JUMPI PUSH1 0x40 MLOAD PUSH32 0x8C379A000000000000000000000000000000000000000000000000000000000 DUP2 MSTORE PUSH1 0x4 ADD PUSH2 0x1F28 SWAP1 PUSH2 0x80D1 JUMP JUMPDEST PUSH1 0x40 MLOAD DUP1 SWAP2 SUB SWAP1 REVERT JUMPDEST ADDRESS PUSH20 0xFFFFFFFFFFFFFFFFFFFFFFFFFFFFFFFFFFFFFFFF AND PUSH4 0x23B872DD CALLER PUSH1 0x6 PUSH1 0x0 SWAP1 SLOAD SWAP1 PUSH2 0x100 EXP SWAP1 DIV PUSH20 0xFFFFFFFFFFFFFFFFFFFFFFFFFFFFFFFFFFFFFFFF AND DUP6 PUSH1 0x40 MLOAD DUP5 PUSH4 0xFFFFFFFF AND PUSH1 0xE0 SHL DUP2 MSTORE PUSH1 0x4 ADD PUSH2 0x1F90 SWAP4 SWAP3 SWAP2 SWAP1 PUSH2 0x7C1B JUMP JUMPDEST PUSH1 0x0 PUSH1 0x40 MLOAD DUP1 DUP4 SUB DUP2 PUSH1 0x0 DUP8 DUP1 EXTCODESIZE ISZERO DUP1 ISZERO PUSH2 0x1FAA JUMPI PUSH1 0x0 DUP1 REVERT JUMPDEST POP GAS CALL ISZERO DUP1 ISZERO PUSH2 0x1FBE JUMPI RETURNDATASIZE PUSH1 0x0 DUP1 RETURNDATACOPY RETURNDATASIZE PUSH1 0x0 REVERT JUMPDEST POP POP POP POP CALLER PUSH20 0xFFFFFFFFFFFFFFFFFFFFFFFFFFFFFFFFFFFFFFFF AND PUSH2 0x8FC DUP3 SWAP1 DUP2 ISZERO MUL SWAP1 PUSH1 0x40 MLOAD PUSH1 0x0 PUSH1 0x40 MLOAD DUP1 DUP4 SUB DUP2 DUP6 DUP9 DUP9 CALL SWAP4 POP POP POP POP ISZERO DUP1 ISZERO PUSH2 0x2008 JUMPI RETURNDATASIZE PUSH1 0x0 DUP1 RETURNDATACOPY RETURNDATASIZE PUSH1 0x0 REVERT JUMPDEST POP PUSH1 0x6 PUSH1 0x0 SWAP1 SLOAD SWAP1 PUSH2 0x100 EXP SWAP1 DIV PUSH20 0xFFFFFFFFFFFFFFFFFFFFFFFFFFFFFFFFFFFFFFFF AND PUSH20 0xFFFFFFFFFFFFFFFFFFFFFFFFFFFFFFFFFFFFFFFF AND CALLER PUSH20 0xFFFFFFFFFFFFFFFFFFFFFFFFFFFFFFFFFFFFFFFF AND PUSH32 0x88808AFC48888C0E3EC9C545474E31CE16F177BE8D0C8BA3922274893615750E DUP5 DUP5 PUSH1 0x40 MLOAD PUSH2 0x208A SWAP3 SWAP2 SWAP1 PUSH2 0x8257 JUMP JUMPDEST PUSH1 0x40 MLOAD DUP1 SWAP2 SUB SWAP1 LOG3 POP PUSH1 0x1 PUSH1 0x0 DUP2 SWAP1 SSTORE POP POP JUMP JUMPDEST PUSH1 0x0 PUSH1 0x4 PUSH1 0x1 SWAP1 SLOAD SWAP1 PUSH2 0x100 EXP SWAP1 DIV PUSH1 0xFF AND SWAP1 POP SWAP1 JUMP JUMPDEST PUSH1 0x2 DUP2 JUMP JUMPDEST PUSH1 0x7 DUP1 PUSH1 0x0 ADD SLOAD SWAP1 DUP1 PUSH1 0x1 ADD SLOAD SWAP1 DUP1 PUSH1 0x2 ADD SLOAD SWAP1 POP DUP4 JUMP JUMPDEST PUSH1 0x0 PUSH1 0x2 PUSH1 0x0 PUSH2 0x20E0 PUSH2 0x542C JUMP JUMPDEST PUSH20 0xFFFFFFFFFFFFFFFFFFFFFFFFFFFFFFFFFFFFFFFF AND PUSH20 0xFFFFFFFFFFFFFFFFFFFFFFFFFFFFFFFFFFFFFFFF AND DUP2 MSTORE PUSH1 0x20 ADD SWAP1 DUP2 MSTORE PUSH1 0x20 ADD PUSH1 0x0 KECCAK256 PUSH1 0x0 SWAP1 SLOAD SWAP1 PUSH2 0x100 EXP SWAP1 DIV PUSH1 0xFF AND SWAP1 POP PUSH2 0x2132 PUSH2 0x542C JUMP JUMPDEST PUSH20 0xFFFFFFFFFFFFFFFFFFFFFFFFFFFFFFFFFFFFFFFF AND PUSH2 0x2150 PUSH2 0x4074 JUMP JUMPDEST PUSH20 0xFFFFFFFFFFFFFFFFFFFFFFFFFFFFFFFFFFFFFFFF AND EQ DUP1 PUSH2 0x2178 JUMPI POP PUSH1 0x1 PUSH1 0xFF AND DUP2 PUSH1 0xFF AND EQ JUMPDEST PUSH2 0x21B7 JUMPI PUSH1 0x40 MLOAD PUSH32 0x8C379A000000000000000000000000000000000000000000000000000000000 DUP2 MSTORE PUSH1 0x4 ADD PUSH2 0x21AE SWAP1 PUSH2 0x8031 JUMP JUMPDEST PUSH1 0x40 MLOAD DUP1 SWAP2 SUB SWAP1 REVERT JUMPDEST PUSH1 0x2 PUSH1 0x0 SLOAD EQ ISZERO PUSH2 0x21FD JUMPI PUSH1 0x40 MLOAD PUSH32 0x8C379A000000000000000000000000000000000000000000000000000000000 DUP2 MSTORE PUSH1 0x4 ADD PUSH2 0x21F4 SWAP1 PUSH2 0x8191 JUMP JUMPDEST PUSH1 0x40 MLOAD DUP1 SWAP2 SUB SWAP1 REVERT JUMPDEST PUSH1 0x2 PUSH1 0x0 DUP2 SWAP1 SSTORE POP PUSH2 0x220D PUSH2 0x58C3 JUMP JUMPDEST PUSH2 0x224C JUMPI PUSH1 0x40 MLOAD PUSH32 0x8C379A000000000000000000000000000000000000000000000000000000000 DUP2 MSTORE PUSH1 0x4 ADD PUSH2 0x2243 SWAP1 PUSH2 0x7F51 JUMP JUMPDEST PUSH1 0x40 MLOAD DUP1 SWAP2 SUB SWAP1 REVERT JUMPDEST PUSH1 0x0 DUP3 PUSH2 0xFFFF AND GT PUSH2 0x2293 JUMPI PUSH1 0x40 MLOAD PUSH32 0x8C379A000000000000000000000000000000000000000000000000000000000 DUP2 MSTORE PUSH1 0x4 ADD PUSH2 0x228A SWAP1 PUSH2 0x7DD1 JUMP JUMPDEST PUSH1 0x40 MLOAD DUP1 SWAP2 SUB SWAP1 REVERT JUMPDEST PUSH1 0xB SLOAD PUSH1 0xA SLOAD PUSH2 0x22A3 SWAP2 SWAP1 PUSH2 0x8531 JUMP JUMPDEST DUP3 PUSH2 0xFFFF AND GT ISZERO PUSH2 0x22E9 JUMPI PUSH1 0x40 MLOAD PUSH32 0x8C379A000000000000000000000000000000000000000000000000000000000 DUP2 MSTORE PUSH1 0x4 ADD PUSH2 0x22E0 SWAP1 PUSH2 0x8091 JUMP JUMPDEST PUSH1 0x40 MLOAD DUP1 SWAP2 SUB SWAP1 REVERT JUMPDEST PUSH1 0x0 PUSH1 0xE SLOAD GT PUSH2 0x232E JUMPI PUSH1 0x40 MLOAD PUSH32 0x8C379A000000000000000000000000000000000000000000000000000000000 DUP2 MSTORE PUSH1 0x4 ADD PUSH2 0x2325 SWAP1 PUSH2 0x8171 JUMP JUMPDEST PUSH1 0x40 MLOAD DUP1 SWAP2 SUB SWAP1 REVERT JUMPDEST PUSH1 0x2 PUSH2 0xFFFF AND PUSH1 0xF PUSH1 0x0 SWAP1 SLOAD SWAP1 PUSH2 0x100 EXP SWAP1 DIV PUSH2 0xFFFF AND PUSH2 0xFFFF AND EQ ISZERO PUSH2 0x236E JUMPI PUSH1 0x3 PUSH1 0xF PUSH1 0x0 PUSH2 0x100 EXP DUP2 SLOAD DUP2 PUSH2 0xFFFF MUL NOT AND SWAP1 DUP4 PUSH2 0xFFFF AND MUL OR SWAP1 SSTORE POP JUMPDEST PUSH1 0x0 PUSH1 0xE SLOAD SWAP1 POP PUSH1 0x0 PUSH1 0x1 DUP3 SUB SWAP1 POP PUSH1 0x0 DUP5 SWAP1 POP PUSH1 0x0 JUMPDEST PUSH1 0xD DUP4 DUP2 SLOAD DUP2 LT PUSH2 0x2399 JUMPI PUSH2 0x2398 PUSH2 0x8844 JUMP JUMPDEST JUMPDEST SWAP1 PUSH1 0x0 MSTORE PUSH1 0x20 PUSH1 0x0 KECCAK256 SWAP1 PUSH1 0x10 SWAP2 DUP3 DUP3 DIV ADD SWAP2 SWAP1 MOD PUSH1 0x2 MUL SWAP1 SLOAD SWAP1 PUSH2 0x100 EXP SWAP1 DIV PUSH2 0xFFFF AND SWAP1 POP DUP2 PUSH2 0xFFFF AND DUP2 PUSH2 0xFFFF AND GT ISZERO PUSH2 0x23D7 JUMPI DUP2 SWAP1 POP PUSH2 0x23DF JUMP JUMPDEST DUP4 PUSH1 0x1 SWAP1 SUB SWAP4 POP JUMPDEST PUSH1 0x0 DUP2 PUSH2 0xFFFF AND GT ISZERO PUSH2 0x243A JUMPI PUSH2 0x2434 PUSH1 0xC DUP5 DUP2 SLOAD DUP2 LT PUSH2 0x2403 JUMPI PUSH2 0x2402 PUSH2 0x8844 JUMP JUMPDEST JUMPDEST SWAP1 PUSH1 0x0 MSTORE PUSH1 0x20 PUSH1 0x0 KECCAK256 ADD PUSH1 0x0 SWAP1 SLOAD SWAP1 PUSH2 0x100 EXP SWAP1 DIV PUSH20 0xFFFFFFFFFFFFFFFFFFFFFFFFFFFFFFFFFFFFFFFF AND DUP3 PUSH2 0x5909 JUMP JUMPDEST DUP1 DUP3 SUB SWAP2 POP JUMPDEST DUP1 PUSH1 0xD DUP5 DUP2 SLOAD DUP2 LT PUSH2 0x244F JUMPI PUSH2 0x244E PUSH2 0x8844 JUMP JUMPDEST JUMPDEST SWAP1 PUSH1 0x0 MSTORE PUSH1 0x20 PUSH1 0x0 KECCAK256 SWAP1 PUSH1 0x10 SWAP2 DUP3 DUP3 DIV ADD SWAP2 SWAP1 MOD PUSH1 0x2 MUL DUP3 DUP3 DUP3 SWAP1 SLOAD SWAP1 PUSH2 0x100 EXP SWAP1 DIV PUSH2 0xFFFF AND SUB SWAP3 POP PUSH2 0x100 EXP DUP2 SLOAD DUP2 PUSH2 0xFFFF MUL NOT AND SWAP1 DUP4 PUSH2 0xFFFF AND MUL OR SWAP1 SSTORE POP PUSH1 0x0 DUP3 PUSH2 0xFFFF AND GT DUP1 ISZERO PUSH2 0x24A5 JUMPI POP PUSH1 0x0 DUP4 GT JUMPDEST ISZERO PUSH2 0x24B6 JUMPI DUP3 PUSH1 0x1 SWAP1 SUB SWAP3 POP PUSH2 0x24BB JUMP JUMPDEST PUSH2 0x24C2 JUMP JUMPDEST PUSH1 0x1 PUSH2 0x2385 JUMPI JUMPDEST DUP4 PUSH1 0xE DUP2 SWAP1 SSTORE POP DUP2 DUP7 SUB PUSH2 0xFFFF AND PUSH1 0xB PUSH1 0x0 DUP3 DUP3 SLOAD ADD SWAP3 POP POP DUP2 SWAP1 SSTORE POP POP POP POP POP PUSH1 0x1 PUSH1 0x0 DUP2 SWAP1 SSTORE POP POP POP JUMP JUMPDEST PUSH1 0x0 DUP1 PUSH2 0x24FA PUSH2 0x54F7 JUMP JUMPDEST PUSH2 0x2502 PUSH2 0x591B JUMP JUMPDEST PUSH2 0x250C SWAP2 SWAP1 PUSH2 0x84AA JUMP JUMPDEST SWAP1 POP PUSH1 0x0 DUP1 PUSH2 0x2519 PUSH2 0x591B JUMP JUMPDEST SWAP1 POP JUMPDEST DUP3 DUP2 LT ISZERO PUSH2 0x25AA JUMPI PUSH2 0x252D DUP2 PUSH2 0x5434 JUMP JUMPDEST ISZERO DUP1 PUSH2 0x256D JUMPI POP DUP6 PUSH20 0xFFFFFFFFFFFFFFFFFFFFFFFFFFFFFFFFFFFFFFFF AND PUSH2 0x2554 DUP3 PUSH2 0x339C JUMP JUMPDEST PUSH20 0xFFFFFFFFFFFFFFFFFFFFFFFFFFFFFFFFFFFFFFFF AND EQ ISZERO JUMPDEST ISZERO PUSH2 0x2577 JUMPI PUSH2 0x2597 JUMP JUMPDEST DUP5 DUP3 EQ ISZERO PUSH2 0x258A JUMPI DUP1 SWAP4 POP POP POP POP PUSH2 0x25B2 JUMP JUMPDEST DUP2 PUSH2 0x2594 SWAP1 PUSH2 0x873D JUMP JUMPDEST SWAP2 POP JUMPDEST DUP1 DUP1 PUSH2 0x25A2 SWAP1 PUSH2 0x873D JUMP JUMPDEST SWAP2 POP POP PUSH2 0x251C JUMP JUMPDEST POP PUSH1 0x0 SWAP3 POP POP POP JUMPDEST SWAP3 SWAP2 POP POP JUMP JUMPDEST PUSH2 0x1E61 DUP2 JUMP JUMPDEST PUSH2 0x25C6 PUSH2 0x542C JUMP JUMPDEST PUSH20 0xFFFFFFFFFFFFFFFFFFFFFFFFFFFFFFFFFFFFFFFF AND PUSH2 0x25E4 PUSH2 0x4074 JUMP JUMPDEST PUSH20 0xFFFFFFFFFFFFFFFFFFFFFFFFFFFFFFFFFFFFFFFF AND EQ PUSH2 0x263A JUMPI PUSH1 0x40 MLOAD PUSH32 0x8C379A000000000000000000000000000000000000000000000000000000000 DUP2 MSTORE PUSH1 0x4 ADD PUSH2 0x2631 SWAP1 PUSH2 0x8071 JUMP JUMPDEST PUSH1 0x40 MLOAD DUP1 SWAP2 SUB SWAP1 REVERT JUMPDEST PUSH1 0x2 PUSH1 0x0 SLOAD EQ ISZERO PUSH2 0x2680 JUMPI PUSH1 0x40 MLOAD PUSH32 0x8C379A000000000000000000000000000000000000000000000000000000000 DUP2 MSTORE PUSH1 0x4 ADD PUSH2 0x2677 SWAP1 PUSH2 0x8191 JUMP JUMPDEST PUSH1 0x40 MLOAD DUP1 SWAP2 SUB SWAP1 REVERT JUMPDEST PUSH1 0x2 PUSH1 0x0 DUP2 SWAP1 SSTORE POP PUSH1 0x0 SELFBALANCE SWAP1 POP PUSH2 0x2695 PUSH2 0x542C JUMP JUMPDEST PUSH20 0xFFFFFFFFFFFFFFFFFFFFFFFFFFFFFFFFFFFFFFFF AND PUSH2 0x8FC DUP3 SWAP1 DUP2 ISZERO MUL SWAP1 PUSH1 0x40 MLOAD PUSH1 0x0 PUSH1 0x40 MLOAD DUP1 DUP4 SUB DUP2 DUP6 DUP9 DUP9 CALL SWAP4 POP POP POP POP ISZERO DUP1 ISZERO PUSH2 0x26DA JUMPI RETURNDATASIZE PUSH1 0x0 DUP1 RETURNDATACOPY RETURNDATASIZE PUSH1 0x0 REVERT JUMPDEST POP PUSH2 0x26E3 PUSH2 0x542C JUMP JUMPDEST PUSH20 0xFFFFFFFFFFFFFFFFFFFFFFFFFFFFFFFFFFFFFFFF AND PUSH32 0x884EDAD9CE6FA2440D8A54CC123490EB96D2768479D49FF9C7366125A9424364 DUP3 PUSH1 0x40 MLOAD PUSH2 0x2728 SWAP2 SWAP1 PUSH2 0x820C JUMP JUMPDEST PUSH1 0x40 MLOAD DUP1 SWAP2 SUB SWAP1 LOG2 POP PUSH1 0x1 PUSH1 0x0 DUP2 SWAP1 SSTORE POP JUMP JUMPDEST PUSH1 0x0 PUSH1 0x2 PUSH1 0x0 PUSH2 0x2749 PUSH2 0x542C JUMP JUMPDEST PUSH20 0xFFFFFFFFFFFFFFFFFFFFFFFFFFFFFFFFFFFFFFFF AND PUSH20 0xFFFFFFFFFFFFFFFFFFFFFFFFFFFFFFFFFFFFFFFF AND DUP2 MSTORE PUSH1 0x20 ADD SWAP1 DUP2 MSTORE PUSH1 0x20 ADD PUSH1 0x0 KECCAK256 PUSH1 0x0 SWAP1 SLOAD SWAP1 PUSH2 0x100 EXP SWAP1 DIV PUSH1 0xFF AND SWAP1 POP PUSH2 0x279B PUSH2 0x542C JUMP JUMPDEST PUSH20 0xFFFFFFFFFFFFFFFFFFFFFFFFFFFFFFFFFFFFFFFF AND PUSH2 0x27B9 PUSH2 0x4074 JUMP JUMPDEST PUSH20 0xFFFFFFFFFFFFFFFFFFFFFFFFFFFFFFFFFFFFFFFF AND EQ DUP1 PUSH2 0x27E1 JUMPI POP PUSH1 0x1 PUSH1 0xFF AND DUP2 PUSH1 0xFF AND EQ JUMPDEST PUSH2 0x2820 JUMPI PUSH1 0x40 MLOAD PUSH32 0x8C379A000000000000000000000000000000000000000000000000000000000 DUP2 MSTORE PUSH1 0x4 ADD PUSH2 0x2817 SWAP1 PUSH2 0x8031 JUMP JUMPDEST PUSH1 0x40 MLOAD DUP1 SWAP2 SUB SWAP1 REVERT JUMPDEST PUSH1 0x4 PUSH1 0x0 SWAP1 SLOAD SWAP1 PUSH2 0x100 EXP SWAP1 DIV PUSH1 0xFF AND ISZERO PUSH2 0x2870 JUMPI PUSH1 0x40 MLOAD PUSH32 0x8C379A000000000000000000000000000000000000000000000000000000000 DUP2 MSTORE PUSH1 0x4 ADD PUSH2 0x2867 SWAP1 PUSH2 0x7E51 JUMP JUMPDEST PUSH1 0x40 MLOAD DUP1 SWAP2 SUB SWAP1 REVERT JUMPDEST PUSH2 0x2878 PUSH2 0x5924 JUMP JUMPDEST PUSH32 0x92AF66B0BD1C72D72F759DCA6111B54869AFCE41DE52C8B070DACA48832FF32 PUSH1 0x40 MLOAD PUSH1 0x40 MLOAD DUP1 SWAP2 SUB SWAP1 LOG1 POP JUMP JUMPDEST PUSH1 0x0 PUSH1 0x2 PUSH1 0x0 PUSH2 0x28B5 PUSH2 0x542C JUMP JUMPDEST PUSH20 0xFFFFFFFFFFFFFFFFFFFFFFFFFFFFFFFFFFFFFFFF AND PUSH20 0xFFFFFFFFFFFFFFFFFFFFFFFFFFFFFFFFFFFFFFFF AND DUP2 MSTORE PUSH1 0x20 ADD SWAP1 DUP2 MSTORE PUSH1 0x20 ADD PUSH1 0x0 KECCAK256 PUSH1 0x0 SWAP1 SLOAD SWAP1 PUSH2 0x100 EXP SWAP1 DIV PUSH1 0xFF AND SWAP1 POP PUSH2 0x2907 PUSH2 0x542C JUMP JUMPDEST PUSH20 0xFFFFFFFFFFFFFFFFFFFFFFFFFFFFFFFFFFFFFFFF AND PUSH2 0x2925 PUSH2 0x4074 JUMP JUMPDEST PUSH20 0xFFFFFFFFFFFFFFFFFFFFFFFFFFFFFFFFFFFFFFFF AND EQ DUP1 PUSH2 0x294D JUMPI POP PUSH1 0x1 PUSH1 0xFF AND DUP2 PUSH1 0xFF AND EQ JUMPDEST PUSH2 0x298C JUMPI PUSH1 0x40 MLOAD PUSH32 0x8C379A000000000000000000000000000000000000000000000000000000000 DUP2 MSTORE PUSH1 0x4 ADD PUSH2 0x2983 SWAP1 PUSH2 0x8031 JUMP JUMPDEST PUSH1 0x40 MLOAD DUP1 SWAP2 SUB SWAP1 REVERT JUMPDEST DUP3 DUP3 SWAP1 POP DUP6 DUP6 SWAP1 POP EQ PUSH2 0x29D4 JUMPI PUSH1 0x40 MLOAD PUSH32 0x8C379A000000000000000000000000000000000000000000000000000000000 DUP2 MSTORE PUSH1 0x4 ADD PUSH2 0x29CB SWAP1 PUSH2 0x7E71 JUMP JUMPDEST PUSH1 0x40 MLOAD DUP1 SWAP2 SUB SWAP1 REVERT JUMPDEST PUSH1 0x0 JUMPDEST DUP6 DUP6 SWAP1 POP DUP2 LT ISZERO PUSH2 0x2A54 JUMPI DUP4 DUP4 DUP3 DUP2 DUP2 LT PUSH2 0x29F5 JUMPI PUSH2 0x29F4 PUSH2 0x8844 JUMP JUMPDEST JUMPDEST SWAP1 POP PUSH1 0x20 MUL DUP2 ADD SWAP1 PUSH2 0x2A07 SWAP2 SWAP1 PUSH2 0x82D2 JUMP JUMPDEST PUSH1 0x12 PUSH1 0x0 DUP10 DUP10 DUP7 DUP2 DUP2 LT PUSH2 0x2A1E JUMPI PUSH2 0x2A1D PUSH2 0x8844 JUMP JUMPDEST JUMPDEST SWAP1 POP PUSH1 0x20 MUL ADD CALLDATALOAD DUP2 MSTORE PUSH1 0x20 ADD SWAP1 DUP2 MSTORE PUSH1 0x20 ADD PUSH1 0x0 KECCAK256 SWAP2 SWAP1 PUSH2 0x2A40 SWAP3 SWAP2 SWAP1 PUSH2 0x6A94 JUMP JUMPDEST POP DUP1 DUP1 PUSH2 0x2A4C SWAP1 PUSH2 0x873D JUMP JUMPDEST SWAP2 POP POP PUSH2 0x29D7 JUMP JUMPDEST POP POP POP POP POP POP JUMP JUMPDEST PUSH2 0x2A77 DUP4 DUP4 DUP4 PUSH1 0x40 MLOAD DUP1 PUSH1 0x20 ADD PUSH1 0x40 MSTORE DUP1 PUSH1 0x0 DUP2 MSTORE POP PUSH2 0x445B JUMP JUMPDEST POP POP POP JUMP JUMPDEST PUSH1 0xD DUP2 DUP2 SLOAD DUP2 LT PUSH2 0x2A8C JUMPI PUSH1 0x0 DUP1 REVERT JUMPDEST SWAP1 PUSH1 0x0 MSTORE PUSH1 0x20 PUSH1 0x0 KECCAK256 SWAP1 PUSH1 0x10 SWAP2 DUP3 DUP3 DIV ADD SWAP2 SWAP1 MOD PUSH1 0x2 MUL SWAP2 POP SLOAD SWAP1 PUSH2 0x100 EXP SWAP1 DIV PUSH2 0xFFFF AND DUP2 JUMP JUMPDEST PUSH1 0x0 PUSH1 0x2 PUSH1 0x0 PUSH2 0x2AC2 PUSH2 0x542C JUMP JUMPDEST PUSH20 0xFFFFFFFFFFFFFFFFFFFFFFFFFFFFFFFFFFFFFFFF AND PUSH20 0xFFFFFFFFFFFFFFFFFFFFFFFFFFFFFFFFFFFFFFFF AND DUP2 MSTORE PUSH1 0x20 ADD SWAP1 DUP2 MSTORE PUSH1 0x20 ADD PUSH1 0x0 KECCAK256 PUSH1 0x0 SWAP1 SLOAD SWAP1 PUSH2 0x100 EXP SWAP1 DIV PUSH1 0xFF AND SWAP1 POP PUSH2 0x2B14 PUSH2 0x542C JUMP JUMPDEST PUSH20 0xFFFFFFFFFFFFFFFFFFFFFFFFFFFFFFFFFFFFFFFF AND PUSH2 0x2B32 PUSH2 0x4074 JUMP JUMPDEST PUSH20 0xFFFFFFFFFFFFFFFFFFFFFFFFFFFFFFFFFFFFFFFF AND EQ DUP1 PUSH2 0x2B5A JUMPI POP PUSH1 0x2 PUSH1 0xFF AND DUP2 PUSH1 0xFF AND EQ JUMPDEST DUP1 PUSH2 0x2B6B JUMPI POP PUSH1 0x1 PUSH1 0xFF AND DUP2 PUSH1 0xFF AND EQ JUMPDEST PUSH2 0x2BAA JUMPI PUSH1 0x40 MLOAD PUSH32 0x8C379A000000000000000000000000000000000000000000000000000000000 DUP2 MSTORE PUSH1 0x4 ADD PUSH2 0x2BA1 SWAP1 PUSH2 0x8031 JUMP JUMPDEST PUSH1 0x40 MLOAD DUP1 SWAP2 SUB SWAP1 REVERT JUMPDEST DUP2 PUSH1 0x4 PUSH1 0x2 PUSH2 0x100 EXP DUP2 SLOAD DUP2 PUSH1 0xFF MUL NOT AND SWAP1 DUP4 ISZERO ISZERO MUL OR SWAP1 SSTORE POP PUSH32 0x23E3EFF842293802DAA296534EEF0153AD726D04CCB3489AF4D90634E219E326 DUP3 PUSH1 0x40 MLOAD PUSH2 0x2BF3 SWAP2 SWAP1 PUSH2 0x7D19 JUMP JUMPDEST PUSH1 0x40 MLOAD DUP1 SWAP2 SUB SWAP1 LOG1 POP POP JUMP JUMPDEST PUSH1 0x0 PUSH2 0x2C0A DUP3 PUSH2 0x59C6 JUMP JUMPDEST SWAP1 POP SWAP2 SWAP1 POP JUMP JUMPDEST PUSH1 0x0 PUSH1 0x2 PUSH1 0x0 PUSH2 0x2C1F PUSH2 0x542C JUMP JUMPDEST PUSH20 0xFFFFFFFFFFFFFFFFFFFFFFFFFFFFFFFFFFFFFFFF AND PUSH20 0xFFFFFFFFFFFFFFFFFFFFFFFFFFFFFFFFFFFFFFFF AND DUP2 MSTORE PUSH1 0x20 ADD SWAP1 DUP2 MSTORE PUSH1 0x20 ADD PUSH1 0x0 KECCAK256 PUSH1 0x0 SWAP1 SLOAD SWAP1 PUSH2 0x100 EXP SWAP1 DIV PUSH1 0xFF AND SWAP1 POP PUSH2 0x2C71 PUSH2 0x542C JUMP JUMPDEST PUSH20 0xFFFFFFFFFFFFFFFFFFFFFFFFFFFFFFFFFFFFFFFF AND PUSH2 0x2C8F PUSH2 0x4074 JUMP JUMPDEST PUSH20 0xFFFFFFFFFFFFFFFFFFFFFFFFFFFFFFFFFFFFFFFF AND EQ DUP1 PUSH2 0x2CB7 JUMPI POP PUSH1 0x1 PUSH1 0xFF AND DUP2 PUSH1 0xFF AND EQ JUMPDEST PUSH2 0x2CF6 JUMPI PUSH1 0x40 MLOAD PUSH32 0x8C379A000000000000000000000000000000000000000000000000000000000 DUP2 MSTORE PUSH1 0x4 ADD PUSH2 0x2CED SWAP1 PUSH2 0x8031 JUMP JUMPDEST PUSH1 0x40 MLOAD DUP1 SWAP2 SUB SWAP1 REVERT JUMPDEST PUSH1 0x2 PUSH1 0x0 SLOAD EQ ISZERO PUSH2 0x2D3C JUMPI PUSH1 0x40 MLOAD PUSH32 0x8C379A000000000000000000000000000000000000000000000000000000000 DUP2 MSTORE PUSH1 0x4 ADD PUSH2 0x2D33 SWAP1 PUSH2 0x8191 JUMP JUMPDEST PUSH1 0x40 MLOAD DUP1 SWAP2 SUB SWAP1 REVERT JUMPDEST PUSH1 0x2 PUSH1 0x0 DUP2 SWAP1 SSTORE POP DUP3 DUP3 SWAP1 POP DUP6 DUP6 SWAP1 POP EQ PUSH2 0x2D8C JUMPI PUSH1 0x40 MLOAD PUSH32 0x8C379A000000000000000000000000000000000000000000000000000000000 DUP2 MSTORE PUSH1 0x4 ADD PUSH2 0x2D83 SWAP1 PUSH2 0x8151 JUMP JUMPDEST PUSH1 0x40 MLOAD DUP1 SWAP2 SUB SWAP1 REVERT JUMPDEST PUSH1 0x1 PUSH2 0xFFFF AND PUSH1 0xF PUSH1 0x0 SWAP1 SLOAD SWAP1 PUSH2 0x100 EXP SWAP1 DIV PUSH2 0xFFFF AND PUSH2 0xFFFF AND EQ PUSH2 0x2DE7 JUMPI PUSH1 0x40 MLOAD PUSH32 0x8C379A000000000000000000000000000000000000000000000000000000000 DUP2 MSTORE PUSH1 0x4 ADD PUSH2 0x2DDE SWAP1 PUSH2 0x7EF1 JUMP JUMPDEST PUSH1 0x40 MLOAD DUP1 SWAP2 SUB SWAP1 REVERT JUMPDEST PUSH1 0x0 JUMPDEST DUP6 DUP6 SWAP1 POP DUP2 PUSH2 0xFFFF AND LT ISZERO PUSH2 0x2F0F JUMPI PUSH1 0xC DUP7 DUP7 DUP4 PUSH2 0xFFFF AND DUP2 DUP2 LT PUSH2 0x2E12 JUMPI PUSH2 0x2E11 PUSH2 0x8844 JUMP JUMPDEST JUMPDEST SWAP1 POP PUSH1 0x20 MUL ADD PUSH1 0x20 DUP2 ADD SWAP1 PUSH2 0x2E27 SWAP2 SWAP1 PUSH2 0x6ED5 JUMP JUMPDEST SWAP1 DUP1 PUSH1 0x1 DUP2 SLOAD ADD DUP1 DUP3 SSTORE DUP1 SWAP2 POP POP PUSH1 0x1 SWAP1 SUB SWAP1 PUSH1 0x0 MSTORE PUSH1 0x20 PUSH1 0x0 KECCAK256 ADD PUSH1 0x0 SWAP1 SWAP2 SWAP1 SWAP2 SWAP1 SWAP2 PUSH2 0x100 EXP DUP2 SLOAD DUP2 PUSH20 0xFFFFFFFFFFFFFFFFFFFFFFFFFFFFFFFFFFFFFFFF MUL NOT AND SWAP1 DUP4 PUSH20 0xFFFFFFFFFFFFFFFFFFFFFFFFFFFFFFFFFFFFFFFF AND MUL OR SWAP1 SSTORE POP PUSH1 0xD DUP5 DUP5 DUP4 PUSH2 0xFFFF AND DUP2 DUP2 LT PUSH2 0x2EA0 JUMPI PUSH2 0x2E9F PUSH2 0x8844 JUMP JUMPDEST JUMPDEST SWAP1 POP PUSH1 0x20 MUL ADD PUSH1 0x20 DUP2 ADD SWAP1 PUSH2 0x2EB5 SWAP2 SWAP1 PUSH2 0x73D6 JUMP JUMPDEST SWAP1 DUP1 PUSH1 0x1 DUP2 SLOAD ADD DUP1 DUP3 SSTORE DUP1 SWAP2 POP POP PUSH1 0x1 SWAP1 SUB SWAP1 PUSH1 0x0 MSTORE PUSH1 0x20 PUSH1 0x0 KECCAK256 SWAP1 PUSH1 0x10 SWAP2 DUP3 DUP3 DIV ADD SWAP2 SWAP1 MOD PUSH1 0x2 MUL SWAP1 SWAP2 SWAP1 SWAP2 SWAP1 SWAP2 PUSH2 0x100 EXP DUP2 SLOAD DUP2 PUSH2 0xFFFF MUL NOT AND SWAP1 DUP4 PUSH2 0xFFFF AND MUL OR SWAP1 SSTORE POP DUP1 DUP1 PUSH2 0x2F07 SWAP1 PUSH2 0x8712 JUMP JUMPDEST SWAP2 POP POP PUSH2 0x2DEA JUMP JUMPDEST POP PUSH1 0x1 PUSH1 0x0 DUP2 SWAP1 SSTORE POP POP POP POP POP POP JUMP JUMPDEST PUSH1 0x0 DUP1 PUSH20 0xFFFFFFFFFFFFFFFFFFFFFFFFFFFFFFFFFFFFFFFF AND PUSH2 0x2F41 DUP4 PUSH2 0x5A68 JUMP JUMPDEST PUSH20 0xFFFFFFFFFFFFFFFFFFFFFFFFFFFFFFFFFFFFFFFF AND EQ ISZERO SWAP1 POP SWAP2 SWAP1 POP JUMP JUMPDEST PUSH1 0x0 DUP2 PUSH2 0x2F6B PUSH2 0x591B JUMP JUMPDEST PUSH2 0x2F75 SWAP2 SWAP1 PUSH2 0x84AA JUMP JUMPDEST SWAP1 POP SWAP2 SWAP1 POP JUMP JUMPDEST PUSH1 0x0 PUSH1 0x2 PUSH1 0x0 PUSH2 0x2F8A PUSH2 0x542C JUMP JUMPDEST PUSH20 0xFFFFFFFFFFFFFFFFFFFFFFFFFFFFFFFFFFFFFFFF AND PUSH20 0xFFFFFFFFFFFFFFFFFFFFFFFFFFFFFFFFFFFFFFFF AND DUP2 MSTORE PUSH1 0x20 ADD SWAP1 DUP2 MSTORE PUSH1 0x20 ADD PUSH1 0x0 KECCAK256 PUSH1 0x0 SWAP1 SLOAD SWAP1 PUSH2 0x100 EXP SWAP1 DIV PUSH1 0xFF AND SWAP1 POP PUSH2 0x2FDC PUSH2 0x542C JUMP JUMPDEST PUSH20 0xFFFFFFFFFFFFFFFFFFFFFFFFFFFFFFFFFFFFFFFF AND PUSH2 0x2FFA PUSH2 0x4074 JUMP JUMPDEST PUSH20 0xFFFFFFFFFFFFFFFFFFFFFFFFFFFFFFFFFFFFFFFF AND EQ DUP1 PUSH2 0x3022 JUMPI POP PUSH1 0x1 PUSH1 0xFF AND DUP2 PUSH1 0xFF AND EQ JUMPDEST PUSH2 0x3061 JUMPI PUSH1 0x40 MLOAD PUSH32 0x8C379A000000000000000000000000000000000000000000000000000000000 DUP2 MSTORE PUSH1 0x4 ADD PUSH2 0x3058 SWAP1 PUSH2 0x8031 JUMP JUMPDEST PUSH1 0x40 MLOAD DUP1 SWAP2 SUB SWAP1 REVERT JUMPDEST PUSH1 0x4 PUSH1 0x0 SWAP1 SLOAD SWAP1 PUSH2 0x100 EXP SWAP1 DIV PUSH1 0xFF AND ISZERO PUSH2 0x30B1 JUMPI PUSH1 0x40 MLOAD PUSH32 0x8C379A000000000000000000000000000000000000000000000000000000000 DUP2 MSTORE PUSH1 0x4 ADD PUSH2 0x30A8 SWAP1 PUSH2 0x7E51 JUMP JUMPDEST PUSH1 0x40 MLOAD DUP1 SWAP2 SUB SWAP1 REVERT JUMPDEST PUSH2 0x30B9 PUSH2 0x5A7A JUMP JUMPDEST PUSH32 0x76BA3851DF4B69972443B0C99BCBA0F237D990FBC8CD7AB5C86537C15DA180CA PUSH1 0x40 MLOAD PUSH1 0x40 MLOAD DUP1 SWAP2 SUB SWAP1 LOG1 POP JUMP JUMPDEST PUSH2 0x30F0 PUSH2 0x542C JUMP JUMPDEST PUSH20 0xFFFFFFFFFFFFFFFFFFFFFFFFFFFFFFFFFFFFFFFF AND PUSH2 0x310E PUSH2 0x4074 JUMP JUMPDEST PUSH20 0xFFFFFFFFFFFFFFFFFFFFFFFFFFFFFFFFFFFFFFFF AND EQ PUSH2 0x3164 JUMPI PUSH1 0x40 MLOAD PUSH32 0x8C379A000000000000000000000000000000000000000000000000000000000 DUP2 MSTORE PUSH1 0x4 ADD PUSH2 0x315B SWAP1 PUSH2 0x8071 JUMP JUMPDEST PUSH1 0x40 MLOAD DUP1 SWAP2 SUB SWAP1 REVERT JUMPDEST DUP2 DUP2 PUSH1 0x10 SWAP2 SWAP1 PUSH2 0x3175 SWAP3 SWAP2 SWAP1 PUSH2 0x6A94 JUMP JUMPDEST POP PUSH32 0x5411E8EBF1636D9E83D5FC4900BF80CBAC82E8790DA2A4C94DB4895E889EEDF6 DUP3 DUP3 PUSH1 0x40 MLOAD PUSH2 0x31A7 SWAP3 SWAP2 SWAP1 PUSH2 0x7D6B JUMP JUMPDEST PUSH1 0x40 MLOAD DUP1 SWAP2 SUB SWAP1 LOG1 POP POP JUMP JUMPDEST PUSH1 0x0 PUSH1 0x1 PUSH1 0x0 SWAP1 SLOAD SWAP1 PUSH2 0x100 EXP SWAP1 DIV PUSH1 0xFF AND SWAP1 POP SWAP1 JUMP JUMPDEST PUSH1 0x60 PUSH1 0x0 DUP4 DUP4 SWAP1 POP PUSH8 0xFFFFFFFFFFFFFFFF DUP2 GT ISZERO PUSH2 0x31EB JUMPI PUSH2 0x31EA PUSH2 0x8873 JUMP JUMPDEST JUMPDEST PUSH1 0x40 MLOAD SWAP1 DUP1 DUP3 MSTORE DUP1 PUSH1 0x20 MUL PUSH1 0x20 ADD DUP3 ADD PUSH1 0x40 MSTORE DUP1 ISZERO PUSH2 0x3219 JUMPI DUP2 PUSH1 0x20 ADD PUSH1 0x20 DUP3 MUL DUP1 CALLDATASIZE DUP4 CALLDATACOPY DUP1 DUP3 ADD SWAP2 POP POP SWAP1 POP JUMPDEST POP SWAP1 POP PUSH1 0x0 JUMPDEST DUP5 DUP5 SWAP1 POP DUP2 LT ISZERO PUSH2 0x32AC JUMPI PUSH2 0x324C DUP6 DUP6 DUP4 DUP2 DUP2 LT PUSH2 0x3240 JUMPI PUSH2 0x323F PUSH2 0x8844 JUMP JUMPDEST JUMPDEST SWAP1 POP PUSH1 0x20 MUL ADD CALLDATALOAD PUSH2 0x5A68 JUMP JUMPDEST DUP3 DUP3 DUP2 MLOAD DUP2 LT PUSH2 0x325F JUMPI PUSH2 0x325E PUSH2 0x8844 JUMP JUMPDEST JUMPDEST PUSH1 0x20 MUL PUSH1 0x20 ADD ADD SWAP1 PUSH20 0xFFFFFFFFFFFFFFFFFFFFFFFFFFFFFFFFFFFFFFFF AND SWAP1 DUP2 PUSH20 0xFFFFFFFFFFFFFFFFFFFFFFFFFFFFFFFFFFFFFFFF AND DUP2 MSTORE POP POP DUP1 DUP1 PUSH2 0x32A4 SWAP1 PUSH2 0x873D JUMP JUMPDEST SWAP2 POP POP PUSH2 0x321F JUMP JUMPDEST POP DUP1 SWAP2 POP POP SWAP3 SWAP2 POP POP JUMP JUMPDEST PUSH1 0x0 DUP1 PUSH1 0x0 PUSH2 0x32C5 DUP5 PUSH2 0x5B1C JUMP JUMPDEST PUSH2 0x3304 JUMPI PUSH1 0x40 MLOAD PUSH32 0x8C379A000000000000000000000000000000000000000000000000000000000 DUP2 MSTORE PUSH1 0x4 ADD PUSH2 0x32FB SWAP1 PUSH2 0x7F31 JUMP JUMPDEST PUSH1 0x40 MLOAD DUP1 SWAP2 SUB SWAP1 REVERT JUMPDEST PUSH1 0x0 PUSH1 0x5 PUSH1 0x0 DUP7 DUP2 MSTORE PUSH1 0x20 ADD SWAP1 DUP2 MSTORE PUSH1 0x20 ADD PUSH1 0x0 KECCAK256 PUSH1 0x40 MLOAD DUP1 PUSH1 0x80 ADD PUSH1 0x40 MSTORE SWAP1 DUP2 PUSH1 0x0 DUP3 ADD SLOAD DUP2 MSTORE PUSH1 0x20 ADD PUSH1 0x1 DUP3 ADD SLOAD DUP2 MSTORE PUSH1 0x20 ADD PUSH1 0x2 DUP3 ADD SLOAD DUP2 MSTORE PUSH1 0x20 ADD PUSH1 0x3 DUP3 ADD PUSH1 0x0 SWAP1 SLOAD SWAP1 PUSH2 0x100 EXP SWAP1 DIV PUSH1 0xFF AND ISZERO ISZERO ISZERO ISZERO DUP2 MSTORE POP POP SWAP1 POP PUSH1 0x0 DUP2 PUSH1 0x0 ADD MLOAD EQ PUSH2 0x3382 JUMPI PUSH1 0x1 SWAP4 POP DUP1 PUSH1 0x0 ADD MLOAD TIMESTAMP PUSH2 0x337F SWAP2 SWAP1 PUSH2 0x8531 JUMP JUMPDEST SWAP3 POP JUMPDEST DUP3 DUP2 PUSH1 0x20 ADD MLOAD PUSH2 0x3392 SWAP2 SWAP1 PUSH2 0x84AA JUMP JUMPDEST SWAP2 POP POP SWAP2 SWAP4 SWAP1 SWAP3 POP JUMP JUMPDEST PUSH1 0x0 PUSH2 0x33A7 DUP3 PUSH2 0x5493 JUMP JUMPDEST SWAP1 POP SWAP2 SWAP1 POP JUMP JUMPDEST PUSH2 0x33B6 PUSH2 0x542C JUMP JUMPDEST PUSH20 0xFFFFFFFFFFFFFFFFFFFFFFFFFFFFFFFFFFFFFFFF AND PUSH2 0x33D4 PUSH2 0x4074 JUMP JUMPDEST PUSH20 0xFFFFFFFFFFFFFFFFFFFFFFFFFFFFFFFFFFFFFFFF AND EQ PUSH2 0x342A JUMPI PUSH1 0x40 MLOAD PUSH32 0x8C379A000000000000000000000000000000000000000000000000000000000 DUP2 MSTORE PUSH1 0x4 ADD PUSH2 0x3421 SWAP1 PUSH2 0x8071 JUMP JUMPDEST PUSH1 0x40 MLOAD DUP1 SWAP2 SUB SWAP1 REVERT JUMPDEST PUSH1 0x1 PUSH1 0x4 PUSH1 0x0 PUSH2 0x100 EXP DUP2 SLOAD DUP2 PUSH1 0xFF MUL NOT AND SWAP1 DUP4 ISZERO ISZERO MUL OR SWAP1 SSTORE POP PUSH32 0xA0058887862C892ADE184993A48C672897BCA2E36EBF7FA2B4703D4805FC3A01 PUSH1 0x40 MLOAD PUSH1 0x40 MLOAD DUP1 SWAP2 SUB SWAP1 LOG1 JUMP JUMPDEST PUSH1 0x0 PUSH1 0x2 PUSH1 0x0 PUSH2 0x3481 PUSH2 0x542C JUMP JUMPDEST PUSH20 0xFFFFFFFFFFFFFFFFFFFFFFFFFFFFFFFFFFFFFFFF AND PUSH20 0xFFFFFFFFFFFFFFFFFFFFFFFFFFFFFFFFFFFFFFFF AND DUP2 MSTORE PUSH1 0x20 ADD SWAP1 DUP2 MSTORE PUSH1 0x20 ADD PUSH1 0x0 KECCAK256 PUSH1 0x0 SWAP1 SLOAD SWAP1 PUSH2 0x100 EXP SWAP1 DIV PUSH1 0xFF AND SWAP1 POP PUSH2 0x34D3 PUSH2 0x542C JUMP JUMPDEST PUSH20 0xFFFFFFFFFFFFFFFFFFFFFFFFFFFFFFFFFFFFFFFF AND PUSH2 0x34F1 PUSH2 0x4074 JUMP JUMPDEST PUSH20 0xFFFFFFFFFFFFFFFFFFFFFFFFFFFFFFFFFFFFFFFF AND EQ DUP1 PUSH2 0x3519 JUMPI POP PUSH1 0x1 PUSH1 0xFF AND DUP2 PUSH1 0xFF AND EQ JUMPDEST PUSH2 0x3558 JUMPI PUSH1 0x40 MLOAD PUSH32 0x8C379A000000000000000000000000000000000000000000000000000000000 DUP2 MSTORE PUSH1 0x4 ADD PUSH2 0x354F SWAP1 PUSH2 0x8031 JUMP JUMPDEST PUSH1 0x40 MLOAD DUP1 SWAP2 SUB SWAP1 REVERT JUMPDEST PUSH1 0x2 PUSH1 0x0 SLOAD EQ ISZERO PUSH2 0x359E JUMPI PUSH1 0x40 MLOAD PUSH32 0x8C379A000000000000000000000000000000000000000000000000000000000 DUP2 MSTORE PUSH1 0x4 ADD PUSH2 0x3595 SWAP1 PUSH2 0x8191 JUMP JUMPDEST PUSH1 0x40 MLOAD DUP1 SWAP2 SUB SWAP1 REVERT JUMPDEST PUSH1 0x2 PUSH1 0x0 DUP2 SWAP1 SSTORE POP PUSH1 0xC PUSH1 0x0 PUSH2 0x35B4 SWAP2 SWAP1 PUSH2 0x6B1A JUMP JUMPDEST PUSH1 0xD PUSH1 0x0 PUSH2 0x35C2 SWAP2 SWAP1 PUSH2 0x6B3B JUMP JUMPDEST PUSH1 0x1 PUSH1 0xF PUSH1 0x0 PUSH2 0x100 EXP DUP2 SLOAD DUP2 PUSH2 0xFFFF MUL NOT AND SWAP1 DUP4 PUSH2 0xFFFF AND MUL OR SWAP1 SSTORE POP PUSH1 0x1 PUSH1 0x0 DUP2 SWAP1 SSTORE POP POP JUMP JUMPDEST PUSH2 0x35F3 PUSH2 0x542C JUMP JUMPDEST PUSH20 0xFFFFFFFFFFFFFFFFFFFFFFFFFFFFFFFFFFFFFFFF AND PUSH2 0x3611 PUSH2 0x4074 JUMP JUMPDEST PUSH20 0xFFFFFFFFFFFFFFFFFFFFFFFFFFFFFFFFFFFFFFFF AND EQ PUSH2 0x3667 JUMPI PUSH1 0x40 MLOAD PUSH32 0x8C379A000000000000000000000000000000000000000000000000000000000 DUP2 MSTORE PUSH1 0x4 ADD PUSH2 0x365E SWAP1 PUSH2 0x8071 JUMP JUMPDEST PUSH1 0x40 MLOAD DUP1 SWAP2 SUB SWAP1 REVERT JUMPDEST PUSH1 0x2 PUSH1 0x0 SLOAD EQ ISZERO PUSH2 0x36AD JUMPI PUSH1 0x40 MLOAD PUSH32 0x8C379A000000000000000000000000000000000000000000000000000000000 DUP2 MSTORE PUSH1 0x4 ADD PUSH2 0x36A4 SWAP1 PUSH2 0x8191 JUMP JUMPDEST PUSH1 0x40 MLOAD DUP1 SWAP2 SUB SWAP1 REVERT JUMPDEST PUSH1 0x2 PUSH1 0x0 DUP2 SWAP1 SSTORE POP DUP1 PUSH1 0xA DUP2 SWAP1 SSTORE POP PUSH1 0x1 PUSH1 0x0 DUP2 SWAP1 SSTORE POP POP JUMP JUMPDEST PUSH1 0x0 DUP1 PUSH20 0xFFFFFFFFFFFFFFFFFFFFFFFFFFFFFFFFFFFFFFFF AND DUP3 PUSH20 0xFFFFFFFFFFFFFFFFFFFFFFFFFFFFFFFFFFFFFFFF AND EQ ISZERO PUSH2 0x372F JUMPI PUSH1 0x40 MLOAD PUSH32 0x8F4EB60400000000000000000000000000000000000000000000000000000000 DUP2 MSTORE PUSH1 0x4 ADD PUSH1 0x40 MLOAD DUP1 SWAP2 SUB SWAP1 REVERT JUMPDEST PUSH8 0xFFFFFFFFFFFFFFFF PUSH1 0x19 PUSH1 0x0 DUP5 PUSH20 0xFFFFFFFFFFFFFFFFFFFFFFFFFFFFFFFFFFFFFFFF AND PUSH20 0xFFFFFFFFFFFFFFFFFFFFFFFFFFFFFFFFFFFFFFFF AND DUP2 MSTORE PUSH1 0x20 ADD SWAP1 DUP2 MSTORE PUSH1 0x20 ADD PUSH1 0x0 KECCAK256 SLOAD AND SWAP1 POP SWAP2 SWAP1 POP JUMP JUMPDEST PUSH2 0x3788 PUSH2 0x542C JUMP JUMPDEST PUSH20 0xFFFFFFFFFFFFFFFFFFFFFFFFFFFFFFFFFFFFFFFF AND PUSH2 0x37A6 PUSH2 0x4074 JUMP JUMPDEST PUSH20 0xFFFFFFFFFFFFFFFFFFFFFFFFFFFFFFFFFFFFFFFF AND EQ PUSH2 0x37FC JUMPI PUSH1 0x40 MLOAD PUSH32 0x8C379A000000000000000000000000000000000000000000000000000000000 DUP2 MSTORE PUSH1 0x4 ADD PUSH2 0x37F3 SWAP1 PUSH2 0x8071 JUMP JUMPDEST PUSH1 0x40 MLOAD DUP1 SWAP2 SUB SWAP1 REVERT JUMPDEST PUSH2 0x3806 PUSH1 0x0 PUSH2 0x5BDD JUMP JUMPDEST JUMP JUMPDEST PUSH1 0x0 PUSH1 0x2 PUSH1 0x0 PUSH2 0x3816 PUSH2 0x542C JUMP JUMPDEST PUSH20 0xFFFFFFFFFFFFFFFFFFFFFFFFFFFFFFFFFFFFFFFF AND PUSH20 0xFFFFFFFFFFFFFFFFFFFFFFFFFFFFFFFFFFFFFFFF AND DUP2 MSTORE PUSH1 0x20 ADD SWAP1 DUP2 MSTORE PUSH1 0x20 ADD PUSH1 0x0 KECCAK256 PUSH1 0x0 SWAP1 SLOAD SWAP1 PUSH2 0x100 EXP SWAP1 DIV PUSH1 0xFF AND SWAP1 POP PUSH2 0x3868 PUSH2 0x542C JUMP JUMPDEST PUSH20 0xFFFFFFFFFFFFFFFFFFFFFFFFFFFFFFFFFFFFFFFF AND PUSH2 0x3886 PUSH2 0x4074 JUMP JUMPDEST PUSH20 0xFFFFFFFFFFFFFFFFFFFFFFFFFFFFFFFFFFFFFFFF AND EQ DUP1 PUSH2 0x38AE JUMPI POP PUSH1 0x1 PUSH1 0xFF AND DUP2 PUSH1 0xFF AND EQ JUMPDEST PUSH2 0x38ED JUMPI PUSH1 0x40 MLOAD PUSH32 0x8C379A000000000000000000000000000000000000000000000000000000000 DUP2 MSTORE PUSH1 0x4 ADD PUSH2 0x38E4 SWAP1 PUSH2 0x8031 JUMP JUMPDEST PUSH1 0x40 MLOAD DUP1 SWAP2 SUB SWAP1 REVERT JUMPDEST PUSH1 0x2 PUSH1 0x0 SLOAD EQ ISZERO PUSH2 0x3933 JUMPI PUSH1 0x40 MLOAD PUSH32 0x8C379A000000000000000000000000000000000000000000000000000000000 DUP2 MSTORE PUSH1 0x4 ADD PUSH2 0x392A SWAP1 PUSH2 0x8191 JUMP JUMPDEST PUSH1 0x40 MLOAD DUP1 SWAP2 SUB SWAP1 REVERT JUMPDEST PUSH1 0x2 PUSH1 0x0 DUP2 SWAP1 SSTORE POP PUSH1 0x1 PUSH2 0xFFFF AND PUSH1 0xF PUSH1 0x0 SWAP1 SLOAD SWAP1 PUSH2 0x100 EXP SWAP1 DIV PUSH2 0xFFFF AND PUSH2 0xFFFF AND EQ PUSH2 0x3996 JUMPI PUSH1 0x40 MLOAD PUSH32 0x8C379A000000000000000000000000000000000000000000000000000000000 DUP2 MSTORE PUSH1 0x4 ADD PUSH2 0x398D SWAP1 PUSH2 0x7E91 JUMP JUMPDEST PUSH1 0x40 MLOAD DUP1 SWAP2 SUB SWAP1 REVERT JUMPDEST PUSH1 0xD DUP1 SLOAD SWAP1 POP PUSH1 0xC DUP1 SLOAD SWAP1 POP EQ PUSH2 0x39E2 JUMPI PUSH1 0x40 MLOAD PUSH32 0x8C379A000000000000000000000000000000000000000000000000000000000 DUP2 MSTORE PUSH1 0x4 ADD PUSH2 0x39D9 SWAP1 PUSH2 0x8151 JUMP JUMPDEST PUSH1 0x40 MLOAD DUP1 SWAP2 SUB SWAP1 REVERT JUMPDEST PUSH1 0x0 PUSH1 0xA SLOAD GT PUSH2 0x3A27 JUMPI PUSH1 0x40 MLOAD PUSH32 0x8C379A000000000000000000000000000000000000000000000000000000000 DUP2 MSTORE PUSH1 0x4 ADD PUSH2 0x3A1E SWAP1 PUSH2 0x7DB1 JUMP JUMPDEST PUSH1 0x40 MLOAD DUP1 SWAP2 SUB SWAP1 REVERT JUMPDEST PUSH1 0x0 DUP1 JUMPDEST PUSH1 0xD DUP1 SLOAD SWAP1 POP DUP2 PUSH2 0xFFFF AND LT ISZERO PUSH2 0x3A9C JUMPI PUSH1 0xD DUP2 PUSH2 0xFFFF AND DUP2 SLOAD DUP2 LT PUSH2 0x3A54 JUMPI PUSH2 0x3A53 PUSH2 0x8844 JUMP JUMPDEST JUMPDEST SWAP1 PUSH1 0x0 MSTORE PUSH1 0x20 PUSH1 0x0 KECCAK256 SWAP1 PUSH1 0x10 SWAP2 DUP3 DUP3 DIV ADD SWAP2 SWAP1 MOD PUSH1 0x2 MUL SWAP1 SLOAD SWAP1 PUSH2 0x100 EXP SWAP1 DIV PUSH2 0xFFFF AND PUSH2 0xFFFF AND DUP3 PUSH2 0x3A87 SWAP2 SWAP1 PUSH2 0x84AA JUMP JUMPDEST SWAP2 POP DUP1 DUP1 PUSH2 0x3A94 SWAP1 PUSH2 0x8712 JUMP JUMPDEST SWAP2 POP POP PUSH2 0x3A2B JUMP JUMPDEST POP PUSH1 0xA SLOAD DUP2 EQ PUSH2 0x3AE1 JUMPI PUSH1 0x40 MLOAD PUSH32 0x8C379A000000000000000000000000000000000000000000000000000000000 DUP2 MSTORE PUSH1 0x4 ADD PUSH2 0x3AD8 SWAP1 PUSH2 0x7F71 JUMP JUMPDEST PUSH1 0x40 MLOAD DUP1 SWAP2 SUB SWAP1 REVERT JUMPDEST PUSH1 0x2 PUSH1 0xF PUSH1 0x0 PUSH2 0x100 EXP DUP2 SLOAD DUP2 PUSH2 0xFFFF MUL NOT AND SWAP1 DUP4 PUSH2 0xFFFF AND MUL OR SWAP1 SSTORE POP PUSH1 0xC DUP1 SLOAD SWAP1 POP PUSH1 0xE DUP2 SWAP1 SSTORE POP POP PUSH1 0x1 PUSH1 0x0 DUP2 SWAP1 SSTORE POP POP JUMP JUMPDEST PUSH1 0x0 PUSH1 0x2 PUSH1 0x0 DUP4 PUSH20 0xFFFFFFFFFFFFFFFFFFFFFFFFFFFFFFFFFFFFFFFF AND PUSH20 0xFFFFFFFFFFFFFFFFFFFFFFFFFFFFFFFFFFFFFFFF AND DUP2 MSTORE PUSH1 0x20 ADD SWAP1 DUP2 MSTORE PUSH1 0x20 ADD PUSH1 0x0 KECCAK256 PUSH1 0x0 SWAP1 SLOAD SWAP1 PUSH2 0x100 EXP SWAP1 DIV PUSH1 0xFF AND SWAP1 POP SWAP2 SWAP1 POP JUMP JUMPDEST PUSH1 0x60 PUSH1 0x0 PUSH2 0x3B7A DUP4 PUSH2 0x36C7 JUMP JUMPDEST SWAP1 POP PUSH1 0x0 DUP2 EQ ISZERO PUSH2 0x3BD7 JUMPI PUSH1 0x0 PUSH8 0xFFFFFFFFFFFFFFFF DUP2 GT ISZERO PUSH2 0x3BA0 JUMPI PUSH2 0x3B9F PUSH2 0x8873 JUMP JUMPDEST JUMPDEST PUSH1 0x40 MLOAD SWAP1 DUP1 DUP3 MSTORE DUP1 PUSH1 0x20 MUL PUSH1 0x20 ADD DUP3 ADD PUSH1 0x40 MSTORE DUP1 ISZERO PUSH2 0x3BCE JUMPI DUP2 PUSH1 0x20 ADD PUSH1 0x20 DUP3 MUL DUP1 CALLDATASIZE DUP4 CALLDATACOPY DUP1 DUP3 ADD SWAP2 POP POP SWAP1 POP JUMPDEST POP SWAP2 POP POP PUSH2 0x3CD8 JUMP JUMPDEST PUSH1 0x0 DUP2 PUSH8 0xFFFFFFFFFFFFFFFF DUP2 GT ISZERO PUSH2 0x3BF3 JUMPI PUSH2 0x3BF2 PUSH2 0x8873 JUMP JUMPDEST JUMPDEST PUSH1 0x40 MLOAD SWAP1 DUP1 DUP3 MSTORE DUP1 PUSH1 0x20 MUL PUSH1 0x20 ADD DUP3 ADD PUSH1 0x40 MSTORE DUP1 ISZERO PUSH2 0x3C21 JUMPI DUP2 PUSH1 0x20 ADD PUSH1 0x20 DUP3 MUL DUP1 CALLDATASIZE DUP4 CALLDATACOPY DUP1 DUP3 ADD SWAP2 POP POP SWAP1 POP JUMPDEST POP SWAP1 POP PUSH1 0x0 DUP1 PUSH2 0x3C2F PUSH2 0x54F7 JUMP JUMPDEST PUSH2 0x3C37 PUSH2 0x591B JUMP JUMPDEST ADD SWAP1 POP PUSH1 0x0 PUSH2 0x3C44 PUSH2 0x591B JUMP JUMPDEST SWAP1 POP JUMPDEST DUP2 DUP2 LT DUP1 ISZERO PUSH2 0x3C56 JUMPI POP DUP5 DUP4 EQ ISZERO JUMPDEST ISZERO PUSH2 0x3CCF JUMPI DUP7 PUSH20 0xFFFFFFFFFFFFFFFFFFFFFFFFFFFFFFFFFFFFFFFF AND PUSH2 0x3C7B DUP3 PUSH2 0x5A68 JUMP JUMPDEST PUSH20 0xFFFFFFFFFFFFFFFFFFFFFFFFFFFFFFFFFFFFFFFF AND EQ PUSH2 0x3C9B JUMPI PUSH2 0x3CC2 JUMP JUMPDEST DUP1 DUP5 DUP5 DUP1 PUSH1 0x1 ADD SWAP6 POP DUP2 MLOAD DUP2 LT PUSH2 0x3CB5 JUMPI PUSH2 0x3CB4 PUSH2 0x8844 JUMP JUMPDEST JUMPDEST PUSH1 0x20 MUL PUSH1 0x20 ADD ADD DUP2 DUP2 MSTORE POP POP JUMPDEST DUP1 DUP1 PUSH1 0x1 ADD SWAP2 POP POP PUSH2 0x3C47 JUMP JUMPDEST POP POP DUP2 SWAP4 POP POP POP POP JUMPDEST SWAP2 SWAP1 POP JUMP JUMPDEST PUSH1 0x0 PUSH1 0x2 PUSH1 0x0 PUSH2 0x3CEB PUSH2 0x542C JUMP JUMPDEST PUSH20 0xFFFFFFFFFFFFFFFFFFFFFFFFFFFFFFFFFFFFFFFF AND PUSH20 0xFFFFFFFFFFFFFFFFFFFFFFFFFFFFFFFFFFFFFFFF AND DUP2 MSTORE PUSH1 0x20 ADD SWAP1 DUP2 MSTORE PUSH1 0x20 ADD PUSH1 0x0 KECCAK256 PUSH1 0x0 SWAP1 SLOAD SWAP1 PUSH2 0x100 EXP SWAP1 DIV PUSH1 0xFF AND SWAP1 POP PUSH2 0x3D3D PUSH2 0x542C JUMP JUMPDEST PUSH20 0xFFFFFFFFFFFFFFFFFFFFFFFFFFFFFFFFFFFFFFFF AND PUSH2 0x3D5B PUSH2 0x4074 JUMP JUMPDEST PUSH20 0xFFFFFFFFFFFFFFFFFFFFFFFFFFFFFFFFFFFFFFFF AND EQ DUP1 PUSH2 0x3D83 JUMPI POP PUSH1 0x2 PUSH1 0xFF AND DUP2 PUSH1 0xFF AND EQ JUMPDEST DUP1 PUSH2 0x3D94 JUMPI POP PUSH1 0x1 PUSH1 0xFF AND DUP2 PUSH1 0xFF AND EQ JUMPDEST PUSH2 0x3DD3 JUMPI PUSH1 0x40 MLOAD PUSH32 0x8C379A000000000000000000000000000000000000000000000000000000000 DUP2 MSTORE PUSH1 0x4 ADD PUSH2 0x3DCA SWAP1 PUSH2 0x8031 JUMP JUMPDEST PUSH1 0x40 MLOAD DUP1 SWAP2 SUB SWAP1 REVERT JUMPDEST DUP2 PUSH1 0x4 PUSH1 0x1 PUSH2 0x100 EXP DUP2 SLOAD DUP2 PUSH1 0xFF MUL NOT AND SWAP1 DUP4 ISZERO ISZERO MUL OR SWAP1 SSTORE POP PUSH32 0xBA86BB4B0C05DE8C9054F4285DE030F184267F030D37D23FADF62214A2CDA345 DUP3 PUSH1 0x40 MLOAD PUSH2 0x3E1C SWAP2 SWAP1 PUSH2 0x7D19 JUMP JUMPDEST PUSH1 0x40 MLOAD DUP1 SWAP2 SUB SWAP1 LOG1 POP POP JUMP JUMPDEST PUSH1 0x0 PUSH1 0x7 PUSH1 0x0 ADD SLOAD TIMESTAMP GT DUP1 ISZERO PUSH2 0x3E42 JUMPI POP PUSH1 0x7 PUSH1 0x1 ADD SLOAD TIMESTAMP LT JUMPDEST SWAP1 POP SWAP1 JUMP JUMPDEST PUSH1 0x2 PUSH1 0x0 SLOAD EQ ISZERO PUSH2 0x3E8D JUMPI PUSH1 0x40 MLOAD PUSH32 0x8C379A000000000000000000000000000000000000000000000000000000000 DUP2 MSTORE PUSH1 0x4 ADD PUSH2 0x3E84 SWAP1 PUSH2 0x8191 JUMP JUMPDEST PUSH1 0x40 MLOAD DUP1 SWAP2 SUB SWAP1 REVERT JUMPDEST PUSH1 0x2 PUSH1 0x0 DUP2 SWAP1 SSTORE POP PUSH1 0x0 JUMPDEST DUP3 DUP3 SWAP1 POP DUP2 LT ISZERO PUSH2 0x4061 JUMPI PUSH1 0x0 DUP4 DUP4 DUP4 DUP2 DUP2 LT PUSH2 0x3EB8 JUMPI PUSH2 0x3EB7 PUSH2 0x8844 JUMP JUMPDEST JUMPDEST SWAP1 POP PUSH1 0x20 MUL ADD CALLDATALOAD SWAP1 POP PUSH2 0x3EC9 PUSH2 0x542C JUMP JUMPDEST PUSH20 0xFFFFFFFFFFFFFFFFFFFFFFFFFFFFFFFFFFFFFFFF AND ADDRESS PUSH20 0xFFFFFFFFFFFFFFFFFFFFFFFFFFFFFFFFFFFFFFFF AND PUSH4 0x6352211E DUP4 PUSH1 0x40 MLOAD DUP3 PUSH4 0xFFFFFFFF AND PUSH1 0xE0 SHL DUP2 MSTORE PUSH1 0x4 ADD PUSH2 0x3F18 SWAP2 SWAP1 PUSH2 0x820C JUMP JUMPDEST PUSH1 0x20 PUSH1 0x40 MLOAD DUP1 DUP4 SUB DUP2 DUP7 DUP1 EXTCODESIZE ISZERO DUP1 ISZERO PUSH2 0x3F30 JUMPI PUSH1 0x0 DUP1 REVERT JUMPDEST POP GAS STATICCALL ISZERO DUP1 ISZERO PUSH2 0x3F44 JUMPI RETURNDATASIZE PUSH1 0x0 DUP1 RETURNDATACOPY RETURNDATASIZE PUSH1 0x0 REVERT JUMPDEST POP POP POP POP PUSH1 0x40 MLOAD RETURNDATASIZE PUSH1 0x1F NOT PUSH1 0x1F DUP3 ADD AND DUP3 ADD DUP1 PUSH1 0x40 MSTORE POP DUP2 ADD SWAP1 PUSH2 0x3F68 SWAP2 SWAP1 PUSH2 0x6F02 JUMP JUMPDEST PUSH20 0xFFFFFFFFFFFFFFFFFFFFFFFFFFFFFFFFFFFFFFFF AND EQ PUSH2 0x3FBE JUMPI PUSH1 0x40 MLOAD PUSH32 0x8C379A000000000000000000000000000000000000000000000000000000000 DUP2 MSTORE PUSH1 0x4 ADD PUSH2 0x3FB5 SWAP1 PUSH2 0x7FD1 JUMP JUMPDEST PUSH1 0x40 MLOAD DUP1 SWAP2 SUB SWAP1 REVERT JUMPDEST PUSH1 0x0 PUSH1 0x5 PUSH1 0x0 DUP4 DUP2 MSTORE PUSH1 0x20 ADD SWAP1 DUP2 MSTORE PUSH1 0x20 ADD PUSH1 0x0 KECCAK256 SWAP1 POP PUSH1 0x0 DUP2 PUSH1 0x0 ADD SLOAD SWAP1 POP PUSH1 0x0 DUP2 GT ISZERO PUSH2 0x4051 JUMPI DUP1 TIMESTAMP SUB DUP3 PUSH1 0x1 ADD PUSH1 0x0 DUP3 DUP3 SLOAD ADD SWAP3 POP POP DUP2 SWAP1 SSTORE POP PUSH1 0x0 DUP3 PUSH1 0x0 ADD DUP2 SWAP1 SSTORE POP PUSH2 0x400D PUSH2 0x542C JUMP JUMPDEST PUSH20 0xFFFFFFFFFFFFFFFFFFFFFFFFFFFFFFFFFFFFFFFF AND DUP4 PUSH32 0x21880DA8181781694FCAE99F8578B33442E9B025E71E74077C42A031FE632E6D PUSH1 0x40 MLOAD PUSH1 0x40 MLOAD DUP1 SWAP2 SUB SWAP1 LOG3 JUMPDEST POP POP POP DUP1 DUP1 PUSH1 0x1 ADD SWAP2 POP POP PUSH2 0x3E98 JUMP JUMPDEST POP PUSH1 0x1 PUSH1 0x0 DUP2 SWAP1 SSTORE POP POP POP JUMP JUMPDEST PUSH1 0xA SLOAD DUP2 JUMP JUMPDEST PUSH1 0x0 PUSH1 0x1 DUP1 SLOAD SWAP1 PUSH2 0x100 EXP SWAP1 DIV PUSH20 0xFFFFFFFFFFFFFFFFFFFFFFFFFFFFFFFFFFFFFFFF AND SWAP1 POP SWAP1 JUMP JUMPDEST PUSH1 0x60 PUSH1 0x17 DUP1 SLOAD PUSH2 0x40AB SWAP1 PUSH2 0x86AF JUMP JUMPDEST DUP1 PUSH1 0x1F ADD PUSH1 0x20 DUP1 SWAP2 DIV MUL PUSH1 0x20 ADD PUSH1 0x40 MLOAD SWAP1 DUP2 ADD PUSH1 0x40 MSTORE DUP1 SWAP3 SWAP2 SWAP1 DUP2 DUP2 MSTORE PUSH1 0x20 ADD DUP3 DUP1 SLOAD PUSH2 0x40D7 SWAP1 PUSH2 0x86AF JUMP JUMPDEST DUP1 ISZERO PUSH2 0x4124 JUMPI DUP1 PUSH1 0x1F LT PUSH2 0x40F9 JUMPI PUSH2 0x100 DUP1 DUP4 SLOAD DIV MUL DUP4 MSTORE SWAP2 PUSH1 0x20 ADD SWAP2 PUSH2 0x4124 JUMP JUMPDEST DUP3 ADD SWAP2 SWAP1 PUSH1 0x0 MSTORE PUSH1 0x20 PUSH1 0x0 KECCAK256 SWAP1 JUMPDEST DUP2 SLOAD DUP2 MSTORE SWAP1 PUSH1 0x1 ADD SWAP1 PUSH1 0x20 ADD DUP1 DUP4 GT PUSH2 0x4107 JUMPI DUP3 SWAP1 SUB PUSH1 0x1F AND DUP3 ADD SWAP2 JUMPDEST POP POP POP POP POP SWAP1 POP SWAP1 JUMP JUMPDEST PUSH1 0x3 DUP2 JUMP JUMPDEST PUSH2 0x413B PUSH2 0x54E5 JUMP JUMPDEST PUSH20 0xFFFFFFFFFFFFFFFFFFFFFFFFFFFFFFFFFFFFFFFF AND DUP3 PUSH20 0xFFFFFFFFFFFFFFFFFFFFFFFFFFFFFFFFFFFFFFFF AND EQ ISZERO PUSH2 0x41A0 JUMPI PUSH1 0x40 MLOAD PUSH32 0xB06307DB00000000000000000000000000000000000000000000000000000000 DUP2 MSTORE PUSH1 0x4 ADD PUSH1 0x40 MLOAD DUP1 SWAP2 SUB SWAP1 REVERT JUMPDEST DUP1 PUSH1 0x1B PUSH1 0x0 PUSH2 0x41AD PUSH2 0x54E5 JUMP JUMPDEST PUSH20 0xFFFFFFFFFFFFFFFFFFFFFFFFFFFFFFFFFFFFFFFF AND PUSH20 0xFFFFFFFFFFFFFFFFFFFFFFFFFFFFFFFFFFFFFFFF AND DUP2 MSTORE PUSH1 0x20 ADD SWAP1 DUP2 MSTORE PUSH1 0x20 ADD PUSH1 0x0 KECCAK256 PUSH1 0x0 DUP5 PUSH20 0xFFFFFFFFFFFFFFFFFFFFFFFFFFFFFFFFFFFFFFFF AND PUSH20 0xFFFFFFFFFFFFFFFFFFFFFFFFFFFFFFFFFFFFFFFF AND DUP2 MSTORE PUSH1 0x20 ADD SWAP1 DUP2 MSTORE PUSH1 0x20 ADD PUSH1 0x0 KECCAK256 PUSH1 0x0 PUSH2 0x100 EXP DUP2 SLOAD DUP2 PUSH1 0xFF MUL NOT AND SWAP1 DUP4 ISZERO ISZERO MUL OR SWAP1 SSTORE POP DUP2 PUSH20 0xFFFFFFFFFFFFFFFFFFFFFFFFFFFFFFFFFFFFFFFF AND PUSH2 0x425A PUSH2 0x54E5 JUMP JUMPDEST PUSH20 0xFFFFFFFFFFFFFFFFFFFFFFFFFFFFFFFFFFFFFFFF AND PUSH32 0x17307EAB39AB6107E8899845AD3D59BD9653F200F220920489CA2B5937696C31 DUP4 PUSH1 0x40 MLOAD PUSH2 0x429F SWAP2 SWAP1 PUSH2 0x7D19 JUMP JUMPDEST PUSH1 0x40 MLOAD DUP1 SWAP2 SUB SWAP1 LOG3 POP POP JUMP JUMPDEST PUSH1 0x4 PUSH1 0x0 SWAP1 SLOAD SWAP1 PUSH2 0x100 EXP SWAP1 DIV PUSH1 0xFF AND DUP2 JUMP JUMPDEST PUSH2 0x42C6 PUSH2 0x542C JUMP JUMPDEST PUSH20 0xFFFFFFFFFFFFFFFFFFFFFFFFFFFFFFFFFFFFFFFF AND PUSH2 0x42E4 PUSH2 0x4074 JUMP JUMPDEST PUSH20 0xFFFFFFFFFFFFFFFFFFFFFFFFFFFFFFFFFFFFFFFF AND EQ PUSH2 0x433A JUMPI PUSH1 0x40 MLOAD PUSH32 0x8C379A000000000000000000000000000000000000000000000000000000000 DUP2 MSTORE PUSH1 0x4 ADD PUSH2 0x4331 SWAP1 PUSH2 0x8071 JUMP JUMPDEST PUSH1 0x40 MLOAD DUP1 SWAP2 SUB SWAP1 REVERT JUMPDEST PUSH1 0x2 PUSH1 0x0 SLOAD EQ ISZERO PUSH2 0x4380 JUMPI PUSH1 0x40 MLOAD PUSH32 0x8C379A000000000000000000000000000000000000000000000000000000000 DUP2 MSTORE PUSH1 0x4 ADD PUSH2 0x4377 SWAP1 PUSH2 0x8191 JUMP JUMPDEST PUSH1 0x40 MLOAD DUP1 SWAP2 SUB SWAP1 REVERT JUMPDEST PUSH1 0x2 PUSH1 0x0 DUP2 SWAP1 SSTORE POP PUSH1 0x0 JUMPDEST DUP3 DUP3 SWAP1 POP DUP2 LT ISZERO PUSH2 0x444E JUMPI PUSH1 0x0 DUP4 DUP4 DUP4 DUP2 DUP2 LT PUSH2 0x43AB JUMPI PUSH2 0x43AA PUSH2 0x8844 JUMP JUMPDEST JUMPDEST SWAP1 POP PUSH1 0x20 MUL ADD CALLDATALOAD SWAP1 POP PUSH2 0x43BC PUSH2 0x542C JUMP JUMPDEST PUSH20 0xFFFFFFFFFFFFFFFFFFFFFFFFFFFFFFFFFFFFFFFF AND PUSH2 0x43DB DUP3 PUSH2 0x339C JUMP JUMPDEST PUSH20 0xFFFFFFFFFFFFFFFFFFFFFFFFFFFFFFFFFFFFFFFF AND EQ PUSH2 0x4431 JUMPI PUSH1 0x40 MLOAD PUSH32 0x8C379A000000000000000000000000000000000000000000000000000000000 DUP2 MSTORE PUSH1 0x4 ADD PUSH2 0x4428 SWAP1 PUSH2 0x7FD1 JUMP JUMPDEST PUSH1 0x40 MLOAD DUP1 SWAP2 SUB SWAP1 REVERT JUMPDEST PUSH2 0x443A DUP2 PUSH2 0x5CA0 JUMP JUMPDEST POP DUP1 DUP1 PUSH2 0x4446 SWAP1 PUSH2 0x873D JUMP JUMPDEST SWAP2 POP POP PUSH2 0x438B JUMP JUMPDEST POP PUSH1 0x1 PUSH1 0x0 DUP2 SWAP1 SSTORE POP POP POP JUMP JUMPDEST PUSH2 0x4466 DUP5 DUP5 DUP5 PUSH2 0x550A JUMP JUMPDEST PUSH1 0x0 DUP4 PUSH20 0xFFFFFFFFFFFFFFFFFFFFFFFFFFFFFFFFFFFFFFFF AND EXTCODESIZE EQ PUSH2 0x44C8 JUMPI PUSH2 0x4491 DUP5 DUP5 DUP5 DUP5 PUSH2 0x5CAE JUMP JUMPDEST PUSH2 0x44C7 JUMPI PUSH1 0x40 MLOAD PUSH32 0xD1A57ED600000000000000000000000000000000000000000000000000000000 DUP2 MSTORE PUSH1 0x4 ADD PUSH1 0x40 MLOAD DUP1 SWAP2 SUB SWAP1 REVERT JUMPDEST JUMPDEST POP POP POP POP JUMP JUMPDEST PUSH1 0x0 PUSH1 0x2 PUSH1 0x0 PUSH2 0x44DC PUSH2 0x542C JUMP JUMPDEST PUSH20 0xFFFFFFFFFFFFFFFFFFFFFFFFFFFFFFFFFFFFFFFF AND PUSH20 0xFFFFFFFFFFFFFFFFFFFFFFFFFFFFFFFFFFFFFFFF AND DUP2 MSTORE PUSH1 0x20 ADD SWAP1 DUP2 MSTORE PUSH1 0x20 ADD PUSH1 0x0 KECCAK256 PUSH1 0x0 SWAP1 SLOAD SWAP1 PUSH2 0x100 EXP SWAP1 DIV PUSH1 0xFF AND SWAP1 POP PUSH2 0x452E PUSH2 0x542C JUMP JUMPDEST PUSH20 0xFFFFFFFFFFFFFFFFFFFFFFFFFFFFFFFFFFFFFFFF AND PUSH2 0x454C PUSH2 0x4074 JUMP JUMPDEST PUSH20 0xFFFFFFFFFFFFFFFFFFFFFFFFFFFFFFFFFFFFFFFF AND EQ DUP1 PUSH2 0x4574 JUMPI POP PUSH1 0x1 PUSH1 0xFF AND DUP2 PUSH1 0xFF AND EQ JUMPDEST PUSH2 0x45B3 JUMPI PUSH1 0x40 MLOAD PUSH32 0x8C379A000000000000000000000000000000000000000000000000000000000 DUP2 MSTORE PUSH1 0x4 ADD PUSH2 0x45AA SWAP1 PUSH2 0x8031 JUMP JUMPDEST PUSH1 0x40 MLOAD DUP1 SWAP2 SUB SWAP1 REVERT JUMPDEST PUSH1 0x2 PUSH1 0x0 SLOAD EQ ISZERO PUSH2 0x45F9 JUMPI PUSH1 0x40 MLOAD PUSH32 0x8C379A000000000000000000000000000000000000000000000000000000000 DUP2 MSTORE PUSH1 0x4 ADD PUSH2 0x45F0 SWAP1 PUSH2 0x8191 JUMP JUMPDEST PUSH1 0x40 MLOAD DUP1 SWAP2 SUB SWAP1 REVERT JUMPDEST PUSH1 0x2 PUSH1 0x0 DUP2 SWAP1 SSTORE POP PUSH1 0x3 PUSH2 0xFFFF AND PUSH1 0xF PUSH1 0x0 SWAP1 SLOAD SWAP1 PUSH2 0x100 EXP SWAP1 DIV PUSH2 0xFFFF AND PUSH2 0xFFFF AND EQ PUSH2 0x465C JUMPI PUSH1 0x40 MLOAD PUSH32 0x8C379A000000000000000000000000000000000000000000000000000000000 DUP2 MSTORE PUSH1 0x4 ADD PUSH2 0x4653 SWAP1 PUSH2 0x80B1 JUMP JUMPDEST PUSH1 0x40 MLOAD DUP1 SWAP2 SUB SWAP1 REVERT JUMPDEST PUSH1 0xA SLOAD PUSH1 0xB SLOAD EQ PUSH2 0x46A2 JUMPI PUSH1 0x40 MLOAD PUSH32 0x8C379A000000000000000000000000000000000000000000000000000000000 DUP2 MSTORE PUSH1 0x4 ADD PUSH2 0x4699 SWAP1 PUSH2 0x8111 JUMP JUMPDEST PUSH1 0x40 MLOAD DUP1 SWAP2 SUB SWAP1 REVERT JUMPDEST PUSH1 0x4 PUSH1 0xF PUSH1 0x0 PUSH2 0x100 EXP DUP2 SLOAD DUP2 PUSH2 0xFFFF MUL NOT AND SWAP1 DUP4 PUSH2 0xFFFF AND MUL OR SWAP1 SSTORE POP PUSH1 0xC PUSH1 0x0 PUSH2 0x46CE SWAP2 SWAP1 PUSH2 0x6B1A JUMP JUMPDEST PUSH1 0xD PUSH1 0x0 PUSH2 0x46DC SWAP2 SWAP1 PUSH2 0x6B3B JUMP JUMPDEST PUSH1 0x1 PUSH1 0x0 DUP2 SWAP1 SSTORE POP POP JUMP JUMPDEST PUSH1 0xC DUP2 DUP2 SLOAD DUP2 LT PUSH2 0x46F7 JUMPI PUSH1 0x0 DUP1 REVERT JUMPDEST SWAP1 PUSH1 0x0 MSTORE PUSH1 0x20 PUSH1 0x0 KECCAK256 ADD PUSH1 0x0 SWAP2 POP SLOAD SWAP1 PUSH2 0x100 EXP SWAP1 DIV PUSH20 0xFFFFFFFFFFFFFFFFFFFFFFFFFFFFFFFFFFFFFFFF AND DUP2 JUMP JUMPDEST PUSH1 0x60 DUP1 PUSH1 0x0 PUSH1 0x2 PUSH1 0x0 PUSH2 0x4737 PUSH2 0x542C JUMP JUMPDEST PUSH20 0xFFFFFFFFFFFFFFFFFFFFFFFFFFFFFFFFFFFFFFFF AND PUSH20 0xFFFFFFFFFFFFFFFFFFFFFFFFFFFFFFFFFFFFFFFF AND DUP2 MSTORE PUSH1 0x20 ADD SWAP1 DUP2 MSTORE PUSH1 0x20 ADD PUSH1 0x0 KECCAK256 PUSH1 0x0 SWAP1 SLOAD SWAP1 PUSH2 0x100 EXP SWAP1 DIV PUSH1 0xFF AND SWAP1 POP PUSH2 0x4789 PUSH2 0x542C JUMP JUMPDEST PUSH20 0xFFFFFFFFFFFFFFFFFFFFFFFFFFFFFFFFFFFFFFFF AND PUSH2 0x47A7 PUSH2 0x4074 JUMP JUMPDEST PUSH20 0xFFFFFFFFFFFFFFFFFFFFFFFFFFFFFFFFFFFFFFFF AND EQ DUP1 PUSH2 0x47CF JUMPI POP PUSH1 0x1 PUSH1 0xFF AND DUP2 PUSH1 0xFF AND EQ JUMPDEST PUSH2 0x480E JUMPI PUSH1 0x40 MLOAD PUSH32 0x8C379A000000000000000000000000000000000000000000000000000000000 DUP2 MSTORE PUSH1 0x4 ADD PUSH2 0x4805 SWAP1 PUSH2 0x8031 JUMP JUMPDEST PUSH1 0x40 MLOAD DUP1 SWAP2 SUB SWAP1 REVERT JUMPDEST PUSH1 0x0 PUSH1 0x3 DUP1 SLOAD SWAP1 POP PUSH8 0xFFFFFFFFFFFFFFFF DUP2 GT ISZERO PUSH2 0x482F JUMPI PUSH2 0x482E PUSH2 0x8873 JUMP JUMPDEST JUMPDEST PUSH1 0x40 MLOAD SWAP1 DUP1 DUP3 MSTORE DUP1 PUSH1 0x20 MUL PUSH1 0x20 ADD DUP3 ADD PUSH1 0x40 MSTORE DUP1 ISZERO PUSH2 0x485D JUMPI DUP2 PUSH1 0x20 ADD PUSH1 0x20 DUP3 MUL DUP1 CALLDATASIZE DUP4 CALLDATACOPY DUP1 DUP3 ADD SWAP2 POP POP SWAP1 POP JUMPDEST POP SWAP1 POP PUSH1 0x0 JUMPDEST PUSH1 0x3 DUP1 SLOAD SWAP1 POP DUP2 LT ISZERO PUSH2 0x492F JUMPI PUSH1 0x2 PUSH1 0x0 PUSH1 0x3 DUP4 DUP2 SLOAD DUP2 LT PUSH2 0x4888 JUMPI PUSH2 0x4887 PUSH2 0x8844 JUMP JUMPDEST JUMPDEST SWAP1 PUSH1 0x0 MSTORE PUSH1 0x20 PUSH1 0x0 KECCAK256 ADD PUSH1 0x0 SWAP1 SLOAD SWAP1 PUSH2 0x100 EXP SWAP1 DIV PUSH20 0xFFFFFFFFFFFFFFFFFFFFFFFFFFFFFFFFFFFFFFFF AND PUSH20 0xFFFFFFFFFFFFFFFFFFFFFFFFFFFFFFFFFFFFFFFF AND PUSH20 0xFFFFFFFFFFFFFFFFFFFFFFFFFFFFFFFFFFFFFFFF AND DUP2 MSTORE PUSH1 0x20 ADD SWAP1 DUP2 MSTORE PUSH1 0x20 ADD PUSH1 0x0 KECCAK256 PUSH1 0x0 SWAP1 SLOAD SWAP1 PUSH2 0x100 EXP SWAP1 DIV PUSH1 0xFF AND DUP3 DUP3 DUP2 MLOAD DUP2 LT PUSH2 0x490E JUMPI PUSH2 0x490D PUSH2 0x8844 JUMP JUMPDEST JUMPDEST PUSH1 0x20 MUL PUSH1 0x20 ADD ADD SWAP1 PUSH1 0xFF AND SWAP1 DUP2 PUSH1 0xFF AND DUP2 MSTORE POP POP DUP1 DUP1 PUSH1 0x1 ADD SWAP2 POP POP PUSH2 0x4863 JUMP JUMPDEST POP PUSH1 0x3 DUP2 DUP2 DUP1 SLOAD DUP1 PUSH1 0x20 MUL PUSH1 0x20 ADD PUSH1 0x40 MLOAD SWAP1 DUP2 ADD PUSH1 0x40 MSTORE DUP1 SWAP3 SWAP2 SWAP1 DUP2 DUP2 MSTORE PUSH1 0x20 ADD DUP3 DUP1 SLOAD DUP1 ISZERO PUSH2 0x49B4 JUMPI PUSH1 0x20 MUL DUP3 ADD SWAP2 SWAP1 PUSH1 0x0 MSTORE PUSH1 0x20 PUSH1 0x0 KECCAK256 SWAP1 JUMPDEST DUP2 PUSH1 0x0 SWAP1 SLOAD SWAP1 PUSH2 0x100 EXP SWAP1 DIV PUSH20 0xFFFFFFFFFFFFFFFFFFFFFFFFFFFFFFFFFFFFFFFF AND PUSH20 0xFFFFFFFFFFFFFFFFFFFFFFFFFFFFFFFFFFFFFFFF AND DUP2 MSTORE PUSH1 0x20 ADD SWAP1 PUSH1 0x1 ADD SWAP1 DUP1 DUP4 GT PUSH2 0x496A JUMPI JUMPDEST POP POP POP POP POP SWAP2 POP SWAP4 POP SWAP4 POP POP POP SWAP1 SWAP2 JUMP JUMPDEST PUSH1 0x60 PUSH2 0x49D0 DUP3 PUSH2 0x5E0E JUMP JUMPDEST SWAP1 POP SWAP2 SWAP1 POP JUMP JUMPDEST PUSH1 0x0 PUSH1 0x2 PUSH1 0x0 PUSH2 0x49E5 PUSH2 0x542C JUMP JUMPDEST PUSH20 0xFFFFFFFFFFFFFFFFFFFFFFFFFFFFFFFFFFFFFFFF AND PUSH20 0xFFFFFFFFFFFFFFFFFFFFFFFFFFFFFFFFFFFFFFFF AND DUP2 MSTORE PUSH1 0x20 ADD SWAP1 DUP2 MSTORE PUSH1 0x20 ADD PUSH1 0x0 KECCAK256 PUSH1 0x0 SWAP1 SLOAD SWAP1 PUSH2 0x100 EXP SWAP1 DIV PUSH1 0xFF AND SWAP1 POP PUSH2 0x4A37 PUSH2 0x542C JUMP JUMPDEST PUSH20 0xFFFFFFFFFFFFFFFFFFFFFFFFFFFFFFFFFFFFFFFF AND PUSH2 0x4A55 PUSH2 0x4074 JUMP JUMPDEST PUSH20 0xFFFFFFFFFFFFFFFFFFFFFFFFFFFFFFFFFFFFFFFF AND EQ DUP1 PUSH2 0x4A7D JUMPI POP PUSH1 0x2 PUSH1 0xFF AND DUP2 PUSH1 0xFF AND EQ JUMPDEST DUP1 PUSH2 0x4A8E JUMPI POP PUSH1 0x1 PUSH1 0xFF AND DUP2 PUSH1 0xFF AND EQ JUMPDEST PUSH2 0x4ACD JUMPI PUSH1 0x40 MLOAD PUSH32 0x8C379A000000000000000000000000000000000000000000000000000000000 DUP2 MSTORE PUSH1 0x4 ADD PUSH2 0x4AC4 SWAP1 PUSH2 0x8031 JUMP JUMPDEST PUSH1 0x40 MLOAD DUP1 SWAP2 SUB SWAP1 REVERT JUMPDEST PUSH1 0x2 PUSH1 0x0 SLOAD EQ ISZERO PUSH2 0x4B13 JUMPI PUSH1 0x40 MLOAD PUSH32 0x8C379A000000000000000000000000000000000000000000000000000000000 DUP2 MSTORE PUSH1 0x4 ADD PUSH2 0x4B0A SWAP1 PUSH2 0x8191 JUMP JUMPDEST PUSH1 0x40 MLOAD DUP1 SWAP2 SUB SWAP1 REVERT JUMPDEST PUSH1 0x2 PUSH1 0x0 DUP2 SWAP1 SSTORE POP PUSH2 0x4B23 PUSH2 0x542C JUMP JUMPDEST PUSH20 0xFFFFFFFFFFFFFFFFFFFFFFFFFFFFFFFFFFFFFFFF AND PUSH32 0xE1FFFCC4923D04B559F4D29A8BFC6CDA04EB5B0D3C460751C2402C5C5CC9109C CALLVALUE PUSH1 0x40 MLOAD PUSH2 0x4B68 SWAP2 SWAP1 PUSH2 0x820C JUMP JUMPDEST PUSH1 0x40 MLOAD DUP1 SWAP2 SUB SWAP1 LOG2 PUSH1 0x1 PUSH1 0x0 DUP2 SWAP1 SSTORE POP POP JUMP JUMPDEST PUSH1 0x0 PUSH2 0x4B85 PUSH2 0x54ED JUMP JUMPDEST SWAP1 POP SWAP1 JUMP JUMPDEST PUSH2 0x4B92 PUSH2 0x542C JUMP JUMPDEST PUSH20 0xFFFFFFFFFFFFFFFFFFFFFFFFFFFFFFFFFFFFFFFF AND PUSH2 0x4BB0 PUSH2 0x4074 JUMP JUMPDEST PUSH20 0xFFFFFFFFFFFFFFFFFFFFFFFFFFFFFFFFFFFFFFFF AND EQ PUSH2 0x4C06 JUMPI PUSH1 0x40 MLOAD PUSH32 0x8C379A000000000000000000000000000000000000000000000000000000000 DUP2 MSTORE PUSH1 0x4 ADD PUSH2 0x4BFD SWAP1 PUSH2 0x8071 JUMP JUMPDEST PUSH1 0x40 MLOAD DUP1 SWAP2 SUB SWAP1 REVERT JUMPDEST PUSH1 0x0 PUSH1 0xFF AND DUP2 PUSH1 0xFF AND EQ ISZERO PUSH2 0x4C69 JUMPI PUSH1 0x2 PUSH1 0x0 DUP4 PUSH20 0xFFFFFFFFFFFFFFFFFFFFFFFFFFFFFFFFFFFFFFFF AND PUSH20 0xFFFFFFFFFFFFFFFFFFFFFFFFFFFFFFFFFFFFFFFF AND DUP2 MSTORE PUSH1 0x20 ADD SWAP1 DUP2 MSTORE PUSH1 0x20 ADD PUSH1 0x0 KECCAK256 PUSH1 0x0 PUSH2 0x100 EXP DUP2 SLOAD SWAP1 PUSH1 0xFF MUL NOT AND SWAP1 SSTORE PUSH2 0x4CC2 JUMP JUMPDEST DUP1 PUSH1 0x2 PUSH1 0x0 DUP5 PUSH20 0xFFFFFFFFFFFFFFFFFFFFFFFFFFFFFFFFFFFFFFFF AND PUSH20 0xFFFFFFFFFFFFFFFFFFFFFFFFFFFFFFFFFFFFFFFF AND DUP2 MSTORE PUSH1 0x20 ADD SWAP1 DUP2 MSTORE PUSH1 0x20 ADD PUSH1 0x0 KECCAK256 PUSH1 0x0 PUSH2 0x100 EXP DUP2 SLOAD DUP2 PUSH1 0xFF MUL NOT AND SWAP1 DUP4 PUSH1 0xFF AND MUL OR SWAP1 SSTORE POP JUMPDEST DUP2 PUSH20 0xFFFFFFFFFFFFFFFFFFFFFFFFFFFFFFFFFFFFFFFF AND PUSH32 0x2AB42F6B82517D797A585D5319A95696EA5167A6FBB0E0322C9EE66EDEC682C DUP3 PUSH1 0x40 MLOAD PUSH2 0x4D08 SWAP2 SWAP1 PUSH2 0x82B7 JUMP JUMPDEST PUSH1 0x40 MLOAD DUP1 SWAP2 SUB SWAP1 LOG2 POP POP JUMP JUMPDEST PUSH1 0x0 PUSH1 0x2 PUSH1 0x0 PUSH2 0x4D22 PUSH2 0x542C JUMP JUMPDEST PUSH20 0xFFFFFFFFFFFFFFFFFFFFFFFFFFFFFFFFFFFFFFFF AND PUSH20 0xFFFFFFFFFFFFFFFFFFFFFFFFFFFFFFFFFFFFFFFF AND DUP2 MSTORE PUSH1 0x20 ADD SWAP1 DUP2 MSTORE PUSH1 0x20 ADD PUSH1 0x0 KECCAK256 PUSH1 0x0 SWAP1 SLOAD SWAP1 PUSH2 0x100 EXP SWAP1 DIV PUSH1 0xFF AND SWAP1 POP PUSH2 0x4D74 PUSH2 0x542C JUMP JUMPDEST PUSH20 0xFFFFFFFFFFFFFFFFFFFFFFFFFFFFFFFFFFFFFFFF AND PUSH2 0x4D92 PUSH2 0x4074 JUMP JUMPDEST PUSH20 0xFFFFFFFFFFFFFFFFFFFFFFFFFFFFFFFFFFFFFFFF AND EQ DUP1 PUSH2 0x4DBA JUMPI POP PUSH1 0x1 PUSH1 0xFF AND DUP2 PUSH1 0xFF AND EQ JUMPDEST PUSH2 0x4DF9 JUMPI PUSH1 0x40 MLOAD PUSH32 0x8C379A000000000000000000000000000000000000000000000000000000000 DUP2 MSTORE PUSH1 0x4 ADD PUSH2 0x4DF0 SWAP1 PUSH2 0x8031 JUMP JUMPDEST PUSH1 0x40 MLOAD DUP1 SWAP2 SUB SWAP1 REVERT JUMPDEST DUP3 DUP3 SWAP1 POP DUP6 DUP6 SWAP1 POP EQ PUSH2 0x4E41 JUMPI PUSH1 0x40 MLOAD PUSH32 0x8C379A000000000000000000000000000000000000000000000000000000000 DUP2 MSTORE PUSH1 0x4 ADD PUSH2 0x4E38 SWAP1 PUSH2 0x80F1 JUMP JUMPDEST PUSH1 0x40 MLOAD DUP1 SWAP2 SUB SWAP1 REVERT JUMPDEST PUSH1 0x0 JUMPDEST DUP6 DUP6 SWAP1 POP DUP2 LT ISZERO PUSH2 0x4EAC JUMPI DUP4 DUP4 DUP3 DUP2 DUP2 LT PUSH2 0x4E62 JUMPI PUSH2 0x4E61 PUSH2 0x8844 JUMP JUMPDEST JUMPDEST SWAP1 POP PUSH1 0x20 MUL ADD CALLDATALOAD PUSH1 0x13 PUSH1 0x0 DUP9 DUP9 DUP6 DUP2 DUP2 LT PUSH2 0x4E80 JUMPI PUSH2 0x4E7F PUSH2 0x8844 JUMP JUMPDEST JUMPDEST SWAP1 POP PUSH1 0x20 MUL ADD CALLDATALOAD DUP2 MSTORE PUSH1 0x20 ADD SWAP1 DUP2 MSTORE PUSH1 0x20 ADD PUSH1 0x0 KECCAK256 DUP2 SWAP1 SSTORE POP DUP1 DUP1 PUSH2 0x4EA4 SWAP1 PUSH2 0x873D JUMP JUMPDEST SWAP2 POP POP PUSH2 0x4E44 JUMP JUMPDEST POP POP POP POP POP POP JUMP JUMPDEST PUSH1 0x0 PUSH1 0x4 PUSH1 0x2 SWAP1 SLOAD SWAP1 PUSH2 0x100 EXP SWAP1 DIV PUSH1 0xFF AND SWAP1 POP SWAP1 JUMP JUMPDEST PUSH1 0x0 PUSH1 0x1B PUSH1 0x0 DUP5 PUSH20 0xFFFFFFFFFFFFFFFFFFFFFFFFFFFFFFFFFFFFFFFF AND PUSH20 0xFFFFFFFFFFFFFFFFFFFFFFFFFFFFFFFFFFFFFFFF AND DUP2 MSTORE PUSH1 0x20 ADD SWAP1 DUP2 MSTORE PUSH1 0x20 ADD PUSH1 0x0 KECCAK256 PUSH1 0x0 DUP4 PUSH20 0xFFFFFFFFFFFFFFFFFFFFFFFFFFFFFFFFFFFFFFFF AND PUSH20 0xFFFFFFFFFFFFFFFFFFFFFFFFFFFFFFFFFFFFFFFF AND DUP2 MSTORE PUSH1 0x20 ADD SWAP1 DUP2 MSTORE PUSH1 0x20 ADD PUSH1 0x0 KECCAK256 PUSH1 0x0 SWAP1 SLOAD SWAP1 PUSH2 0x100 EXP SWAP1 DIV PUSH1 0xFF AND SWAP1 POP SWAP3 SWAP2 POP POP JUMP JUMPDEST PUSH2 0x4F67 PUSH2 0x542C JUMP JUMPDEST PUSH20 0xFFFFFFFFFFFFFFFFFFFFFFFFFFFFFFFFFFFFFFFF AND PUSH2 0x4F85 PUSH2 0x4074 JUMP JUMPDEST PUSH20 0xFFFFFFFFFFFFFFFFFFFFFFFFFFFFFFFFFFFFFFFF AND EQ PUSH2 0x4FDB JUMPI PUSH1 0x40 MLOAD PUSH32 0x8C379A000000000000000000000000000000000000000000000000000000000 DUP2 MSTORE PUSH1 0x4 ADD PUSH2 0x4FD2 SWAP1 PUSH2 0x8071 JUMP JUMPDEST PUSH1 0x40 MLOAD DUP1 SWAP2 SUB SWAP1 REVERT JUMPDEST DUP1 PUSH1 0x7 DUP2 DUP2 PUSH2 0x4FEA SWAP2 SWAP1 PUSH2 0x9100 JUMP JUMPDEST SWAP1 POP POP POP JUMP JUMPDEST PUSH2 0x4FF8 PUSH2 0x542C JUMP JUMPDEST PUSH20 0xFFFFFFFFFFFFFFFFFFFFFFFFFFFFFFFFFFFFFFFF AND PUSH2 0x5016 PUSH2 0x4074 JUMP JUMPDEST PUSH20 0xFFFFFFFFFFFFFFFFFFFFFFFFFFFFFFFFFFFFFFFF AND EQ PUSH2 0x506C JUMPI PUSH1 0x40 MLOAD PUSH32 0x8C379A000000000000000000000000000000000000000000000000000000000 DUP2 MSTORE PUSH1 0x4 ADD PUSH2 0x5063 SWAP1 PUSH2 0x8071 JUMP JUMPDEST PUSH1 0x40 MLOAD DUP1 SWAP2 SUB SWAP1 REVERT JUMPDEST PUSH1 0x0 PUSH20 0xFFFFFFFFFFFFFFFFFFFFFFFFFFFFFFFFFFFFFFFF AND DUP2 PUSH20 0xFFFFFFFFFFFFFFFFFFFFFFFFFFFFFFFFFFFFFFFF AND EQ ISZERO PUSH2 0x50DC JUMPI PUSH1 0x40 MLOAD PUSH32 0x8C379A000000000000000000000000000000000000000000000000000000000 DUP2 MSTORE PUSH1 0x4 ADD PUSH2 0x50D3 SWAP1 PUSH2 0x7E31 JUMP JUMPDEST PUSH1 0x40 MLOAD DUP1 SWAP2 SUB SWAP1 REVERT JUMPDEST PUSH2 0x50E5 DUP2 PUSH2 0x5BDD JUMP JUMPDEST POP JUMP JUMPDEST PUSH7 0x6E659D948720D DUP2 JUMP JUMPDEST PUSH1 0x2 PUSH1 0x0 SLOAD EQ ISZERO PUSH2 0x5139 JUMPI PUSH1 0x40 MLOAD PUSH32 0x8C379A000000000000000000000000000000000000000000000000000000000 DUP2 MSTORE PUSH1 0x4 ADD PUSH2 0x5130 SWAP1 PUSH2 0x8191 JUMP JUMPDEST PUSH1 0x40 MLOAD DUP1 SWAP2 SUB SWAP1 REVERT JUMPDEST PUSH1 0x2 PUSH1 0x0 DUP2 SWAP1 SSTORE POP PUSH1 0x0 PUSH1 0x2 PUSH1 0x0 PUSH2 0x514F PUSH2 0x542C JUMP JUMPDEST PUSH20 0xFFFFFFFFFFFFFFFFFFFFFFFFFFFFFFFFFFFFFFFF AND PUSH20 0xFFFFFFFFFFFFFFFFFFFFFFFFFFFFFFFFFFFFFFFF AND DUP2 MSTORE PUSH1 0x20 ADD SWAP1 DUP2 MSTORE PUSH1 0x20 ADD PUSH1 0x0 KECCAK256 PUSH1 0x0 SWAP1 SLOAD SWAP1 PUSH2 0x100 EXP SWAP1 DIV PUSH1 0xFF AND SWAP1 POP PUSH2 0x51A1 PUSH2 0x542C JUMP JUMPDEST PUSH20 0xFFFFFFFFFFFFFFFFFFFFFFFFFFFFFFFFFFFFFFFF AND PUSH2 0x51BF PUSH2 0x4074 JUMP JUMPDEST PUSH20 0xFFFFFFFFFFFFFFFFFFFFFFFFFFFFFFFFFFFFFFFF AND EQ DUP1 PUSH2 0x51E7 JUMPI POP PUSH1 0x2 PUSH1 0xFF AND DUP2 PUSH1 0xFF AND EQ JUMPDEST DUP1 PUSH2 0x51F8 JUMPI POP PUSH1 0x1 PUSH1 0xFF AND DUP2 PUSH1 0xFF AND EQ JUMPDEST PUSH2 0x5237 JUMPI PUSH1 0x40 MLOAD PUSH32 0x8C379A000000000000000000000000000000000000000000000000000000000 DUP2 MSTORE PUSH1 0x4 ADD PUSH2 0x522E SWAP1 PUSH2 0x8031 JUMP JUMPDEST PUSH1 0x40 MLOAD DUP1 SWAP2 SUB SWAP1 REVERT JUMPDEST PUSH1 0x0 JUMPDEST DUP4 DUP4 SWAP1 POP DUP2 LT ISZERO PUSH2 0x5386 JUMPI PUSH1 0x0 DUP5 DUP5 DUP4 DUP2 DUP2 LT PUSH2 0x525A JUMPI PUSH2 0x5259 PUSH2 0x8844 JUMP JUMPDEST JUMPDEST SWAP1 POP PUSH1 0x20 MUL ADD CALLDATALOAD SWAP1 POP PUSH2 0x526C DUP2 PUSH2 0x5B1C JUMP JUMPDEST PUSH2 0x52AB JUMPI PUSH1 0x40 MLOAD PUSH32 0x8C379A000000000000000000000000000000000000000000000000000000000 DUP2 MSTORE PUSH1 0x4 ADD PUSH2 0x52A2 SWAP1 PUSH2 0x7FF1 JUMP JUMPDEST PUSH1 0x40 MLOAD DUP1 SWAP2 SUB SWAP1 REVERT JUMPDEST PUSH1 0x0 PUSH1 0x5 PUSH1 0x0 DUP4 DUP2 MSTORE PUSH1 0x20 ADD SWAP1 DUP2 MSTORE PUSH1 0x20 ADD PUSH1 0x0 KECCAK256 SWAP1 POP PUSH1 0x0 DUP2 PUSH1 0x0 ADD SLOAD EQ ISZERO PUSH2 0x52D6 JUMPI POP POP PUSH2 0x5373 JUMP JUMPDEST DUP1 PUSH1 0x0 ADD SLOAD TIMESTAMP SUB DUP2 PUSH1 0x1 ADD PUSH1 0x0 DUP3 DUP3 SLOAD ADD SWAP3 POP POP DUP2 SWAP1 SSTORE POP PUSH1 0x0 DUP2 PUSH1 0x0 ADD DUP2 SWAP1 SSTORE POP PUSH2 0x5300 PUSH2 0x542C JUMP JUMPDEST PUSH20 0xFFFFFFFFFFFFFFFFFFFFFFFFFFFFFFFFFFFFFFFF AND DUP3 PUSH32 0x21880DA8181781694FCAE99F8578B33442E9B025E71E74077C42A031FE632E6D PUSH1 0x40 MLOAD PUSH1 0x40 MLOAD DUP1 SWAP2 SUB SWAP1 LOG3 DUP2 PUSH32 0x7AA3FC8CA01D7C9CEA899FC7885643F27473D1B988C2104CF78E193C3078A55F PUSH1 0x40 MLOAD PUSH1 0x40 MLOAD DUP1 SWAP2 SUB SWAP1 LOG2 POP POP JUMPDEST DUP1 DUP1 PUSH2 0x537E SWAP1 PUSH2 0x873D JUMP JUMPDEST SWAP2 POP POP PUSH2 0x523A JUMP JUMPDEST POP POP PUSH1 0x1 PUSH1 0x0 DUP2 SWAP1 SSTORE POP POP POP JUMP JUMPDEST PUSH1 0xB SLOAD DUP2 JUMP JUMPDEST PUSH1 0x0 PUSH4 0x1FFC9A7 PUSH1 0xE0 SHL DUP3 PUSH28 0xFFFFFFFFFFFFFFFFFFFFFFFFFFFFFFFFFFFFFFFFFFFFFFFFFFFFFFFF NOT AND EQ DUP1 PUSH2 0x53F5 JUMPI POP PUSH4 0x80AC58CD PUSH1 0xE0 SHL DUP3 PUSH28 0xFFFFFFFFFFFFFFFFFFFFFFFFFFFFFFFFFFFFFFFFFFFFFFFFFFFFFFFF NOT AND EQ JUMPDEST DUP1 PUSH2 0x5425 JUMPI POP PUSH4 0x5B5E139F PUSH1 0xE0 SHL DUP3 PUSH28 0xFFFFFFFFFFFFFFFFFFFFFFFFFFFFFFFFFFFFFFFFFFFFFFFFFFFFFFFF NOT AND EQ JUMPDEST SWAP1 POP SWAP2 SWAP1 POP JUMP JUMPDEST PUSH1 0x0 CALLER SWAP1 POP SWAP1 JUMP JUMPDEST PUSH1 0x0 DUP2 PUSH2 0x543F PUSH2 0x591B JUMP JUMPDEST GT ISZERO DUP1 ISZERO PUSH2 0x544E JUMPI POP PUSH1 0x14 SLOAD DUP3 LT JUMPDEST DUP1 ISZERO PUSH2 0x548C JUMPI POP PUSH1 0x0 PUSH29 0x100000000000000000000000000000000000000000000000000000000 PUSH1 0x18 PUSH1 0x0 DUP6 DUP2 MSTORE PUSH1 0x20 ADD SWAP1 DUP2 MSTORE PUSH1 0x20 ADD PUSH1 0x0 KECCAK256 SLOAD AND EQ JUMPDEST SWAP1 POP SWAP2 SWAP1 POP JUMP JUMPDEST PUSH1 0x0 DUP1 PUSH2 0x549F DUP4 PUSH2 0x59C6 JUMP JUMPDEST SWAP1 POP PUSH1 0x0 DUP2 EQ ISZERO PUSH2 0x54DC JUMPI PUSH1 0x40 MLOAD PUSH32 0xDF2D9B4200000000000000000000000000000000000000000000000000000000 DUP2 MSTORE PUSH1 0x4 ADD PUSH1 0x40 MLOAD DUP1 SWAP2 SUB SWAP1 REVERT JUMPDEST DUP1 SWAP2 POP POP SWAP2 SWAP1 POP JUMP JUMPDEST PUSH1 0x0 CALLER SWAP1 POP SWAP1 JUMP JUMPDEST PUSH1 0x0 PUSH1 0x15 SLOAD SWAP1 POP SWAP1 JUMP JUMPDEST PUSH1 0x0 PUSH2 0x5501 PUSH2 0x591B JUMP JUMPDEST PUSH1 0x14 SLOAD SUB SWAP1 POP SWAP1 JUMP JUMPDEST PUSH1 0x0 PUSH2 0x5515 DUP3 PUSH2 0x5493 JUMP JUMPDEST SWAP1 POP DUP4 PUSH20 0xFFFFFFFFFFFFFFFFFFFFFFFFFFFFFFFFFFFFFFFF AND DUP2 PUSH20 0xFFFFFFFFFFFFFFFFFFFFFFFFFFFFFFFFFFFFFFFF AND EQ PUSH2 0x557C JUMPI PUSH1 0x40 MLOAD PUSH32 0xA114810000000000000000000000000000000000000000000000000000000000 DUP2 MSTORE PUSH1 0x4 ADD PUSH1 0x40 MLOAD DUP1 SWAP2 SUB SWAP1 REVERT JUMPDEST PUSH1 0x0 DUP5 PUSH20 0xFFFFFFFFFFFFFFFFFFFFFFFFFFFFFFFFFFFFFFFF AND PUSH2 0x559D PUSH2 0x54E5 JUMP JUMPDEST PUSH20 0xFFFFFFFFFFFFFFFFFFFFFFFFFFFFFFFFFFFFFFFF AND EQ DUP1 PUSH2 0x55CC JUMPI POP PUSH2 0x55CB DUP6 PUSH2 0x55C6 PUSH2 0x54E5 JUMP JUMPDEST PUSH2 0x4ECB JUMP JUMPDEST JUMPDEST DUP1 PUSH2 0x5611 JUMPI POP PUSH2 0x55DA PUSH2 0x54E5 JUMP JUMPDEST PUSH20 0xFFFFFFFFFFFFFFFFFFFFFFFFFFFFFFFFFFFFFFFF AND PUSH2 0x55F9 DUP5 PUSH2 0x1428 JUMP JUMPDEST PUSH20 0xFFFFFFFFFFFFFFFFFFFFFFFFFFFFFFFFFFFFFFFF AND EQ JUMPDEST SWAP1 POP DUP1 PUSH2 0x564A JUMPI PUSH1 0x40 MLOAD PUSH32 0x59C896BE00000000000000000000000000000000000000000000000000000000 DUP2 MSTORE PUSH1 0x4 ADD PUSH1 0x40 MLOAD DUP1 SWAP2 SUB SWAP1 REVERT JUMPDEST PUSH1 0x0 PUSH20 0xFFFFFFFFFFFFFFFFFFFFFFFFFFFFFFFFFFFFFFFF AND DUP5 PUSH20 0xFFFFFFFFFFFFFFFFFFFFFFFFFFFFFFFFFFFFFFFF AND EQ ISZERO PUSH2 0x56B1 JUMPI PUSH1 0x40 MLOAD PUSH32 0xEA553B3400000000000000000000000000000000000000000000000000000000 DUP2 MSTORE PUSH1 0x4 ADD PUSH1 0x40 MLOAD DUP1 SWAP2 SUB SWAP1 REVERT JUMPDEST PUSH2 0x56BE DUP6 DUP6 DUP6 PUSH1 0x1 PUSH2 0x601B JUMP JUMPDEST PUSH1 0x1A PUSH1 0x0 DUP5 DUP2 MSTORE PUSH1 0x20 ADD SWAP1 DUP2 MSTORE PUSH1 0x20 ADD PUSH1 0x0 KECCAK256 PUSH1 0x0 PUSH2 0x100 EXP DUP2 SLOAD SWAP1 PUSH20 0xFFFFFFFFFFFFFFFFFFFFFFFFFFFFFFFFFFFFFFFF MUL NOT AND SWAP1 SSTORE PUSH1 0x19 PUSH1 0x0 DUP7 PUSH20 0xFFFFFFFFFFFFFFFFFFFFFFFFFFFFFFFFFFFFFFFF AND PUSH20 0xFFFFFFFFFFFFFFFFFFFFFFFFFFFFFFFFFFFFFFFF AND DUP2 MSTORE PUSH1 0x20 ADD SWAP1 DUP2 MSTORE PUSH1 0x20 ADD PUSH1 0x0 KECCAK256 PUSH1 0x0 DUP2 SLOAD PUSH1 0x1 SWAP1 SUB SWAP2 SWAP1 POP DUP2 SWAP1 SSTORE POP PUSH1 0x19 PUSH1 0x0 DUP6 PUSH20 0xFFFFFFFFFFFFFFFFFFFFFFFFFFFFFFFFFFFFFFFF AND PUSH20 0xFFFFFFFFFFFFFFFFFFFFFFFFFFFFFFFFFFFFFFFF AND DUP2 MSTORE PUSH1 0x20 ADD SWAP1 DUP2 MSTORE PUSH1 0x20 ADD PUSH1 0x0 KECCAK256 PUSH1 0x0 DUP2 SLOAD PUSH1 0x1 ADD SWAP2 SWAP1 POP DUP2 SWAP1 SSTORE POP PUSH29 0x200000000000000000000000000000000000000000000000000000000 PUSH1 0xA0 TIMESTAMP SWAP1 SHL PUSH2 0x57BB DUP7 PUSH2 0x6090 JUMP JUMPDEST OR OR PUSH1 0x18 PUSH1 0x0 DUP6 DUP2 MSTORE PUSH1 0x20 ADD SWAP1 DUP2 MSTORE PUSH1 0x20 ADD PUSH1 0x0 KECCAK256 DUP2 SWAP1 SSTORE POP PUSH1 0x0 PUSH29 0x200000000000000000000000000000000000000000000000000000000 DUP4 AND EQ ISZERO PUSH2 0x5845 JUMPI PUSH1 0x0 PUSH1 0x1 DUP5 ADD SWAP1 POP PUSH1 0x0 PUSH1 0x18 PUSH1 0x0 DUP4 DUP2 MSTORE PUSH1 0x20 ADD SWAP1 DUP2 MSTORE PUSH1 0x20 ADD PUSH1 0x0 KECCAK256 SLOAD EQ ISZERO PUSH2 0x5843 JUMPI PUSH1 0x14 SLOAD DUP2 EQ PUSH2 0x5842 JUMPI DUP3 PUSH1 0x18 PUSH1 0x0 DUP4 DUP2 MSTORE PUSH1 0x20 ADD SWAP1 DUP2 MSTORE PUSH1 0x20 ADD PUSH1 0x0 KECCAK256 DUP2 SWAP1 SSTORE POP JUMPDEST JUMPDEST POP JUMPDEST DUP3 DUP5 PUSH20 0xFFFFFFFFFFFFFFFFFFFFFFFFFFFFFFFFFFFFFFFF AND DUP7 PUSH20 0xFFFFFFFFFFFFFFFFFFFFFFFFFFFFFFFFFFFFFFFF AND PUSH32 0xDDF252AD1BE2C89B69C2B068FC378DAA952BA7F163C4A11628F55A4DF523B3EF PUSH1 0x40 MLOAD PUSH1 0x40 MLOAD DUP1 SWAP2 SUB SWAP1 LOG4 PUSH2 0x58AD DUP6 DUP6 DUP6 PUSH1 0x1 PUSH2 0x609A JUMP JUMPDEST POP POP POP POP POP JUMP JUMPDEST PUSH1 0x0 PUSH1 0x7 PUSH1 0x2 ADD SLOAD SWAP1 POP SWAP2 SWAP1 POP JUMP JUMPDEST PUSH1 0x0 PUSH1 0x2 PUSH2 0xFFFF AND PUSH1 0xF PUSH1 0x0 SWAP1 SLOAD SWAP1 PUSH2 0x100 EXP SWAP1 DIV PUSH2 0xFFFF AND PUSH2 0xFFFF AND EQ DUP1 PUSH2 0x5904 JUMPI POP PUSH1 0x3 PUSH2 0xFFFF AND PUSH1 0xF PUSH1 0x0 SWAP1 SLOAD SWAP1 PUSH2 0x100 EXP SWAP1 DIV PUSH2 0xFFFF AND PUSH2 0xFFFF AND EQ JUMPDEST SWAP1 POP SWAP1 JUMP JUMPDEST PUSH2 0x5917 DUP3 DUP3 PUSH2 0xFFFF AND PUSH2 0x60A0 JUMP JUMPDEST POP POP JUMP JUMPDEST PUSH1 0x0 PUSH1 0x1 SWAP1 POP SWAP1 JUMP JUMPDEST PUSH2 0x592C PUSH2 0x31B3 JUMP JUMPDEST PUSH2 0x596B JUMPI PUSH1 0x40 MLOAD PUSH32 0x8C379A000000000000000000000000000000000000000000000000000000000 DUP2 MSTORE PUSH1 0x4 ADD PUSH2 0x5962 SWAP1 PUSH2 0x7DF1 JUMP JUMPDEST PUSH1 0x40 MLOAD DUP1 SWAP2 SUB SWAP1 REVERT JUMPDEST PUSH1 0x0 PUSH1 0x1 PUSH1 0x0 PUSH2 0x100 EXP DUP2 SLOAD DUP2 PUSH1 0xFF MUL NOT AND SWAP1 DUP4 ISZERO ISZERO MUL OR SWAP1 SSTORE POP PUSH32 0x5DB9EE0A495BF2E6FF9C91A7834C1BA4FDD244A5E8AA4E537BD38AEAE4B073AA PUSH2 0x59AF PUSH2 0x542C JUMP JUMPDEST PUSH1 0x40 MLOAD PUSH2 0x59BC SWAP2 SWAP1 PUSH2 0x7C00 JUMP JUMPDEST PUSH1 0x40 MLOAD DUP1 SWAP2 SUB SWAP1 LOG1 JUMP JUMPDEST PUSH1 0x0 DUP1 DUP3 SWAP1 POP DUP1 PUSH2 0x59D5 PUSH2 0x591B JUMP JUMPDEST GT PUSH2 0x5A5D JUMPI PUSH1 0x14 SLOAD DUP2 LT ISZERO PUSH2 0x5A5C JUMPI PUSH1 0x0 PUSH1 0x18 PUSH1 0x0 DUP4 DUP2 MSTORE PUSH1 0x20 ADD SWAP1 DUP2 MSTORE PUSH1 0x20 ADD PUSH1 0x0 KECCAK256 SLOAD SWAP1 POP PUSH1 0x0 PUSH29 0x100000000000000000000000000000000000000000000000000000000 DUP3 AND EQ ISZERO PUSH2 0x5A5A JUMPI JUMPDEST PUSH1 0x0 DUP2 EQ ISZERO PUSH2 0x5A50 JUMPI PUSH1 0x18 PUSH1 0x0 DUP4 PUSH1 0x1 SWAP1 SUB SWAP4 POP DUP4 DUP2 MSTORE PUSH1 0x20 ADD SWAP1 DUP2 MSTORE PUSH1 0x20 ADD PUSH1 0x0 KECCAK256 SLOAD SWAP1 POP PUSH2 0x5A25 JUMP JUMPDEST DUP1 SWAP3 POP POP POP PUSH2 0x5A63 JUMP JUMPDEST POP JUMPDEST JUMPDEST PUSH1 0x0 SWAP2 POP POP JUMPDEST SWAP2 SWAP1 POP JUMP JUMPDEST PUSH1 0x0 PUSH2 0x5A73 DUP3 PUSH2 0x2BFF JUMP JUMPDEST SWAP1 POP SWAP2 SWAP1 POP JUMP JUMPDEST PUSH2 0x5A82 PUSH2 0x31B3 JUMP JUMPDEST ISZERO PUSH2 0x5AC2 JUMPI PUSH1 0x40 MLOAD PUSH32 0x8C379A000000000000000000000000000000000000000000000000000000000 DUP2 MSTORE PUSH1 0x4 ADD PUSH2 0x5AB9 SWAP1 PUSH2 0x7FB1 JUMP JUMPDEST PUSH1 0x40 MLOAD DUP1 SWAP2 SUB SWAP1 REVERT JUMPDEST PUSH1 0x1 DUP1 PUSH1 0x0 PUSH2 0x100 EXP DUP2 SLOAD DUP2 PUSH1 0xFF MUL NOT AND SWAP1 DUP4 ISZERO ISZERO MUL OR SWAP1 SSTORE POP PUSH32 0x62E78CEA01BEE320CD4E420270B5EA74000D11B0C9F74754EBDBFC544B05A258 PUSH2 0x5B05 PUSH2 0x542C JUMP JUMPDEST PUSH1 0x40 MLOAD PUSH2 0x5B12 SWAP2 SWAP1 PUSH2 0x7C00 JUMP JUMPDEST PUSH1 0x40 MLOAD DUP1 SWAP2 SUB SWAP1 LOG1 JUMP JUMPDEST PUSH1 0x0 DUP1 PUSH20 0xFFFFFFFFFFFFFFFFFFFFFFFFFFFFFFFFFFFFFFFF AND ADDRESS PUSH20 0xFFFFFFFFFFFFFFFFFFFFFFFFFFFFFFFFFFFFFFFF AND PUSH4 0x6352211E DUP5 PUSH1 0x40 MLOAD DUP3 PUSH4 0xFFFFFFFF AND PUSH1 0xE0 SHL DUP2 MSTORE PUSH1 0x4 ADD PUSH2 0x5B6E SWAP2 SWAP1 PUSH2 0x820C JUMP JUMPDEST PUSH1 0x20 PUSH1 0x40 MLOAD DUP1 DUP4 SUB DUP2 DUP7 DUP1 EXTCODESIZE ISZERO DUP1 ISZERO PUSH2 0x5B86 JUMPI PUSH1 0x0 DUP1 REVERT JUMPDEST POP GAS STATICCALL ISZERO DUP1 ISZERO PUSH2 0x5B9A JUMPI RETURNDATASIZE PUSH1 0x0 DUP1 RETURNDATACOPY RETURNDATASIZE PUSH1 0x0 REVERT JUMPDEST POP POP POP POP PUSH1 0x40 MLOAD RETURNDATASIZE PUSH1 0x1F NOT PUSH1 0x1F DUP3 ADD AND DUP3 ADD DUP1 PUSH1 0x40 MSTORE POP DUP2 ADD SWAP1 PUSH2 0x5BBE SWAP2 SWAP1 PUSH2 0x6F02 JUMP JUMPDEST PUSH20 0xFFFFFFFFFFFFFFFFFFFFFFFFFFFFFFFFFFFFFFFF AND EQ ISZERO SWAP1 POP SWAP2 SWAP1 POP JUMP JUMPDEST PUSH1 0x0 PUSH1 0x1 DUP1 SLOAD SWAP1 PUSH2 0x100 EXP SWAP1 DIV PUSH20 0xFFFFFFFFFFFFFFFFFFFFFFFFFFFFFFFFFFFFFFFF AND SWAP1 POP DUP2 PUSH1 0x1 DUP1 PUSH2 0x100 EXP DUP2 SLOAD DUP2 PUSH20 0xFFFFFFFFFFFFFFFFFFFFFFFFFFFFFFFFFFFFFFFF MUL NOT AND SWAP1 DUP4 PUSH20 0xFFFFFFFFFFFFFFFFFFFFFFFFFFFFFFFFFFFFFFFF AND MUL OR SWAP1 SSTORE POP DUP2 PUSH20 0xFFFFFFFFFFFFFFFFFFFFFFFFFFFFFFFFFFFFFFFF AND DUP2 PUSH20 0xFFFFFFFFFFFFFFFFFFFFFFFFFFFFFFFFFFFFFFFF AND PUSH32 0x8BE0079C531659141344CD1FD0A4F28419497F9722A3DAAFE3B4186F6B6457E0 PUSH1 0x40 MLOAD PUSH1 0x40 MLOAD DUP1 SWAP2 SUB SWAP1 LOG3 POP POP JUMP JUMPDEST PUSH2 0x5CAB DUP2 PUSH1 0x0 PUSH2 0x60BE JUMP JUMPDEST POP JUMP JUMPDEST PUSH1 0x0 DUP4 PUSH20 0xFFFFFFFFFFFFFFFFFFFFFFFFFFFFFFFFFFFFFFFF AND PUSH4 0x150B7A02 PUSH2 0x5CD4 PUSH2 0x54E5 JUMP JUMPDEST DUP8 DUP7 DUP7 PUSH1 0x40 MLOAD DUP6 PUSH4 0xFFFFFFFF AND PUSH1 0xE0 SHL DUP2 MSTORE PUSH1 0x4 ADD PUSH2 0x5CF6 SWAP5 SWAP4 SWAP3 SWAP2 SWAP1 PUSH2 0x7C52 JUMP JUMPDEST PUSH1 0x20 PUSH1 0x40 MLOAD DUP1 DUP4 SUB DUP2 PUSH1 0x0 DUP8 DUP1 EXTCODESIZE ISZERO DUP1 ISZERO PUSH2 0x5D10 JUMPI PUSH1 0x0 DUP1 REVERT JUMPDEST POP GAS CALL SWAP3 POP POP POP DUP1 ISZERO PUSH2 0x5D41 JUMPI POP PUSH1 0x40 MLOAD RETURNDATASIZE PUSH1 0x1F NOT PUSH1 0x1F DUP3 ADD AND DUP3 ADD DUP1 PUSH1 0x40 MSTORE POP DUP2 ADD SWAP1 PUSH2 0x5D3E SWAP2 SWAP1 PUSH2 0x732F JUMP JUMPDEST PUSH1 0x1 JUMPDEST PUSH2 0x5DBB JUMPI RETURNDATASIZE DUP1 PUSH1 0x0 DUP2 EQ PUSH2 0x5D71 JUMPI PUSH1 0x40 MLOAD SWAP2 POP PUSH1 0x1F NOT PUSH1 0x3F RETURNDATASIZE ADD AND DUP3 ADD PUSH1 0x40 MSTORE RETURNDATASIZE DUP3 MSTORE RETURNDATASIZE PUSH1 0x0 PUSH1 0x20 DUP5 ADD RETURNDATACOPY PUSH2 0x5D76 JUMP JUMPDEST PUSH1 0x60 SWAP2 POP JUMPDEST POP PUSH1 0x0 DUP2 MLOAD EQ ISZERO PUSH2 0x5DB3 JUMPI PUSH1 0x40 MLOAD PUSH32 0xD1A57ED600000000000000000000000000000000000000000000000000000000 DUP2 MSTORE PUSH1 0x4 ADD PUSH1 0x40 MLOAD DUP1 SWAP2 SUB SWAP1 REVERT JUMPDEST DUP1 MLOAD DUP2 PUSH1 0x20 ADD REVERT JUMPDEST PUSH4 0x150B7A02 PUSH1 0xE0 SHL PUSH28 0xFFFFFFFFFFFFFFFFFFFFFFFFFFFFFFFFFFFFFFFFFFFFFFFFFFFFFFFF NOT AND DUP2 PUSH28 0xFFFFFFFFFFFFFFFFFFFFFFFFFFFFFFFFFFFFFFFFFFFFFFFFFFFFFFFF NOT AND EQ SWAP2 POP POP SWAP5 SWAP4 POP POP POP POP JUMP JUMPDEST PUSH1 0x60 PUSH1 0x0 PUSH20 0xFFFFFFFFFFFFFFFFFFFFFFFFFFFFFFFFFFFFFFFF AND ADDRESS PUSH20 0xFFFFFFFFFFFFFFFFFFFFFFFFFFFFFFFFFFFFFFFF AND PUSH4 0x6352211E DUP5 PUSH1 0x40 MLOAD DUP3 PUSH4 0xFFFFFFFF AND PUSH1 0xE0 SHL DUP2 MSTORE PUSH1 0x4 ADD PUSH2 0x5E61 SWAP2 SWAP1 PUSH2 0x820C JUMP JUMPDEST PUSH1 0x20 PUSH1 0x40 MLOAD DUP1 DUP4 SUB DUP2 DUP7 DUP1 EXTCODESIZE ISZERO DUP1 ISZERO PUSH2 0x5E79 JUMPI PUSH1 0x0 DUP1 REVERT JUMPDEST POP GAS STATICCALL ISZERO DUP1 ISZERO PUSH2 0x5E8D JUMPI RETURNDATASIZE PUSH1 0x0 DUP1 RETURNDATACOPY RETURNDATASIZE PUSH1 0x0 REVERT JUMPDEST POP POP POP POP PUSH1 0x40 MLOAD RETURNDATASIZE PUSH1 0x1F NOT PUSH1 0x1F DUP3 ADD AND DUP3 ADD DUP1 PUSH1 0x40 MSTORE POP DUP2 ADD SWAP1 PUSH2 0x5EB1 SWAP2 SWAP1 PUSH2 0x6F02 JUMP JUMPDEST PUSH20 0xFFFFFFFFFFFFFFFFFFFFFFFFFFFFFFFFFFFFFFFF AND EQ ISZERO PUSH2 0x5F08 JUMPI PUSH1 0x40 MLOAD PUSH32 0x8C379A000000000000000000000000000000000000000000000000000000000 DUP2 MSTORE PUSH1 0x4 ADD PUSH2 0x5EFF SWAP1 PUSH2 0x7F11 JUMP JUMPDEST PUSH1 0x40 MLOAD DUP1 SWAP2 SUB SWAP1 REVERT JUMPDEST PUSH1 0x0 PUSH1 0x11 PUSH1 0x0 DUP5 DUP2 MSTORE PUSH1 0x20 ADD SWAP1 DUP2 MSTORE PUSH1 0x20 ADD PUSH1 0x0 KECCAK256 DUP1 SLOAD PUSH2 0x5F28 SWAP1 PUSH2 0x86AF JUMP JUMPDEST DUP1 PUSH1 0x1F ADD PUSH1 0x20 DUP1 SWAP2 DIV MUL PUSH1 0x20 ADD PUSH1 0x40 MLOAD SWAP1 DUP2 ADD PUSH1 0x40 MSTORE DUP1 SWAP3 SWAP2 SWAP1 DUP2 DUP2 MSTORE PUSH1 0x20 ADD DUP3 DUP1 SLOAD PUSH2 0x5F54 SWAP1 PUSH2 0x86AF JUMP JUMPDEST DUP1 ISZERO PUSH2 0x5FA1 JUMPI DUP1 PUSH1 0x1F LT PUSH2 0x5F76 JUMPI PUSH2 0x100 DUP1 DUP4 SLOAD DIV MUL DUP4 MSTORE SWAP2 PUSH1 0x20 ADD SWAP2 PUSH2 0x5FA1 JUMP JUMPDEST DUP3 ADD SWAP2 SWAP1 PUSH1 0x0 MSTORE PUSH1 0x20 PUSH1 0x0 KECCAK256 SWAP1 JUMPDEST DUP2 SLOAD DUP2 MSTORE SWAP1 PUSH1 0x1 ADD SWAP1 PUSH1 0x20 ADD DUP1 DUP4 GT PUSH2 0x5F84 JUMPI DUP3 SWAP1 SUB PUSH1 0x1F AND DUP3 ADD SWAP2 JUMPDEST POP POP POP POP POP SWAP1 POP PUSH1 0x0 DUP2 MLOAD GT ISZERO PUSH2 0x5FBB JUMPI DUP1 SWAP2 POP POP PUSH2 0x6016 JUMP JUMPDEST PUSH1 0x0 PUSH2 0x5FC6 DUP5 PUSH2 0x6396 JUMP JUMPDEST SWAP1 POP PUSH1 0x0 DUP2 MLOAD GT PUSH2 0x5FE6 JUMPI PUSH1 0x40 MLOAD DUP1 PUSH1 0x20 ADD PUSH1 0x40 MSTORE DUP1 PUSH1 0x0 DUP2 MSTORE POP PUSH2 0x6011 JUMP JUMPDEST DUP1 PUSH2 0x5FF0 DUP6 PUSH2 0x6491 JUMP JUMPDEST PUSH1 0x40 MLOAD PUSH1 0x20 ADD PUSH2 0x6001 SWAP3 SWAP2 SWAP1 PUSH2 0x7BDC JUMP JUMPDEST PUSH1 0x40 MLOAD PUSH1 0x20 DUP2 DUP4 SUB SUB DUP2 MSTORE SWAP1 PUSH1 0x40 MSTORE JUMPDEST SWAP3 POP POP POP JUMPDEST SWAP2 SWAP1 POP JUMP JUMPDEST PUSH1 0x0 JUMPDEST DUP2 DUP2 LT ISZERO PUSH2 0x607D JUMPI PUSH2 0x6031 DUP2 DUP5 ADD PUSH2 0x65F2 JUMP JUMPDEST PUSH2 0x6070 JUMPI PUSH1 0x40 MLOAD PUSH32 0x8C379A000000000000000000000000000000000000000000000000000000000 DUP2 MSTORE PUSH1 0x4 ADD PUSH2 0x6067 SWAP1 PUSH2 0x8051 JUMP JUMPDEST PUSH1 0x40 MLOAD DUP1 SWAP2 SUB SWAP1 REVERT JUMPDEST DUP1 DUP1 PUSH1 0x1 ADD SWAP2 POP POP PUSH2 0x601E JUMP JUMPDEST POP PUSH2 0x608A DUP5 DUP5 DUP5 DUP5 PUSH2 0x6637 JUMP JUMPDEST POP POP POP POP JUMP JUMPDEST PUSH1 0x0 DUP2 SWAP1 POP SWAP2 SWAP1 POP JUMP JUMPDEST POP POP POP POP JUMP JUMPDEST PUSH2 0x60BA DUP3 DUP3 PUSH1 0x40 MLOAD DUP1 PUSH1 0x20 ADD PUSH1 0x40 MSTORE DUP1 PUSH1 0x0 DUP2 MSTORE POP PUSH2 0x6691 JUMP JUMPDEST POP POP JUMP JUMPDEST PUSH1 0x0 PUSH2 0x60C9 DUP4 PUSH2 0x5493 JUMP JUMPDEST SWAP1 POP PUSH1 0x0 DUP2 SWAP1 POP DUP3 ISZERO PUSH2 0x61A6 JUMPI PUSH1 0x0 DUP2 PUSH20 0xFFFFFFFFFFFFFFFFFFFFFFFFFFFFFFFFFFFFFFFF AND PUSH2 0x60F7 PUSH2 0x54E5 JUMP JUMPDEST PUSH20 0xFFFFFFFFFFFFFFFFFFFFFFFFFFFFFFFFFFFFFFFF AND EQ DUP1 PUSH2 0x6126 JUMPI POP PUSH2 0x6125 DUP3 PUSH2 0x6120 PUSH2 0x54E5 JUMP JUMPDEST PUSH2 0x4ECB JUMP JUMPDEST JUMPDEST DUP1 PUSH2 0x616B JUMPI POP PUSH2 0x6134 PUSH2 0x54E5 JUMP JUMPDEST PUSH20 0xFFFFFFFFFFFFFFFFFFFFFFFFFFFFFFFFFFFFFFFF AND PUSH2 0x6153 DUP7 PUSH2 0x1428 JUMP JUMPDEST PUSH20 0xFFFFFFFFFFFFFFFFFFFFFFFFFFFFFFFFFFFFFFFF AND EQ JUMPDEST SWAP1 POP DUP1 PUSH2 0x61A4 JUMPI PUSH1 0x40 MLOAD PUSH32 0x59C896BE00000000000000000000000000000000000000000000000000000000 DUP2 MSTORE PUSH1 0x4 ADD PUSH1 0x40 MLOAD DUP1 SWAP2 SUB SWAP1 REVERT JUMPDEST POP JUMPDEST PUSH2 0x61B4 DUP2 PUSH1 0x0 DUP7 PUSH1 0x1 PUSH2 0x601B JUMP JUMPDEST PUSH1 0x1A PUSH1 0x0 DUP6 DUP2 MSTORE PUSH1 0x20 ADD SWAP1 DUP2 MSTORE PUSH1 0x20 ADD PUSH1 0x0 KECCAK256 PUSH1 0x0 PUSH2 0x100 EXP DUP2 SLOAD SWAP1 PUSH20 0xFFFFFFFFFFFFFFFFFFFFFFFFFFFFFFFFFFFFFFFF MUL NOT AND SWAP1 SSTORE PUSH1 0x1 PUSH1 0x80 PUSH1 0x1 SWAP1 SHL SUB PUSH1 0x19 PUSH1 0x0 DUP4 PUSH20 0xFFFFFFFFFFFFFFFFFFFFFFFFFFFFFFFFFFFFFFFF AND PUSH20 0xFFFFFFFFFFFFFFFFFFFFFFFFFFFFFFFFFFFFFFFF AND DUP2 MSTORE PUSH1 0x20 ADD SWAP1 DUP2 MSTORE PUSH1 0x20 ADD PUSH1 0x0 KECCAK256 PUSH1 0x0 DUP3 DUP3 SLOAD ADD SWAP3 POP POP DUP2 SWAP1 SSTORE POP PUSH29 0x200000000000000000000000000000000000000000000000000000000 PUSH29 0x100000000000000000000000000000000000000000000000000000000 PUSH1 0xA0 TIMESTAMP SWAP1 SHL PUSH2 0x6289 DUP5 PUSH2 0x6090 JUMP JUMPDEST OR OR OR PUSH1 0x18 PUSH1 0x0 DUP7 DUP2 MSTORE PUSH1 0x20 ADD SWAP1 DUP2 MSTORE PUSH1 0x20 ADD PUSH1 0x0 KECCAK256 DUP2 SWAP1 SSTORE POP PUSH1 0x0 PUSH29 0x200000000000000000000000000000000000000000000000000000000 DUP4 AND EQ ISZERO PUSH2 0x6314 JUMPI PUSH1 0x0 PUSH1 0x1 DUP6 ADD SWAP1 POP PUSH1 0x0 PUSH1 0x18 PUSH1 0x0 DUP4 DUP2 MSTORE PUSH1 0x20 ADD SWAP1 DUP2 MSTORE PUSH1 0x20 ADD PUSH1 0x0 KECCAK256 SLOAD EQ ISZERO PUSH2 0x6312 JUMPI PUSH1 0x14 SLOAD DUP2 EQ PUSH2 0x6311 JUMPI DUP3 PUSH1 0x18 PUSH1 0x0 DUP4 DUP2 MSTORE PUSH1 0x20 ADD SWAP1 DUP2 MSTORE PUSH1 0x20 ADD PUSH1 0x0 KECCAK256 DUP2 SWAP1 SSTORE POP JUMPDEST JUMPDEST POP JUMPDEST DUP4 PUSH1 0x0 PUSH20 0xFFFFFFFFFFFFFFFFFFFFFFFFFFFFFFFFFFFFFFFF AND DUP3 PUSH20 0xFFFFFFFFFFFFFFFFFFFFFFFFFFFFFFFFFFFFFFFF AND PUSH32 0xDDF252AD1BE2C89B69C2B068FC378DAA952BA7F163C4A11628F55A4DF523B3EF PUSH1 0x40 MLOAD PUSH1 0x40 MLOAD DUP1 SWAP2 SUB SWAP1 LOG4 PUSH2 0x637E DUP2 PUSH1 0x0 DUP7 PUSH1 0x1 PUSH2 0x609A JUMP JUMPDEST PUSH1 0x15 PUSH1 0x0 DUP2 SLOAD DUP1 SWAP3 SWAP2 SWAP1 PUSH1 0x1 ADD SWAP2 SWAP1 POP SSTORE POP POP POP POP POP JUMP JUMPDEST PUSH1 0x60 PUSH1 0x0 PUSH1 0x13 PUSH1 0x0 DUP5 DUP2 MSTORE PUSH1 0x20 ADD SWAP1 DUP2 MSTORE PUSH1 0x20 ADD PUSH1 0x0 KECCAK256 SLOAD SWAP1 POP PUSH1 0x0 DUP2 EQ ISZERO PUSH2 0x63CA JUMPI PUSH2 0x63C2 DUP4 PUSH2 0x6947 JUMP JUMPDEST SWAP2 POP POP PUSH2 0x648C JUMP JUMPDEST PUSH1 0x0 PUSH1 0x12 PUSH1 0x0 DUP4 DUP2 MSTORE PUSH1 0x20 ADD SWAP1 DUP2 MSTORE PUSH1 0x20 ADD PUSH1 0x0 KECCAK256 DUP1 SLOAD PUSH2 0x63EA SWAP1 PUSH2 0x86AF JUMP JUMPDEST DUP1 PUSH1 0x1F ADD PUSH1 0x20 DUP1 SWAP2 DIV MUL PUSH1 0x20 ADD PUSH1 0x40 MLOAD SWAP1 DUP2 ADD PUSH1 0x40 MSTORE DUP1 SWAP3 SWAP2 SWAP1 DUP2 DUP2 MSTORE PUSH1 0x20 ADD DUP3 DUP1 SLOAD PUSH2 0x6416 SWAP1 PUSH2 0x86AF JUMP JUMPDEST DUP1 ISZERO PUSH2 0x6463 JUMPI DUP1 PUSH1 0x1F LT PUSH2 0x6438 JUMPI PUSH2 0x100 DUP1 DUP4 SLOAD DIV MUL DUP4 MSTORE SWAP2 PUSH1 0x20 ADD SWAP2 PUSH2 0x6463 JUMP JUMPDEST DUP3 ADD SWAP2 SWAP1 PUSH1 0x0 MSTORE PUSH1 0x20 PUSH1 0x0 KECCAK256 SWAP1 JUMPDEST DUP2 SLOAD DUP2 MSTORE SWAP1 PUSH1 0x1 ADD SWAP1 PUSH1 0x20 ADD DUP1 DUP4 GT PUSH2 0x6446 JUMPI DUP3 SWAP1 SUB PUSH1 0x1F AND DUP3 ADD SWAP2 JUMPDEST POP POP POP POP POP SWAP1 POP PUSH1 0x0 DUP2 MLOAD EQ ISZERO PUSH2 0x6486 JUMPI PUSH2 0x647D DUP5 PUSH2 0x6947 JUMP JUMPDEST SWAP3 POP POP POP PUSH2 0x648C JUMP JUMPDEST DUP1 SWAP3 POP POP POP JUMPDEST SWAP2 SWAP1 POP JUMP JUMPDEST PUSH1 0x60 PUSH1 0x0 DUP3 EQ ISZERO PUSH2 0x64D9 JUMPI PUSH1 0x40 MLOAD DUP1 PUSH1 0x40 ADD PUSH1 0x40 MSTORE DUP1 PUSH1 0x1 DUP2 MSTORE PUSH1 0x20 ADD PUSH32 0x3000000000000000000000000000000000000000000000000000000000000000 DUP2 MSTORE POP SWAP1 POP PUSH2 0x65ED JUMP JUMPDEST PUSH1 0x0 DUP3 SWAP1 POP PUSH1 0x0 JUMPDEST PUSH1 0x0 DUP3 EQ PUSH2 0x650B JUMPI DUP1 DUP1 PUSH2 0x64F4 SWAP1 PUSH2 0x873D JUMP JUMPDEST SWAP2 POP POP PUSH1 0xA DUP3 PUSH2 0x6504 SWAP2 SWAP1 PUSH2 0x8500 JUMP JUMPDEST SWAP2 POP PUSH2 0x64E1 JUMP JUMPDEST PUSH1 0x0 DUP2 PUSH8 0xFFFFFFFFFFFFFFFF DUP2 GT ISZERO PUSH2 0x6527 JUMPI PUSH2 0x6526 PUSH2 0x8873 JUMP JUMPDEST JUMPDEST PUSH1 0x40 MLOAD SWAP1 DUP1 DUP3 MSTORE DUP1 PUSH1 0x1F ADD PUSH1 0x1F NOT AND PUSH1 0x20 ADD DUP3 ADD PUSH1 0x40 MSTORE DUP1 ISZERO PUSH2 0x6559 JUMPI DUP2 PUSH1 0x20 ADD PUSH1 0x1 DUP3 MUL DUP1 CALLDATASIZE DUP4 CALLDATACOPY DUP1 DUP3 ADD SWAP2 POP POP SWAP1 POP JUMPDEST POP SWAP1 POP JUMPDEST PUSH1 0x0 DUP6 EQ PUSH2 0x65E6 JUMPI PUSH1 0x1 DUP3 PUSH2 0x6572 SWAP2 SWAP1 PUSH2 0x8531 JUMP JUMPDEST SWAP2 POP PUSH1 0xA DUP6 PUSH2 0x6581 SWAP2 SWAP1 PUSH2 0x8786 JUMP JUMPDEST PUSH1 0x30 PUSH2 0x658D SWAP2 SWAP1 PUSH2 0x84AA JUMP JUMPDEST PUSH1 0xF8 SHL DUP2 DUP4 DUP2 MLOAD DUP2 LT PUSH2 0x65A3 JUMPI PUSH2 0x65A2 PUSH2 0x8844 JUMP JUMPDEST JUMPDEST PUSH1 0x20 ADD ADD SWAP1 PUSH31 0xFFFFFFFFFFFFFFFFFFFFFFFFFFFFFFFFFFFFFFFFFFFFFFFFFFFFFFFFFFFFFF NOT AND SWAP1 DUP2 PUSH1 0x0 BYTE SWAP1 MSTORE8 POP PUSH1 0xA DUP6 PUSH2 0x65DF SWAP2 SWAP1 PUSH2 0x8500 JUMP JUMPDEST SWAP5 POP PUSH2 0x655D JUMP JUMPDEST DUP1 SWAP4 POP POP POP POP JUMPDEST SWAP2 SWAP1 POP JUMP JUMPDEST PUSH1 0x0 PUSH2 0x65FD DUP3 PUSH2 0x69DB JUMP JUMPDEST ISZERO PUSH2 0x662D JUMPI PUSH1 0x5 PUSH1 0x0 DUP4 DUP2 MSTORE PUSH1 0x20 ADD SWAP1 DUP2 MSTORE PUSH1 0x20 ADD PUSH1 0x0 KECCAK256 PUSH1 0x3 ADD PUSH1 0x0 SWAP1 SLOAD SWAP1 PUSH2 0x100 EXP SWAP1 DIV PUSH1 0xFF AND SWAP1 POP PUSH2 0x6632 JUMP JUMPDEST PUSH1 0x1 SWAP1 POP JUMPDEST SWAP2 SWAP1 POP JUMP JUMPDEST PUSH2 0x663F PUSH2 0x31B3 JUMP JUMPDEST ISZERO PUSH2 0x667F JUMPI PUSH1 0x40 MLOAD PUSH32 0x8C379A000000000000000000000000000000000000000000000000000000000 DUP2 MSTORE PUSH1 0x4 ADD PUSH2 0x6676 SWAP1 PUSH2 0x7E11 JUMP JUMPDEST PUSH1 0x40 MLOAD DUP1 SWAP2 SUB SWAP1 REVERT JUMPDEST PUSH2 0x668B DUP5 DUP5 DUP5 DUP5 PUSH2 0x69FE JUMP JUMPDEST POP POP POP POP JUMP JUMPDEST PUSH1 0x0 PUSH1 0x14 SLOAD SWAP1 POP PUSH1 0x0 PUSH20 0xFFFFFFFFFFFFFFFFFFFFFFFFFFFFFFFFFFFFFFFF AND DUP5 PUSH20 0xFFFFFFFFFFFFFFFFFFFFFFFFFFFFFFFFFFFFFFFF AND EQ ISZERO PUSH2 0x66FF JUMPI PUSH1 0x40 MLOAD PUSH32 0x2E07630000000000000000000000000000000000000000000000000000000000 DUP2 MSTORE PUSH1 0x4 ADD PUSH1 0x40 MLOAD DUP1 SWAP2 SUB SWAP1 REVERT JUMPDEST PUSH1 0x0 DUP4 EQ ISZERO PUSH2 0x673A JUMPI PUSH1 0x40 MLOAD PUSH32 0xB562E8DD00000000000000000000000000000000000000000000000000000000 DUP2 MSTORE PUSH1 0x4 ADD PUSH1 0x40 MLOAD DUP1 SWAP2 SUB SWAP1 REVERT JUMPDEST PUSH2 0x6747 PUSH1 0x0 DUP6 DUP4 DUP7 PUSH2 0x601B JUMP JUMPDEST PUSH1 0x1 PUSH1 0x40 PUSH1 0x1 SWAP1 SHL OR DUP4 MUL PUSH1 0x19 PUSH1 0x0 DUP7 PUSH20 0xFFFFFFFFFFFFFFFFFFFFFFFFFFFFFFFFFFFFFFFF AND PUSH20 0xFFFFFFFFFFFFFFFFFFFFFFFFFFFFFFFFFFFFFFFF AND DUP2 MSTORE PUSH1 0x20 ADD SWAP1 DUP2 MSTORE PUSH1 0x20 ADD PUSH1 0x0 KECCAK256 PUSH1 0x0 DUP3 DUP3 SLOAD ADD SWAP3 POP POP DUP2 SWAP1 SSTORE POP PUSH1 0xE1 PUSH2 0x67AC PUSH1 0x1 DUP6 EQ PUSH2 0x6A04 JUMP JUMPDEST SWAP1 SHL PUSH1 0xA0 TIMESTAMP SWAP1 SHL PUSH2 0x67BC DUP7 PUSH2 0x6090 JUMP JUMPDEST OR OR PUSH1 0x18 PUSH1 0x0 DUP4 DUP2 MSTORE PUSH1 0x20 ADD SWAP1 DUP2 MSTORE PUSH1 0x20 ADD PUSH1 0x0 KECCAK256 DUP2 SWAP1 SSTORE POP PUSH1 0x0 DUP2 SWAP1 POP PUSH1 0x0 DUP5 DUP3 ADD SWAP1 POP PUSH1 0x0 DUP7 PUSH20 0xFFFFFFFFFFFFFFFFFFFFFFFFFFFFFFFFFFFFFFFF AND EXTCODESIZE EQ PUSH2 0x68C0 JUMPI JUMPDEST DUP2 DUP7 PUSH20 0xFFFFFFFFFFFFFFFFFFFFFFFFFFFFFFFFFFFFFFFF AND PUSH1 0x0 PUSH20 0xFFFFFFFFFFFFFFFFFFFFFFFFFFFFFFFFFFFFFFFF AND PUSH32 0xDDF252AD1BE2C89B69C2B068FC378DAA952BA7F163C4A11628F55A4DF523B3EF PUSH1 0x40 MLOAD PUSH1 0x40 MLOAD DUP1 SWAP2 SUB SWAP1 LOG4 PUSH2 0x6870 PUSH1 0x0 DUP8 DUP5 DUP1 PUSH1 0x1 ADD SWAP6 POP DUP8 PUSH2 0x5CAE JUMP JUMPDEST PUSH2 0x68A6 JUMPI PUSH1 0x40 MLOAD PUSH32 0xD1A57ED600000000000000000000000000000000000000000000000000000000 DUP2 MSTORE PUSH1 0x4 ADD PUSH1 0x40 MLOAD DUP1 SWAP2 SUB SWAP1 REVERT JUMPDEST DUP1 DUP3 LT PUSH2 0x6801 JUMPI DUP3 PUSH1 0x14 SLOAD EQ PUSH2 0x68BB JUMPI PUSH1 0x0 DUP1 REVERT JUMPDEST PUSH2 0x692B JUMP JUMPDEST JUMPDEST DUP2 DUP1 PUSH1 0x1 ADD SWAP3 POP DUP7 PUSH20 0xFFFFFFFFFFFFFFFFFFFFFFFFFFFFFFFFFFFFFFFF AND PUSH1 0x0 PUSH20 0xFFFFFFFFFFFFFFFFFFFFFFFFFFFFFFFFFFFFFFFF AND PUSH32 0xDDF252AD1BE2C89B69C2B068FC378DAA952BA7F163C4A11628F55A4DF523B3EF PUSH1 0x40 MLOAD PUSH1 0x40 MLOAD DUP1 SWAP2 SUB SWAP1 LOG4 DUP1 DUP3 LT PUSH2 0x68C1 JUMPI JUMPDEST DUP2 PUSH1 0x14 DUP2 SWAP1 SSTORE POP POP POP PUSH2 0x6941 PUSH1 0x0 DUP6 DUP4 DUP7 PUSH2 0x609A JUMP JUMPDEST POP POP POP POP JUMP JUMPDEST PUSH1 0x60 PUSH1 0x10 DUP1 SLOAD PUSH2 0x6956 SWAP1 PUSH2 0x86AF JUMP JUMPDEST DUP1 PUSH1 0x1F ADD PUSH1 0x20 DUP1 SWAP2 DIV MUL PUSH1 0x20 ADD PUSH1 0x40 MLOAD SWAP1 DUP2 ADD PUSH1 0x40 MSTORE DUP1 SWAP3 SWAP2 SWAP1 DUP2 DUP2 MSTORE PUSH1 0x20 ADD DUP3 DUP1 SLOAD PUSH2 0x6982 SWAP1 PUSH2 0x86AF JUMP JUMPDEST DUP1 ISZERO PUSH2 0x69CF JUMPI DUP1 PUSH1 0x1F LT PUSH2 0x69A4 JUMPI PUSH2 0x100 DUP1 DUP4 SLOAD DIV MUL DUP4 MSTORE SWAP2 PUSH1 0x20 ADD SWAP2 PUSH2 0x69CF JUMP JUMPDEST DUP3 ADD SWAP2 SWAP1 PUSH1 0x0 MSTORE PUSH1 0x20 PUSH1 0x0 KECCAK256 SWAP1 JUMPDEST DUP2 SLOAD DUP2 MSTORE SWAP1 PUSH1 0x1 ADD SWAP1 PUSH1 0x20 ADD DUP1 DUP4 GT PUSH2 0x69B2 JUMPI DUP3 SWAP1 SUB PUSH1 0x1F AND DUP3 ADD SWAP2 JUMPDEST POP POP POP POP POP SWAP1 POP SWAP2 SWAP1 POP JUMP JUMPDEST PUSH1 0x0 DUP1 PUSH1 0x5 PUSH1 0x0 DUP5 DUP2 MSTORE PUSH1 0x20 ADD SWAP1 DUP2 MSTORE PUSH1 0x20 ADD PUSH1 0x0 KECCAK256 PUSH1 0x0 ADD SLOAD EQ ISZERO SWAP1 POP SWAP2 SWAP1 POP JUMP JUMPDEST POP POP POP POP JUMP JUMPDEST PUSH1 0x0 DUP2 SWAP1 POP SWAP2 SWAP1 POP JUMP JUMPDEST DUP3 DUP1 SLOAD PUSH2 0x6A1A SWAP1 PUSH2 0x86AF JUMP JUMPDEST SWAP1 PUSH1 0x0 MSTORE PUSH1 0x20 PUSH1 0x0 KECCAK256 SWAP1 PUSH1 0x1F ADD PUSH1 0x20 SWAP1 DIV DUP2 ADD SWAP3 DUP3 PUSH2 0x6A3C JUMPI PUSH1 0x0 DUP6 SSTORE PUSH2 0x6A83 JUMP JUMPDEST DUP3 PUSH1 0x1F LT PUSH2 0x6A55 JUMPI DUP1 MLOAD PUSH1 0xFF NOT AND DUP4 DUP1 ADD OR DUP6 SSTORE PUSH2 0x6A83 JUMP JUMPDEST DUP3 DUP1 ADD PUSH1 0x1 ADD DUP6 SSTORE DUP3 ISZERO PUSH2 0x6A83 JUMPI SWAP2 DUP3 ADD JUMPDEST DUP3 DUP2 GT ISZERO PUSH2 0x6A82 JUMPI DUP3 MLOAD DUP3 SSTORE SWAP2 PUSH1 0x20 ADD SWAP2 SWAP1 PUSH1 0x1 ADD SWAP1 PUSH2 0x6A67 JUMP JUMPDEST JUMPDEST POP SWAP1 POP PUSH2 0x6A90 SWAP2 SWAP1 PUSH2 0x6B63 JUMP JUMPDEST POP SWAP1 JUMP JUMPDEST DUP3 DUP1 SLOAD PUSH2 0x6AA0 SWAP1 PUSH2 0x86AF JUMP JUMPDEST SWAP1 PUSH1 0x0 MSTORE PUSH1 0x20 PUSH1 0x0 KECCAK256 SWAP1 PUSH1 0x1F ADD PUSH1 0x20 SWAP1 DIV DUP2 ADD SWAP3 DUP3 PUSH2 0x6AC2 JUMPI PUSH1 0x0 DUP6 SSTORE PUSH2 0x6B09 JUMP JUMPDEST DUP3 PUSH1 0x1F LT PUSH2 0x6ADB JUMPI DUP1 CALLDATALOAD PUSH1 0xFF NOT AND DUP4 DUP1 ADD OR DUP6 SSTORE PUSH2 0x6B09 JUMP JUMPDEST DUP3 DUP1 ADD PUSH1 0x1 ADD DUP6 SSTORE DUP3 ISZERO PUSH2 0x6B09 JUMPI SWAP2 DUP3 ADD JUMPDEST DUP3 DUP2 GT ISZERO PUSH2 0x6B08 JUMPI DUP3 CALLDATALOAD DUP3 SSTORE SWAP2 PUSH1 0x20 ADD SWAP2 SWAP1 PUSH1 0x1 ADD SWAP1 PUSH2 0x6AED JUMP JUMPDEST JUMPDEST POP SWAP1 POP PUSH2 0x6B16 SWAP2 SWAP1 PUSH2 0x6B63 JUMP JUMPDEST POP SWAP1 JUMP JUMPDEST POP DUP1 SLOAD PUSH1 0x0 DUP3 SSTORE SWAP1 PUSH1 0x0 MSTORE PUSH1 0x20 PUSH1 0x0 KECCAK256 SWAP1 DUP2 ADD SWAP1 PUSH2 0x6B38 SWAP2 SWAP1 PUSH2 0x6B63 JUMP JUMPDEST POP JUMP JUMPDEST POP DUP1 SLOAD PUSH1 0x0 DUP3 SSTORE PUSH1 0xF ADD PUSH1 0x10 SWAP1 DIV SWAP1 PUSH1 0x0 MSTORE PUSH1 0x20 PUSH1 0x0 KECCAK256 SWAP1 DUP2 ADD SWAP1 PUSH2 0x6B60 SWAP2 SWAP1 PUSH2 0x6B63 JUMP JUMPDEST POP JUMP JUMPDEST JUMPDEST DUP1 DUP3 GT ISZERO PUSH2 0x6B7C JUMPI PUSH1 0x0 DUP2 PUSH1 0x0 SWAP1 SSTORE POP PUSH1 0x1 ADD PUSH2 0x6B64 JUMP JUMPDEST POP SWAP1 JUMP JUMPDEST PUSH1 0x0 PUSH2 0x6B93 PUSH2 0x6B8E DUP5 PUSH2 0x835A JUMP JUMPDEST PUSH2 0x8335 JUMP JUMPDEST SWAP1 POP DUP3 DUP2 MSTORE PUSH1 0x20 DUP2 ADD DUP5 DUP5 DUP5 ADD GT ISZERO PUSH2 0x6BAF JUMPI PUSH2 0x6BAE PUSH2 0x88E5 JUMP JUMPDEST JUMPDEST PUSH2 0x6BBA DUP5 DUP3 DUP6 PUSH2 0x8606 JUMP JUMPDEST POP SWAP4 SWAP3 POP POP POP JUMP JUMPDEST PUSH1 0x0 PUSH2 0x6BD5 PUSH2 0x6BD0 DUP5 PUSH2 0x838B JUMP JUMPDEST PUSH2 0x8335 JUMP JUMPDEST SWAP1 POP DUP3 DUP2 MSTORE PUSH1 0x20 DUP2 ADD DUP5 DUP5 DUP5 ADD GT ISZERO PUSH2 0x6BF1 JUMPI PUSH2 0x6BF0 PUSH2 0x88E5 JUMP JUMPDEST JUMPDEST PUSH2 0x6BFC DUP5 DUP3 DUP6 PUSH2 0x8606 JUMP JUMPDEST POP SWAP4 SWAP3 POP POP POP JUMP JUMPDEST PUSH1 0x0 DUP2 CALLDATALOAD SWAP1 POP PUSH2 0x6C13 DUP2 PUSH2 0x9131 JUMP JUMPDEST SWAP3 SWAP2 POP POP JUMP JUMPDEST PUSH1 0x0 DUP2 MLOAD SWAP1 POP PUSH2 0x6C28 DUP2 PUSH2 0x9131 JUMP JUMPDEST SWAP3 SWAP2 POP POP JUMP JUMPDEST PUSH1 0x0 DUP1 DUP4 PUSH1 0x1F DUP5 ADD SLT PUSH2 0x6C44 JUMPI PUSH2 0x6C43 PUSH2 0x88C7 JUMP JUMPDEST JUMPDEST DUP3 CALLDATALOAD SWAP1 POP PUSH8 0xFFFFFFFFFFFFFFFF DUP2 GT ISZERO PUSH2 0x6C61 JUMPI PUSH2 0x6C60 PUSH2 0x88C2 JUMP JUMPDEST JUMPDEST PUSH1 0x20 DUP4 ADD SWAP2 POP DUP4 PUSH1 0x20 DUP3 MUL DUP4 ADD GT ISZERO PUSH2 0x6C7D JUMPI PUSH2 0x6C7C PUSH2 0x88DB JUMP JUMPDEST JUMPDEST SWAP3 POP SWAP3 SWAP1 POP JUMP JUMPDEST PUSH1 0x0 DUP1 DUP4 PUSH1 0x1F DUP5 ADD SLT PUSH2 0x6C9A JUMPI PUSH2 0x6C99 PUSH2 0x88C7 JUMP JUMPDEST JUMPDEST DUP3 CALLDATALOAD SWAP1 POP PUSH8 0xFFFFFFFFFFFFFFFF DUP2 GT ISZERO PUSH2 0x6CB7 JUMPI PUSH2 0x6CB6 PUSH2 0x88C2 JUMP JUMPDEST JUMPDEST PUSH1 0x20 DUP4 ADD SWAP2 POP DUP4 PUSH1 0x20 DUP3 MUL DUP4 ADD GT ISZERO PUSH2 0x6CD3 JUMPI PUSH2 0x6CD2 PUSH2 0x88DB JUMP JUMPDEST JUMPDEST SWAP3 POP SWAP3 SWAP1 POP JUMP JUMPDEST PUSH1 0x0 DUP1 DUP4 PUSH1 0x1F DUP5 ADD SLT PUSH2 0x6CF0 JUMPI PUSH2 0x6CEF PUSH2 0x88C7 JUMP JUMPDEST JUMPDEST DUP3 CALLDATALOAD SWAP1 POP PUSH8 0xFFFFFFFFFFFFFFFF DUP2 GT ISZERO PUSH2 0x6D0D JUMPI PUSH2 0x6D0C PUSH2 0x88C2 JUMP JUMPDEST JUMPDEST PUSH1 0x20 DUP4 ADD SWAP2 POP DUP4 PUSH1 0x20 DUP3 MUL DUP4 ADD GT ISZERO PUSH2 0x6D29 JUMPI PUSH2 0x6D28 PUSH2 0x88DB JUMP JUMPDEST JUMPDEST SWAP3 POP SWAP3 SWAP1 POP JUMP JUMPDEST PUSH1 0x0 DUP1 DUP4 PUSH1 0x1F DUP5 ADD SLT PUSH2 0x6D46 JUMPI PUSH2 0x6D45 PUSH2 0x88C7 JUMP JUMPDEST JUMPDEST DUP3 CALLDATALOAD SWAP1 POP PUSH8 0xFFFFFFFFFFFFFFFF DUP2 GT ISZERO PUSH2 0x6D63 JUMPI PUSH2 0x6D62 PUSH2 0x88C2 JUMP JUMPDEST JUMPDEST PUSH1 0x20 DUP4 ADD SWAP2 POP DUP4 PUSH1 0x20 DUP3 MUL DUP4 ADD GT ISZERO PUSH2 0x6D7F JUMPI PUSH2 0x6D7E PUSH2 0x88DB JUMP JUMPDEST JUMPDEST SWAP3 POP SWAP3 SWAP1 POP JUMP JUMPDEST PUSH1 0x0 DUP2 CALLDATALOAD SWAP1 POP PUSH2 0x6D95 DUP2 PUSH2 0x9148 JUMP JUMPDEST SWAP3 SWAP2 POP POP JUMP JUMPDEST PUSH1 0x0 DUP2 CALLDATALOAD SWAP1 POP PUSH2 0x6DAA DUP2 PUSH2 0x915F JUMP JUMPDEST SWAP3 SWAP2 POP POP JUMP JUMPDEST PUSH1 0x0 DUP2 MLOAD SWAP1 POP PUSH2 0x6DBF DUP2 PUSH2 0x915F JUMP JUMPDEST SWAP3 SWAP2 POP POP JUMP JUMPDEST PUSH1 0x0 DUP3 PUSH1 0x1F DUP4 ADD SLT PUSH2 0x6DDA JUMPI PUSH2 0x6DD9 PUSH2 0x88C7 JUMP JUMPDEST JUMPDEST DUP2 CALLDATALOAD PUSH2 0x6DEA DUP5 DUP3 PUSH1 0x20 DUP7 ADD PUSH2 0x6B80 JUMP JUMPDEST SWAP2 POP POP SWAP3 SWAP2 POP POP JUMP JUMPDEST PUSH1 0x0 DUP1 DUP4 PUSH1 0x1F DUP5 ADD SLT PUSH2 0x6E09 JUMPI PUSH2 0x6E08 PUSH2 0x88C7 JUMP JUMPDEST JUMPDEST DUP3 CALLDATALOAD SWAP1 POP PUSH8 0xFFFFFFFFFFFFFFFF DUP2 GT ISZERO PUSH2 0x6E26 JUMPI PUSH2 0x6E25 PUSH2 0x88C2 JUMP JUMPDEST JUMPDEST PUSH1 0x20 DUP4 ADD SWAP2 POP DUP4 PUSH1 0x1 DUP3 MUL DUP4 ADD GT ISZERO PUSH2 0x6E42 JUMPI PUSH2 0x6E41 PUSH2 0x88DB JUMP JUMPDEST JUMPDEST SWAP3 POP SWAP3 SWAP1 POP JUMP JUMPDEST PUSH1 0x0 DUP3 PUSH1 0x1F DUP4 ADD SLT PUSH2 0x6E5E JUMPI PUSH2 0x6E5D PUSH2 0x88C7 JUMP JUMPDEST JUMPDEST DUP2 CALLDATALOAD PUSH2 0x6E6E DUP5 DUP3 PUSH1 0x20 DUP7 ADD PUSH2 0x6BC2 JUMP JUMPDEST SWAP2 POP POP SWAP3 SWAP2 POP POP JUMP JUMPDEST PUSH1 0x0 PUSH1 0x60 DUP3 DUP5 SUB SLT ISZERO PUSH2 0x6E8D JUMPI PUSH2 0x6E8C PUSH2 0x88D1 JUMP JUMPDEST JUMPDEST DUP2 SWAP1 POP SWAP3 SWAP2 POP POP JUMP JUMPDEST PUSH1 0x0 DUP2 CALLDATALOAD SWAP1 POP PUSH2 0x6EA5 DUP2 PUSH2 0x9176 JUMP JUMPDEST SWAP3 SWAP2 POP POP JUMP JUMPDEST PUSH1 0x0 DUP2 CALLDATALOAD SWAP1 POP PUSH2 0x6EBA DUP2 PUSH2 0x918D JUMP JUMPDEST SWAP3 SWAP2 POP POP JUMP JUMPDEST PUSH1 0x0 DUP2 CALLDATALOAD SWAP1 POP PUSH2 0x6ECF DUP2 PUSH2 0x91A4 JUMP JUMPDEST SWAP3 SWAP2 POP POP JUMP JUMPDEST PUSH1 0x0 PUSH1 0x20 DUP3 DUP5 SUB SLT ISZERO PUSH2 0x6EEB JUMPI PUSH2 0x6EEA PUSH2 0x88EF JUMP JUMPDEST JUMPDEST PUSH1 0x0 PUSH2 0x6EF9 DUP5 DUP3 DUP6 ADD PUSH2 0x6C04 JUMP JUMPDEST SWAP2 POP POP SWAP3 SWAP2 POP POP JUMP JUMPDEST PUSH1 0x0 PUSH1 0x20 DUP3 DUP5 SUB SLT ISZERO PUSH2 0x6F18 JUMPI PUSH2 0x6F17 PUSH2 0x88EF JUMP JUMPDEST JUMPDEST PUSH1 0x0 PUSH2 0x6F26 DUP5 DUP3 DUP6 ADD PUSH2 0x6C19 JUMP JUMPDEST SWAP2 POP POP SWAP3 SWAP2 POP POP JUMP JUMPDEST PUSH1 0x0 DUP1 PUSH1 0x40 DUP4 DUP6 SUB SLT ISZERO PUSH2 0x6F46 JUMPI PUSH2 0x6F45 PUSH2 0x88EF JUMP JUMPDEST JUMPDEST PUSH1 0x0 PUSH2 0x6F54 DUP6 DUP3 DUP7 ADD PUSH2 0x6C04 JUMP JUMPDEST SWAP3 POP POP PUSH1 0x20 PUSH2 0x6F65 DUP6 DUP3 DUP7 ADD PUSH2 0x6C04 JUMP JUMPDEST SWAP2 POP POP SWAP3 POP SWAP3 SWAP1 POP JUMP JUMPDEST PUSH1 0x0 DUP1 PUSH1 0x0 PUSH1 0x60 DUP5 DUP7 SUB SLT ISZERO PUSH2 0x6F88 JUMPI PUSH2 0x6F87 PUSH2 0x88EF JUMP JUMPDEST JUMPDEST PUSH1 0x0 PUSH2 0x6F96 DUP7 DUP3 DUP8 ADD PUSH2 0x6C04 JUMP JUMPDEST SWAP4 POP POP PUSH1 0x20 PUSH2 0x6FA7 DUP7 DUP3 DUP8 ADD PUSH2 0x6C04 JUMP JUMPDEST SWAP3 POP POP PUSH1 0x40 PUSH2 0x6FB8 DUP7 DUP3 DUP8 ADD PUSH2 0x6EAB JUMP JUMPDEST SWAP2 POP POP SWAP3 POP SWAP3 POP SWAP3 JUMP JUMPDEST PUSH1 0x0 DUP1 PUSH1 0x0 DUP1 PUSH1 0x80 DUP6 DUP8 SUB SLT ISZERO PUSH2 0x6FDC JUMPI PUSH2 0x6FDB PUSH2 0x88EF JUMP JUMPDEST JUMPDEST PUSH1 0x0 PUSH2 0x6FEA DUP8 DUP3 DUP9 ADD PUSH2 0x6C04 JUMP JUMPDEST SWAP5 POP POP PUSH1 0x20 PUSH2 0x6FFB DUP8 DUP3 DUP9 ADD PUSH2 0x6C04 JUMP JUMPDEST SWAP4 POP POP PUSH1 0x40 PUSH2 0x700C DUP8 DUP3 DUP9 ADD PUSH2 0x6EAB JUMP JUMPDEST SWAP3 POP POP PUSH1 0x60 DUP6 ADD CALLDATALOAD PUSH8 0xFFFFFFFFFFFFFFFF DUP2 GT ISZERO PUSH2 0x702D JUMPI PUSH2 0x702C PUSH2 0x88EA JUMP JUMPDEST JUMPDEST PUSH2 0x7039 DUP8 DUP3 DUP9 ADD PUSH2 0x6DC5 JUMP JUMPDEST SWAP2 POP POP SWAP3 SWAP6 SWAP2 SWAP5 POP SWAP3 POP JUMP JUMPDEST PUSH1 0x0 DUP1 PUSH1 0x40 DUP4 DUP6 SUB SLT ISZERO PUSH2 0x705C JUMPI PUSH2 0x705B PUSH2 0x88EF JUMP JUMPDEST JUMPDEST PUSH1 0x0 PUSH2 0x706A DUP6 DUP3 DUP7 ADD PUSH2 0x6C04 JUMP JUMPDEST SWAP3 POP POP PUSH1 0x20 PUSH2 0x707B DUP6 DUP3 DUP7 ADD PUSH2 0x6D86 JUMP JUMPDEST SWAP2 POP POP SWAP3 POP SWAP3 SWAP1 POP JUMP JUMPDEST PUSH1 0x0 DUP1 PUSH1 0x40 DUP4 DUP6 SUB SLT ISZERO PUSH2 0x709C JUMPI PUSH2 0x709B PUSH2 0x88EF JUMP JUMPDEST JUMPDEST PUSH1 0x0 PUSH2 0x70AA DUP6 DUP3 DUP7 ADD PUSH2 0x6C04 JUMP JUMPDEST SWAP3 POP POP PUSH1 0x20 PUSH2 0x70BB DUP6 DUP3 DUP7 ADD PUSH2 0x6EAB JUMP JUMPDEST SWAP2 POP POP SWAP3 POP SWAP3 SWAP1 POP JUMP JUMPDEST PUSH1 0x0 DUP1 PUSH1 0x40 DUP4 DUP6 SUB SLT ISZERO PUSH2 0x70DC JUMPI PUSH2 0x70DB PUSH2 0x88EF JUMP JUMPDEST JUMPDEST PUSH1 0x0 PUSH2 0x70EA DUP6 DUP3 DUP7 ADD PUSH2 0x6C04 JUMP JUMPDEST SWAP3 POP POP PUSH1 0x20 PUSH2 0x70FB DUP6 DUP3 DUP7 ADD PUSH2 0x6EC0 JUMP JUMPDEST SWAP2 POP POP SWAP3 POP SWAP3 SWAP1 POP JUMP JUMPDEST PUSH1 0x0 DUP1 PUSH1 0x0 DUP1 PUSH1 0x40 DUP6 DUP8 SUB SLT ISZERO PUSH2 0x711F JUMPI PUSH2 0x711E PUSH2 0x88EF JUMP JUMPDEST JUMPDEST PUSH1 0x0 DUP6 ADD CALLDATALOAD PUSH8 0xFFFFFFFFFFFFFFFF DUP2 GT ISZERO PUSH2 0x713D JUMPI PUSH2 0x713C PUSH2 0x88EA JUMP JUMPDEST JUMPDEST PUSH2 0x7149 DUP8 DUP3 DUP9 ADD PUSH2 0x6C2E JUMP JUMPDEST SWAP5 POP SWAP5 POP POP PUSH1 0x20 DUP6 ADD CALLDATALOAD PUSH8 0xFFFFFFFFFFFFFFFF DUP2 GT ISZERO PUSH2 0x716C JUMPI PUSH2 0x716B PUSH2 0x88EA JUMP JUMPDEST JUMPDEST PUSH2 0x7178 DUP8 DUP3 DUP9 ADD PUSH2 0x6CDA JUMP JUMPDEST SWAP3 POP SWAP3 POP POP SWAP3 SWAP6 SWAP2 SWAP5 POP SWAP3 POP JUMP JUMPDEST PUSH1 0x0 DUP1 PUSH1 0x20 DUP4 DUP6 SUB SLT ISZERO PUSH2 0x719D JUMPI PUSH2 0x719C PUSH2 0x88EF JUMP JUMPDEST JUMPDEST PUSH1 0x0 DUP4 ADD CALLDATALOAD PUSH8 0xFFFFFFFFFFFFFFFF DUP2 GT ISZERO PUSH2 0x71BB JUMPI PUSH2 0x71BA PUSH2 0x88EA JUMP JUMPDEST JUMPDEST PUSH2 0x71C7 DUP6 DUP3 DUP7 ADD PUSH2 0x6D30 JUMP JUMPDEST SWAP3 POP SWAP3 POP POP SWAP3 POP SWAP3 SWAP1 POP JUMP JUMPDEST PUSH1 0x0 DUP1 PUSH1 0x0 DUP1 PUSH1 0x40 DUP6 DUP8 SUB SLT ISZERO PUSH2 0x71ED JUMPI PUSH2 0x71EC PUSH2 0x88EF JUMP JUMPDEST JUMPDEST PUSH1 0x0 DUP6 ADD CALLDATALOAD PUSH8 0xFFFFFFFFFFFFFFFF DUP2 GT ISZERO PUSH2 0x720B JUMPI PUSH2 0x720A PUSH2 0x88EA JUMP JUMPDEST JUMPDEST PUSH2 0x7217 DUP8 DUP3 DUP9 ADD PUSH2 0x6D30 JUMP JUMPDEST SWAP5 POP SWAP5 POP POP PUSH1 0x20 DUP6 ADD CALLDATALOAD PUSH8 0xFFFFFFFFFFFFFFFF DUP2 GT ISZERO PUSH2 0x723A JUMPI PUSH2 0x7239 PUSH2 0x88EA JUMP JUMPDEST JUMPDEST PUSH2 0x7246 DUP8 DUP3 DUP9 ADD PUSH2 0x6C84 JUMP JUMPDEST SWAP3 POP SWAP3 POP POP SWAP3 SWAP6 SWAP2 SWAP5 POP SWAP3 POP JUMP JUMPDEST PUSH1 0x0 DUP1 PUSH1 0x0 DUP1 PUSH1 0x40 DUP6 DUP8 SUB SLT ISZERO PUSH2 0x726E JUMPI PUSH2 0x726D PUSH2 0x88EF JUMP JUMPDEST JUMPDEST PUSH1 0x0 DUP6 ADD CALLDATALOAD PUSH8 0xFFFFFFFFFFFFFFFF DUP2 GT ISZERO PUSH2 0x728C JUMPI PUSH2 0x728B PUSH2 0x88EA JUMP JUMPDEST JUMPDEST PUSH2 0x7298 DUP8 DUP3 DUP9 ADD PUSH2 0x6D30 JUMP JUMPDEST SWAP5 POP SWAP5 POP POP PUSH1 0x20 DUP6 ADD CALLDATALOAD PUSH8 0xFFFFFFFFFFFFFFFF DUP2 GT ISZERO PUSH2 0x72BB JUMPI PUSH2 0x72BA PUSH2 0x88EA JUMP JUMPDEST JUMPDEST PUSH2 0x72C7 DUP8 DUP3 DUP9 ADD PUSH2 0x6D30 JUMP JUMPDEST SWAP3 POP SWAP3 POP POP SWAP3 SWAP6 SWAP2 SWAP5 POP SWAP3 POP JUMP JUMPDEST PUSH1 0x0 PUSH1 0x20 DUP3 DUP5 SUB SLT ISZERO PUSH2 0x72EB JUMPI PUSH2 0x72EA PUSH2 0x88EF JUMP JUMPDEST JUMPDEST PUSH1 0x0 PUSH2 0x72F9 DUP5 DUP3 DUP6 ADD PUSH2 0x6D86 JUMP JUMPDEST SWAP2 POP POP SWAP3 SWAP2 POP POP JUMP JUMPDEST PUSH1 0x0 PUSH1 0x20 DUP3 DUP5 SUB SLT ISZERO PUSH2 0x7318 JUMPI PUSH2 0x7317 PUSH2 0x88EF JUMP JUMPDEST JUMPDEST PUSH1 0x0 PUSH2 0x7326 DUP5 DUP3 DUP6 ADD PUSH2 0x6D9B JUMP JUMPDEST SWAP2 POP POP SWAP3 SWAP2 POP POP JUMP JUMPDEST PUSH1 0x0 PUSH1 0x20 DUP3 DUP5 SUB SLT ISZERO PUSH2 0x7345 JUMPI PUSH2 0x7344 PUSH2 0x88EF JUMP JUMPDEST JUMPDEST PUSH1 0x0 PUSH2 0x7353 DUP5 DUP3 DUP6 ADD PUSH2 0x6DB0 JUMP JUMPDEST SWAP2 POP POP SWAP3 SWAP2 POP POP JUMP JUMPDEST PUSH1 0x0 DUP1 PUSH1 0x20 DUP4 DUP6 SUB SLT ISZERO PUSH2 0x7373 JUMPI PUSH2 0x7372 PUSH2 0x88EF JUMP JUMPDEST JUMPDEST PUSH1 0x0 DUP4 ADD CALLDATALOAD PUSH8 0xFFFFFFFFFFFFFFFF DUP2 GT ISZERO PUSH2 0x7391 JUMPI PUSH2 0x7390 PUSH2 0x88EA JUMP JUMPDEST JUMPDEST PUSH2 0x739D DUP6 DUP3 DUP7 ADD PUSH2 0x6DF3 JUMP JUMPDEST SWAP3 POP SWAP3 POP POP SWAP3 POP SWAP3 SWAP1 POP JUMP JUMPDEST PUSH1 0x0 PUSH1 0x60 DUP3 DUP5 SUB SLT ISZERO PUSH2 0x73BF JUMPI PUSH2 0x73BE PUSH2 0x88EF JUMP JUMPDEST JUMPDEST PUSH1 0x0 PUSH2 0x73CD DUP5 DUP3 DUP6 ADD PUSH2 0x6E77 JUMP JUMPDEST SWAP2 POP POP SWAP3 SWAP2 POP POP JUMP JUMPDEST PUSH1 0x0 PUSH1 0x20 DUP3 DUP5 SUB SLT ISZERO PUSH2 0x73EC JUMPI PUSH2 0x73EB PUSH2 0x88EF JUMP JUMPDEST JUMPDEST PUSH1 0x0 PUSH2 0x73FA DUP5 DUP3 DUP6 ADD PUSH2 0x6E96 JUMP JUMPDEST SWAP2 POP POP SWAP3 SWAP2 POP POP JUMP JUMPDEST PUSH1 0x0 PUSH1 0x20 DUP3 DUP5 SUB SLT ISZERO PUSH2 0x7419 JUMPI PUSH2 0x7418 PUSH2 0x88EF JUMP JUMPDEST JUMPDEST PUSH1 0x0 PUSH2 0x7427 DUP5 DUP3 DUP6 ADD PUSH2 0x6EAB JUMP JUMPDEST SWAP2 POP POP SWAP3 SWAP2 POP POP JUMP JUMPDEST PUSH1 0x0 DUP1 PUSH1 0x40 DUP4 DUP6 SUB SLT ISZERO PUSH2 0x7447 JUMPI PUSH2 0x7446 PUSH2 0x88EF JUMP JUMPDEST JUMPDEST PUSH1 0x0 PUSH2 0x7455 DUP6 DUP3 DUP7 ADD PUSH2 0x6EAB JUMP JUMPDEST SWAP3 POP POP PUSH1 0x20 DUP4 ADD CALLDATALOAD PUSH8 0xFFFFFFFFFFFFFFFF DUP2 GT ISZERO PUSH2 0x7476 JUMPI PUSH2 0x7475 PUSH2 0x88EA JUMP JUMPDEST JUMPDEST PUSH2 0x7482 DUP6 DUP3 DUP7 ADD PUSH2 0x6E49 JUMP JUMPDEST SWAP2 POP POP SWAP3 POP SWAP3 SWAP1 POP JUMP JUMPDEST PUSH1 0x0 PUSH2 0x7498 DUP4 DUP4 PUSH2 0x74D4 JUMP JUMPDEST PUSH1 0x20 DUP4 ADD SWAP1 POP SWAP3 SWAP2 POP POP JUMP JUMPDEST PUSH1 0x0 PUSH2 0x74B0 DUP4 DUP4 PUSH2 0x7BA0 JUMP JUMPDEST PUSH1 0x20 DUP4 ADD SWAP1 POP SWAP3 SWAP2 POP POP JUMP JUMPDEST PUSH1 0x0 PUSH2 0x74C8 DUP4 DUP4 PUSH2 0x7BBE JUMP JUMPDEST PUSH1 0x20 DUP4 ADD SWAP1 POP SWAP3 SWAP2 POP POP JUMP JUMPDEST PUSH2 0x74DD DUP2 PUSH2 0x8565 JUMP JUMPDEST DUP3 MSTORE POP POP JUMP JUMPDEST PUSH2 0x74EC DUP2 PUSH2 0x8565 JUMP JUMPDEST DUP3 MSTORE POP POP JUMP JUMPDEST PUSH1 0x0 PUSH2 0x74FD DUP3 PUSH2 0x83EC JUMP JUMPDEST PUSH2 0x7507 DUP2 DUP6 PUSH2 0x844A JUMP JUMPDEST SWAP4 POP PUSH2 0x7512 DUP4 PUSH2 0x83BC JUMP JUMPDEST DUP1 PUSH1 0x0 JUMPDEST DUP4 DUP2 LT ISZERO PUSH2 0x7543 JUMPI DUP2 MLOAD PUSH2 0x752A DUP9 DUP3 PUSH2 0x748C JUMP JUMPDEST SWAP8 POP PUSH2 0x7535 DUP4 PUSH2 0x8423 JUMP JUMPDEST SWAP3 POP POP PUSH1 0x1 DUP2 ADD SWAP1 POP PUSH2 0x7516 JUMP JUMPDEST POP DUP6 SWAP4 POP POP POP POP SWAP3 SWAP2 POP POP JUMP JUMPDEST PUSH1 0x0 PUSH2 0x755B DUP3 PUSH2 0x83F7 JUMP JUMPDEST PUSH2 0x7565 DUP2 DUP6 PUSH2 0x845B JUMP JUMPDEST SWAP4 POP PUSH2 0x7570 DUP4 PUSH2 0x83CC JUMP JUMPDEST DUP1 PUSH1 0x0 JUMPDEST DUP4 DUP2 LT ISZERO PUSH2 0x75A1 JUMPI DUP2 MLOAD PUSH2 0x7588 DUP9 DUP3 PUSH2 0x74A4 JUMP JUMPDEST SWAP8 POP PUSH2 0x7593 DUP4 PUSH2 0x8430 JUMP JUMPDEST SWAP3 POP POP PUSH1 0x1 DUP2 ADD SWAP1 POP PUSH2 0x7574 JUMP JUMPDEST POP DUP6 SWAP4 POP POP POP POP SWAP3 SWAP2 POP POP JUMP JUMPDEST PUSH1 0x0 PUSH2 0x75B9 DUP3 PUSH2 0x8402 JUMP JUMPDEST PUSH2 0x75C3 DUP2 DUP6 PUSH2 0x846C JUMP JUMPDEST SWAP4 POP PUSH2 0x75CE DUP4 PUSH2 0x83DC JUMP JUMPDEST DUP1 PUSH1 0x0 JUMPDEST DUP4 DUP2 LT ISZERO PUSH2 0x75FF JUMPI DUP2 MLOAD PUSH2 0x75E6 DUP9 DUP3 PUSH2 0x74BC JUMP JUMPDEST SWAP8 POP PUSH2 0x75F1 DUP4 PUSH2 0x843D JUMP JUMPDEST SWAP3 POP POP PUSH1 0x1 DUP2 ADD SWAP1 POP PUSH2 0x75D2 JUMP JUMPDEST POP DUP6 SWAP4 POP POP POP POP SWAP3 SWAP2 POP POP JUMP JUMPDEST PUSH2 0x7615 DUP2 PUSH2 0x8577 JUMP JUMPDEST DUP3 MSTORE POP POP JUMP JUMPDEST PUSH1 0x0 PUSH2 0x7626 DUP3 PUSH2 0x840D JUMP JUMPDEST PUSH2 0x7630 DUP2 DUP6 PUSH2 0x847D JUMP JUMPDEST SWAP4 POP PUSH2 0x7640 DUP2 DUP6 PUSH1 0x20 DUP7 ADD PUSH2 0x8615 JUMP JUMPDEST PUSH2 0x7649 DUP2 PUSH2 0x88F4 JUMP JUMPDEST DUP5 ADD SWAP2 POP POP SWAP3 SWAP2 POP POP JUMP JUMPDEST PUSH1 0x0 PUSH2 0x7660 DUP4 DUP6 PUSH2 0x848E JUMP JUMPDEST SWAP4 POP PUSH2 0x766D DUP4 DUP6 DUP5 PUSH2 0x8606 JUMP JUMPDEST PUSH2 0x7676 DUP4 PUSH2 0x88F4 JUMP JUMPDEST DUP5 ADD SWAP1 POP SWAP4 SWAP3 POP POP POP JUMP JUMPDEST PUSH1 0x0 PUSH2 0x768C DUP3 PUSH2 0x8418 JUMP JUMPDEST PUSH2 0x7696 DUP2 DUP6 PUSH2 0x848E JUMP JUMPDEST SWAP4 POP PUSH2 0x76A6 DUP2 DUP6 PUSH1 0x20 DUP7 ADD PUSH2 0x8615 JUMP JUMPDEST PUSH2 0x76AF DUP2 PUSH2 0x88F4 JUMP JUMPDEST DUP5 ADD SWAP2 POP POP SWAP3 SWAP2 POP POP JUMP JUMPDEST PUSH1 0x0 PUSH2 0x76C5 DUP3 PUSH2 0x8418 JUMP JUMPDEST PUSH2 0x76CF DUP2 DUP6 PUSH2 0x849F JUMP JUMPDEST SWAP4 POP PUSH2 0x76DF DUP2 DUP6 PUSH1 0x20 DUP7 ADD PUSH2 0x8615 JUMP JUMPDEST DUP1 DUP5 ADD SWAP2 POP POP SWAP3 SWAP2 POP POP JUMP JUMPDEST PUSH1 0x0 PUSH2 0x76F8 PUSH1 0x12 DUP4 PUSH2 0x848E JUMP JUMPDEST SWAP2 POP PUSH2 0x7703 DUP3 PUSH2 0x8912 JUMP JUMPDEST PUSH1 0x20 DUP3 ADD SWAP1 POP SWAP2 SWAP1 POP JUMP JUMPDEST PUSH1 0x0 PUSH2 0x771B PUSH1 0x16 DUP4 PUSH2 0x848E JUMP JUMPDEST SWAP2 POP PUSH2 0x7726 DUP3 PUSH2 0x893B JUMP JUMPDEST PUSH1 0x20 DUP3 ADD SWAP1 POP SWAP2 SWAP1 POP JUMP JUMPDEST PUSH1 0x0 PUSH2 0x773E PUSH1 0x14 DUP4 PUSH2 0x848E JUMP JUMPDEST SWAP2 POP PUSH2 0x7749 DUP3 PUSH2 0x8964 JUMP JUMPDEST PUSH1 0x20 DUP3 ADD SWAP1 POP SWAP2 SWAP1 POP JUMP JUMPDEST PUSH1 0x0 PUSH2 0x7761 PUSH1 0x15 DUP4 PUSH2 0x848E JUMP JUMPDEST SWAP2 POP PUSH2 0x776C DUP3 PUSH2 0x898D JUMP JUMPDEST PUSH1 0x20 DUP3 ADD SWAP1 POP SWAP2 SWAP1 POP JUMP JUMPDEST PUSH1 0x0 PUSH2 0x7784 PUSH1 0x26 DUP4 PUSH2 0x848E JUMP JUMPDEST SWAP2 POP PUSH2 0x778F DUP3 PUSH2 0x89B6 JUMP JUMPDEST PUSH1 0x40 DUP3 ADD SWAP1 POP SWAP2 SWAP1 POP JUMP JUMPDEST PUSH1 0x0 PUSH2 0x77A7 PUSH1 0xF DUP4 PUSH2 0x848E JUMP JUMPDEST SWAP2 POP PUSH2 0x77B2 DUP3 PUSH2 0x8A05 JUMP JUMPDEST PUSH1 0x20 DUP3 ADD SWAP1 POP SWAP2 SWAP1 POP JUMP JUMPDEST PUSH1 0x0 PUSH2 0x77CA PUSH1 0x41 DUP4 PUSH2 0x848E JUMP JUMPDEST SWAP2 POP PUSH2 0x77D5 DUP3 PUSH2 0x8A2E JUMP JUMPDEST PUSH1 0x60 DUP3 ADD SWAP1 POP SWAP2 SWAP1 POP JUMP JUMPDEST PUSH1 0x0 PUSH2 0x77ED PUSH1 0x1C DUP4 PUSH2 0x848E JUMP JUMPDEST SWAP2 POP PUSH2 0x77F8 DUP3 PUSH2 0x8AA3 JUMP JUMPDEST PUSH1 0x20 DUP3 ADD SWAP1 POP SWAP2 SWAP1 POP JUMP JUMPDEST PUSH1 0x0 PUSH2 0x7810 PUSH1 0x16 DUP4 PUSH2 0x848E JUMP JUMPDEST SWAP2 POP PUSH2 0x781B DUP3 PUSH2 0x8ACC JUMP JUMPDEST PUSH1 0x20 DUP3 ADD SWAP1 POP SWAP2 SWAP1 POP JUMP JUMPDEST PUSH1 0x0 PUSH2 0x7833 PUSH1 0x1D DUP4 PUSH2 0x848E JUMP JUMPDEST SWAP2 POP PUSH2 0x783E DUP3 PUSH2 0x8AF5 JUMP JUMPDEST PUSH1 0x20 DUP3 ADD SWAP1 POP SWAP2 SWAP1 POP JUMP JUMPDEST PUSH1 0x0 PUSH2 0x7856 PUSH1 0x37 DUP4 PUSH2 0x848E JUMP JUMPDEST SWAP2 POP PUSH2 0x7861 DUP3 PUSH2 0x8B1E JUMP JUMPDEST PUSH1 0x40 DUP3 ADD SWAP1 POP SWAP2 SWAP1 POP JUMP JUMPDEST PUSH1 0x0 PUSH2 0x7879 PUSH1 0x12 DUP4 PUSH2 0x848E JUMP JUMPDEST SWAP2 POP PUSH2 0x7884 DUP3 PUSH2 0x8B6D JUMP JUMPDEST PUSH1 0x20 DUP3 ADD SWAP1 POP SWAP2 SWAP1 POP JUMP JUMPDEST PUSH1 0x0 PUSH2 0x789C PUSH1 0x1B DUP4 PUSH2 0x848E JUMP JUMPDEST SWAP2 POP PUSH2 0x78A7 DUP3 PUSH2 0x8B96 JUMP JUMPDEST PUSH1 0x20 DUP3 ADD SWAP1 POP SWAP2 SWAP1 POP JUMP JUMPDEST PUSH1 0x0 PUSH2 0x78BF PUSH1 0x47 DUP4 PUSH2 0x848E JUMP JUMPDEST SWAP2 POP PUSH2 0x78CA DUP3 PUSH2 0x8BBF JUMP JUMPDEST PUSH1 0x60 DUP3 ADD SWAP1 POP SWAP2 SWAP1 POP JUMP JUMPDEST PUSH1 0x0 PUSH2 0x78E2 PUSH1 0x18 DUP4 PUSH2 0x848E JUMP JUMPDEST SWAP2 POP PUSH2 0x78ED DUP3 PUSH2 0x8C34 JUMP JUMPDEST PUSH1 0x20 DUP3 ADD SWAP1 POP SWAP2 SWAP1 POP JUMP JUMPDEST PUSH1 0x0 PUSH2 0x7905 PUSH1 0x1D DUP4 PUSH2 0x848E JUMP JUMPDEST SWAP2 POP PUSH2 0x7910 DUP3 PUSH2 0x8C5D JUMP JUMPDEST PUSH1 0x20 DUP3 ADD SWAP1 POP SWAP2 SWAP1 POP JUMP JUMPDEST PUSH1 0x0 PUSH2 0x7928 PUSH1 0x10 DUP4 PUSH2 0x848E JUMP JUMPDEST SWAP2 POP PUSH2 0x7933 DUP3 PUSH2 0x8C86 JUMP JUMPDEST PUSH1 0x20 DUP3 ADD SWAP1 POP SWAP2 SWAP1 POP JUMP JUMPDEST PUSH1 0x0 PUSH2 0x794B PUSH1 0x13 DUP4 PUSH2 0x848E JUMP JUMPDEST SWAP2 POP PUSH2 0x7956 DUP3 PUSH2 0x8CAF JUMP JUMPDEST PUSH1 0x20 DUP3 ADD SWAP1 POP SWAP2 SWAP1 POP JUMP JUMPDEST PUSH1 0x0 PUSH2 0x796E PUSH1 0x1D DUP4 PUSH2 0x848E JUMP JUMPDEST SWAP2 POP PUSH2 0x7979 DUP3 PUSH2 0x8CD8 JUMP JUMPDEST PUSH1 0x20 DUP3 ADD SWAP1 POP SWAP2 SWAP1 POP JUMP JUMPDEST PUSH1 0x0 PUSH2 0x7991 PUSH1 0x1A DUP4 PUSH2 0x848E JUMP JUMPDEST SWAP2 POP PUSH2 0x799C DUP3 PUSH2 0x8D01 JUMP JUMPDEST PUSH1 0x20 DUP3 ADD SWAP1 POP SWAP2 SWAP1 POP JUMP JUMPDEST PUSH1 0x0 PUSH2 0x79B4 PUSH1 0xE DUP4 PUSH2 0x848E JUMP JUMPDEST SWAP2 POP PUSH2 0x79BF DUP3 PUSH2 0x8D2A JUMP JUMPDEST PUSH1 0x20 DUP3 ADD SWAP1 POP SWAP2 SWAP1 POP JUMP JUMPDEST PUSH1 0x0 PUSH2 0x79D7 PUSH1 0x10 DUP4 PUSH2 0x848E JUMP JUMPDEST SWAP2 POP PUSH2 0x79E2 DUP3 PUSH2 0x8D53 JUMP JUMPDEST PUSH1 0x20 DUP3 ADD SWAP1 POP SWAP2 SWAP1 POP JUMP JUMPDEST PUSH1 0x0 PUSH2 0x79FA PUSH1 0x20 DUP4 PUSH2 0x848E JUMP JUMPDEST SWAP2 POP PUSH2 0x7A05 DUP3 PUSH2 0x8D7C JUMP JUMPDEST PUSH1 0x20 DUP3 ADD SWAP1 POP SWAP2 SWAP1 POP JUMP JUMPDEST PUSH1 0x0 PUSH2 0x7A1D PUSH1 0x21 DUP4 PUSH2 0x848E JUMP JUMPDEST SWAP2 POP PUSH2 0x7A28 DUP3 PUSH2 0x8DA5 JUMP JUMPDEST PUSH1 0x40 DUP3 ADD SWAP1 POP SWAP2 SWAP1 POP JUMP JUMPDEST PUSH1 0x0 PUSH2 0x7A40 PUSH1 0x11 DUP4 PUSH2 0x848E JUMP JUMPDEST SWAP2 POP PUSH2 0x7A4B DUP3 PUSH2 0x8DF4 JUMP JUMPDEST PUSH1 0x20 DUP3 ADD SWAP1 POP SWAP2 SWAP1 POP JUMP JUMPDEST PUSH1 0x0 PUSH2 0x7A63 PUSH1 0x1B DUP4 PUSH2 0x848E JUMP JUMPDEST SWAP2 POP PUSH2 0x7A6E DUP3 PUSH2 0x8E1D JUMP JUMPDEST PUSH1 0x20 DUP3 ADD SWAP1 POP SWAP2 SWAP1 POP JUMP JUMPDEST PUSH1 0x0 PUSH2 0x7A86 PUSH1 0x43 DUP4 PUSH2 0x848E JUMP JUMPDEST SWAP2 POP PUSH2 0x7A91 DUP3 PUSH2 0x8E46 JUMP JUMPDEST PUSH1 0x60 DUP3 ADD SWAP1 POP SWAP2 SWAP1 POP JUMP JUMPDEST PUSH1 0x0 PUSH2 0x7AA9 PUSH1 0x32 DUP4 PUSH2 0x848E JUMP JUMPDEST SWAP2 POP PUSH2 0x7AB4 DUP3 PUSH2 0x8EBB JUMP JUMPDEST PUSH1 0x40 DUP3 ADD SWAP1 POP SWAP2 SWAP1 POP JUMP JUMPDEST PUSH1 0x0 PUSH2 0x7ACC PUSH1 0x25 DUP4 PUSH2 0x848E JUMP JUMPDEST SWAP2 POP PUSH2 0x7AD7 DUP3 PUSH2 0x8F0A JUMP JUMPDEST PUSH1 0x40 DUP3 ADD SWAP1 POP SWAP2 SWAP1 POP JUMP JUMPDEST PUSH1 0x0 PUSH2 0x7AEF PUSH1 0x48 DUP4 PUSH2 0x848E JUMP JUMPDEST SWAP2 POP PUSH2 0x7AFA DUP3 PUSH2 0x8F59 JUMP JUMPDEST PUSH1 0x60 DUP3 ADD SWAP1 POP SWAP2 SWAP1 POP JUMP JUMPDEST PUSH1 0x0 PUSH2 0x7B12 PUSH1 0x3E DUP4 PUSH2 0x848E JUMP JUMPDEST SWAP2 POP PUSH2 0x7B1D DUP3 PUSH2 0x8FCE JUMP JUMPDEST PUSH1 0x40 DUP3 ADD SWAP1 POP SWAP2 SWAP1 POP JUMP JUMPDEST PUSH1 0x0 PUSH2 0x7B35 PUSH1 0x1F DUP4 PUSH2 0x848E JUMP JUMPDEST SWAP2 POP PUSH2 0x7B40 DUP3 PUSH2 0x901D JUMP JUMPDEST PUSH1 0x20 DUP3 ADD SWAP1 POP SWAP2 SWAP1 POP JUMP JUMPDEST PUSH1 0x0 PUSH2 0x7B58 PUSH1 0x25 DUP4 PUSH2 0x848E JUMP JUMPDEST SWAP2 POP PUSH2 0x7B63 DUP3 PUSH2 0x9046 JUMP JUMPDEST PUSH1 0x40 DUP3 ADD SWAP1 POP SWAP2 SWAP1 POP JUMP JUMPDEST PUSH1 0x0 PUSH2 0x7B7B PUSH1 0xF DUP4 PUSH2 0x848E JUMP JUMPDEST SWAP2 POP PUSH2 0x7B86 DUP3 PUSH2 0x9095 JUMP JUMPDEST PUSH1 0x20 DUP3 ADD SWAP1 POP SWAP2 SWAP1 POP JUMP JUMPDEST PUSH2 0x7B9A DUP2 PUSH2 0x85AF JUMP JUMPDEST DUP3 MSTORE POP POP JUMP JUMPDEST PUSH2 0x7BA9 DUP2 PUSH2 0x85DD JUMP JUMPDEST DUP3 MSTORE POP POP JUMP JUMPDEST PUSH2 0x7BB8 DUP2 PUSH2 0x85DD JUMP JUMPDEST DUP3 MSTORE POP POP JUMP JUMPDEST PUSH2 0x7BC7 DUP2 PUSH2 0x85E7 JUMP JUMPDEST DUP3 MSTORE POP POP JUMP JUMPDEST PUSH2 0x7BD6 DUP2 PUSH2 0x85E7 JUMP JUMPDEST DUP3 MSTORE POP POP JUMP JUMPDEST PUSH1 0x0 PUSH2 0x7BE8 DUP3 DUP6 PUSH2 0x76BA JUMP JUMPDEST SWAP2 POP PUSH2 0x7BF4 DUP3 DUP5 PUSH2 0x76BA JUMP JUMPDEST SWAP2 POP DUP2 SWAP1 POP SWAP4 SWAP3 POP POP POP JUMP JUMPDEST PUSH1 0x0 PUSH1 0x20 DUP3 ADD SWAP1 POP PUSH2 0x7C15 PUSH1 0x0 DUP4 ADD DUP5 PUSH2 0x74E3 JUMP JUMPDEST SWAP3 SWAP2 POP POP JUMP JUMPDEST PUSH1 0x0 PUSH1 0x60 DUP3 ADD SWAP1 POP PUSH2 0x7C30 PUSH1 0x0 DUP4 ADD DUP7 PUSH2 0x74E3 JUMP JUMPDEST PUSH2 0x7C3D PUSH1 0x20 DUP4 ADD DUP6 PUSH2 0x74E3 JUMP JUMPDEST PUSH2 0x7C4A PUSH1 0x40 DUP4 ADD DUP5 PUSH2 0x7BAF JUMP JUMPDEST SWAP5 SWAP4 POP POP POP POP JUMP JUMPDEST PUSH1 0x0 PUSH1 0x80 DUP3 ADD SWAP1 POP PUSH2 0x7C67 PUSH1 0x0 DUP4 ADD DUP8 PUSH2 0x74E3 JUMP JUMPDEST PUSH2 0x7C74 PUSH1 0x20 DUP4 ADD DUP7 PUSH2 0x74E3 JUMP JUMPDEST PUSH2 0x7C81 PUSH1 0x40 DUP4 ADD DUP6 PUSH2 0x7BAF JUMP JUMPDEST DUP2 DUP2 SUB PUSH1 0x60 DUP4 ADD MSTORE PUSH2 0x7C93 DUP2 DUP5 PUSH2 0x761B JUMP JUMPDEST SWAP1 POP SWAP6 SWAP5 POP POP POP POP POP JUMP JUMPDEST PUSH1 0x0 PUSH1 0x20 DUP3 ADD SWAP1 POP DUP2 DUP2 SUB PUSH1 0x0 DUP4 ADD MSTORE PUSH2 0x7CB8 DUP2 DUP5 PUSH2 0x74F2 JUMP JUMPDEST SWAP1 POP SWAP3 SWAP2 POP POP JUMP JUMPDEST PUSH1 0x0 PUSH1 0x40 DUP3 ADD SWAP1 POP DUP2 DUP2 SUB PUSH1 0x0 DUP4 ADD MSTORE PUSH2 0x7CDA DUP2 DUP6 PUSH2 0x74F2 JUMP JUMPDEST SWAP1 POP DUP2 DUP2 SUB PUSH1 0x20 DUP4 ADD MSTORE PUSH2 0x7CEE DUP2 DUP5 PUSH2 0x75AE JUMP JUMPDEST SWAP1 POP SWAP4 SWAP3 POP POP POP JUMP JUMPDEST PUSH1 0x0 PUSH1 0x20 DUP3 ADD SWAP1 POP DUP2 DUP2 SUB PUSH1 0x0 DUP4 ADD MSTORE PUSH2 0x7D11 DUP2 DUP5 PUSH2 0x7550 JUMP JUMPDEST SWAP1 POP SWAP3 SWAP2 POP POP JUMP JUMPDEST PUSH1 0x0 PUSH1 0x20 DUP3 ADD SWAP1 POP PUSH2 0x7D2E PUSH1 0x0 DUP4 ADD DUP5 PUSH2 0x760C JUMP JUMPDEST SWAP3 SWAP2 POP POP JUMP JUMPDEST PUSH1 0x0 PUSH1 0x60 DUP3 ADD SWAP1 POP PUSH2 0x7D49 PUSH1 0x0 DUP4 ADD DUP7 PUSH2 0x760C JUMP JUMPDEST PUSH2 0x7D56 PUSH1 0x20 DUP4 ADD DUP6 PUSH2 0x7BAF JUMP JUMPDEST PUSH2 0x7D63 PUSH1 0x40 DUP4 ADD DUP5 PUSH2 0x7BAF JUMP JUMPDEST SWAP5 SWAP4 POP POP POP POP JUMP JUMPDEST PUSH1 0x0 PUSH1 0x20 DUP3 ADD SWAP1 POP DUP2 DUP2 SUB PUSH1 0x0 DUP4 ADD MSTORE PUSH2 0x7D86 DUP2 DUP5 DUP7 PUSH2 0x7654 JUMP JUMPDEST SWAP1 POP SWAP4 SWAP3 POP POP POP JUMP JUMPDEST PUSH1 0x0 PUSH1 0x20 DUP3 ADD SWAP1 POP DUP2 DUP2 SUB PUSH1 0x0 DUP4 ADD MSTORE PUSH2 0x7DA9 DUP2 DUP5 PUSH2 0x7681 JUMP JUMPDEST SWAP1 POP SWAP3 SWAP2 POP POP JUMP JUMPDEST PUSH1 0x0 PUSH1 0x20 DUP3 ADD SWAP1 POP DUP2 DUP2 SUB PUSH1 0x0 DUP4 ADD MSTORE PUSH2 0x7DCA DUP2 PUSH2 0x76EB JUMP JUMPDEST SWAP1 POP SWAP2 SWAP1 POP JUMP JUMPDEST PUSH1 0x0 PUSH1 0x20 DUP3 ADD SWAP1 POP DUP2 DUP2 SUB PUSH1 0x0 DUP4 ADD MSTORE PUSH2 0x7DEA DUP2 PUSH2 0x770E JUMP JUMPDEST SWAP1 POP SWAP2 SWAP1 POP JUMP JUMPDEST PUSH1 0x0 PUSH1 0x20 DUP3 ADD SWAP1 POP DUP2 DUP2 SUB PUSH1 0x0 DUP4 ADD MSTORE PUSH2 0x7E0A DUP2 PUSH2 0x7731 JUMP JUMPDEST SWAP1 POP SWAP2 SWAP1 POP JUMP JUMPDEST PUSH1 0x0 PUSH1 0x20 DUP3 ADD SWAP1 POP DUP2 DUP2 SUB PUSH1 0x0 DUP4 ADD MSTORE PUSH2 0x7E2A DUP2 PUSH2 0x7754 JUMP JUMPDEST SWAP1 POP SWAP2 SWAP1 POP JUMP JUMPDEST PUSH1 0x0 PUSH1 0x20 DUP3 ADD SWAP1 POP DUP2 DUP2 SUB PUSH1 0x0 DUP4 ADD MSTORE PUSH2 0x7E4A DUP2 PUSH2 0x7777 JUMP JUMPDEST SWAP1 POP SWAP2 SWAP1 POP JUMP JUMPDEST PUSH1 0x0 PUSH1 0x20 DUP3 ADD SWAP1 POP DUP2 DUP2 SUB PUSH1 0x0 DUP4 ADD MSTORE PUSH2 0x7E6A DUP2 PUSH2 0x779A JUMP JUMPDEST SWAP1 POP SWAP2 SWAP1 POP JUMP JUMPDEST PUSH1 0x0 PUSH1 0x20 DUP3 ADD SWAP1 POP DUP2 DUP2 SUB PUSH1 0x0 DUP4 ADD MSTORE PUSH2 0x7E8A DUP2 PUSH2 0x77BD JUMP JUMPDEST SWAP1 POP SWAP2 SWAP1 POP JUMP JUMPDEST PUSH1 0x0 PUSH1 0x20 DUP3 ADD SWAP1 POP DUP2 DUP2 SUB PUSH1 0x0 DUP4 ADD MSTORE PUSH2 0x7EAA DUP2 PUSH2 0x77E0 JUMP JUMPDEST SWAP1 POP SWAP2 SWAP1 POP JUMP JUMPDEST PUSH1 0x0 PUSH1 0x20 DUP3 ADD SWAP1 POP DUP2 DUP2 SUB PUSH1 0x0 DUP4 ADD MSTORE PUSH2 0x7ECA DUP2 PUSH2 0x7803 JUMP JUMPDEST SWAP1 POP SWAP2 SWAP1 POP JUMP JUMPDEST PUSH1 0x0 PUSH1 0x20 DUP3 ADD SWAP1 POP DUP2 DUP2 SUB PUSH1 0x0 DUP4 ADD MSTORE PUSH2 0x7EEA DUP2 PUSH2 0x7826 JUMP JUMPDEST SWAP1 POP SWAP2 SWAP1 POP JUMP JUMPDEST PUSH1 0x0 PUSH1 0x20 DUP3 ADD SWAP1 POP DUP2 DUP2 SUB PUSH1 0x0 DUP4 ADD MSTORE PUSH2 0x7F0A DUP2 PUSH2 0x7849 JUMP JUMPDEST SWAP1 POP SWAP2 SWAP1 POP JUMP JUMPDEST PUSH1 0x0 PUSH1 0x20 DUP3 ADD SWAP1 POP DUP2 DUP2 SUB PUSH1 0x0 DUP4 ADD MSTORE PUSH2 0x7F2A DUP2 PUSH2 0x786C JUMP JUMPDEST SWAP1 POP SWAP2 SWAP1 POP JUMP JUMPDEST PUSH1 0x0 PUSH1 0x20 DUP3 ADD SWAP1 POP DUP2 DUP2 SUB PUSH1 0x0 DUP4 ADD MSTORE PUSH2 0x7F4A DUP2 PUSH2 0x788F JUMP JUMPDEST SWAP1 POP SWAP2 SWAP1 POP JUMP JUMPDEST PUSH1 0x0 PUSH1 0x20 DUP3 ADD SWAP1 POP DUP2 DUP2 SUB PUSH1 0x0 DUP4 ADD MSTORE PUSH2 0x7F6A DUP2 PUSH2 0x78B2 JUMP JUMPDEST SWAP1 POP SWAP2 SWAP1 POP JUMP JUMPDEST PUSH1 0x0 PUSH1 0x20 DUP3 ADD SWAP1 POP DUP2 DUP2 SUB PUSH1 0x0 DUP4 ADD MSTORE PUSH2 0x7F8A DUP2 PUSH2 0x78D5 JUMP JUMPDEST SWAP1 POP SWAP2 SWAP1 POP JUMP JUMPDEST PUSH1 0x0 PUSH1 0x20 DUP3 ADD SWAP1 POP DUP2 DUP2 SUB PUSH1 0x0 DUP4 ADD MSTORE PUSH2 0x7FAA DUP2 PUSH2 0x78F8 JUMP JUMPDEST SWAP1 POP SWAP2 SWAP1 POP JUMP JUMPDEST PUSH1 0x0 PUSH1 0x20 DUP3 ADD SWAP1 POP DUP2 DUP2 SUB PUSH1 0x0 DUP4 ADD MSTORE PUSH2 0x7FCA DUP2 PUSH2 0x791B JUMP JUMPDEST SWAP1 POP SWAP2 SWAP1 POP JUMP JUMPDEST PUSH1 0x0 PUSH1 0x20 DUP3 ADD SWAP1 POP DUP2 DUP2 SUB PUSH1 0x0 DUP4 ADD MSTORE PUSH2 0x7FEA DUP2 PUSH2 0x793E JUMP JUMPDEST SWAP1 POP SWAP2 SWAP1 POP JUMP JUMPDEST PUSH1 0x0 PUSH1 0x20 DUP3 ADD SWAP1 POP DUP2 DUP2 SUB PUSH1 0x0 DUP4 ADD MSTORE PUSH2 0x800A DUP2 PUSH2 0x7961 JUMP JUMPDEST SWAP1 POP SWAP2 SWAP1 POP JUMP JUMPDEST PUSH1 0x0 PUSH1 0x20 DUP3 ADD SWAP1 POP DUP2 DUP2 SUB PUSH1 0x0 DUP4 ADD MSTORE PUSH2 0x802A DUP2 PUSH2 0x7984 JUMP JUMPDEST SWAP1 POP SWAP2 SWAP1 POP JUMP JUMPDEST PUSH1 0x0 PUSH1 0x20 DUP3 ADD SWAP1 POP DUP2 DUP2 SUB PUSH1 0x0 DUP4 ADD MSTORE PUSH2 0x804A DUP2 PUSH2 0x79A7 JUMP JUMPDEST SWAP1 POP SWAP2 SWAP1 POP JUMP JUMPDEST PUSH1 0x0 PUSH1 0x20 DUP3 ADD SWAP1 POP DUP2 DUP2 SUB PUSH1 0x0 DUP4 ADD MSTORE PUSH2 0x806A DUP2 PUSH2 0x79CA JUMP JUMPDEST SWAP1 POP SWAP2 SWAP1 POP JUMP JUMPDEST PUSH1 0x0 PUSH1 0x20 DUP3 ADD SWAP1 POP DUP2 DUP2 SUB PUSH1 0x0 DUP4 ADD MSTORE PUSH2 0x808A DUP2 PUSH2 0x79ED JUMP JUMPDEST SWAP1 POP SWAP2 SWAP1 POP JUMP JUMPDEST PUSH1 0x0 PUSH1 0x20 DUP3 ADD SWAP1 POP DUP2 DUP2 SUB PUSH1 0x0 DUP4 ADD MSTORE PUSH2 0x80AA DUP2 PUSH2 0x7A10 JUMP JUMPDEST SWAP1 POP SWAP2 SWAP1 POP JUMP JUMPDEST PUSH1 0x0 PUSH1 0x20 DUP3 ADD SWAP1 POP DUP2 DUP2 SUB PUSH1 0x0 DUP4 ADD MSTORE PUSH2 0x80CA DUP2 PUSH2 0x7A33 JUMP JUMPDEST SWAP1 POP SWAP2 SWAP1 POP JUMP JUMPDEST PUSH1 0x0 PUSH1 0x20 DUP3 ADD SWAP1 POP DUP2 DUP2 SUB PUSH1 0x0 DUP4 ADD MSTORE PUSH2 0x80EA DUP2 PUSH2 0x7A56 JUMP JUMPDEST SWAP1 POP SWAP2 SWAP1 POP JUMP JUMPDEST PUSH1 0x0 PUSH1 0x20 DUP3 ADD SWAP1 POP DUP2 DUP2 SUB PUSH1 0x0 DUP4 ADD MSTORE PUSH2 0x810A DUP2 PUSH2 0x7A79 JUMP JUMPDEST SWAP1 POP SWAP2 SWAP1 POP JUMP JUMPDEST PUSH1 0x0 PUSH1 0x20 DUP3 ADD SWAP1 POP DUP2 DUP2 SUB PUSH1 0x0 DUP4 ADD MSTORE PUSH2 0x812A DUP2 PUSH2 0x7A9C JUMP JUMPDEST SWAP1 POP SWAP2 SWAP1 POP JUMP JUMPDEST PUSH1 0x0 PUSH1 0x20 DUP3 ADD SWAP1 POP DUP2 DUP2 SUB PUSH1 0x0 DUP4 ADD MSTORE PUSH2 0x814A DUP2 PUSH2 0x7ABF JUMP JUMPDEST SWAP1 POP SWAP2 SWAP1 POP JUMP JUMPDEST PUSH1 0x0 PUSH1 0x20 DUP3 ADD SWAP1 POP DUP2 DUP2 SUB PUSH1 0x0 DUP4 ADD MSTORE PUSH2 0x816A DUP2 PUSH2 0x7AE2 JUMP JUMPDEST SWAP1 POP SWAP2 SWAP1 POP JUMP JUMPDEST PUSH1 0x0 PUSH1 0x20 DUP3 ADD SWAP1 POP DUP2 DUP2 SUB PUSH1 0x0 DUP4 ADD MSTORE PUSH2 0x818A DUP2 PUSH2 0x7B05 JUMP JUMPDEST SWAP1 POP SWAP2 SWAP1 POP JUMP JUMPDEST PUSH1 0x0 PUSH1 0x20 DUP3 ADD SWAP1 POP DUP2 DUP2 SUB PUSH1 0x0 DUP4 ADD MSTORE PUSH2 0x81AA DUP2 PUSH2 0x7B28 JUMP JUMPDEST SWAP1 POP SWAP2 SWAP1 POP JUMP JUMPDEST PUSH1 0x0 PUSH1 0x20 DUP3 ADD SWAP1 POP DUP2 DUP2 SUB PUSH1 0x0 DUP4 ADD MSTORE PUSH2 0x81CA DUP2 PUSH2 0x7B4B JUMP JUMPDEST SWAP1 POP SWAP2 SWAP1 POP JUMP JUMPDEST PUSH1 0x0 PUSH1 0x20 DUP3 ADD SWAP1 POP DUP2 DUP2 SUB PUSH1 0x0 DUP4 ADD MSTORE PUSH2 0x81EA DUP2 PUSH2 0x7B6E JUMP JUMPDEST SWAP1 POP SWAP2 SWAP1 POP JUMP JUMPDEST PUSH1 0x0 PUSH1 0x20 DUP3 ADD SWAP1 POP PUSH2 0x8206 PUSH1 0x0 DUP4 ADD DUP5 PUSH2 0x7B91 JUMP JUMPDEST SWAP3 SWAP2 POP POP JUMP JUMPDEST PUSH1 0x0 PUSH1 0x20 DUP3 ADD SWAP1 POP PUSH2 0x8221 PUSH1 0x0 DUP4 ADD DUP5 PUSH2 0x7BAF JUMP JUMPDEST SWAP3 SWAP2 POP POP JUMP JUMPDEST PUSH1 0x0 PUSH1 0x40 DUP3 ADD SWAP1 POP PUSH2 0x823C PUSH1 0x0 DUP4 ADD DUP6 PUSH2 0x7BAF JUMP JUMPDEST DUP2 DUP2 SUB PUSH1 0x20 DUP4 ADD MSTORE PUSH2 0x824E DUP2 DUP5 PUSH2 0x7681 JUMP JUMPDEST SWAP1 POP SWAP4 SWAP3 POP POP POP JUMP JUMPDEST PUSH1 0x0 PUSH1 0x40 DUP3 ADD SWAP1 POP PUSH2 0x826C PUSH1 0x0 DUP4 ADD DUP6 PUSH2 0x7BAF JUMP JUMPDEST PUSH2 0x8279 PUSH1 0x20 DUP4 ADD DUP5 PUSH2 0x7BAF JUMP JUMPDEST SWAP4 SWAP3 POP POP POP JUMP JUMPDEST PUSH1 0x0 PUSH1 0x60 DUP3 ADD SWAP1 POP PUSH2 0x8295 PUSH1 0x0 DUP4 ADD DUP7 PUSH2 0x7BAF JUMP JUMPDEST PUSH2 0x82A2 PUSH1 0x20 DUP4 ADD DUP6 PUSH2 0x7BAF JUMP JUMPDEST PUSH2 0x82AF PUSH1 0x40 DUP4 ADD DUP5 PUSH2 0x7BAF JUMP JUMPDEST SWAP5 SWAP4 POP POP POP POP JUMP JUMPDEST PUSH1 0x0 PUSH1 0x20 DUP3 ADD SWAP1 POP PUSH2 0x82CC PUSH1 0x0 DUP4 ADD DUP5 PUSH2 0x7BCD JUMP JUMPDEST SWAP3 SWAP2 POP POP JUMP JUMPDEST PUSH1 0x0 DUP1 DUP4 CALLDATALOAD PUSH1 0x1 PUSH1 0x20 SUB DUP5 CALLDATASIZE SUB SUB DUP2 SLT PUSH2 0x82EF JUMPI PUSH2 0x82EE PUSH2 0x88D6 JUMP JUMPDEST JUMPDEST DUP1 DUP5 ADD SWAP3 POP DUP3 CALLDATALOAD SWAP2 POP PUSH8 0xFFFFFFFFFFFFFFFF DUP3 GT ISZERO PUSH2 0x8311 JUMPI PUSH2 0x8310 PUSH2 0x88CC JUMP JUMPDEST JUMPDEST PUSH1 0x20 DUP4 ADD SWAP3 POP PUSH1 0x1 DUP3 MUL CALLDATASIZE SUB DUP4 SGT ISZERO PUSH2 0x832D JUMPI PUSH2 0x832C PUSH2 0x88E0 JUMP JUMPDEST JUMPDEST POP SWAP3 POP SWAP3 SWAP1 POP JUMP JUMPDEST PUSH1 0x0 PUSH2 0x833F PUSH2 0x8350 JUMP JUMPDEST SWAP1 POP PUSH2 0x834B DUP3 DUP3 PUSH2 0x86E1 JUMP JUMPDEST SWAP2 SWAP1 POP JUMP JUMPDEST PUSH1 0x0 PUSH1 0x40 MLOAD SWAP1 POP SWAP1 JUMP JUMPDEST PUSH1 0x0 PUSH8 0xFFFFFFFFFFFFFFFF DUP3 GT ISZERO PUSH2 0x8375 JUMPI PUSH2 0x8374 PUSH2 0x8873 JUMP JUMPDEST JUMPDEST PUSH2 0x837E DUP3 PUSH2 0x88F4 JUMP JUMPDEST SWAP1 POP PUSH1 0x20 DUP2 ADD SWAP1 POP SWAP2 SWAP1 POP JUMP JUMPDEST PUSH1 0x0 PUSH8 0xFFFFFFFFFFFFFFFF DUP3 GT ISZERO PUSH2 0x83A6 JUMPI PUSH2 0x83A5 PUSH2 0x8873 JUMP JUMPDEST JUMPDEST PUSH2 0x83AF DUP3 PUSH2 0x88F4 JUMP JUMPDEST SWAP1 POP PUSH1 0x20 DUP2 ADD SWAP1 POP SWAP2 SWAP1 POP JUMP JUMPDEST PUSH1 0x0 DUP2 SWAP1 POP PUSH1 0x20 DUP3 ADD SWAP1 POP SWAP2 SWAP1 POP JUMP JUMPDEST PUSH1 0x0 DUP2 SWAP1 POP PUSH1 0x20 DUP3 ADD SWAP1 POP SWAP2 SWAP1 POP JUMP JUMPDEST PUSH1 0x0 DUP2 SWAP1 POP PUSH1 0x20 DUP3 ADD SWAP1 POP SWAP2 SWAP1 POP JUMP JUMPDEST PUSH1 0x0 DUP2 MLOAD SWAP1 POP SWAP2 SWAP1 POP JUMP JUMPDEST PUSH1 0x0 DUP2 MLOAD SWAP1 POP SWAP2 SWAP1 POP JUMP JUMPDEST PUSH1 0x0 DUP2 MLOAD SWAP1 POP SWAP2 SWAP1 POP JUMP JUMPDEST PUSH1 0x0 DUP2 MLOAD SWAP1 POP SWAP2 SWAP1 POP JUMP JUMPDEST PUSH1 0x0 DUP2 MLOAD SWAP1 POP SWAP2 SWAP1 POP JUMP JUMPDEST PUSH1 0x0 PUSH1 0x20 DUP3 ADD SWAP1 POP SWAP2 SWAP1 POP JUMP JUMPDEST PUSH1 0x0 PUSH1 0x20 DUP3 ADD SWAP1 POP SWAP2 SWAP1 POP JUMP JUMPDEST PUSH1 0x0 PUSH1 0x20 DUP3 ADD SWAP1 POP SWAP2 SWAP1 POP JUMP JUMPDEST PUSH1 0x0 DUP3 DUP3 MSTORE PUSH1 0x20 DUP3 ADD SWAP1 POP SWAP3 SWAP2 POP POP JUMP JUMPDEST PUSH1 0x0 DUP3 DUP3 MSTORE PUSH1 0x20 DUP3 ADD SWAP1 POP SWAP3 SWAP2 POP POP JUMP JUMPDEST PUSH1 0x0 DUP3 DUP3 MSTORE PUSH1 0x20 DUP3 ADD SWAP1 POP SWAP3 SWAP2 POP POP JUMP JUMPDEST PUSH1 0x0 DUP3 DUP3 MSTORE PUSH1 0x20 DUP3 ADD SWAP1 POP SWAP3 SWAP2 POP POP JUMP JUMPDEST PUSH1 0x0 DUP3 DUP3 MSTORE PUSH1 0x20 DUP3 ADD SWAP1 POP SWAP3 SWAP2 POP POP JUMP JUMPDEST PUSH1 0x0 DUP2 SWAP1 POP SWAP3 SWAP2 POP POP JUMP JUMPDEST PUSH1 0x0 PUSH2 0x84B5 DUP3 PUSH2 0x85DD JUMP JUMPDEST SWAP2 POP PUSH2 0x84C0 DUP4 PUSH2 0x85DD JUMP JUMPDEST SWAP3 POP DUP3 PUSH32 0xFFFFFFFFFFFFFFFFFFFFFFFFFFFFFFFFFFFFFFFFFFFFFFFFFFFFFFFFFFFFFFFF SUB DUP3 GT ISZERO PUSH2 0x84F5 JUMPI PUSH2 0x84F4 PUSH2 0x87B7 JUMP JUMPDEST JUMPDEST DUP3 DUP3 ADD SWAP1 POP SWAP3 SWAP2 POP POP JUMP JUMPDEST PUSH1 0x0 PUSH2 0x850B DUP3 PUSH2 0x85DD JUMP JUMPDEST SWAP2 POP PUSH2 0x8516 DUP4 PUSH2 0x85DD JUMP JUMPDEST SWAP3 POP DUP3 PUSH2 0x8526 JUMPI PUSH2 0x8525 PUSH2 0x87E6 JUMP JUMPDEST JUMPDEST DUP3 DUP3 DIV SWAP1 POP SWAP3 SWAP2 POP POP JUMP JUMPDEST PUSH1 0x0 PUSH2 0x853C DUP3 PUSH2 0x85DD JUMP JUMPDEST SWAP2 POP PUSH2 0x8547 DUP4 PUSH2 0x85DD JUMP JUMPDEST SWAP3 POP DUP3 DUP3 LT ISZERO PUSH2 0x855A JUMPI PUSH2 0x8559 PUSH2 0x87B7 JUMP JUMPDEST JUMPDEST DUP3 DUP3 SUB SWAP1 POP SWAP3 SWAP2 POP POP JUMP JUMPDEST PUSH1 0x0 PUSH2 0x8570 DUP3 PUSH2 0x85BD JUMP JUMPDEST SWAP1 POP SWAP2 SWAP1 POP JUMP JUMPDEST PUSH1 0x0 DUP2 ISZERO ISZERO SWAP1 POP SWAP2 SWAP1 POP JUMP JUMPDEST PUSH1 0x0 PUSH32 0xFFFFFFFF00000000000000000000000000000000000000000000000000000000 DUP3 AND SWAP1 POP SWAP2 SWAP1 POP JUMP JUMPDEST PUSH1 0x0 PUSH2 0xFFFF DUP3 AND SWAP1 POP SWAP2 SWAP1 POP JUMP JUMPDEST PUSH1 0x0 PUSH20 0xFFFFFFFFFFFFFFFFFFFFFFFFFFFFFFFFFFFFFFFF DUP3 AND SWAP1 POP SWAP2 SWAP1 POP JUMP JUMPDEST PUSH1 0x0 DUP2 SWAP1 POP SWAP2 SWAP1 POP JUMP JUMPDEST PUSH1 0x0 PUSH1 0xFF DUP3 AND SWAP1 POP SWAP2 SWAP1 POP JUMP JUMPDEST PUSH1 0x0 PUSH2 0x85FF DUP3 PUSH2 0x85DD JUMP JUMPDEST SWAP1 POP SWAP2 SWAP1 POP JUMP JUMPDEST DUP3 DUP2 DUP4 CALLDATACOPY PUSH1 0x0 DUP4 DUP4 ADD MSTORE POP POP POP JUMP JUMPDEST PUSH1 0x0 JUMPDEST DUP4 DUP2 LT ISZERO PUSH2 0x8633 JUMPI DUP1 DUP3 ADD MLOAD DUP2 DUP5 ADD MSTORE PUSH1 0x20 DUP2 ADD SWAP1 POP PUSH2 0x8618 JUMP JUMPDEST DUP4 DUP2 GT ISZERO PUSH2 0x8642 JUMPI PUSH1 0x0 DUP5 DUP5 ADD MSTORE JUMPDEST POP POP POP POP JUMP JUMPDEST PUSH1 0x0 DUP2 ADD PUSH1 0x0 DUP4 ADD DUP1 PUSH2 0x865A DUP2 PUSH2 0x88AC JUMP JUMPDEST SWAP1 POP PUSH2 0x8666 DUP2 DUP5 PUSH2 0x910E JUMP JUMPDEST POP POP POP PUSH1 0x1 DUP2 ADD PUSH1 0x20 DUP4 ADD DUP1 PUSH2 0x867B DUP2 PUSH2 0x88AC JUMP JUMPDEST SWAP1 POP PUSH2 0x8687 DUP2 DUP5 PUSH2 0x910E JUMP JUMPDEST POP POP POP PUSH1 0x2 DUP2 ADD PUSH1 0x40 DUP4 ADD DUP1 PUSH2 0x869C DUP2 PUSH2 0x88AC JUMP JUMPDEST SWAP1 POP PUSH2 0x86A8 DUP2 DUP5 PUSH2 0x910E JUMP JUMPDEST POP POP POP POP POP JUMP JUMPDEST PUSH1 0x0 PUSH1 0x2 DUP3 DIV SWAP1 POP PUSH1 0x1 DUP3 AND DUP1 PUSH2 0x86C7 JUMPI PUSH1 0x7F DUP3 AND SWAP2 POP JUMPDEST PUSH1 0x20 DUP3 LT DUP2 EQ ISZERO PUSH2 0x86DB JUMPI PUSH2 0x86DA PUSH2 0x8815 JUMP JUMPDEST JUMPDEST POP SWAP2 SWAP1 POP JUMP JUMPDEST PUSH2 0x86EA DUP3 PUSH2 0x88F4 JUMP JUMPDEST DUP2 ADD DUP2 DUP2 LT PUSH8 0xFFFFFFFFFFFFFFFF DUP3 GT OR ISZERO PUSH2 0x8709 JUMPI PUSH2 0x8708 PUSH2 0x8873 JUMP JUMPDEST JUMPDEST DUP1 PUSH1 0x40 MSTORE POP POP POP JUMP JUMPDEST PUSH1 0x0 PUSH2 0x871D DUP3 PUSH2 0x85AF JUMP JUMPDEST SWAP2 POP PUSH2 0xFFFF DUP3 EQ ISZERO PUSH2 0x8732 JUMPI PUSH2 0x8731 PUSH2 0x87B7 JUMP JUMPDEST JUMPDEST PUSH1 0x1 DUP3 ADD SWAP1 POP SWAP2 SWAP1 POP JUMP JUMPDEST PUSH1 0x0 PUSH2 0x8748 DUP3 PUSH2 0x85DD JUMP JUMPDEST SWAP2 POP PUSH32 0xFFFFFFFFFFFFFFFFFFFFFFFFFFFFFFFFFFFFFFFFFFFFFFFFFFFFFFFFFFFFFFFF DUP3 EQ ISZERO PUSH2 0x877B JUMPI PUSH2 0x877A PUSH2 0x87B7 JUMP JUMPDEST JUMPDEST PUSH1 0x1 DUP3 ADD SWAP1 POP SWAP2 SWAP1 POP JUMP JUMPDEST PUSH1 0x0 PUSH2 0x8791 DUP3 PUSH2 0x85DD JUMP JUMPDEST SWAP2 POP PUSH2 0x879C DUP4 PUSH2 0x85DD JUMP JUMPDEST SWAP3 POP DUP3 PUSH2 0x87AC JUMPI PUSH2 0x87AB PUSH2 0x87E6 JUMP JUMPDEST JUMPDEST DUP3 DUP3 MOD SWAP1 POP SWAP3 SWAP2 POP POP JUMP JUMPDEST PUSH32 0x4E487B7100000000000000000000000000000000000000000000000000000000 PUSH1 0x0 MSTORE PUSH1 0x11 PUSH1 0x4 MSTORE PUSH1 0x24 PUSH1 0x0 REVERT JUMPDEST PUSH32 0x4E487B7100000000000000000000000000000000000000000000000000000000 PUSH1 0x0 MSTORE PUSH1 0x12 PUSH1 0x4 MSTORE PUSH1 0x24 PUSH1 0x0 REVERT JUMPDEST PUSH32 0x4E487B7100000000000000000000000000000000000000000000000000000000 PUSH1 0x0 MSTORE PUSH1 0x22 PUSH1 0x4 MSTORE PUSH1 0x24 PUSH1 0x0 REVERT JUMPDEST PUSH32 0x4E487B7100000000000000000000000000000000000000000000000000000000 PUSH1 0x0 MSTORE PUSH1 0x32 PUSH1 0x4 MSTORE PUSH1 0x24 PUSH1 0x0 REVERT JUMPDEST PUSH32 0x4E487B7100000000000000000000000000000000000000000000000000000000 PUSH1 0x0 MSTORE PUSH1 0x41 PUSH1 0x4 MSTORE PUSH1 0x24 PUSH1 0x0 REVERT JUMPDEST PUSH1 0x0 DUP2 SWAP1 POP SWAP2 SWAP1 POP JUMP JUMPDEST PUSH1 0x0 DUP2 CALLDATALOAD PUSH2 0x88B9 DUP2 PUSH2 0x918D JUMP JUMPDEST DUP1 SWAP2 POP POP SWAP2 SWAP1 POP JUMP JUMPDEST PUSH1 0x0 DUP1 REVERT JUMPDEST PUSH1 0x0 DUP1 REVERT JUMPDEST PUSH1 0x0 DUP1 REVERT JUMPDEST PUSH1 0x0 DUP1 REVERT JUMPDEST PUSH1 0x0 DUP1 REVERT JUMPDEST PUSH1 0x0 DUP1 REVERT JUMPDEST PUSH1 0x0 DUP1 REVERT JUMPDEST PUSH1 0x0 DUP1 REVERT JUMPDEST PUSH1 0x0 DUP1 REVERT JUMPDEST PUSH1 0x0 DUP1 REVERT JUMPDEST PUSH1 0x0 PUSH1 0x1F NOT PUSH1 0x1F DUP4 ADD AND SWAP1 POP SWAP2 SWAP1 POP JUMP JUMPDEST PUSH1 0x0 DUP2 PUSH1 0x0 SHL SWAP1 POP SWAP2 SWAP1 POP JUMP JUMPDEST PUSH32 0x6E6F7420736574206D617820737570706C790000000000000000000000000000 PUSH1 0x0 DUP3 ADD MSTORE POP JUMP JUMPDEST PUSH32 0x61697264726F7020616D6F756E74206973207A65726F00000000000000000000 PUSH1 0x0 DUP3 ADD MSTORE POP JUMP JUMPDEST PUSH32 0x5061757361626C653A206E6F7420706175736564000000000000000000000000 PUSH1 0x0 DUP3 ADD MSTORE POP JUMP JUMPDEST PUSH32 0x746F6B656E207472616E73666572207061757365640000000000000000000000 PUSH1 0x0 DUP3 ADD MSTORE POP JUMP JUMPDEST PUSH32 0x4F776E61626C653A206E6577206F776E657220697320746865207A65726F2061 PUSH1 0x0 DUP3 ADD MSTORE PUSH32 0x6464726573730000000000000000000000000000000000000000000000000000 PUSH1 0x20 DUP3 ADD MSTORE POP JUMP JUMPDEST PUSH32 0x636F6E7472616374207365616C65640000000000000000000000000000000000 PUSH1 0x0 DUP3 ADD MSTORE POP JUMP JUMPDEST PUSH32 0x746865206C656E677468206F66204C697374696E67204C6576656C2069732064 PUSH1 0x0 DUP3 ADD MSTORE PUSH32 0x6966666572656E742066726F6D2074686174206F66204C697374696E67205552 PUSH1 0x20 DUP3 ADD MSTORE PUSH32 0x4900000000000000000000000000000000000000000000000000000000000000 PUSH1 0x40 DUP3 ADD MSTORE POP JUMP JUMPDEST PUSH32 0x61697264726F7020697320616C726561647920636F6D6D697474656400000000 PUSH1 0x0 DUP3 ADD MSTORE POP JUMP JUMPDEST PUSH32 0x72616973696E67206973206E6F7420616C6C6F77656400000000000000000000 PUSH1 0x0 DUP3 ADD MSTORE POP JUMP JUMPDEST PUSH32 0x6F6E6C792073616C65204E46542063616E20626520726566756E646564000000 PUSH1 0x0 DUP3 ADD MSTORE POP JUMP JUMPDEST PUSH32 0x61697264726F7020697320616C726561647920636F6D6D69747465642C20706C PUSH1 0x0 DUP3 ADD MSTORE PUSH32 0x656173652072657365742061697264726F70206C697374000000000000000000 PUSH1 0x20 DUP3 ADD MSTORE POP JUMP JUMPDEST PUSH32 0x746F6B656E206973206E6F742065786973740000000000000000000000000000 PUSH1 0x0 DUP3 ADD MSTORE POP JUMP JUMPDEST PUSH32 0x717565727920666F72206E6F6E6578697374656E7420746F6B656E0000000000 PUSH1 0x0 DUP3 ADD MSTORE POP JUMP JUMPDEST PUSH32 0x6D617962652061697264726F70206C697374206973206E6F7420636F6D6D6974 PUSH1 0x0 DUP3 ADD MSTORE PUSH32 0x7465642C206D617962652061697264726F7020697320616C726561647920636F PUSH1 0x20 DUP3 ADD MSTORE PUSH32 0x6D706C6574656400000000000000000000000000000000000000000000000000 PUSH1 0x40 DUP3 ADD MSTORE POP JUMP JUMPDEST PUSH32 0x646966666572656E742066726F6D206D6178537570706C790000000000000000 PUSH1 0x0 DUP3 ADD MSTORE POP JUMP JUMPDEST PUSH32 0x6F7574736964652074686520726566756E6461626C6520706572696F64000000 PUSH1 0x0 DUP3 ADD MSTORE POP JUMP JUMPDEST PUSH32 0x5061757361626C653A2070617573656400000000000000000000000000000000 PUSH1 0x0 DUP3 ADD MSTORE POP JUMP JUMPDEST PUSH32 0x63616C6C6572206973206E6F74206F776E657200000000000000000000000000 PUSH1 0x0 DUP3 ADD MSTORE POP JUMP JUMPDEST PUSH32 0x6F70657261746520666F72206E6F6E6578697374656E7420746F6B656E000000 PUSH1 0x0 DUP3 ADD MSTORE POP JUMP JUMPDEST PUSH32 0x63616C6C657220697320616E6F7468657220636F6E7472616374000000000000 PUSH1 0x0 DUP3 ADD MSTORE POP JUMP JUMPDEST PUSH32 0x6E6F7420617574686F72697A6564000000000000000000000000000000000000 PUSH1 0x0 DUP3 ADD MSTORE POP JUMP JUMPDEST PUSH32 0x746F6B656E2069732072616973696E6700000000000000000000000000000000 PUSH1 0x0 DUP3 ADD MSTORE POP JUMP JUMPDEST PUSH32 0x4F776E61626C653A2063616C6C6572206973206E6F7420746865206F776E6572 PUSH1 0x0 DUP3 ADD MSTORE POP JUMP JUMPDEST PUSH32 0x6D696E746564206E756D626572206973206F7574206F66206D6178537570706C PUSH1 0x0 DUP3 ADD MSTORE PUSH32 0x7900000000000000000000000000000000000000000000000000000000000000 PUSH1 0x20 DUP3 ADD MSTORE POP JUMP JUMPDEST PUSH32 0x6E6F2061697264726F702C206D61796265000000000000000000000000000000 PUSH1 0x0 DUP3 ADD MSTORE POP JUMP JUMPDEST PUSH32 0x696E73756666696369656E7420636F6E74726163742066756E64730000000000 PUSH1 0x0 DUP3 ADD MSTORE POP JUMP JUMPDEST PUSH32 0x746865206C656E677468206F66204C697374696E6720546F6B656E2069732064 PUSH1 0x0 DUP3 ADD MSTORE PUSH32 0x6966666572656E742066726F6D2074686174206F66204C697374696E67204C65 PUSH1 0x20 DUP3 ADD MSTORE PUSH32 0x76656C0000000000000000000000000000000000000000000000000000000000 PUSH1 0x40 DUP3 ADD MSTORE POP JUMP JUMPDEST PUSH32 0x746865206E756D626572206F662061697264726F707320646964206E6F742072 PUSH1 0x0 DUP3 ADD MSTORE PUSH32 0x6561636820746865206D6178537570706C790000000000000000000000000000 PUSH1 0x20 DUP3 ADD MSTORE POP JUMP JUMPDEST PUSH32 0x53746F636B206163636F756E7420726566756E647320617265206E6F7420616C PUSH1 0x0 DUP3 ADD MSTORE PUSH32 0x6C6F776564000000000000000000000000000000000000000000000000000000 PUSH1 0x20 DUP3 ADD MSTORE POP JUMP JUMPDEST PUSH32 0x746865206C656E677468206F66204C697374696E672052656365697665722069 PUSH1 0x0 DUP3 ADD MSTORE PUSH32 0x7320646966666572656E742066726F6D2074686174206F66204C697374696E67 PUSH1 0x20 DUP3 ADD MSTORE PUSH32 0x20416D6F756E7473000000000000000000000000000000000000000000000000 PUSH1 0x40 DUP3 ADD MSTORE POP JUMP JUMPDEST PUSH32 0x6E6F7420666F756E64206974656D7320746F2061697264726F702C206D617962 PUSH1 0x0 DUP3 ADD MSTORE PUSH32 0x652061697264726F7020697320616C726561647920636F6D706C657465640000 PUSH1 0x20 DUP3 ADD MSTORE POP JUMP JUMPDEST PUSH32 0x5265656E7472616E637947756172643A207265656E7472616E742063616C6C00 PUSH1 0x0 DUP3 ADD MSTORE POP JUMP JUMPDEST PUSH32 0x7472616E73666572207768696C652072616973696E67206973206E6F7420656E PUSH1 0x0 DUP3 ADD MSTORE PUSH32 0x61626C6564000000000000000000000000000000000000000000000000000000 PUSH1 0x20 DUP3 ADD MSTORE POP JUMP JUMPDEST PUSH32 0x6E6F7420746F6B656E206F776E65720000000000000000000000000000000000 PUSH1 0x0 DUP3 ADD MSTORE POP JUMP JUMPDEST PUSH1 0x0 PUSH32 0xFFFFFFFFFFFFFFFFFFFFFFFFFFFFFFFFFFFFFFFFFFFFFFFFFFFFFFFFFFFFFFFF PUSH2 0x90EA DUP5 PUSH2 0x8905 JUMP JUMPDEST SWAP4 POP DUP1 NOT DUP4 AND SWAP3 POP DUP1 DUP5 AND DUP4 OR SWAP2 POP POP SWAP3 SWAP2 POP POP JUMP JUMPDEST PUSH2 0x910A DUP3 DUP3 PUSH2 0x8648 JUMP JUMPDEST POP POP JUMP JUMPDEST PUSH2 0x9117 DUP3 PUSH2 0x85F4 JUMP JUMPDEST PUSH2 0x912A PUSH2 0x9123 DUP3 PUSH2 0x88A2 JUMP JUMPDEST DUP4 SLOAD PUSH2 0x90BE JUMP JUMPDEST DUP3 SSTORE POP POP POP JUMP JUMPDEST PUSH2 0x913A DUP2 PUSH2 0x8565 JUMP JUMPDEST DUP2 EQ PUSH2 0x9145 JUMPI PUSH1 0x0 DUP1 REVERT JUMPDEST POP JUMP JUMPDEST PUSH2 0x9151 DUP2 PUSH2 0x8577 JUMP JUMPDEST DUP2 EQ PUSH2 0x915C JUMPI PUSH1 0x0 DUP1 REVERT JUMPDEST POP JUMP JUMPDEST PUSH2 0x9168 DUP2 PUSH2 0x8583 JUMP JUMPDEST DUP2 EQ PUSH2 0x9173 JUMPI PUSH1 0x0 DUP1 REVERT JUMPDEST POP JUMP JUMPDEST PUSH2 0x917F DUP2 PUSH2 0x85AF JUMP JUMPDEST DUP2 EQ PUSH2 0x918A JUMPI PUSH1 0x0 DUP1 REVERT JUMPDEST POP JUMP JUMPDEST PUSH2 0x9196 DUP2 PUSH2 0x85DD JUMP JUMPDEST DUP2 EQ PUSH2 0x91A1 JUMPI PUSH1 0x0 DUP1 REVERT JUMPDEST POP JUMP JUMPDEST PUSH2 0x91AD DUP2 PUSH2 0x85E7 JUMP JUMPDEST DUP2 EQ PUSH2 0x91B8 JUMPI PUSH1 0x0 DUP1 REVERT JUMPDEST POP JUMP INVALID LOG2 PUSH5 0x6970667358 0x22 SLT KECCAK256 0x23 0xEA 0xCB SWAP3 SWAP11 TIMESTAMP 0xD2 0xD1 ADDRESS COINBASE 0x29 CALLDATASIZE CHAINID 0xF7 SWAP11 PUSH3 0xEC4A16 0xC8 SWAP15 0xDD REVERT PUSH5 0x2AAC9B235 SUB 0x21 EQ PUSH5 0x736F6C6343 STOP ADDMOD MOD STOP CALLER "
		},
		"gasEstimates": {
			"creation": {
				"codeDepositCost": "7472200",
				"executionCost": "infinite",
				"totalCost": "infinite"
			},
			"external": {
				"CONTRACT_SHIELD()": "439",
				"MAINTAINER()": "491",
				"MANAGER()": "448",
				"MAX_SUPPLY()": "464",
				"NO_PERMISSION()": "403",
				"OPERATOR()": "468",
				"addAirdropList(address[],uint16[])": "infinite",
				"airdrop(uint16)": "infinite",
				"airdropStep()": "2584",
				"airdropSupply()": "2583",
				"amounts(uint256)": "6705",
				"approve(address,uint256)": "infinite",
				"balanceOf(address)": "2975",
				"burn(uint256[])": "infinite",
				"commitAirdrop()": "infinite",
				"commitAirdropList()": "infinite",
				"contractSealed()": "2539",
				"deposit()": "infinite",
				"emergencyPause()": "infinite",
				"exists(uint256)": "infinite",
				"getApproved(uint256)": "7451",
				"getPermission(address)": "3039",
				"getPermissions()": "infinite",
				"getTokenRaisingStatus(uint256)": "infinite",
				"interruptTokenRaising(uint256[])": "infinite",
				"isApprovedForAll(address,address)": "infinite",
				"isRaisingAllowed()": "2663",
				"isRaisingTransferAllowed()": "2640",
				"isRefundEnabled()": "4702",
				"maxAirdropSupply()": "2496",
				"name()": "infinite",
				"owner()": "2658",
				"ownerOf(uint256)": "infinite",
				"ownersOf(uint256[])": "infinite",
				"paused()": "2612",
				"receivers(uint256)": "5023",
				"refund(uint256)": "infinite",
				"refundAddress()": "2605",
				"refundConfig()": "infinite",
				"renounceOwnership()": "30630",
				"resetAirdropList()": "infinite",
				"safeTransferFrom(address,address,uint256)": "infinite",
				"safeTransferFrom(address,address,uint256,bytes)": "infinite",
				"safeTransferWhileRaising(address,address,uint256)": "infinite",
				"sealContract()": "27588",
				"setApprovalForAll(address,bool)": "infinite",
				"setBaseURI(string)": "infinite",
				"setIsRaisingAllowed(bool)": "infinite",
				"setIsRaisingTransferAllowed(bool)": "infinite",
				"setLevelsBaseURI(uint256[],string[])": "infinite",
				"setMaxSupply(uint256)": "54129",
				"setPermission(address,uint8)": "infinite",
				"setRefundAddress(address)": "27144",
				"setRefundConfig((uint256,uint256,uint256))": "infinite",
				"setTokenURI(uint256,string)": "infinite",
				"setTokensLevel(uint256[],uint256[])": "infinite",
				"startTokenRaising(uint256[])": "infinite",
				"stopTokenRaising(uint256[])": "infinite",
				"supportsInterface(bytes4)": "880",
				"symbol()": "infinite",
				"tokenByIndex(uint256)": "infinite",
				"tokenOfOwnerByIndex(address,uint256)": "infinite",
				"tokenURI(uint256)": "infinite",
				"tokensOfOwner(address)": "infinite",
				"totalBurned()": "2627",
				"totalSupply()": "4745",
				"transferFrom(address,address,uint256)": "infinite",
				"transferOwnership(address)": "30955",
				"unpause()": "infinite",
				"unsafeOwnerOf(uint256)": "infinite",
				"withdraw()": "infinite"
			},
			"internal": {
				"_beforeTokenTransfers(address,address,uint256,uint256)": "infinite",
				"_refundPrice(uint256)": "2134",
				"_safeMintToReceiver(address,uint16)": "infinite"
			}
		},
		"methodIdentifiers": {
			"CONTRACT_SHIELD()": "f37e20ba",
			"MAINTAINER()": "2aabb726",
			"MANAGER()": "1b2df850",
			"MAX_SUPPLY()": "32cb6b0c",
			"NO_PERMISSION()": "1d63ff2b",
			"OPERATOR()": "983d2737",
			"addAirdropList(address[],uint16[])": "4c85011a",
			"airdrop(uint16)": "2ec79ad5",
			"airdropStep()": "14b99aee",
			"airdropSupply()": "fb3ed5c7",
			"amounts(uint256)": "45f0a44f",
			"approve(address,uint256)": "095ea7b3",
			"balanceOf(address)": "70a08231",
			"burn(uint256[])": "b80f55c9",
			"commitAirdrop()": "b9b9731f",
			"commitAirdropList()": "71936c41",
			"contractSealed()": "b6501637",
			"deposit()": "d0e30db0",
			"emergencyPause()": "51858e27",
			"exists(uint256)": "4f558e79",
			"getApproved(uint256)": "081812fc",
			"getPermission(address)": "83c1cd8a",
			"getPermissions()": "c3a07df6",
			"getTokenRaisingStatus(uint256)": "617df38f",
			"interruptTokenRaising(uint256[])": "f68dc5de",
			"isApprovedForAll(address,address)": "e985e9c5",
			"isRaisingAllowed()": "27ee47c7",
			"isRaisingTransferAllowed()": "e697188f",
			"isRefundEnabled()": "8746475a",
			"maxAirdropSupply()": "8b93b0f5",
			"name()": "06fdde03",
			"owner()": "8da5cb5b",
			"ownerOf(uint256)": "6352211e",
			"ownersOf(uint256[])": "5ff2f2e8",
			"paused()": "5c975abb",
			"receivers(uint256)": "bfd772fc",
			"refund(uint256)": "278ecde1",
			"refundAddress()": "0cb61f6c",
			"refundConfig()": "2e1dfd10",
			"renounceOwnership()": "715018a6",
			"resetAirdropList()": "6d61358e",
			"safeTransferFrom(address,address,uint256)": "42842e0e",
			"safeTransferFrom(address,address,uint256,bytes)": "b88d4fde",
			"safeTransferWhileRaising(address,address,uint256)": "0282938e",
			"sealContract()": "68bd580e",
			"setApprovalForAll(address,bool)": "a22cb465",
			"setBaseURI(string)": "55f804b3",
			"setIsRaisingAllowed(bool)": "8592f0e3",
			"setIsRaisingTransferAllowed(bool)": "46979dab",
			"setLevelsBaseURI(uint256[],string[])": "401135e6",
			"setMaxSupply(uint256)": "6f8b44b0",
			"setPermission(address,uint8)": "dd5ddfe8",
			"setRefundAddress(address)": "15b75bea",
			"setRefundConfig((uint256,uint256,uint256))": "ef11e905",
			"setTokenURI(uint256,string)": "162094c4",
			"setTokensLevel(uint256[],uint256[])": "df13b8a7",
			"startTokenRaising(uint256[])": "1b7f0f9f",
			"stopTokenRaising(uint256[])": "8afd0da8",
			"supportsInterface(bytes4)": "01ffc9a7",
			"symbol()": "95d89b41",
			"tokenByIndex(uint256)": "4f6ccce7",
			"tokenOfOwnerByIndex(address,uint256)": "2f745c59",
			"tokenURI(uint256)": "c87b56dd",
			"tokensOfOwner(address)": "8462151c",
			"totalBurned()": "d89135cd",
			"totalSupply()": "18160ddd",
			"transferFrom(address,address,uint256)": "23b872dd",
			"transferOwnership(address)": "f2fde38b",
			"unpause()": "3f4ba83a",
			"unsafeOwnerOf(uint256)": "4777a597",
			"withdraw()": "3ccfd60b"
		}
	},
	"abi": [
		{
			"inputs": [],
			"stateMutability": "nonpayable",
			"type": "constructor"
		},
		{
			"inputs": [],
			"name": "ApprovalCallerNotOwnerNorApproved",
			"type": "error"
		},
		{
			"inputs": [],
			"name": "ApprovalQueryForNonexistentToken",
			"type": "error"
		},
		{
			"inputs": [],
			"name": "ApprovalToCurrentOwner",
			"type": "error"
		},
		{
			"inputs": [],
			"name": "ApproveToCaller",
			"type": "error"
		},
		{
			"inputs": [],
			"name": "BalanceQueryForZeroAddress",
			"type": "error"
		},
		{
			"inputs": [],
			"name": "MintToZeroAddress",
			"type": "error"
		},
		{
			"inputs": [],
			"name": "MintZeroQuantity",
			"type": "error"
		},
		{
			"inputs": [],
			"name": "OwnerQueryForNonexistentToken",
			"type": "error"
		},
		{
			"inputs": [],
			"name": "TransferCallerNotOwnerNorApproved",
			"type": "error"
		},
		{
			"inputs": [],
			"name": "TransferFromIncorrectOwner",
			"type": "error"
		},
		{
			"inputs": [],
			"name": "TransferToNonERC721ReceiverImplementer",
			"type": "error"
		},
		{
			"inputs": [],
			"name": "TransferToZeroAddress",
			"type": "error"
		},
		{
			"inputs": [],
			"name": "URIQueryForNonexistentToken",
			"type": "error"
		},
		{
			"anonymous": false,
			"inputs": [
				{
					"indexed": true,
					"internalType": "address",
					"name": "owner",
					"type": "address"
				},
				{
					"indexed": true,
					"internalType": "address",
					"name": "approved",
					"type": "address"
				},
				{
					"indexed": true,
					"internalType": "uint256",
					"name": "tokenId",
					"type": "uint256"
				}
			],
			"name": "Approval",
			"type": "event"
		},
		{
			"anonymous": false,
			"inputs": [
				{
					"indexed": true,
					"internalType": "address",
					"name": "owner",
					"type": "address"
				},
				{
					"indexed": true,
					"internalType": "address",
					"name": "operator",
					"type": "address"
				},
				{
					"indexed": false,
					"internalType": "bool",
					"name": "approved",
					"type": "bool"
				}
			],
			"name": "ApprovalForAll",
			"type": "event"
		},
		{
			"anonymous": false,
			"inputs": [
				{
					"indexed": false,
					"internalType": "string",
					"name": "uri",
					"type": "string"
				}
			],
			"name": "BaseURIChanged",
			"type": "event"
		},
		{
			"anonymous": false,
			"inputs": [],
			"name": "ContractParsed",
			"type": "event"
		},
		{
			"anonymous": false,
			"inputs": [],
			"name": "ContractSealed",
			"type": "event"
		},
		{
			"anonymous": false,
			"inputs": [],
			"name": "ContractUnparsed",
			"type": "event"
		},
		{
			"anonymous": false,
			"inputs": [
				{
					"indexed": true,
					"internalType": "address",
					"name": "account",
					"type": "address"
				},
				{
					"indexed": false,
					"internalType": "uint256",
					"name": "amount",
					"type": "uint256"
				}
			],
			"name": "Deposit",
			"type": "event"
		},
		{
			"anonymous": false,
			"inputs": [
				{
					"indexed": true,
					"internalType": "address",
					"name": "previousOwner",
					"type": "address"
				},
				{
					"indexed": true,
					"internalType": "address",
					"name": "newOwner",
					"type": "address"
				}
			],
			"name": "OwnershipTransferred",
			"type": "event"
		},
		{
			"anonymous": false,
			"inputs": [
				{
					"indexed": false,
					"internalType": "address",
					"name": "account",
					"type": "address"
				}
			],
			"name": "Paused",
			"type": "event"
		},
		{
			"anonymous": false,
			"inputs": [
				{
					"indexed": true,
					"internalType": "address",
					"name": "addr",
					"type": "address"
				},
				{
					"indexed": false,
					"internalType": "uint8",
					"name": "permission",
					"type": "uint8"
				}
			],
			"name": "PermissionChanged",
			"type": "event"
		},
		{
			"anonymous": false,
			"inputs": [
				{
					"indexed": false,
					"internalType": "bool",
					"name": "isRaisingAllowed",
					"type": "bool"
				}
			],
			"name": "RaisingAllowedFlagChanged",
			"type": "event"
		},
		{
			"anonymous": false,
			"inputs": [
				{
					"indexed": true,
					"internalType": "uint256",
					"name": "tokenId",
					"type": "uint256"
				}
			],
			"name": "RaisingInterrupted",
			"type": "event"
		},
		{
			"anonymous": false,
			"inputs": [
				{
					"indexed": true,
					"internalType": "uint256",
					"name": "tokenId",
					"type": "uint256"
				},
				{
					"indexed": true,
					"internalType": "address",
					"name": "account",
					"type": "address"
				}
			],
			"name": "RaisingStarted",
			"type": "event"
		},
		{
			"anonymous": false,
			"inputs": [
				{
					"indexed": true,
					"internalType": "uint256",
					"name": "tokenId",
					"type": "uint256"
				},
				{
					"indexed": true,
					"internalType": "address",
					"name": "account",
					"type": "address"
				}
			],
			"name": "RaisingStopped",
			"type": "event"
		},
		{
			"anonymous": false,
			"inputs": [
				{
					"indexed": true,
					"internalType": "address",
					"name": "from",
					"type": "address"
				},
				{
					"indexed": true,
					"internalType": "address",
					"name": "to",
					"type": "address"
				},
				{
					"indexed": true,
					"internalType": "uint256",
					"name": "tokenId",
					"type": "uint256"
				}
			],
			"name": "RaisingTokenTransfered",
			"type": "event"
		},
		{
			"anonymous": false,
			"inputs": [
				{
					"indexed": false,
					"internalType": "bool",
					"name": "isRaisingTransferAllowed",
					"type": "bool"
				}
			],
			"name": "RaisingTransferAllowedFlagChanged",
			"type": "event"
		},
		{
			"anonymous": false,
			"inputs": [
				{
					"indexed": true,
					"internalType": "address",
					"name": "from",
					"type": "address"
				},
				{
					"indexed": true,
					"internalType": "address",
					"name": "to",
					"type": "address"
				},
				{
					"indexed": false,
					"internalType": "uint256",
					"name": "tokenId",
					"type": "uint256"
				},
				{
					"indexed": false,
					"internalType": "uint256",
					"name": "amount",
					"type": "uint256"
				}
			],
			"name": "Refunded",
			"type": "event"
		},
		{
			"anonymous": false,
			"inputs": [
				{
					"indexed": false,
					"internalType": "uint256",
					"name": "tokenId",
					"type": "uint256"
				},
				{
					"indexed": false,
					"internalType": "string",
					"name": "uri",
					"type": "string"
				}
			],
			"name": "TokenURIChanged",
			"type": "event"
		},
		{
			"anonymous": false,
			"inputs": [
				{
					"indexed": true,
					"internalType": "address",
					"name": "from",
					"type": "address"
				},
				{
					"indexed": true,
					"internalType": "address",
					"name": "to",
					"type": "address"
				},
				{
					"indexed": true,
					"internalType": "uint256",
					"name": "tokenId",
					"type": "uint256"
				}
			],
			"name": "Transfer",
			"type": "event"
		},
		{
			"anonymous": false,
			"inputs": [
				{
					"indexed": false,
					"internalType": "address",
					"name": "account",
					"type": "address"
				}
			],
			"name": "Unpaused",
			"type": "event"
		},
		{
			"anonymous": false,
			"inputs": [
				{
					"indexed": true,
					"internalType": "address",
					"name": "account",
					"type": "address"
				},
				{
					"indexed": false,
					"internalType": "uint256",
					"name": "amount",
					"type": "uint256"
				}
			],
			"name": "Withdraw",
			"type": "event"
		},
		{
			"inputs": [],
			"name": "CONTRACT_SHIELD",
			"outputs": [
				{
					"internalType": "uint256",
					"name": "",
					"type": "uint256"
				}
			],
			"stateMutability": "view",
			"type": "function"
		},
		{
			"inputs": [],
			"name": "MAINTAINER",
			"outputs": [
				{
					"internalType": "uint8",
					"name": "",
					"type": "uint8"
				}
			],
			"stateMutability": "view",
			"type": "function"
		},
		{
			"inputs": [],
			"name": "MANAGER",
			"outputs": [
				{
					"internalType": "uint8",
					"name": "",
					"type": "uint8"
				}
			],
			"stateMutability": "view",
			"type": "function"
		},
		{
			"inputs": [],
			"name": "MAX_SUPPLY",
			"outputs": [
				{
					"internalType": "uint256",
					"name": "",
					"type": "uint256"
				}
			],
			"stateMutability": "view",
			"type": "function"
		},
		{
			"inputs": [],
			"name": "NO_PERMISSION",
			"outputs": [
				{
					"internalType": "uint8",
					"name": "",
					"type": "uint8"
				}
			],
			"stateMutability": "view",
			"type": "function"
		},
		{
			"inputs": [],
			"name": "OPERATOR",
			"outputs": [
				{
					"internalType": "uint8",
					"name": "",
					"type": "uint8"
				}
			],
			"stateMutability": "view",
			"type": "function"
		},
		{
			"inputs": [
				{
					"internalType": "address[]",
					"name": "receivers_",
					"type": "address[]"
				},
				{
					"internalType": "uint16[]",
					"name": "amounts_",
					"type": "uint16[]"
				}
			],
			"name": "addAirdropList",
			"outputs": [],
			"stateMutability": "nonpayable",
			"type": "function"
		},
		{
			"inputs": [
				{
					"internalType": "uint16",
					"name": "amount_",
					"type": "uint16"
				}
			],
			"name": "airdrop",
			"outputs": [],
			"stateMutability": "nonpayable",
			"type": "function"
		},
		{
			"inputs": [],
			"name": "airdropStep",
			"outputs": [
				{
					"internalType": "uint16",
					"name": "",
					"type": "uint16"
				}
			],
			"stateMutability": "view",
			"type": "function"
		},
		{
			"inputs": [],
			"name": "airdropSupply",
			"outputs": [
				{
					"internalType": "uint256",
					"name": "",
					"type": "uint256"
				}
			],
			"stateMutability": "view",
			"type": "function"
		},
		{
			"inputs": [
				{
					"internalType": "uint256",
					"name": "",
					"type": "uint256"
				}
			],
			"name": "amounts",
			"outputs": [
				{
					"internalType": "uint16",
					"name": "",
					"type": "uint16"
				}
			],
			"stateMutability": "view",
			"type": "function"
		},
		{
			"inputs": [
				{
					"internalType": "address",
					"name": "to",
					"type": "address"
				},
				{
					"internalType": "uint256",
					"name": "tokenId",
					"type": "uint256"
				}
			],
			"name": "approve",
			"outputs": [],
			"stateMutability": "nonpayable",
			"type": "function"
		},
		{
			"inputs": [
				{
					"internalType": "address",
					"name": "owner",
					"type": "address"
				}
			],
			"name": "balanceOf",
			"outputs": [
				{
					"internalType": "uint256",
					"name": "",
					"type": "uint256"
				}
			],
			"stateMutability": "view",
			"type": "function"
		},
		{
			"inputs": [
				{
					"internalType": "uint256[]",
					"name": "tokenIds_",
					"type": "uint256[]"
				}
			],
			"name": "burn",
			"outputs": [],
			"stateMutability": "nonpayable",
			"type": "function"
		},
		{
			"inputs": [],
			"name": "commitAirdrop",
			"outputs": [],
			"stateMutability": "nonpayable",
			"type": "function"
		},
		{
			"inputs": [],
			"name": "commitAirdropList",
			"outputs": [],
			"stateMutability": "nonpayable",
			"type": "function"
		},
		{
			"inputs": [],
			"name": "contractSealed",
			"outputs": [
				{
					"internalType": "bool",
					"name": "",
					"type": "bool"
				}
			],
			"stateMutability": "view",
			"type": "function"
		},
		{
			"inputs": [],
			"name": "deposit",
			"outputs": [],
			"stateMutability": "payable",
			"type": "function"
		},
		{
			"inputs": [],
			"name": "emergencyPause",
			"outputs": [],
			"stateMutability": "nonpayable",
			"type": "function"
		},
		{
			"inputs": [
				{
					"internalType": "uint256",
					"name": "tokenId_",
					"type": "uint256"
				}
			],
			"name": "exists",
			"outputs": [
				{
					"internalType": "bool",
					"name": "",
					"type": "bool"
				}
			],
			"stateMutability": "view",
			"type": "function"
		},
		{
			"inputs": [
				{
					"internalType": "uint256",
					"name": "tokenId",
					"type": "uint256"
				}
			],
			"name": "getApproved",
			"outputs": [
				{
					"internalType": "address",
					"name": "",
					"type": "address"
				}
			],
			"stateMutability": "view",
			"type": "function"
		},
		{
			"inputs": [
				{
					"internalType": "address",
					"name": "address_",
					"type": "address"
				}
			],
			"name": "getPermission",
			"outputs": [
				{
					"internalType": "uint8",
					"name": "",
					"type": "uint8"
				}
			],
			"stateMutability": "view",
			"type": "function"
		},
		{
			"inputs": [],
			"name": "getPermissions",
			"outputs": [
				{
					"internalType": "address[]",
					"name": "",
					"type": "address[]"
				},
				{
					"internalType": "uint8[]",
					"name": "",
					"type": "uint8[]"
				}
			],
			"stateMutability": "view",
			"type": "function"
		},
		{
			"inputs": [
				{
					"internalType": "uint256",
					"name": "tokenId_",
					"type": "uint256"
				}
			],
			"name": "getTokenRaisingStatus",
			"outputs": [
				{
					"internalType": "bool",
					"name": "isRaising_",
					"type": "bool"
				},
				{
					"internalType": "uint256",
					"name": "current_",
					"type": "uint256"
				},
				{
					"internalType": "uint256",
					"name": "total_",
					"type": "uint256"
				}
			],
			"stateMutability": "view",
			"type": "function"
		},
		{
			"inputs": [
				{
					"internalType": "uint256[]",
					"name": "tokenIds_",
					"type": "uint256[]"
				}
			],
			"name": "interruptTokenRaising",
			"outputs": [],
			"stateMutability": "nonpayable",
			"type": "function"
		},
		{
			"inputs": [
				{
					"internalType": "address",
					"name": "owner",
					"type": "address"
				},
				{
					"internalType": "address",
					"name": "operator",
					"type": "address"
				}
			],
			"name": "isApprovedForAll",
			"outputs": [
				{
					"internalType": "bool",
					"name": "",
					"type": "bool"
				}
			],
			"stateMutability": "view",
			"type": "function"
		},
		{
			"inputs": [],
			"name": "isRaisingAllowed",
			"outputs": [
				{
					"internalType": "bool",
					"name": "",
					"type": "bool"
				}
			],
			"stateMutability": "view",
			"type": "function"
		},
		{
			"inputs": [],
			"name": "isRaisingTransferAllowed",
			"outputs": [
				{
					"internalType": "bool",
					"name": "",
					"type": "bool"
				}
			],
			"stateMutability": "view",
			"type": "function"
		},
		{
			"inputs": [],
			"name": "isRefundEnabled",
			"outputs": [
				{
					"internalType": "bool",
					"name": "",
					"type": "bool"
				}
			],
			"stateMutability": "view",
			"type": "function"
		},
		{
			"inputs": [],
			"name": "maxAirdropSupply",
			"outputs": [
				{
					"internalType": "uint256",
					"name": "",
					"type": "uint256"
				}
			],
			"stateMutability": "view",
			"type": "function"
		},
		{
			"inputs": [],
			"name": "name",
			"outputs": [
				{
					"internalType": "string",
					"name": "",
					"type": "string"
				}
			],
			"stateMutability": "view",
			"type": "function"
		},
		{
			"inputs": [],
			"name": "owner",
			"outputs": [
				{
					"internalType": "address",
					"name": "",
					"type": "address"
				}
			],
			"stateMutability": "view",
			"type": "function"
		},
		{
			"inputs": [
				{
					"internalType": "uint256",
					"name": "tokenId",
					"type": "uint256"
				}
			],
			"name": "ownerOf",
			"outputs": [
				{
					"internalType": "address",
					"name": "",
					"type": "address"
				}
			],
			"stateMutability": "view",
			"type": "function"
		},
		{
			"inputs": [
				{
					"internalType": "uint256[]",
					"name": "tokenIDs_",
					"type": "uint256[]"
				}
			],
			"name": "ownersOf",
			"outputs": [
				{
					"internalType": "address[]",
					"name": "",
					"type": "address[]"
				}
			],
			"stateMutability": "view",
			"type": "function"
		},
		{
			"inputs": [],
			"name": "paused",
			"outputs": [
				{
					"internalType": "bool",
					"name": "",
					"type": "bool"
				}
			],
			"stateMutability": "view",
			"type": "function"
		},
		{
			"inputs": [
				{
					"internalType": "uint256",
					"name": "",
					"type": "uint256"
				}
			],
			"name": "receivers",
			"outputs": [
				{
					"internalType": "address",
					"name": "",
					"type": "address"
				}
			],
			"stateMutability": "view",
			"type": "function"
		},
		{
			"inputs": [
				{
					"internalType": "uint256",
					"name": "tokenId_",
					"type": "uint256"
				}
			],
			"name": "refund",
			"outputs": [],
			"stateMutability": "nonpayable",
			"type": "function"
		},
		{
			"inputs": [],
			"name": "refundAddress",
			"outputs": [
				{
					"internalType": "address",
					"name": "",
					"type": "address"
				}
			],
			"stateMutability": "view",
			"type": "function"
		},
		{
			"inputs": [],
			"name": "refundConfig",
			"outputs": [
				{
					"internalType": "uint256",
					"name": "startTime",
					"type": "uint256"
				},
				{
					"internalType": "uint256",
					"name": "stopTime",
					"type": "uint256"
				},
				{
					"internalType": "uint256",
					"name": "price",
					"type": "uint256"
				}
			],
			"stateMutability": "view",
			"type": "function"
		},
		{
			"inputs": [],
			"name": "renounceOwnership",
			"outputs": [],
			"stateMutability": "nonpayable",
			"type": "function"
		},
		{
			"inputs": [],
			"name": "resetAirdropList",
			"outputs": [],
			"stateMutability": "nonpayable",
			"type": "function"
		},
		{
			"inputs": [
				{
					"internalType": "address",
					"name": "from",
					"type": "address"
				},
				{
					"internalType": "address",
					"name": "to",
					"type": "address"
				},
				{
					"internalType": "uint256",
					"name": "tokenId",
					"type": "uint256"
				}
			],
			"name": "safeTransferFrom",
			"outputs": [],
			"stateMutability": "nonpayable",
			"type": "function"
		},
		{
			"inputs": [
				{
					"internalType": "address",
					"name": "from",
					"type": "address"
				},
				{
					"internalType": "address",
					"name": "to",
					"type": "address"
				},
				{
					"internalType": "uint256",
					"name": "tokenId",
					"type": "uint256"
				},
				{
					"internalType": "bytes",
					"name": "_data",
					"type": "bytes"
				}
			],
			"name": "safeTransferFrom",
			"outputs": [],
			"stateMutability": "nonpayable",
			"type": "function"
		},
		{
			"inputs": [
				{
					"internalType": "address",
					"name": "from_",
					"type": "address"
				},
				{
					"internalType": "address",
					"name": "to_",
					"type": "address"
				},
				{
					"internalType": "uint256",
					"name": "tokenId_",
					"type": "uint256"
				}
			],
			"name": "safeTransferWhileRaising",
			"outputs": [],
			"stateMutability": "nonpayable",
			"type": "function"
		},
		{
			"inputs": [],
			"name": "sealContract",
			"outputs": [],
			"stateMutability": "nonpayable",
			"type": "function"
		},
		{
			"inputs": [
				{
					"internalType": "address",
					"name": "operator",
					"type": "address"
				},
				{
					"internalType": "bool",
					"name": "approved",
					"type": "bool"
				}
			],
			"name": "setApprovalForAll",
			"outputs": [],
			"stateMutability": "nonpayable",
			"type": "function"
		},
		{
			"inputs": [
				{
					"internalType": "string",
					"name": "uri_",
					"type": "string"
				}
			],
			"name": "setBaseURI",
			"outputs": [],
			"stateMutability": "nonpayable",
			"type": "function"
		},
		{
			"inputs": [
				{
					"internalType": "bool",
					"name": "isRaisingAllowed_",
					"type": "bool"
				}
			],
			"name": "setIsRaisingAllowed",
			"outputs": [],
			"stateMutability": "nonpayable",
			"type": "function"
		},
		{
			"inputs": [
				{
					"internalType": "bool",
					"name": "isRaisingTransferAllowed_",
					"type": "bool"
				}
			],
			"name": "setIsRaisingTransferAllowed",
			"outputs": [],
			"stateMutability": "nonpayable",
			"type": "function"
		},
		{
			"inputs": [
				{
					"internalType": "uint256[]",
					"name": "levels_",
					"type": "uint256[]"
				},
				{
					"internalType": "string[]",
					"name": "uris_",
					"type": "string[]"
				}
			],
			"name": "setLevelsBaseURI",
			"outputs": [],
			"stateMutability": "nonpayable",
			"type": "function"
		},
		{
			"inputs": [
				{
					"internalType": "uint256",
					"name": "maxSupply_",
					"type": "uint256"
				}
			],
			"name": "setMaxSupply",
			"outputs": [],
			"stateMutability": "nonpayable",
			"type": "function"
		},
		{
			"inputs": [
				{
					"internalType": "address",
					"name": "address_",
					"type": "address"
				},
				{
					"internalType": "uint8",
					"name": "permission_",
					"type": "uint8"
				}
			],
			"name": "setPermission",
			"outputs": [],
			"stateMutability": "nonpayable",
			"type": "function"
		},
		{
			"inputs": [
				{
					"internalType": "address",
					"name": "refundAddress_",
					"type": "address"
				}
			],
			"name": "setRefundAddress",
			"outputs": [],
			"stateMutability": "nonpayable",
			"type": "function"
		},
		{
			"inputs": [
				{
					"components": [
						{
							"internalType": "uint256",
							"name": "startTime",
							"type": "uint256"
						},
						{
							"internalType": "uint256",
							"name": "stopTime",
							"type": "uint256"
						},
						{
							"internalType": "uint256",
							"name": "price",
							"type": "uint256"
						}
					],
					"internalType": "struct HootBaseERC721Refund.RefundConfig",
					"name": "cfg_",
					"type": "tuple"
				}
			],
			"name": "setRefundConfig",
			"outputs": [],
			"stateMutability": "nonpayable",
			"type": "function"
		},
		{
			"inputs": [
				{
					"internalType": "uint256",
					"name": "tokenId_",
					"type": "uint256"
				},
				{
					"internalType": "string",
					"name": "tokenURI_",
					"type": "string"
				}
			],
			"name": "setTokenURI",
			"outputs": [],
			"stateMutability": "nonpayable",
			"type": "function"
		},
		{
			"inputs": [
				{
					"internalType": "uint256[]",
					"name": "tokens_",
					"type": "uint256[]"
				},
				{
					"internalType": "uint256[]",
					"name": "levels_",
					"type": "uint256[]"
				}
			],
			"name": "setTokensLevel",
			"outputs": [],
			"stateMutability": "nonpayable",
			"type": "function"
		},
		{
			"inputs": [
				{
					"internalType": "uint256[]",
					"name": "tokenIds_",
					"type": "uint256[]"
				}
			],
			"name": "startTokenRaising",
			"outputs": [],
			"stateMutability": "nonpayable",
			"type": "function"
		},
		{
			"inputs": [
				{
					"internalType": "uint256[]",
					"name": "tokenIds_",
					"type": "uint256[]"
				}
			],
			"name": "stopTokenRaising",
			"outputs": [],
			"stateMutability": "nonpayable",
			"type": "function"
		},
		{
			"inputs": [
				{
					"internalType": "bytes4",
					"name": "interfaceId",
					"type": "bytes4"
				}
			],
			"name": "supportsInterface",
			"outputs": [
				{
					"internalType": "bool",
					"name": "",
					"type": "bool"
				}
			],
			"stateMutability": "view",
			"type": "function"
		},
		{
			"inputs": [],
			"name": "symbol",
			"outputs": [
				{
					"internalType": "string",
					"name": "",
					"type": "string"
				}
			],
			"stateMutability": "view",
			"type": "function"
		},
		{
			"inputs": [
				{
					"internalType": "uint256",
					"name": "index",
					"type": "uint256"
				}
			],
			"name": "tokenByIndex",
			"outputs": [
				{
					"internalType": "uint256",
					"name": "",
					"type": "uint256"
				}
			],
			"stateMutability": "view",
			"type": "function"
		},
		{
			"inputs": [
				{
					"internalType": "address",
					"name": "owner",
					"type": "address"
				},
				{
					"internalType": "uint256",
					"name": "index",
					"type": "uint256"
				}
			],
			"name": "tokenOfOwnerByIndex",
			"outputs": [
				{
					"internalType": "uint256",
					"name": "",
					"type": "uint256"
				}
			],
			"stateMutability": "view",
			"type": "function"
		},
		{
			"inputs": [
				{
					"internalType": "uint256",
					"name": "tokenId_",
					"type": "uint256"
				}
			],
			"name": "tokenURI",
			"outputs": [
				{
					"internalType": "string",
					"name": "",
					"type": "string"
				}
			],
			"stateMutability": "view",
			"type": "function"
		},
		{
			"inputs": [
				{
					"internalType": "address",
					"name": "owner_",
					"type": "address"
				}
			],
			"name": "tokensOfOwner",
			"outputs": [
				{
					"internalType": "uint256[]",
					"name": "",
					"type": "uint256[]"
				}
			],
			"stateMutability": "view",
			"type": "function"
		},
		{
			"inputs": [],
			"name": "totalBurned",
			"outputs": [
				{
					"internalType": "uint256",
					"name": "",
					"type": "uint256"
				}
			],
			"stateMutability": "view",
			"type": "function"
		},
		{
			"inputs": [],
			"name": "totalSupply",
			"outputs": [
				{
					"internalType": "uint256",
					"name": "",
					"type": "uint256"
				}
			],
			"stateMutability": "view",
			"type": "function"
		},
		{
			"inputs": [
				{
					"internalType": "address",
					"name": "from",
					"type": "address"
				},
				{
					"internalType": "address",
					"name": "to",
					"type": "address"
				},
				{
					"internalType": "uint256",
					"name": "tokenId",
					"type": "uint256"
				}
			],
			"name": "transferFrom",
			"outputs": [],
			"stateMutability": "nonpayable",
			"type": "function"
		},
		{
			"inputs": [
				{
					"internalType": "address",
					"name": "newOwner",
					"type": "address"
				}
			],
			"name": "transferOwnership",
			"outputs": [],
			"stateMutability": "nonpayable",
			"type": "function"
		},
		{
			"inputs": [],
			"name": "unpause",
			"outputs": [],
			"stateMutability": "nonpayable",
			"type": "function"
		},
		{
			"inputs": [
				{
					"internalType": "uint256",
					"name": "tokenId",
					"type": "uint256"
				}
			],
			"name": "unsafeOwnerOf",
			"outputs": [
				{
					"internalType": "address",
					"name": "",
					"type": "address"
				}
			],
			"stateMutability": "view",
			"type": "function"
		},
		{
			"inputs": [],
			"name": "withdraw",
			"outputs": [],
			"stateMutability": "nonpayable",
			"type": "function"
		}
	]
}